{
	"contractName": "Get",
	"abi": [
		{
			"constant": true,
			"inputs": [
				{
					"internalType": "address",
					"name": "",
					"type": "address"
				}
			],
			"name": "allowedAddress",
			"outputs": [
				{
					"internalType": "bool",
					"name": "",
					"type": "bool"
				}
			],
			"payable": false,
			"stateMutability": "view",
			"type": "function"
		},
		{
			"constant": true,
			"inputs": [
				{
					"internalType": "address",
					"name": "",
					"type": "address"
				}
			],
			"name": "balanceOf",
			"outputs": [
				{
					"internalType": "uint256",
					"name": "",
					"type": "uint256"
				}
			],
			"payable": false,
			"stateMutability": "view",
			"type": "function"
		},
		{
			"constant": true,
			"inputs": [
				{
					"internalType": "address",
					"name": "",
					"type": "address"
				}
			],
			"name": "blockedAddress",
			"outputs": [
				{
					"internalType": "bool",
					"name": "",
					"type": "bool"
				}
			],
			"payable": false,
			"stateMutability": "view",
			"type": "function"
		},
		{
			"constant": true,
			"inputs": [],
			"name": "decimals",
			"outputs": [
				{
					"internalType": "uint256",
					"name": "",
					"type": "uint256"
				}
			],
			"payable": false,
			"stateMutability": "view",
			"type": "function"
		},
		{
			"constant": true,
			"inputs": [
				{
					"internalType": "address",
					"name": "",
					"type": "address"
				},
				{
					"internalType": "uint256",
					"name": "",
					"type": "uint256"
				}
			],
			"name": "lockBalance",
			"outputs": [
				{
					"internalType": "uint256",
					"name": "",
					"type": "uint256"
				}
			],
			"payable": false,
			"stateMutability": "view",
			"type": "function"
		},
		{
			"constant": true,
			"inputs": [
				{
					"internalType": "address",
					"name": "",
					"type": "address"
				},
				{
					"internalType": "uint256",
					"name": "",
					"type": "uint256"
				}
			],
			"name": "lockCheck",
			"outputs": [
				{
					"internalType": "bool",
					"name": "",
					"type": "bool"
				}
			],
			"payable": false,
			"stateMutability": "view",
			"type": "function"
		},
		{
			"constant": true,
			"inputs": [
				{
					"internalType": "address",
					"name": "",
					"type": "address"
				}
			],
			"name": "lockCountMonth",
			"outputs": [
				{
					"internalType": "uint8",
					"name": "",
					"type": "uint8"
				}
			],
			"payable": false,
			"stateMutability": "view",
			"type": "function"
		},
		{
			"constant": true,
			"inputs": [
				{
					"internalType": "address",
					"name": "",
					"type": "address"
				},
				{
					"internalType": "uint256",
					"name": "",
					"type": "uint256"
				}
			],
			"name": "lockPercent",
			"outputs": [
				{
					"internalType": "uint8",
					"name": "",
					"type": "uint8"
				}
			],
			"payable": false,
			"stateMutability": "view",
			"type": "function"
		},
		{
			"constant": true,
			"inputs": [
				{
					"internalType": "address",
					"name": "",
					"type": "address"
				}
			],
			"name": "lockPermitBalance",
			"outputs": [
				{
					"internalType": "uint256",
					"name": "",
					"type": "uint256"
				}
			],
			"payable": false,
			"stateMutability": "view",
			"type": "function"
		},
		{
			"constant": true,
			"inputs": [
				{
					"internalType": "address",
					"name": "",
					"type": "address"
				},
				{
					"internalType": "uint256",
					"name": "",
					"type": "uint256"
				}
			],
			"name": "lockTime",
			"outputs": [
				{
					"internalType": "uint256",
					"name": "",
					"type": "uint256"
				}
			],
			"payable": false,
			"stateMutability": "view",
			"type": "function"
		},
		{
			"constant": true,
			"inputs": [
				{
					"internalType": "address",
					"name": "",
					"type": "address"
				}
			],
			"name": "lockTimeAddress",
			"outputs": [
				{
					"internalType": "bool",
					"name": "",
					"type": "bool"
				}
			],
			"payable": false,
			"stateMutability": "view",
			"type": "function"
		},
		{
			"constant": true,
			"inputs": [],
			"name": "name",
			"outputs": [
				{
					"internalType": "string",
					"name": "",
					"type": "string"
				}
			],
			"payable": false,
			"stateMutability": "view",
			"type": "function"
		},
		{
			"constant": true,
			"inputs": [],
			"name": "owner",
			"outputs": [
				{
					"internalType": "address",
					"name": "",
					"type": "address"
				}
			],
			"payable": false,
			"stateMutability": "view",
			"type": "function"
		},
		{
			"constant": true,
			"inputs": [],
			"name": "symbol",
			"outputs": [
				{
					"internalType": "string",
					"name": "",
					"type": "string"
				}
			],
			"payable": false,
			"stateMutability": "view",
			"type": "function"
		},
		{
			"constant": true,
			"inputs": [],
			"name": "totalSupply",
			"outputs": [
				{
					"internalType": "uint256",
					"name": "",
					"type": "uint256"
				}
			],
			"payable": false,
			"stateMutability": "view",
			"type": "function"
		},
		{
			"constant": true,
			"inputs": [],
			"name": "get_transferLock",
			"outputs": [
				{
					"internalType": "bool",
					"name": "",
					"type": "bool"
				}
			],
			"payable": false,
			"stateMutability": "view",
			"type": "function"
		}
	],
	"bytecode": "0x60806040526040518060400160405280600e81526020017f4265796f6e642046696e616e63650000000000000000000000000000000000008152506000908051906020019061004f929190610202565b506040518060400160405280600381526020017f42594e00000000000000000000000000000000000000000000000000000000008152506001908051906020019061009b929190610202565b506012600281905550600254600a0a6005819055506305f5e100600554026003819055506001600660006101000a81548160ff02191690831515021790555033600460006101000a81548173ffffffffffffffffffffffffffffffffffffffff021916908373ffffffffffffffffffffffffffffffffffffffff16021790555060035460096000600460009054906101000a900473ffffffffffffffffffffffffffffffffffffffff1673ffffffffffffffffffffffffffffffffffffffff1673ffffffffffffffffffffffffffffffffffffffff16815260200190815260200160002081905550600160076000600460009054906101000a900473ffffffffffffffffffffffffffffffffffffffff1673ffffffffffffffffffffffffffffffffffffffff1673ffffffffffffffffffffffffffffffffffffffff16815260200190815260200160002060006101000a81548160ff0219169083151502179055506102a7565b828054600181600116156101000203166002900490600052602060002090601f016020900481019282601f1061024357805160ff1916838001178555610271565b82800160010185558215610271579182015b82811115610270578251825591602001919060010190610255565b5b50905061027e9190610282565b5090565b6102a491905b808211156102a0576000816000905550600101610288565b5090565b90565b6109ad806102b66000396000f3fe608060405234801561001057600080fd5b50600436106101005760003560e01c80637837e17011610097578063ae111cfa11610066578063ae111cfa146104ef578063bd65ba8314610547578063e7299380146105a5578063fd4a772c1461060b57610100565b80637837e170146103645780638355092a146103c65780638da5cb5b1461042257806395d89b411461046c57610100565b80633c2e34c7116100d35780633c2e34c714610226578063409082981461028e5780635eeb9ff9146102ea57806370a082311461030c57610100565b806306fdde031461010557806318160ddd14610188578063313ce567146101a657806334af370f146101c4575b600080fd5b61010d610667565b6040518080602001828103825283818151815260200191508051906020019080838360005b8381101561014d578082015181840152602081019050610132565b50505050905090810190601f16801561017a5780820380516001836020036101000a031916815260200191505b509250505060405180910390f35b610190610705565b6040518082815260200191505060405180910390f35b6101ae61070b565b6040518082815260200191505060405180910390f35b610210600480360360408110156101da57600080fd5b81019080803573ffffffffffffffffffffffffffffffffffffffff16906020019092919080359060200190929190505050610711565b6040518082815260200191505060405180910390f35b6102726004803603604081101561023c57600080fd5b81019080803573ffffffffffffffffffffffffffffffffffffffff1690602001909291908035906020019092919050505061073f565b604051808260ff1660ff16815260200191505060405180910390f35b6102d0600480360360208110156102a457600080fd5b81019080803573ffffffffffffffffffffffffffffffffffffffff16906020019092919050505061077f565b604051808215151515815260200191505060405180910390f35b6102f261079f565b604051808215151515815260200191505060405180910390f35b61034e6004803603602081101561032257600080fd5b81019080803573ffffffffffffffffffffffffffffffffffffffff1690602001909291905050506107b6565b6040518082815260200191505060405180910390f35b6103b06004803603604081101561037a57600080fd5b81019080803573ffffffffffffffffffffffffffffffffffffffff169060200190929190803590602001909291905050506107ce565b6040518082815260200191505060405180910390f35b610408600480360360208110156103dc57600080fd5b81019080803573ffffffffffffffffffffffffffffffffffffffff1690602001909291905050506107fc565b604051808215151515815260200191505060405180910390f35b61042a61081c565b604051808273ffffffffffffffffffffffffffffffffffffffff1673ffffffffffffffffffffffffffffffffffffffff16815260200191505060405180910390f35b610474610842565b6040518080602001828103825283818151815260200191508051906020019080838360005b838110156104b4578082015181840152602081019050610499565b50505050905090810190601f1680156104e15780820380516001836020036101000a031916815260200191505b509250505060405180910390f35b6105316004803603602081101561050557600080fd5b81019080803573ffffffffffffffffffffffffffffffffffffffff1690602001909291905050506108e0565b6040518082815260200191505060405180910390f35b6105896004803603602081101561055d57600080fd5b81019080803573ffffffffffffffffffffffffffffffffffffffff1690602001909291905050506108f8565b604051808260ff1660ff16815260200191505060405180910390f35b6105f1600480360360408110156105bb57600080fd5b81019080803573ffffffffffffffffffffffffffffffffffffffff16906020019092919080359060200190929190505050610918565b604051808215151515815260200191505060405180910390f35b61064d6004803603602081101561062157600080fd5b81019080803573ffffffffffffffffffffffffffffffffffffffff169060200190929190505050610958565b604051808215151515815260200191505060405180910390f35b60008054600181600116156101000203166002900480601f0160208091040260200160405190810160405280929190818152602001828054600181600116156101000203166002900480156106fd5780601f106106d2576101008083540402835291602001916106fd565b820191906000526020600020905b8154815290600101906020018083116106e057829003601f168201915b505050505081565b60035481565b60025481565b600d602052816000526040600020818154811061072a57fe5b90600052602060002001600091509150505481565b600e602052816000526040600020818154811061075857fe5b9060005260206000209060209182820401919006915091509054906101000a900460ff1681565b60076020528060005260406000206000915054906101000a900460ff1681565b6000600660009054906101000a900460ff16905090565b60096020528060005260406000206000915090505481565b601060205281600052604060002081815481106107e757fe5b90600052602060002001600091509150505481565b600a6020528060005260406000206000915054906101000a900460ff1681565b600460009054906101000a900473ffffffffffffffffffffffffffffffffffffffff1681565b60018054600181600116156101000203166002900480601f0160208091040260200160405190810160405280929190818152602001828054600181600116156101000203166002900480156108d85780601f106108ad576101008083540402835291602001916108d8565b820191906000526020600020905b8154815290600101906020018083116108bb57829003601f168201915b505050505081565b600c6020528060005260406000206000915090505481565b600b6020528060005260406000206000915054906101000a900460ff1681565b600f602052816000526040600020818154811061093157fe5b9060005260206000209060209182820401919006915091509054906101000a900460ff1681565b60086020528060005260406000206000915054906101000a900460ff168156fea265627a7a72315820477c89592b48989d5ec7b0fa46f49063df40014288116d91418d67969a1a198564736f6c63430005100032",
	"source": "pragma solidity ^0.5.16;\n\nlibrary SafeMath\n{\n    function add(uint256 a, uint256 b) internal pure returns (uint256 c) {\n        c = a + b;\n        require(c >= a, \"SafeMath: addition overflow\");\n    }\n    function sub(uint256 a, uint256 b) internal pure returns (uint256 c) {\n        require(b <= a, \"SafeMath: subtraction overflow\");\n        c = a - b;\n    }\n    function mul(uint256 a, uint256 b) internal pure returns (uint256 c) {\n        c = a * b;\n        require(a == 0 || c / a == b, \"SafeMath: multiplication overflow\");\n    }\n    function div(uint256 a, uint256 b) internal pure returns (uint256 c) {\n        require(b > 0, \"SafeMath: division by zero\");\n        c = a / b;\n    }\n}\n\n// https://github.com/ethereum/EIPs/blob/master/EIPS/eip-20.md\ncontract Variable\n{\n  string public name;\n  string public symbol;\n  uint256 public decimals;\n  uint256 public totalSupply;\n  address public owner;\n  uint256 internal _decimals;\n  bool internal transferLock;\n  \n  mapping (address => bool) public allowedAddress;\n  mapping (address => bool) public blockedAddress;\n  mapping (address => uint256) public balanceOf;\n  \n  mapping (address => bool) public lockTimeAddress;\n  mapping (address => uint8) public lockCountMonth;\n  mapping (address => uint256) public lockPermitBalance;\n  mapping (address => uint256[]) public lockTime;\n  mapping (address => uint8[]) public lockPercent;\n  mapping (address => bool[]) public lockCheck;\n  mapping (address => uint256[]) public lockBalance;\n  \n  mapping (address => mapping (address => uint256)) internal allowed;\n  constructor() public\n  {\n    name = \"Beyond Finance\";\n    symbol = \"BYN\";\n    decimals = 18;\n    _decimals = 10 ** uint256(decimals);\n    totalSupply = _decimals * 100000000;\n    transferLock = true;\n    owner =  msg.sender;\n    balanceOf[owner] = totalSupply;\n    allowedAddress[owner] = true;\n  }\n}\n\ncontract Modifiers is Variable\n{\n  modifier isOwner\n  {\n    assert(owner == msg.sender);\n    _;\n  }\n}\n\ncontract Event\n{\n  event Transfer(address indexed from, address indexed to, uint256 value);\n  event TokenBurn(address indexed from, uint256 value);\n  event Approval(address indexed owner, address indexed spender, uint256 value);\n}\n\ncontract manageAddress is Variable, Modifiers, Event\n{\n  using SafeMath for uint256;\n  function add_allowedAddress(address _address) public isOwner\n  {\n    allowedAddress[_address] = true;\n  }\n  function delete_allowedAddress(address _address) public isOwner\n  {\n    require(_address != owner,\"Not owner\");\n    allowedAddress[_address] = false;\n  }\n  function add_blockedAddress(address _address) public isOwner\n  {\n    require(_address != owner,\"Not owner\");\n    blockedAddress[_address] = true;\n  }\n  function delete_blockedAddress(address _address) public isOwner\n  {\n    blockedAddress[_address] = false;\n  }\n  function add_timeAddress(address _address, uint8 total_month) public isOwner\n  {\n    if(lockTimeAddress[_address] == true)\n    {\n        revert(\"Already set address\");\n    }\n    if(total_month < 2 && lockCountMonth[_address] > 0)\n    {\n        revert(\"Period want to set is short\");\n    }\n    lockCountMonth[_address] = total_month;\n    lockTime[_address] = new uint256[](total_month);\n    lockPercent[_address] = new uint8[](total_month);\n    lockCheck[_address] = new bool[](total_month);\n    lockBalance[_address] = new uint256[](total_month);\n  }\n  function delete_timeAddress(address _address) public isOwner\n  {\n    lockTimeAddress[_address] = false;\n    lockPermitBalance[_address] = 0;\n    for(uint8 i = 0; i < lockCountMonth[_address]; i++)\n    {\n        delete lockTime[_address][i];\n        delete lockPercent[_address][i];\n        delete lockCheck[_address][i];\n        delete lockBalance[_address][i];\n    }\n    lockCountMonth[_address] = 0;\n  }\n  function add_timeAddressMonth(address _address,uint256 _time,uint8 idx, uint8 _percent) public isOwner\n  {\n    if(now > _time)\n    {\n        revert(\"Must greater than current time\");\n    }\n    if(idx >= lockCountMonth[_address])\n    {\n        revert(\"Invalid Setup Period\");\n    }\n    if(idx != 0 && lockTime[_address][idx - 1] >= _time)\n    {\n        revert(\"Must greater than previous time\");\n    }\n    lockPercent[_address][idx] = _percent;\n    lockTime[_address][idx] = _time;\n  }\n  function add_timeAddressApply(address _address, uint256 lock_balance) public isOwner\n  {\n    if(balanceOf[_address] >= lock_balance && lock_balance > 0)\n    {\n        uint8 sum = lockPercent[_address][0];\n        lockPermitBalance[_address] = 0;\n        for(uint8 i = 0; i < lockCountMonth[_address]; i++)\n        {\n            lockBalance[_address][i] = (lock_balance.mul(lockPercent[_address][i])).div(100);\n            if(i > 0)\n            {\n                sum += lockPercent[_address][i];\n            }\n        }\n        \n        if(sum != 100)\n        {\n            revert(\"Invalid percentage\");\n        }\n        lockTimeAddress[_address] = true;\n    }\n    else\n    {\n        revert(\"Invalid balance\");\n    }\n    \n  }\n  function refresh_lockPermitBalance(address _address) public \n  {\n    if(lockTimeAddress[_address] == false)\n    {\n        revert(\"Address without Lock\");  \n    }\n    for(uint8 i = 0; i < lockCountMonth[msg.sender]; i++)\n    {\n        if(now >= lockTime[_address][i] && lockCheck[_address][i] == false)\n        {\n            lockPermitBalance[_address] += lockBalance[_address][i];\n            lockCheck[_address][i] = true;\n            if(lockCountMonth[_address] - 1 == i)\n            {\n                delete_timeAddress(_address);\n            }\n        }\n    }\n  }\n}\n\ncontract Admin is Variable, Modifiers, Event\n{\n  using SafeMath for uint256;\n  \n  function admin_tokenBurn(uint256 _value) public isOwner returns(bool success)\n  {\n    require(balanceOf[msg.sender] >= _value, \"Invalid balance\");\n    balanceOf[msg.sender] = balanceOf[msg.sender].sub(_value);\n    totalSupply = totalSupply.sub(_value);\n    emit TokenBurn(msg.sender, _value);\n    return true;\n  }\n}\n\ncontract Get is Variable, Modifiers\n{\n  function get_transferLock() public view returns(bool)\n  {\n    return transferLock;\n  }\n}\n\ncontract Set is Variable, Modifiers, Event\n{\n  function setTransferLock(bool _transferLock) public isOwner returns(bool success)\n  {\n    transferLock = _transferLock;\n    return true;\n  }\n}\n\ncontract BYN is Variable, Event, Get, Set, Admin, manageAddress\n{\n  function() external payable \n  {\n    revert();\n  }\n  function allowance(address tokenOwner, address spender) public view returns (uint256 remaining) \n  {\n    return allowed[tokenOwner][spender];\n  }\n  function increaseApproval(address _spender, uint256 _addedValue) public returns (bool) \n  {\n    allowed[msg.sender][_spender] = allowed[msg.sender][_spender].add(_addedValue);\n    emit Approval(msg.sender, _spender, allowed[msg.sender][_spender]);\n    return true;\n  }\n  function decreaseApproval(address _spender, uint256 _subtractedValue) public returns (bool)\n  {\n    uint256 oldValue = allowed[msg.sender][_spender];\n    if (_subtractedValue > oldValue) \n    {\n        allowed[msg.sender][_spender] = 0;\n    } \n    else\n    {\n        allowed[msg.sender][_spender] = oldValue.sub(_subtractedValue);\n    }\n    emit Approval(msg.sender, _spender, allowed[msg.sender][_spender]);\n    return true;\n  }\n  function approve(address _spender, uint256 _value) public returns (bool)\n  {\n    allowed[msg.sender][_spender] = _value;\n    emit Approval(msg.sender, _spender, _value);\n    return true;\n  }\n  function transferFrom(address _from, address _to, uint256 _value) public returns (bool) \n  {\n    require(allowedAddress[_from] || transferLock == false, \"Transfer lock : true\");\n    require(!blockedAddress[_from] && !blockedAddress[_to] && !blockedAddress[msg.sender], \"Blocked address\");\n    require(balanceOf[_from] >= _value && (balanceOf[_to].add(_value)) >= balanceOf[_to], \"Invalid balance\");\n    require(lockTimeAddress[_to] == false, \"Lock address : to\");\n    require(_value <= allowed[_from][msg.sender], \"Invalid balance : allowed\");\n    if(lockTimeAddress[_from])\n    {\n        lockPermitBalance[_from] = lockPermitBalance[_from].sub(_value);\n    }\n    balanceOf[_from] = balanceOf[_from].sub(_value);\n    balanceOf[_to] = balanceOf[_to].add(_value);\n    allowed[_from][msg.sender] = allowed[_from][msg.sender].sub(_value);\n    emit Transfer(_from, _to, _value);\n    return true;\n  }\n  \n  function transfer(address _to, uint256 _value) public returns (bool)  \n  {\n    require(allowedAddress[msg.sender] || transferLock == false, \"Transfer lock : true\");\n    require(!blockedAddress[msg.sender] && !blockedAddress[_to], \"Blocked address\");\n    require(balanceOf[msg.sender] >= _value && (balanceOf[_to].add(_value)) >= balanceOf[_to], \"Invalid balance\");\n    require(lockTimeAddress[_to] == false, \"Lock address : to\");\n    if(lockTimeAddress[msg.sender])\n    {\n        lockPermitBalance[msg.sender] = lockPermitBalance[msg.sender].sub(_value);\n    }\n    balanceOf[msg.sender] = balanceOf[msg.sender].sub(_value);\n    balanceOf[_to] = balanceOf[_to].add(_value);\n    emit Transfer(msg.sender, _to, _value);\n        \n    return true;\n  }\n}\n",
	"sourcePath": "/home/yoo/rubish/z/byn/contracts/byn.sol",
	"compiler": {
		"name": "solc",
		"version": "0.5.16+commit.9c3226ce.Emscripten.clang"
	},
	"schemaVersion": "3.3.4",
	"updatedAt": "2021-04-14T12:28:09.785Z",
	"devdoc": {
		"methods": {}
	},
	"userdoc": {
		"methods": {}
	}
}