{
	"contractName": "BYN",
	"abi": [
		{
			"anonymous": false,
			"inputs": [
				{
					"indexed": true,
					"internalType": "address",
					"name": "owner",
					"type": "address"
				},
				{
					"indexed": true,
					"internalType": "address",
					"name": "spender",
					"type": "address"
				},
				{
					"indexed": false,
					"internalType": "uint256",
					"name": "value",
					"type": "uint256"
				}
			],
			"name": "Approval",
			"type": "event"
		},
		{
			"anonymous": false,
			"inputs": [
				{
					"indexed": true,
					"internalType": "address",
					"name": "from",
					"type": "address"
				},
				{
					"indexed": false,
					"internalType": "uint256",
					"name": "value",
					"type": "uint256"
				}
			],
			"name": "TokenBurn",
			"type": "event"
		},
		{
			"anonymous": false,
			"inputs": [
				{
					"indexed": true,
					"internalType": "address",
					"name": "from",
					"type": "address"
				},
				{
					"indexed": true,
					"internalType": "address",
					"name": "to",
					"type": "address"
				},
				{
					"indexed": false,
					"internalType": "uint256",
					"name": "value",
					"type": "uint256"
				}
			],
			"name": "Transfer",
			"type": "event"
		},
		{
			"inputs": [
				{
					"internalType": "address",
					"name": "_address",
					"type": "address"
				}
			],
			"name": "add_allowedAddress",
			"outputs": [],
			"stateMutability": "nonpayable",
			"type": "function"
		},
		{
			"inputs": [
				{
					"internalType": "address",
					"name": "_address",
					"type": "address"
				}
			],
			"name": "add_blockedAddress",
			"outputs": [],
			"stateMutability": "nonpayable",
			"type": "function"
		},
		{
			"inputs": [
				{
					"internalType": "address",
					"name": "_address",
					"type": "address"
				},
				{
					"internalType": "uint8",
					"name": "total_month",
					"type": "uint8"
				}
			],
			"name": "add_timeAddress",
			"outputs": [],
			"stateMutability": "nonpayable",
			"type": "function"
		},
		{
			"inputs": [
				{
					"internalType": "address",
					"name": "_address",
					"type": "address"
				},
				{
					"internalType": "uint256",
					"name": "lock_balance",
					"type": "uint256"
				}
			],
			"name": "add_timeAddressApply",
			"outputs": [],
			"stateMutability": "nonpayable",
			"type": "function"
		},
		{
			"inputs": [
				{
					"internalType": "address",
					"name": "_address",
					"type": "address"
				},
				{
					"internalType": "uint256",
					"name": "_time",
					"type": "uint256"
				},
				{
					"internalType": "uint8",
					"name": "idx",
					"type": "uint8"
				},
				{
					"internalType": "uint8",
					"name": "_percent",
					"type": "uint8"
				}
			],
			"name": "add_timeAddressMonth",
			"outputs": [],
			"stateMutability": "nonpayable",
			"type": "function"
		},
		{
			"inputs": [
				{
					"internalType": "uint256",
					"name": "_value",
					"type": "uint256"
				}
			],
			"name": "admin_tokenBurn",
			"outputs": [
				{
					"internalType": "bool",
					"name": "success",
					"type": "bool"
				}
			],
			"stateMutability": "nonpayable",
			"type": "function"
		},
		{
			"inputs": [
				{
					"internalType": "address",
					"name": "",
					"type": "address"
				}
			],
			"name": "allowedAddress",
			"outputs": [
				{
					"internalType": "bool",
					"name": "",
					"type": "bool"
				}
			],
			"stateMutability": "view",
			"type": "function",
			"constant": true
		},
		{
			"inputs": [
				{
					"internalType": "address",
					"name": "",
					"type": "address"
				}
			],
			"name": "balanceOf",
			"outputs": [
				{
					"internalType": "uint256",
					"name": "",
					"type": "uint256"
				}
			],
			"stateMutability": "view",
			"type": "function",
			"constant": true
		},
		{
			"inputs": [
				{
					"internalType": "address",
					"name": "",
					"type": "address"
				}
			],
			"name": "blockedAddress",
			"outputs": [
				{
					"internalType": "bool",
					"name": "",
					"type": "bool"
				}
			],
			"stateMutability": "view",
			"type": "function",
			"constant": true
		},
		{
			"inputs": [],
			"name": "decimals",
			"outputs": [
				{
					"internalType": "uint256",
					"name": "",
					"type": "uint256"
				}
			],
			"stateMutability": "view",
			"type": "function",
			"constant": true
		},
		{
			"inputs": [
				{
					"internalType": "address",
					"name": "_address",
					"type": "address"
				}
			],
			"name": "delete_allowedAddress",
			"outputs": [],
			"stateMutability": "nonpayable",
			"type": "function"
		},
		{
			"inputs": [
				{
					"internalType": "address",
					"name": "_address",
					"type": "address"
				}
			],
			"name": "delete_blockedAddress",
			"outputs": [],
			"stateMutability": "nonpayable",
			"type": "function"
		},
		{
			"inputs": [
				{
					"internalType": "address",
					"name": "_address",
					"type": "address"
				}
			],
			"name": "delete_timeAddress",
			"outputs": [],
			"stateMutability": "nonpayable",
			"type": "function"
		},
		{
			"inputs": [],
			"name": "get_transferLock",
			"outputs": [
				{
					"internalType": "bool",
					"name": "",
					"type": "bool"
				}
			],
			"stateMutability": "view",
			"type": "function",
			"constant": true
		},
		{
			"inputs": [
				{
					"internalType": "address",
					"name": "",
					"type": "address"
				},
				{
					"internalType": "uint256",
					"name": "",
					"type": "uint256"
				}
			],
			"name": "lockBalance",
			"outputs": [
				{
					"internalType": "uint256",
					"name": "",
					"type": "uint256"
				}
			],
			"stateMutability": "view",
			"type": "function",
			"constant": true
		},
		{
			"inputs": [
				{
					"internalType": "address",
					"name": "",
					"type": "address"
				},
				{
					"internalType": "uint256",
					"name": "",
					"type": "uint256"
				}
			],
			"name": "lockCheck",
			"outputs": [
				{
					"internalType": "bool",
					"name": "",
					"type": "bool"
				}
			],
			"stateMutability": "view",
			"type": "function",
			"constant": true
		},
		{
			"inputs": [
				{
					"internalType": "address",
					"name": "",
					"type": "address"
				}
			],
			"name": "lockCountMonth",
			"outputs": [
				{
					"internalType": "uint8",
					"name": "",
					"type": "uint8"
				}
			],
			"stateMutability": "view",
			"type": "function",
			"constant": true
		},
		{
			"inputs": [
				{
					"internalType": "address",
					"name": "",
					"type": "address"
				},
				{
					"internalType": "uint256",
					"name": "",
					"type": "uint256"
				}
			],
			"name": "lockPercent",
			"outputs": [
				{
					"internalType": "uint8",
					"name": "",
					"type": "uint8"
				}
			],
			"stateMutability": "view",
			"type": "function",
			"constant": true
		},
		{
			"inputs": [
				{
					"internalType": "address",
					"name": "",
					"type": "address"
				}
			],
			"name": "lockPermitBalance",
			"outputs": [
				{
					"internalType": "uint256",
					"name": "",
					"type": "uint256"
				}
			],
			"stateMutability": "view",
			"type": "function",
			"constant": true
		},
		{
			"inputs": [
				{
					"internalType": "address",
					"name": "",
					"type": "address"
				},
				{
					"internalType": "uint256",
					"name": "",
					"type": "uint256"
				}
			],
			"name": "lockTime",
			"outputs": [
				{
					"internalType": "uint256",
					"name": "",
					"type": "uint256"
				}
			],
			"stateMutability": "view",
			"type": "function",
			"constant": true
		},
		{
			"inputs": [
				{
					"internalType": "address",
					"name": "",
					"type": "address"
				}
			],
			"name": "lockTimeAddress",
			"outputs": [
				{
					"internalType": "bool",
					"name": "",
					"type": "bool"
				}
			],
			"stateMutability": "view",
			"type": "function",
			"constant": true
		},
		{
			"inputs": [],
			"name": "name",
			"outputs": [
				{
					"internalType": "string",
					"name": "",
					"type": "string"
				}
			],
			"stateMutability": "view",
			"type": "function",
			"constant": true
		},
		{
			"inputs": [],
			"name": "owner",
			"outputs": [
				{
					"internalType": "address",
					"name": "",
					"type": "address"
				}
			],
			"stateMutability": "view",
			"type": "function",
			"constant": true
		},
		{
			"inputs": [
				{
					"internalType": "address",
					"name": "_address",
					"type": "address"
				}
			],
			"name": "refresh_lockPermitBalance",
			"outputs": [],
			"stateMutability": "nonpayable",
			"type": "function"
		},
		{
			"inputs": [
				{
					"internalType": "bool",
					"name": "_transferLock",
					"type": "bool"
				}
			],
			"name": "setTransferLock",
			"outputs": [
				{
					"internalType": "bool",
					"name": "success",
					"type": "bool"
				}
			],
			"stateMutability": "nonpayable",
			"type": "function"
		},
		{
			"inputs": [],
			"name": "symbol",
			"outputs": [
				{
					"internalType": "string",
					"name": "",
					"type": "string"
				}
			],
			"stateMutability": "view",
			"type": "function",
			"constant": true
		},
		{
			"inputs": [],
			"name": "totalSupply",
			"outputs": [
				{
					"internalType": "uint256",
					"name": "",
					"type": "uint256"
				}
			],
			"stateMutability": "view",
			"type": "function",
			"constant": true
		},
		{
			"inputs": [
				{
					"internalType": "address",
					"name": "tokenOwner",
					"type": "address"
				},
				{
					"internalType": "address",
					"name": "spender",
					"type": "address"
				}
			],
			"name": "allowance",
			"outputs": [
				{
					"internalType": "uint256",
					"name": "remaining",
					"type": "uint256"
				}
			],
			"stateMutability": "view",
			"type": "function",
			"constant": true
		},
		{
			"inputs": [
				{
					"internalType": "address",
					"name": "_spender",
					"type": "address"
				},
				{
					"internalType": "uint256",
					"name": "_addedValue",
					"type": "uint256"
				}
			],
			"name": "increaseApproval",
			"outputs": [
				{
					"internalType": "bool",
					"name": "",
					"type": "bool"
				}
			],
			"stateMutability": "nonpayable",
			"type": "function"
		},
		{
			"inputs": [
				{
					"internalType": "address",
					"name": "_spender",
					"type": "address"
				},
				{
					"internalType": "uint256",
					"name": "_subtractedValue",
					"type": "uint256"
				}
			],
			"name": "decreaseApproval",
			"outputs": [
				{
					"internalType": "bool",
					"name": "",
					"type": "bool"
				}
			],
			"stateMutability": "nonpayable",
			"type": "function"
		},
		{
			"inputs": [
				{
					"internalType": "address",
					"name": "_spender",
					"type": "address"
				},
				{
					"internalType": "uint256",
					"name": "_value",
					"type": "uint256"
				}
			],
			"name": "approve",
			"outputs": [
				{
					"internalType": "bool",
					"name": "",
					"type": "bool"
				}
			],
			"stateMutability": "nonpayable",
			"type": "function"
		},
		{
			"inputs": [
				{
					"internalType": "address",
					"name": "_from",
					"type": "address"
				},
				{
					"internalType": "address",
					"name": "_to",
					"type": "address"
				},
				{
					"internalType": "uint256",
					"name": "_value",
					"type": "uint256"
				}
			],
			"name": "transferFrom",
			"outputs": [
				{
					"internalType": "bool",
					"name": "",
					"type": "bool"
				}
			],
			"stateMutability": "nonpayable",
			"type": "function"
		},
		{
			"inputs": [
				{
					"internalType": "address",
					"name": "_to",
					"type": "address"
				},
				{
					"internalType": "uint256",
					"name": "_value",
					"type": "uint256"
				}
			],
			"name": "transfer",
			"outputs": [
				{
					"internalType": "bool",
					"name": "",
					"type": "bool"
				}
			],
			"stateMutability": "nonpayable",
			"type": "function"
		}
	],
	"bytecode": "0x60806040523480156200001157600080fd5b506040518060400160405280600e81526020017f4265796f6e642046696e616e6365000000000000000000000000000000000000815250600090805190602001906200005f9291906200022b565b506040518060400160405280600381526020017f42594e000000000000000000000000000000000000000000000000000000000081525060019080519060200190620000ad9291906200022b565b506012600281905550600254600a620000c7919062000336565b6005819055506305f5e100600554620000e1919062000473565b6003819055506000600660006101000a81548160ff02191690831515021790555033600460006101000a81548173ffffffffffffffffffffffffffffffffffffffff021916908373ffffffffffffffffffffffffffffffffffffffff16021790555060035460096000600460009054906101000a900473ffffffffffffffffffffffffffffffffffffffff1673ffffffffffffffffffffffffffffffffffffffff1673ffffffffffffffffffffffffffffffffffffffff16815260200190815260200160002081905550600160076000600460009054906101000a900473ffffffffffffffffffffffffffffffffffffffff1673ffffffffffffffffffffffffffffffffffffffff1673ffffffffffffffffffffffffffffffffffffffff16815260200190815260200160002060006101000a81548160ff0219169083151502179055506200057f565b8280546200023990620004de565b90600052602060002090601f0160209004810192826200025d5760008555620002a9565b82601f106200027857805160ff1916838001178555620002a9565b82800160010185558215620002a9579182015b82811115620002a85782518255916020019190600101906200028b565b5b509050620002b89190620002bc565b5090565b5b80821115620002d7576000816000905550600101620002bd565b5090565b6000808291508390505b60018511156200032d5780860481111562000305576200030462000514565b5b6001851615620003155780820291505b8081029050620003258562000572565b9450620002e5565b94509492505050565b60006200034382620004d4565b91506200035083620004d4565b92506200037f7fffffffffffffffffffffffffffffffffffffffffffffffffffffffffffffffff848462000387565b905092915050565b6000826200039957600190506200046c565b81620003a957600090506200046c565b8160018114620003c25760028114620003cd5762000403565b60019150506200046c565b60ff841115620003e257620003e162000514565b5b8360020a915084821115620003fc57620003fb62000514565b5b506200046c565b5060208310610133831016604e8410600b84101617156200043d5782820a90508381111562000437576200043662000514565b5b6200046c565b6200044c8484846001620002db565b9250905081840481111562000466576200046562000514565b5b81810290505b9392505050565b60006200048082620004d4565b91506200048d83620004d4565b9250817fffffffffffffffffffffffffffffffffffffffffffffffffffffffffffffffff0483118215151615620004c957620004c862000514565b5b828202905092915050565b6000819050919050565b60006002820490506001821680620004f757607f821691505b602082108114156200050e576200050d62000543565b5b50919050565b7f4e487b7100000000000000000000000000000000000000000000000000000000600052601160045260246000fd5b7f4e487b7100000000000000000000000000000000000000000000000000000000600052602260045260246000fd5b60008160011c9050919050565b614c7e806200058f6000396000f3fe608060405234801561001057600080fd5b50600436106101fb5760003560e01c8063661884631161011a578063bc082986116100ad578063d73dd6231161007c578063d73dd62314610634578063db3eefb514610664578063dd62ed3e14610680578063e7299380146106b0578063fd4a772c146106e0576101fb565b8063bc0829861461059c578063bd65ba83146105b8578063bff35618146105e8578063d016492e14610618576101fb565b80638da5cb5b116100e95780638da5cb5b1461050057806395d89b411461051e578063a9059cbb1461053c578063ae111cfa1461056c576101fb565b8063661884631461044057806370a08231146104705780637837e170146104a05780638355092a146104d0576101fb565b806334af370f11610192578063512218731161016157806351221873146103ce578063550fee0b146103ea5780635952c4b2146104065780635eeb9ff914610422576101fb565b806334af370f146103225780633c2e34c71461035257806340908298146103825780634ebb380e146103b2576101fb565b806323b872dd116101ce57806323b872dd1461029c578063271aedcf146102cc5780632e1bf913146102e8578063313ce56714610304576101fb565b806306fdde0314610200578063095ea7b31461021e57806318160ddd1461024e57806320d761131461026c575b600080fd5b610208610710565b6040516102159190614377565b60405180910390f35b61023860048036038101906102339190613f4c565b61079e565b604051610245919061435c565b60405180910390f35b610256610890565b60405161026391906145b9565b60405180910390f35b61028660048036038101906102819190614050565b610896565b604051610293919061435c565b60405180910390f35b6102b660048036038101906102b19190613efd565b610aa5565b6040516102c3919061435c565b60405180910390f35b6102e660048036038101906102e19190613e98565b61128b565b005b61030260048036038101906102fd9190613f4c565b6113fb565b005b61030c611906565b60405161031991906145b9565b60405180910390f35b61033c60048036038101906103379190613f4c565b61190c565b60405161034991906145b9565b60405180910390f35b61036c60048036038101906103679190613f4c565b61193d565b60405161037991906145d4565b60405180910390f35b61039c60048036038101906103979190613e98565b611980565b6040516103a9919061435c565b60405180910390f35b6103cc60048036038101906103c79190613e98565b6119a0565b005b6103e860048036038101906103e39190613e98565b611a7f565b005b61040460048036038101906103ff9190613e98565b611b5e565b005b610420600480360381019061041b9190613feb565b611f94565b005b61042a6124be565b604051610437919061435c565b60405180910390f35b61045a60048036038101906104559190613f4c565b6124d5565b604051610467919061435c565b60405180910390f35b61048a60048036038101906104859190613e98565b612766565b60405161049791906145b9565b60405180910390f35b6104ba60048036038101906104b59190613f4c565b61277e565b6040516104c791906145b9565b60405180910390f35b6104ea60048036038101906104e59190613e98565b6127af565b6040516104f7919061435c565b60405180910390f35b6105086127cf565b6040516105159190614341565b60405180910390f35b6105266127f5565b6040516105339190614377565b60405180910390f35b61055660048036038101906105519190613f4c565b612883565b604051610563919061435c565b60405180910390f35b61058660048036038101906105819190613e98565b612e44565b60405161059391906145b9565b60405180910390f35b6105b660048036038101906105b19190613e98565b612e5c565b005b6105d260048036038101906105cd9190613e98565b61328a565b6040516105df91906145d4565b60405180910390f35b61060260048036038101906105fd9190614027565b6132aa565b60405161060f919061435c565b60405180910390f35b610632600480360381019061062d9190613e98565b613353565b005b61064e60048036038101906106499190613f4c565b6134c3565b60405161065b919061435c565b60405180910390f35b61067e60048036038101906106799190613f88565b6136b8565b005b61069a60048036038101906106959190613ec1565b613a2b565b6040516106a791906145b9565b60405180910390f35b6106ca60048036038101906106c59190613f4c565b613ab2565b6040516106d7919061435c565b60405180910390f35b6106fa60048036038101906106f59190613e98565b613af5565b604051610707919061435c565b60405180910390f35b6000805461071d90614813565b80601f016020809104026020016040519081016040528092919081815260200182805461074990614813565b80156107965780601f1061076b57610100808354040283529160200191610796565b820191906000526020600020905b81548152906001019060200180831161077957829003601f168201915b505050505081565b600081601160003373ffffffffffffffffffffffffffffffffffffffff1673ffffffffffffffffffffffffffffffffffffffff16815260200190815260200160002060008573ffffffffffffffffffffffffffffffffffffffff1673ffffffffffffffffffffffffffffffffffffffff168152602001908152602001600020819055508273ffffffffffffffffffffffffffffffffffffffff163373ffffffffffffffffffffffffffffffffffffffff167f8c5be1e5ebec7d5bd14f71427d1e84f3dd0314c0f7b2291e5b200ac8c7c3b9258460405161087e91906145b9565b60405180910390a36001905092915050565b60035481565b60003373ffffffffffffffffffffffffffffffffffffffff16600460009054906101000a900473ffffffffffffffffffffffffffffffffffffffff1673ffffffffffffffffffffffffffffffffffffffff161461091c577f4e487b7100000000000000000000000000000000000000000000000000000000600052600160045260246000fd5b81600960003373ffffffffffffffffffffffffffffffffffffffff1673ffffffffffffffffffffffffffffffffffffffff16815260200190815260200160002054101561099e576040517f08c379a000000000000000000000000000000000000000000000000000000000815260040161099590614559565b60405180910390fd5b6109f082600960003373ffffffffffffffffffffffffffffffffffffffff1673ffffffffffffffffffffffffffffffffffffffff16815260200190815260200160002054613b1590919063ffffffff16565b600960003373ffffffffffffffffffffffffffffffffffffffff1673ffffffffffffffffffffffffffffffffffffffff16815260200190815260200160002081905550610a4882600354613b1590919063ffffffff16565b6003819055503373ffffffffffffffffffffffffffffffffffffffff167fab85194d35c4ea153d0b51f3a304d1d22cb8023e499a6503fb6c28c5864ae90e83604051610a9491906145b9565b60405180910390a260019050919050565b6000600760008573ffffffffffffffffffffffffffffffffffffffff1673ffffffffffffffffffffffffffffffffffffffff16815260200190815260200160002060009054906101000a900460ff1680610b12575060001515600660009054906101000a900460ff161515145b610b51576040517f08c379a0000000000000000000000000000000000000000000000000000000008152600401610b48906144b9565b60405180910390fd5b600860008573ffffffffffffffffffffffffffffffffffffffff1673ffffffffffffffffffffffffffffffffffffffff16815260200190815260200160002060009054906101000a900460ff16158015610bf55750600860008473ffffffffffffffffffffffffffffffffffffffff1673ffffffffffffffffffffffffffffffffffffffff16815260200190815260200160002060009054906101000a900460ff16155b8015610c4b5750600860003373ffffffffffffffffffffffffffffffffffffffff1673ffffffffffffffffffffffffffffffffffffffff16815260200190815260200160002060009054906101000a900460ff16155b610c8a576040517f08c379a0000000000000000000000000000000000000000000000000000000008152600401610c8190614599565b60405180910390fd5b81600960008673ffffffffffffffffffffffffffffffffffffffff1673ffffffffffffffffffffffffffffffffffffffff1681526020019081526020016000205410158015610d695750600960008473ffffffffffffffffffffffffffffffffffffffff1673ffffffffffffffffffffffffffffffffffffffff16815260200190815260200160002054610d6683600960008773ffffffffffffffffffffffffffffffffffffffff1673ffffffffffffffffffffffffffffffffffffffff16815260200190815260200160002054613b6e90919063ffffffff16565b10155b610da8576040517f08c379a0000000000000000000000000000000000000000000000000000000008152600401610d9f90614559565b60405180910390fd5b60001515600a60008573ffffffffffffffffffffffffffffffffffffffff1673ffffffffffffffffffffffffffffffffffffffff16815260200190815260200160002060009054906101000a900460ff16151514610e3b576040517f08c379a0000000000000000000000000000000000000000000000000000000008152600401610e32906144d9565b60405180910390fd5b601160008573ffffffffffffffffffffffffffffffffffffffff1673ffffffffffffffffffffffffffffffffffffffff16815260200190815260200160002060003373ffffffffffffffffffffffffffffffffffffffff1673ffffffffffffffffffffffffffffffffffffffff16815260200190815260200160002054821115610efa576040517f08c379a0000000000000000000000000000000000000000000000000000000008152600401610ef190614579565b60405180910390fd5b600a60008573ffffffffffffffffffffffffffffffffffffffff1673ffffffffffffffffffffffffffffffffffffffff16815260200190815260200160002060009054906101000a900460ff1615610fe257610f9e82600c60008773ffffffffffffffffffffffffffffffffffffffff1673ffffffffffffffffffffffffffffffffffffffff16815260200190815260200160002054613b1590919063ffffffff16565b600c60008673ffffffffffffffffffffffffffffffffffffffff1673ffffffffffffffffffffffffffffffffffffffff168152602001908152602001600020819055505b61103482600960008773ffffffffffffffffffffffffffffffffffffffff1673ffffffffffffffffffffffffffffffffffffffff16815260200190815260200160002054613b1590919063ffffffff16565b600960008673ffffffffffffffffffffffffffffffffffffffff1673ffffffffffffffffffffffffffffffffffffffff168152602001908152602001600020819055506110c982600960008673ffffffffffffffffffffffffffffffffffffffff1673ffffffffffffffffffffffffffffffffffffffff16815260200190815260200160002054613b6e90919063ffffffff16565b600960008573ffffffffffffffffffffffffffffffffffffffff1673ffffffffffffffffffffffffffffffffffffffff1681526020019081526020016000208190555061119b82601160008773ffffffffffffffffffffffffffffffffffffffff1673ffffffffffffffffffffffffffffffffffffffff16815260200190815260200160002060003373ffffffffffffffffffffffffffffffffffffffff1673ffffffffffffffffffffffffffffffffffffffff16815260200190815260200160002054613b1590919063ffffffff16565b601160008673ffffffffffffffffffffffffffffffffffffffff1673ffffffffffffffffffffffffffffffffffffffff16815260200190815260200160002060003373ffffffffffffffffffffffffffffffffffffffff1673ffffffffffffffffffffffffffffffffffffffff168152602001908152602001600020819055508273ffffffffffffffffffffffffffffffffffffffff168473ffffffffffffffffffffffffffffffffffffffff167fddf252ad1be2c89b69c2b068fc378daa952ba7f163c4a11628f55a4df523b3ef8460405161127891906145b9565b60405180910390a3600190509392505050565b3373ffffffffffffffffffffffffffffffffffffffff16600460009054906101000a900473ffffffffffffffffffffffffffffffffffffffff1673ffffffffffffffffffffffffffffffffffffffff161461130f577f4e487b7100000000000000000000000000000000000000000000000000000000600052600160045260246000fd5b600460009054906101000a900473ffffffffffffffffffffffffffffffffffffffff1673ffffffffffffffffffffffffffffffffffffffff168173ffffffffffffffffffffffffffffffffffffffff1614156113a0576040517f08c379a000000000000000000000000000000000000000000000000000000000815260040161139790614539565b60405180910390fd5b6001600860008373ffffffffffffffffffffffffffffffffffffffff1673ffffffffffffffffffffffffffffffffffffffff16815260200190815260200160002060006101000a81548160ff02191690831515021790555050565b3373ffffffffffffffffffffffffffffffffffffffff16600460009054906101000a900473ffffffffffffffffffffffffffffffffffffffff1673ffffffffffffffffffffffffffffffffffffffff161461147f577f4e487b7100000000000000000000000000000000000000000000000000000000600052600160045260246000fd5b80600960008473ffffffffffffffffffffffffffffffffffffffff1673ffffffffffffffffffffffffffffffffffffffff16815260200190815260200160002054101580156114ce5750600081115b156118c7576000600e60008473ffffffffffffffffffffffffffffffffffffffff1673ffffffffffffffffffffffffffffffffffffffff16815260200190815260200160002060008154811061154d577f4e487b7100000000000000000000000000000000000000000000000000000000600052603260045260246000fd5b90600052602060002090602091828204019190069054906101000a900460ff1690506000600c60008573ffffffffffffffffffffffffffffffffffffffff1673ffffffffffffffffffffffffffffffffffffffff1681526020019081526020016000208190555060005b600b60008573ffffffffffffffffffffffffffffffffffffffff1673ffffffffffffffffffffffffffffffffffffffff16815260200190815260200160002060009054906101000a900460ff1660ff168160ff161015611822576116d360646116c5600e60008873ffffffffffffffffffffffffffffffffffffffff1673ffffffffffffffffffffffffffffffffffffffff1681526020019081526020016000208460ff1681548110611693577f4e487b7100000000000000000000000000000000000000000000000000000000600052603260045260246000fd5b90600052602060002090602091828204019190069054906101000a900460ff1660ff1686613bc790919063ffffffff16565b613c3590919063ffffffff16565b601060008673ffffffffffffffffffffffffffffffffffffffff1673ffffffffffffffffffffffffffffffffffffffff1681526020019081526020016000208260ff168154811061174d577f4e487b7100000000000000000000000000000000000000000000000000000000600052603260045260246000fd5b906000526020600020018190555060008160ff16111561180f57600e60008573ffffffffffffffffffffffffffffffffffffffff1673ffffffffffffffffffffffffffffffffffffffff1681526020019081526020016000208160ff16815481106117e1577f4e487b7100000000000000000000000000000000000000000000000000000000600052603260045260246000fd5b90600052602060002090602091828204019190069054906101000a900460ff168261180c9190614661565b91505b808061181a90614845565b9150506115b7565b5060648160ff1614611869576040517f08c379a000000000000000000000000000000000000000000000000000000000815260040161186090614419565b60405180910390fd5b6001600a60008573ffffffffffffffffffffffffffffffffffffffff1673ffffffffffffffffffffffffffffffffffffffff16815260200190815260200160002060006101000a81548160ff02191690831515021790555050611902565b6040517f08c379a00000000000000000000000000000000000000000000000000000000081526004016118f990614559565b60405180910390fd5b5050565b60025481565b600d602052816000526040600020818154811061192857600080fd5b90600052602060002001600091509150505481565b600e602052816000526040600020818154811061195957600080fd5b9060005260206000209060209182820401919006915091509054906101000a900460ff1681565b60076020528060005260406000206000915054906101000a900460ff1681565b3373ffffffffffffffffffffffffffffffffffffffff16600460009054906101000a900473ffffffffffffffffffffffffffffffffffffffff1673ffffffffffffffffffffffffffffffffffffffff1614611a24577f4e487b7100000000000000000000000000000000000000000000000000000000600052600160045260246000fd5b6001600760008373ffffffffffffffffffffffffffffffffffffffff1673ffffffffffffffffffffffffffffffffffffffff16815260200190815260200160002060006101000a81548160ff02191690831515021790555050565b3373ffffffffffffffffffffffffffffffffffffffff16600460009054906101000a900473ffffffffffffffffffffffffffffffffffffffff1673ffffffffffffffffffffffffffffffffffffffff1614611b03577f4e487b7100000000000000000000000000000000000000000000000000000000600052600160045260246000fd5b6000600860008373ffffffffffffffffffffffffffffffffffffffff1673ffffffffffffffffffffffffffffffffffffffff16815260200190815260200160002060006101000a81548160ff02191690831515021790555050565b3373ffffffffffffffffffffffffffffffffffffffff16600460009054906101000a900473ffffffffffffffffffffffffffffffffffffffff1673ffffffffffffffffffffffffffffffffffffffff1614611be2577f4e487b7100000000000000000000000000000000000000000000000000000000600052600160045260246000fd5b6000600a60008373ffffffffffffffffffffffffffffffffffffffff1673ffffffffffffffffffffffffffffffffffffffff16815260200190815260200160002060006101000a81548160ff0219169083151502179055506000600c60008373ffffffffffffffffffffffffffffffffffffffff1673ffffffffffffffffffffffffffffffffffffffff1681526020019081526020016000208190555060005b600b60008373ffffffffffffffffffffffffffffffffffffffff1673ffffffffffffffffffffffffffffffffffffffff16815260200190815260200160002060009054906101000a900460ff1660ff168160ff161015611f3757600d60008373ffffffffffffffffffffffffffffffffffffffff1673ffffffffffffffffffffffffffffffffffffffff1681526020019081526020016000208160ff1681548110611d56577f4e487b7100000000000000000000000000000000000000000000000000000000600052603260045260246000fd5b9060005260206000200160009055600e60008373ffffffffffffffffffffffffffffffffffffffff1673ffffffffffffffffffffffffffffffffffffffff1681526020019081526020016000208160ff1681548110611dde577f4e487b7100000000000000000000000000000000000000000000000000000000600052603260045260246000fd5b90600052602060002090602091828204019190066101000a81549060ff0219169055600f60008373ffffffffffffffffffffffffffffffffffffffff1673ffffffffffffffffffffffffffffffffffffffff1681526020019081526020016000208160ff1681548110611e7a577f4e487b7100000000000000000000000000000000000000000000000000000000600052603260045260246000fd5b90600052602060002090602091828204019190066101000a81549060ff0219169055601060008373ffffffffffffffffffffffffffffffffffffffff1673ffffffffffffffffffffffffffffffffffffffff1681526020019081526020016000208160ff1681548110611f16577f4e487b7100000000000000000000000000000000000000000000000000000000600052603260045260246000fd5b90600052602060002001600090558080611f2f90614845565b915050611c82565b506000600b60008373ffffffffffffffffffffffffffffffffffffffff1673ffffffffffffffffffffffffffffffffffffffff16815260200190815260200160002060006101000a81548160ff021916908360ff16021790555050565b3373ffffffffffffffffffffffffffffffffffffffff16600460009054906101000a900473ffffffffffffffffffffffffffffffffffffffff1673ffffffffffffffffffffffffffffffffffffffff1614612018577f4e487b7100000000000000000000000000000000000000000000000000000000600052600160045260246000fd5b60011515600a60008473ffffffffffffffffffffffffffffffffffffffff1673ffffffffffffffffffffffffffffffffffffffff16815260200190815260200160002060009054906101000a900460ff16151514156120ac576040517f08c379a00000000000000000000000000000000000000000000000000000000081526004016120a390614399565b60405180910390fd5b60028160ff1610801561210e57506000600b60008473ffffffffffffffffffffffffffffffffffffffff1673ffffffffffffffffffffffffffffffffffffffff16815260200190815260200160002060009054906101000a900460ff1660ff16115b1561214e576040517f08c379a000000000000000000000000000000000000000000000000000000000815260040161214590614439565b60405180910390fd5b80600b60008473ffffffffffffffffffffffffffffffffffffffff1673ffffffffffffffffffffffffffffffffffffffff16815260200190815260200160002060006101000a81548160ff021916908360ff1602179055508060ff1667ffffffffffffffff8111156121e9577f4e487b7100000000000000000000000000000000000000000000000000000000600052604160045260246000fd5b6040519080825280602002602001820160405280156122175781602001602082028036833780820191505090505b50600d60008473ffffffffffffffffffffffffffffffffffffffff1673ffffffffffffffffffffffffffffffffffffffff168152602001908152602001600020908051906020019061226a929190613c8d565b508060ff1667ffffffffffffffff8111156122ae577f4e487b7100000000000000000000000000000000000000000000000000000000600052604160045260246000fd5b6040519080825280602002602001820160405280156122dc5781602001602082028036833780820191505090505b50600e60008473ffffffffffffffffffffffffffffffffffffffff1673ffffffffffffffffffffffffffffffffffffffff168152602001908152602001600020908051906020019061232f929190613cda565b508060ff1667ffffffffffffffff811115612373577f4e487b7100000000000000000000000000000000000000000000000000000000600052604160045260246000fd5b6040519080825280602002602001820160405280156123a15781602001602082028036833780820191505090505b50600f60008473ffffffffffffffffffffffffffffffffffffffff1673ffffffffffffffffffffffffffffffffffffffff16815260200190815260200160002090805190602001906123f4929190613d81565b508060ff1667ffffffffffffffff811115612438577f4e487b7100000000000000000000000000000000000000000000000000000000600052604160045260246000fd5b6040519080825280602002602001820160405280156124665781602001602082028036833780820191505090505b50601060008473ffffffffffffffffffffffffffffffffffffffff1673ffffffffffffffffffffffffffffffffffffffff16815260200190815260200160002090805190602001906124b9929190613c8d565b505050565b6000600660009054906101000a900460ff16905090565b600080601160003373ffffffffffffffffffffffffffffffffffffffff1673ffffffffffffffffffffffffffffffffffffffff16815260200190815260200160002060008573ffffffffffffffffffffffffffffffffffffffff1673ffffffffffffffffffffffffffffffffffffffff168152602001908152602001600020549050808311156125e6576000601160003373ffffffffffffffffffffffffffffffffffffffff1673ffffffffffffffffffffffffffffffffffffffff16815260200190815260200160002060008673ffffffffffffffffffffffffffffffffffffffff1673ffffffffffffffffffffffffffffffffffffffff1681526020019081526020016000208190555061267a565b6125f98382613b1590919063ffffffff16565b601160003373ffffffffffffffffffffffffffffffffffffffff1673ffffffffffffffffffffffffffffffffffffffff16815260200190815260200160002060008673ffffffffffffffffffffffffffffffffffffffff1673ffffffffffffffffffffffffffffffffffffffff168152602001908152602001600020819055505b8373ffffffffffffffffffffffffffffffffffffffff163373ffffffffffffffffffffffffffffffffffffffff167f8c5be1e5ebec7d5bd14f71427d1e84f3dd0314c0f7b2291e5b200ac8c7c3b925601160003373ffffffffffffffffffffffffffffffffffffffff1673ffffffffffffffffffffffffffffffffffffffff16815260200190815260200160002060008873ffffffffffffffffffffffffffffffffffffffff1673ffffffffffffffffffffffffffffffffffffffff1681526020019081526020016000205460405161275391906145b9565b60405180910390a3600191505092915050565b60096020528060005260406000206000915090505481565b6010602052816000526040600020818154811061279a57600080fd5b90600052602060002001600091509150505481565b600a6020528060005260406000206000915054906101000a900460ff1681565b600460009054906101000a900473ffffffffffffffffffffffffffffffffffffffff1681565b6001805461280290614813565b80601f016020809104026020016040519081016040528092919081815260200182805461282e90614813565b801561287b5780601f106128505761010080835404028352916020019161287b565b820191906000526020600020905b81548152906001019060200180831161285e57829003601f168201915b505050505081565b6000600760003373ffffffffffffffffffffffffffffffffffffffff1673ffffffffffffffffffffffffffffffffffffffff16815260200190815260200160002060009054906101000a900460ff16806128f0575060001515600660009054906101000a900460ff161515145b61292f576040517f08c379a0000000000000000000000000000000000000000000000000000000008152600401612926906144b9565b60405180910390fd5b600860003373ffffffffffffffffffffffffffffffffffffffff1673ffffffffffffffffffffffffffffffffffffffff16815260200190815260200160002060009054906101000a900460ff161580156129d35750600860008473ffffffffffffffffffffffffffffffffffffffff1673ffffffffffffffffffffffffffffffffffffffff16815260200190815260200160002060009054906101000a900460ff16155b612a12576040517f08c379a0000000000000000000000000000000000000000000000000000000008152600401612a0990614599565b60405180910390fd5b81600960003373ffffffffffffffffffffffffffffffffffffffff1673ffffffffffffffffffffffffffffffffffffffff1681526020019081526020016000205410158015612af15750600960008473ffffffffffffffffffffffffffffffffffffffff1673ffffffffffffffffffffffffffffffffffffffff16815260200190815260200160002054612aee83600960008773ffffffffffffffffffffffffffffffffffffffff1673ffffffffffffffffffffffffffffffffffffffff16815260200190815260200160002054613b6e90919063ffffffff16565b10155b612b30576040517f08c379a0000000000000000000000000000000000000000000000000000000008152600401612b2790614559565b60405180910390fd5b60001515600a60008573ffffffffffffffffffffffffffffffffffffffff1673ffffffffffffffffffffffffffffffffffffffff16815260200190815260200160002060009054906101000a900460ff16151514612bc3576040517f08c379a0000000000000000000000000000000000000000000000000000000008152600401612bba906144d9565b60405180910390fd5b600a60003373ffffffffffffffffffffffffffffffffffffffff1673ffffffffffffffffffffffffffffffffffffffff16815260200190815260200160002060009054906101000a900460ff1615612cab57612c6782600c60003373ffffffffffffffffffffffffffffffffffffffff1673ffffffffffffffffffffffffffffffffffffffff16815260200190815260200160002054613b1590919063ffffffff16565b600c60003373ffffffffffffffffffffffffffffffffffffffff1673ffffffffffffffffffffffffffffffffffffffff168152602001908152602001600020819055505b612cfd82600960003373ffffffffffffffffffffffffffffffffffffffff1673ffffffffffffffffffffffffffffffffffffffff16815260200190815260200160002054613b1590919063ffffffff16565b600960003373ffffffffffffffffffffffffffffffffffffffff1673ffffffffffffffffffffffffffffffffffffffff16815260200190815260200160002081905550612d9282600960008673ffffffffffffffffffffffffffffffffffffffff1673ffffffffffffffffffffffffffffffffffffffff16815260200190815260200160002054613b6e90919063ffffffff16565b600960008573ffffffffffffffffffffffffffffffffffffffff1673ffffffffffffffffffffffffffffffffffffffff168152602001908152602001600020819055508273ffffffffffffffffffffffffffffffffffffffff163373ffffffffffffffffffffffffffffffffffffffff167fddf252ad1be2c89b69c2b068fc378daa952ba7f163c4a11628f55a4df523b3ef84604051612e3291906145b9565b60405180910390a36001905092915050565b600c6020528060005260406000206000915090505481565b60001515600a60008373ffffffffffffffffffffffffffffffffffffffff1673ffffffffffffffffffffffffffffffffffffffff16815260200190815260200160002060009054906101000a900460ff1615151415612ef0576040517f08c379a0000000000000000000000000000000000000000000000000000000008152600401612ee7906143d9565b60405180910390fd5b60005b600b60003373ffffffffffffffffffffffffffffffffffffffff1673ffffffffffffffffffffffffffffffffffffffff16815260200190815260200160002060009054906101000a900460ff1660ff168160ff16101561328657600d60008373ffffffffffffffffffffffffffffffffffffffff1673ffffffffffffffffffffffffffffffffffffffff1681526020019081526020016000208160ff1681548110612fc7577f4e487b7100000000000000000000000000000000000000000000000000000000600052603260045260246000fd5b9060005260206000200154421015801561307e575060001515600f60008473ffffffffffffffffffffffffffffffffffffffff1673ffffffffffffffffffffffffffffffffffffffff1681526020019081526020016000208260ff168154811061305a577f4e487b7100000000000000000000000000000000000000000000000000000000600052603260045260246000fd5b90600052602060002090602091828204019190069054906101000a900460ff161515145b1561327357601060008373ffffffffffffffffffffffffffffffffffffffff1673ffffffffffffffffffffffffffffffffffffffff1681526020019081526020016000208160ff16815481106130fd577f4e487b7100000000000000000000000000000000000000000000000000000000600052603260045260246000fd5b9060005260206000200154600c60008473ffffffffffffffffffffffffffffffffffffffff1673ffffffffffffffffffffffffffffffffffffffff1681526020019081526020016000206000828254613156919061460b565b925050819055506001600f60008473ffffffffffffffffffffffffffffffffffffffff1673ffffffffffffffffffffffffffffffffffffffff1681526020019081526020016000208260ff16815481106131d9577f4e487b7100000000000000000000000000000000000000000000000000000000600052603260045260246000fd5b90600052602060002090602091828204019190066101000a81548160ff0219169083151502179055508060ff166001600b60008573ffffffffffffffffffffffffffffffffffffffff1673ffffffffffffffffffffffffffffffffffffffff16815260200190815260200160002060009054906101000a900460ff1661325f9190614757565b60ff1614156132725761327182611b5e565b5b5b808061327e90614845565b915050612ef3565b5050565b600b6020528060005260406000206000915054906101000a900460ff1681565b60003373ffffffffffffffffffffffffffffffffffffffff16600460009054906101000a900473ffffffffffffffffffffffffffffffffffffffff1673ffffffffffffffffffffffffffffffffffffffff1614613330577f4e487b7100000000000000000000000000000000000000000000000000000000600052600160045260246000fd5b81600660006101000a81548160ff02191690831515021790555060019050919050565b3373ffffffffffffffffffffffffffffffffffffffff16600460009054906101000a900473ffffffffffffffffffffffffffffffffffffffff1673ffffffffffffffffffffffffffffffffffffffff16146133d7577f4e487b7100000000000000000000000000000000000000000000000000000000600052600160045260246000fd5b600460009054906101000a900473ffffffffffffffffffffffffffffffffffffffff1673ffffffffffffffffffffffffffffffffffffffff168173ffffffffffffffffffffffffffffffffffffffff161415613468576040517f08c379a000000000000000000000000000000000000000000000000000000000815260040161345f90614539565b60405180910390fd5b6000600760008373ffffffffffffffffffffffffffffffffffffffff1673ffffffffffffffffffffffffffffffffffffffff16815260200190815260200160002060006101000a81548160ff02191690831515021790555050565b600081601160003373ffffffffffffffffffffffffffffffffffffffff1673ffffffffffffffffffffffffffffffffffffffff16815260200190815260200160002060008573ffffffffffffffffffffffffffffffffffffffff1673ffffffffffffffffffffffffffffffffffffffff1681526020019081526020016000205461354d919061460b565b601160003373ffffffffffffffffffffffffffffffffffffffff1673ffffffffffffffffffffffffffffffffffffffff16815260200190815260200160002060008573ffffffffffffffffffffffffffffffffffffffff1673ffffffffffffffffffffffffffffffffffffffff168152602001908152602001600020819055508273ffffffffffffffffffffffffffffffffffffffff163373ffffffffffffffffffffffffffffffffffffffff167f8c5be1e5ebec7d5bd14f71427d1e84f3dd0314c0f7b2291e5b200ac8c7c3b925601160003373ffffffffffffffffffffffffffffffffffffffff1673ffffffffffffffffffffffffffffffffffffffff16815260200190815260200160002060008773ffffffffffffffffffffffffffffffffffffffff1673ffffffffffffffffffffffffffffffffffffffff168152602001908152602001600020546040516136a691906145b9565b60405180910390a36001905092915050565b3373ffffffffffffffffffffffffffffffffffffffff16600460009054906101000a900473ffffffffffffffffffffffffffffffffffffffff1673ffffffffffffffffffffffffffffffffffffffff161461373c577f4e487b7100000000000000000000000000000000000000000000000000000000600052600160045260246000fd5b8242111561377f576040517f08c379a0000000000000000000000000000000000000000000000000000000008152600401613776906143b9565b60405180910390fd5b600b60008573ffffffffffffffffffffffffffffffffffffffff1673ffffffffffffffffffffffffffffffffffffffff16815260200190815260200160002060009054906101000a900460ff1660ff168260ff1610613813576040517f08c379a000000000000000000000000000000000000000000000000000000000815260040161380a90614499565b60405180910390fd5b60008260ff16141580156138b7575082600d60008673ffffffffffffffffffffffffffffffffffffffff1673ffffffffffffffffffffffffffffffffffffffff16815260200190815260200160002060018461386f9190614757565b60ff16815481106138a9577f4e487b7100000000000000000000000000000000000000000000000000000000600052603260045260246000fd5b906000526020600020015410155b156138f7576040517f08c379a00000000000000000000000000000000000000000000000000000000081526004016138ee906144f9565b60405180910390fd5b80600e60008673ffffffffffffffffffffffffffffffffffffffff1673ffffffffffffffffffffffffffffffffffffffff1681526020019081526020016000208360ff1681548110613972577f4e487b7100000000000000000000000000000000000000000000000000000000600052603260045260246000fd5b90600052602060002090602091828204019190066101000a81548160ff021916908360ff16021790555082600d60008673ffffffffffffffffffffffffffffffffffffffff1673ffffffffffffffffffffffffffffffffffffffff1681526020019081526020016000208360ff1681548110613a17577f4e487b7100000000000000000000000000000000000000000000000000000000600052603260045260246000fd5b906000526020600020018190555050505050565b6000601160008473ffffffffffffffffffffffffffffffffffffffff1673ffffffffffffffffffffffffffffffffffffffff16815260200190815260200160002060008373ffffffffffffffffffffffffffffffffffffffff1673ffffffffffffffffffffffffffffffffffffffff16815260200190815260200160002054905092915050565b600f6020528160005260406000208181548110613ace57600080fd5b9060005260206000209060209182820401919006915091509054906101000a900460ff1681565b60086020528060005260406000206000915054906101000a900460ff1681565b600082821115613b5a576040517f08c379a0000000000000000000000000000000000000000000000000000000008152600401613b5190614459565b60405180910390fd5b8183613b669190614723565b905092915050565b60008183613b7c919061460b565b905082811015613bc1576040517f08c379a0000000000000000000000000000000000000000000000000000000008152600401613bb8906143f9565b60405180910390fd5b92915050565b60008183613bd591906146c9565b90506000831480613bf05750818382613bee9190614698565b145b613c2f576040517f08c379a0000000000000000000000000000000000000000000000000000000008152600401613c2690614519565b60405180910390fd5b92915050565b6000808211613c79576040517f08c379a0000000000000000000000000000000000000000000000000000000008152600401613c7090614479565b60405180910390fd5b8183613c859190614698565b905092915050565b828054828255906000526020600020908101928215613cc9579160200282015b82811115613cc8578251825591602001919060010190613cad565b5b509050613cd69190613e27565b5090565b82805482825590600052602060002090601f01602090048101928215613d705791602002820160005b83821115613d4157835183826101000a81548160ff021916908360ff1602179055509260200192600101602081600001049283019260010302613d03565b8015613d6e5782816101000a81549060ff0219169055600101602081600001049283019260010302613d41565b505b509050613d7d9190613e27565b5090565b82805482825590600052602060002090601f01602090048101928215613e165791602002820160005b83821115613de757835183826101000a81548160ff0219169083151502179055509260200192600101602081600001049283019260010302613daa565b8015613e145782816101000a81549060ff0219169055600101602081600001049283019260010302613de7565b505b509050613e239190613e27565b5090565b5b80821115613e40576000816000905550600101613e28565b5090565b600081359050613e5381614bec565b92915050565b600081359050613e6881614c03565b92915050565b600081359050613e7d81614c1a565b92915050565b600081359050613e9281614c31565b92915050565b600060208284031215613eaa57600080fd5b6000613eb884828501613e44565b91505092915050565b60008060408385031215613ed457600080fd5b6000613ee285828601613e44565b9250506020613ef385828601613e44565b9150509250929050565b600080600060608486031215613f1257600080fd5b6000613f2086828701613e44565b9350506020613f3186828701613e44565b9250506040613f4286828701613e6e565b9150509250925092565b60008060408385031215613f5f57600080fd5b6000613f6d85828601613e44565b9250506020613f7e85828601613e6e565b9150509250929050565b60008060008060808587031215613f9e57600080fd5b6000613fac87828801613e44565b9450506020613fbd87828801613e6e565b9350506040613fce87828801613e83565b9250506060613fdf87828801613e83565b91505092959194509250565b60008060408385031215613ffe57600080fd5b600061400c85828601613e44565b925050602061401d85828601613e83565b9150509250929050565b60006020828403121561403957600080fd5b600061404784828501613e59565b91505092915050565b60006020828403121561406257600080fd5b600061407084828501613e6e565b91505092915050565b6140828161478b565b82525050565b6140918161479d565b82525050565b60006140a2826145ef565b6140ac81856145fa565b93506140bc8185602086016147e0565b6140c5816148fc565b840191505092915050565b60006140dd6013836145fa565b91506140e88261490d565b602082019050919050565b6000614100601e836145fa565b915061410b82614936565b602082019050919050565b60006141236014836145fa565b915061412e8261495f565b602082019050919050565b6000614146601b836145fa565b915061415182614988565b602082019050919050565b60006141696012836145fa565b9150614174826149b1565b602082019050919050565b600061418c601b836145fa565b9150614197826149da565b602082019050919050565b60006141af601e836145fa565b91506141ba82614a03565b602082019050919050565b60006141d2601a836145fa565b91506141dd82614a2c565b602082019050919050565b60006141f56014836145fa565b915061420082614a55565b602082019050919050565b60006142186014836145fa565b915061422382614a7e565b602082019050919050565b600061423b6011836145fa565b915061424682614aa7565b602082019050919050565b600061425e601f836145fa565b915061426982614ad0565b602082019050919050565b60006142816021836145fa565b915061428c82614af9565b604082019050919050565b60006142a46009836145fa565b91506142af82614b48565b602082019050919050565b60006142c7600f836145fa565b91506142d282614b71565b602082019050919050565b60006142ea6019836145fa565b91506142f582614b9a565b602082019050919050565b600061430d600f836145fa565b915061431882614bc3565b602082019050919050565b61432c816147c9565b82525050565b61433b816147d3565b82525050565b60006020820190506143566000830184614079565b92915050565b60006020820190506143716000830184614088565b92915050565b600060208201905081810360008301526143918184614097565b905092915050565b600060208201905081810360008301526143b2816140d0565b9050919050565b600060208201905081810360008301526143d2816140f3565b9050919050565b600060208201905081810360008301526143f281614116565b9050919050565b6000602082019050818103600083015261441281614139565b9050919050565b600060208201905081810360008301526144328161415c565b9050919050565b600060208201905081810360008301526144528161417f565b9050919050565b60006020820190508181036000830152614472816141a2565b9050919050565b60006020820190508181036000830152614492816141c5565b9050919050565b600060208201905081810360008301526144b2816141e8565b9050919050565b600060208201905081810360008301526144d28161420b565b9050919050565b600060208201905081810360008301526144f28161422e565b9050919050565b6000602082019050818103600083015261451281614251565b9050919050565b6000602082019050818103600083015261453281614274565b9050919050565b6000602082019050818103600083015261455281614297565b9050919050565b60006020820190508181036000830152614572816142ba565b9050919050565b60006020820190508181036000830152614592816142dd565b9050919050565b600060208201905081810360008301526145b281614300565b9050919050565b60006020820190506145ce6000830184614323565b92915050565b60006020820190506145e96000830184614332565b92915050565b600081519050919050565b600082825260208201905092915050565b6000614616826147c9565b9150614621836147c9565b9250827fffffffffffffffffffffffffffffffffffffffffffffffffffffffffffffffff038211156146565761465561486f565b5b828201905092915050565b600061466c826147d3565b9150614677836147d3565b92508260ff0382111561468d5761468c61486f565b5b828201905092915050565b60006146a3826147c9565b91506146ae836147c9565b9250826146be576146bd61489e565b5b828204905092915050565b60006146d4826147c9565b91506146df836147c9565b9250817fffffffffffffffffffffffffffffffffffffffffffffffffffffffffffffffff04831182151516156147185761471761486f565b5b828202905092915050565b600061472e826147c9565b9150614739836147c9565b92508282101561474c5761474b61486f565b5b828203905092915050565b6000614762826147d3565b915061476d836147d3565b9250828210156147805761477f61486f565b5b828203905092915050565b6000614796826147a9565b9050919050565b60008115159050919050565b600073ffffffffffffffffffffffffffffffffffffffff82169050919050565b6000819050919050565b600060ff82169050919050565b60005b838110156147fe5780820151818401526020810190506147e3565b8381111561480d576000848401525b50505050565b6000600282049050600182168061482b57607f821691505b6020821081141561483f5761483e6148cd565b5b50919050565b6000614850826147d3565b915060ff8214156148645761486361486f565b5b600182019050919050565b7f4e487b7100000000000000000000000000000000000000000000000000000000600052601160045260246000fd5b7f4e487b7100000000000000000000000000000000000000000000000000000000600052601260045260246000fd5b7f4e487b7100000000000000000000000000000000000000000000000000000000600052602260045260246000fd5b6000601f19601f8301169050919050565b7f416c726561647920736574206164647265737300000000000000000000000000600082015250565b7f4d7573742067726561746572207468616e2063757272656e742074696d650000600082015250565b7f4164647265737320776974686f7574204c6f636b000000000000000000000000600082015250565b7f536166654d6174683a206164646974696f6e206f766572666c6f770000000000600082015250565b7f496e76616c69642070657263656e746167650000000000000000000000000000600082015250565b7f506572696f642077616e7420746f207365742069732073686f72740000000000600082015250565b7f536166654d6174683a207375627472616374696f6e206f766572666c6f770000600082015250565b7f536166654d6174683a206469766973696f6e206279207a65726f000000000000600082015250565b7f496e76616c696420536574757020506572696f64000000000000000000000000600082015250565b7f5472616e73666572206c6f636b203a2074727565000000000000000000000000600082015250565b7f4c6f636b2061646472657373203a20746f000000000000000000000000000000600082015250565b7f4d7573742067726561746572207468616e2070726576696f75732074696d6500600082015250565b7f536166654d6174683a206d756c7469706c69636174696f6e206f766572666c6f60008201527f7700000000000000000000000000000000000000000000000000000000000000602082015250565b7f4e6f74206f776e65720000000000000000000000000000000000000000000000600082015250565b7f496e76616c69642062616c616e63650000000000000000000000000000000000600082015250565b7f496e76616c69642062616c616e6365203a20616c6c6f77656400000000000000600082015250565b7f426c6f636b656420616464726573730000000000000000000000000000000000600082015250565b614bf58161478b565b8114614c0057600080fd5b50565b614c0c8161479d565b8114614c1757600080fd5b50565b614c23816147c9565b8114614c2e57600080fd5b50565b614c3a816147d3565b8114614c4557600080fd5b5056fea26469706673582212201ac7216af7faaf35b761044037fefbd66e5d776d942f2be28ba3075cf078430064736f6c63430008010033",
	"immutableReferences": {},
	"source": "// SPDX-License-Identifier: MIT\npragma solidity >0.5.17;\n\nlibrary SafeMath {\n\tfunction add(uint256 a, uint256 b) internal pure returns (uint256 c) {\n\t\tc = a + b;\n\t\trequire(c >= a, 'SafeMath: addition overflow');\n\t}\n\n\tfunction sub(uint256 a, uint256 b) internal pure returns (uint256 c) {\n\t\trequire(b <= a, 'SafeMath: subtraction overflow');\n\t\tc = a - b;\n\t}\n\n\tfunction mul(uint256 a, uint256 b) internal pure returns (uint256 c) {\n\t\tc = a * b;\n\t\trequire(a == 0 || c / a == b, 'SafeMath: multiplication overflow');\n\t}\n\n\tfunction div(uint256 a, uint256 b) internal pure returns (uint256 c) {\n\t\trequire(b > 0, 'SafeMath: division by zero');\n\t\tc = a / b;\n\t}\n}\n\ncontract Variable {\n\tstring public name;\n\tstring public symbol;\n\tuint256 public decimals;\n\tuint256 public totalSupply;\n\taddress public owner;\n\n\tuint256 internal _decimals;\n\tbool internal transferLock;\n\n\tmapping(address => bool) public allowedAddress;\n\tmapping(address => bool) public blockedAddress;\n\n\tmapping(address => uint256) public balanceOf;\n\n\tmapping(address => bool) public lockTimeAddress;\n\tmapping(address => uint8) public lockCountMonth;\n\tmapping(address => uint256) public lockPermitBalance;\n\tmapping(address => uint256[]) public lockTime;\n\tmapping(address => uint8[]) public lockPercent;\n\tmapping(address => bool[]) public lockCheck;\n\tmapping(address => uint256[]) public lockBalance;\n\n\tmapping(address => mapping(address => uint256)) internal allowed;\n\n\tconstructor() public {\n\t\tname = 'Beyond Finance';\n\t\tsymbol = 'BYN';\n\t\tdecimals = 18;\n\t\t_decimals = 10**uint256(decimals);\n\t\ttotalSupply = _decimals * 100000000;\n\t\ttransferLock = false;\n\t\towner = msg.sender;\n\t\tbalanceOf[owner] = totalSupply;\n\t\tallowedAddress[owner] = true;\n\t}\n}\n\ncontract Modifiers is Variable {\n\tmodifier isOwner {\n\t\tassert(owner == msg.sender);\n\t\t_;\n\t}\n}\n\ncontract Event {\n\tevent Transfer(address indexed from, address indexed to, uint256 value);\n\tevent TokenBurn(address indexed from, uint256 value);\n\tevent Approval(address indexed owner, address indexed spender, uint256 value);\n}\n\ncontract manageAddress is Variable, Modifiers, Event {\n\tusing SafeMath for uint256;\n\n\tfunction add_allowedAddress(address _address) public isOwner {\n\t\tallowedAddress[_address] = true;\n\t}\n\n\tfunction delete_allowedAddress(address _address) public isOwner {\n\t\trequire(_address != owner, 'Not owner');\n\t\tallowedAddress[_address] = false;\n\t}\n\n\tfunction add_blockedAddress(address _address) public isOwner {\n\t\trequire(_address != owner, 'Not owner');\n\t\tblockedAddress[_address] = true;\n\t}\n\n\tfunction delete_blockedAddress(address _address) public isOwner {\n\t\tblockedAddress[_address] = false;\n\t}\n\n\tfunction add_timeAddress(address _address, uint8 total_month) public isOwner {\n\t\tif (lockTimeAddress[_address] == true) {\n\t\t\trevert('Already set address');\n\t\t}\n\t\tif (total_month < 2 && lockCountMonth[_address] > 0) {\n\t\t\trevert('Period want to set is short');\n\t\t}\n\t\tlockCountMonth[_address] = total_month;\n\t\tlockTime[_address] = new uint256[](total_month);\n\t\tlockPercent[_address] = new uint8[](total_month);\n\t\tlockCheck[_address] = new bool[](total_month);\n\t\tlockBalance[_address] = new uint256[](total_month);\n\t}\n\n\tfunction delete_timeAddress(address _address) public isOwner {\n\t\tlockTimeAddress[_address] = false;\n\t\tlockPermitBalance[_address] = 0;\n\t\tfor (uint8 i = 0; i < lockCountMonth[_address]; i++) {\n\t\t\tdelete lockTime[_address][i];\n\t\t\tdelete lockPercent[_address][i];\n\t\t\tdelete lockCheck[_address][i];\n\t\t\tdelete lockBalance[_address][i];\n\t\t}\n\t\tlockCountMonth[_address] = 0;\n\t}\n\n\tfunction add_timeAddressMonth(\n\t\taddress _address,\n\t\tuint256 _time,\n\t\tuint8 idx,\n\t\tuint8 _percent\n\t) public isOwner {\n\t\tif (block.timestamp > _time) {\n\t\t\trevert('Must greater than current time');\n\t\t}\n\t\tif (idx >= lockCountMonth[_address]) {\n\t\t\trevert('Invalid Setup Period');\n\t\t}\n\t\tif (idx != 0 && lockTime[_address][idx - 1] >= _time) {\n\t\t\trevert('Must greater than previous time');\n\t\t}\n\n\t\tlockPercent[_address][idx] = _percent;\n\t\tlockTime[_address][idx] = _time;\n\t}\n\n\tfunction add_timeAddressApply(address _address, uint256 lock_balance) public isOwner {\n\t\tif (balanceOf[_address] >= lock_balance && lock_balance > 0) {\n\t\t\tuint8 sum = lockPercent[_address][0];\n\n\t\t\tlockPermitBalance[_address] = 0;\n\t\t\tfor (uint8 i = 0; i < lockCountMonth[_address]; i++) {\n\t\t\t\tlockBalance[_address][i] = (lock_balance.mul(lockPercent[_address][i])).div(100);\n\t\t\t\tif (i > 0) {\n\t\t\t\t\tsum += lockPercent[_address][i];\n\t\t\t\t}\n\t\t\t}\n\n\t\t\tif (sum != 100) {\n\t\t\t\trevert('Invalid percentage');\n\t\t\t}\n\t\t\tlockTimeAddress[_address] = true;\n\t\t} else {\n\t\t\trevert('Invalid balance');\n\t\t}\n\t}\n\n\tfunction refresh_lockPermitBalance(address _address) public {\n\t\tif (lockTimeAddress[_address] == false) {\n\t\t\trevert('Address without Lock');\n\t\t}\n\t\tfor (uint8 i = 0; i < lockCountMonth[msg.sender]; i++) {\n\t\t\tif (block.timestamp >= lockTime[_address][i] && lockCheck[_address][i] == false) {\n\t\t\t\tlockPermitBalance[_address] += lockBalance[_address][i];\n\t\t\t\tlockCheck[_address][i] = true;\n\t\t\t\tif (lockCountMonth[_address] - 1 == i) {\n\t\t\t\t\tdelete_timeAddress(_address);\n\t\t\t\t}\n\t\t\t}\n\t\t}\n\t}\n}\n\ncontract Admin is Variable, Modifiers, Event {\n\tusing SafeMath for uint256;\n\n\tfunction admin_tokenBurn(uint256 _value) public isOwner returns (bool success) {\n\t\trequire(balanceOf[msg.sender] >= _value, 'Invalid balance');\n\t\tbalanceOf[msg.sender] = balanceOf[msg.sender].sub(_value);\n\t\ttotalSupply = totalSupply.sub(_value);\n\t\temit TokenBurn(msg.sender, _value);\n\t\treturn true;\n\t}\n}\n\ncontract Get is Variable, Modifiers {\n\tfunction get_transferLock() public view returns (bool) {\n\t\treturn transferLock;\n\t}\n}\n\ncontract Set is Variable, Modifiers, Event {\n\tfunction setTransferLock(bool _transferLock) public isOwner returns (bool success) {\n\t\ttransferLock = _transferLock;\n\t\treturn true;\n\t}\n}\n\ncontract BYN is Variable, Event, Get, Set, Admin, manageAddress {\n\tusing SafeMath for uint256;\n\tfunction allowance(address tokenOwner, address spender) public view returns (uint256 remaining) {\n\t\treturn allowed[tokenOwner][spender];\n\t}\n\n\tfunction increaseApproval(address _spender, uint256 _addedValue) public returns (bool) {\n\t\tallowed[msg.sender][_spender] = allowed[msg.sender][_spender] + (_addedValue);\n\t\temit Approval(msg.sender, _spender, allowed[msg.sender][_spender]);\n\t\treturn true;\n\t}\n\n\tfunction decreaseApproval(address _spender, uint256 _subtractedValue) public returns (bool) {\n\t\tuint256 oldValue = allowed[msg.sender][_spender];\n\t\tif (_subtractedValue > oldValue) {\n\t\t\tallowed[msg.sender][_spender] = 0;\n\t\t} else {\n\t\t\tallowed[msg.sender][_spender] = oldValue.sub(_subtractedValue);\n\t\t}\n\t\temit Approval(msg.sender, _spender, allowed[msg.sender][_spender]);\n\t\treturn true;\n\t}\n\n\tfunction approve(address _spender, uint256 _value) public returns (bool) {\n\t\tallowed[msg.sender][_spender] = _value;\n\t\temit Approval(msg.sender, _spender, _value);\n\t\treturn true;\n\t}\n\n\tfunction transferFrom(\n\t\taddress _from,\n\t\taddress _to,\n\t\tuint256 _value\n\t) public returns (bool) {\n\t\trequire(allowedAddress[_from] || transferLock == false, 'Transfer lock : true');\n\t\trequire(!blockedAddress[_from] && !blockedAddress[_to] && !blockedAddress[msg.sender], 'Blocked address');\n\t\trequire(balanceOf[_from] >= _value && (balanceOf[_to].add(_value)) >= balanceOf[_to], 'Invalid balance');\n\t\trequire(lockTimeAddress[_to] == false, 'Lock address : to');\n\t\trequire(_value <= allowed[_from][msg.sender], 'Invalid balance : allowed');\n\n\t\tif (lockTimeAddress[_from]) {\n\t\t\tlockPermitBalance[_from] = lockPermitBalance[_from].sub(_value);\n\t\t}\n\n\t\tbalanceOf[_from] = balanceOf[_from].sub(_value);\n\t\tbalanceOf[_to] = balanceOf[_to].add(_value);\n\t\tallowed[_from][msg.sender] = allowed[_from][msg.sender].sub(_value);\n\t\temit Transfer(_from, _to, _value);\n\n\t\treturn true;\n\t}\n\n\tfunction transfer(address _to, uint256 _value) public returns (bool) {\n\t\trequire(allowedAddress[msg.sender] || transferLock == false, 'Transfer lock : true');\n\t\trequire(!blockedAddress[msg.sender] && !blockedAddress[_to], 'Blocked address');\n\t\trequire(balanceOf[msg.sender] >= _value && (balanceOf[_to].add(_value)) >= balanceOf[_to], 'Invalid balance');\n\t\trequire(lockTimeAddress[_to] == false, 'Lock address : to');\n\n\t\tif (lockTimeAddress[msg.sender]) {\n\t\t\tlockPermitBalance[msg.sender] = lockPermitBalance[msg.sender].sub(_value);\n\t\t}\n\n\t\tbalanceOf[msg.sender] = balanceOf[msg.sender].sub(_value);\n\t\tbalanceOf[_to] = balanceOf[_to].add(_value);\n\t\temit Transfer(msg.sender, _to, _value);\n\n\t\treturn true;\n\t}\n}\n",
	"sourcePath": "/media/aniket/home/aniket/Work/nonceblox-work/BF_Staking/contracts/Tokens.sol",
	"compiler": {
		"name": "solc",
		"version": "0.8.1+commit.df193b15.Emscripten.clang"
	},
	"schemaVersion": "3.3.4",
	"updatedAt": "2021-04-16T04:31:29.273Z",
	"networkType": "ethereum",
	"devdoc": {
		"kind": "dev",
		"methods": {},
		"version": 1
	},
	"userdoc": {
		"kind": "user",
		"methods": {},
		"version": 1
	}
}