{
	"contractName": "Get",
	"abi": [
		{
			"inputs": [
				{
					"internalType": "address",
					"name": "",
					"type": "address"
				}
			],
			"name": "allowedAddress",
			"outputs": [
				{
					"internalType": "bool",
					"name": "",
					"type": "bool"
				}
			],
			"stateMutability": "view",
			"type": "function"
		},
		{
			"inputs": [
				{
					"internalType": "address",
					"name": "",
					"type": "address"
				}
			],
			"name": "balanceOf",
			"outputs": [
				{
					"internalType": "uint256",
					"name": "",
					"type": "uint256"
				}
			],
			"stateMutability": "view",
			"type": "function"
		},
		{
			"inputs": [
				{
					"internalType": "address",
					"name": "",
					"type": "address"
				}
			],
			"name": "blockedAddress",
			"outputs": [
				{
					"internalType": "bool",
					"name": "",
					"type": "bool"
				}
			],
			"stateMutability": "view",
			"type": "function"
		},
		{
			"inputs": [],
			"name": "decimals",
			"outputs": [
				{
					"internalType": "uint256",
					"name": "",
					"type": "uint256"
				}
			],
			"stateMutability": "view",
			"type": "function"
		},
		{
			"inputs": [
				{
					"internalType": "address",
					"name": "",
					"type": "address"
				},
				{
					"internalType": "uint256",
					"name": "",
					"type": "uint256"
				}
			],
			"name": "lockBalance",
			"outputs": [
				{
					"internalType": "uint256",
					"name": "",
					"type": "uint256"
				}
			],
			"stateMutability": "view",
			"type": "function"
		},
		{
			"inputs": [
				{
					"internalType": "address",
					"name": "",
					"type": "address"
				},
				{
					"internalType": "uint256",
					"name": "",
					"type": "uint256"
				}
			],
			"name": "lockCheck",
			"outputs": [
				{
					"internalType": "bool",
					"name": "",
					"type": "bool"
				}
			],
			"stateMutability": "view",
			"type": "function"
		},
		{
			"inputs": [
				{
					"internalType": "address",
					"name": "",
					"type": "address"
				}
			],
			"name": "lockCountMonth",
			"outputs": [
				{
					"internalType": "uint8",
					"name": "",
					"type": "uint8"
				}
			],
			"stateMutability": "view",
			"type": "function"
		},
		{
			"inputs": [
				{
					"internalType": "address",
					"name": "",
					"type": "address"
				},
				{
					"internalType": "uint256",
					"name": "",
					"type": "uint256"
				}
			],
			"name": "lockPercent",
			"outputs": [
				{
					"internalType": "uint8",
					"name": "",
					"type": "uint8"
				}
			],
			"stateMutability": "view",
			"type": "function"
		},
		{
			"inputs": [
				{
					"internalType": "address",
					"name": "",
					"type": "address"
				}
			],
			"name": "lockPermitBalance",
			"outputs": [
				{
					"internalType": "uint256",
					"name": "",
					"type": "uint256"
				}
			],
			"stateMutability": "view",
			"type": "function"
		},
		{
			"inputs": [
				{
					"internalType": "address",
					"name": "",
					"type": "address"
				},
				{
					"internalType": "uint256",
					"name": "",
					"type": "uint256"
				}
			],
			"name": "lockTime",
			"outputs": [
				{
					"internalType": "uint256",
					"name": "",
					"type": "uint256"
				}
			],
			"stateMutability": "view",
			"type": "function"
		},
		{
			"inputs": [
				{
					"internalType": "address",
					"name": "",
					"type": "address"
				}
			],
			"name": "lockTimeAddress",
			"outputs": [
				{
					"internalType": "bool",
					"name": "",
					"type": "bool"
				}
			],
			"stateMutability": "view",
			"type": "function"
		},
		{
			"inputs": [],
			"name": "name",
			"outputs": [
				{
					"internalType": "string",
					"name": "",
					"type": "string"
				}
			],
			"stateMutability": "view",
			"type": "function"
		},
		{
			"inputs": [],
			"name": "owner",
			"outputs": [
				{
					"internalType": "address",
					"name": "",
					"type": "address"
				}
			],
			"stateMutability": "view",
			"type": "function"
		},
		{
			"inputs": [],
			"name": "symbol",
			"outputs": [
				{
					"internalType": "string",
					"name": "",
					"type": "string"
				}
			],
			"stateMutability": "view",
			"type": "function"
		},
		{
			"inputs": [],
			"name": "totalSupply",
			"outputs": [
				{
					"internalType": "uint256",
					"name": "",
					"type": "uint256"
				}
			],
			"stateMutability": "view",
			"type": "function"
		},
		{
			"inputs": [],
			"name": "get_transferLock",
			"outputs": [
				{
					"internalType": "bool",
					"name": "",
					"type": "bool"
				}
			],
			"stateMutability": "view",
			"type": "function"
		}
	],
	"bytecode": "0x60806040523480156200001157600080fd5b506040518060400160405280600e81526020017f4265796f6e642046696e616e6365000000000000000000000000000000000000815250600090805190602001906200005f9291906200022b565b506040518060400160405280600381526020017f42594e000000000000000000000000000000000000000000000000000000000081525060019080519060200190620000ad9291906200022b565b506012600281905550600254600a620000c7919062000336565b6005819055506305f5e100600554620000e1919062000473565b6003819055506000600660006101000a81548160ff02191690831515021790555033600460006101000a81548173ffffffffffffffffffffffffffffffffffffffff021916908373ffffffffffffffffffffffffffffffffffffffff16021790555060035460096000600460009054906101000a900473ffffffffffffffffffffffffffffffffffffffff1673ffffffffffffffffffffffffffffffffffffffff1673ffffffffffffffffffffffffffffffffffffffff16815260200190815260200160002081905550600160076000600460009054906101000a900473ffffffffffffffffffffffffffffffffffffffff1673ffffffffffffffffffffffffffffffffffffffff1673ffffffffffffffffffffffffffffffffffffffff16815260200190815260200160002060006101000a81548160ff0219169083151502179055506200057f565b8280546200023990620004de565b90600052602060002090601f0160209004810192826200025d5760008555620002a9565b82601f106200027857805160ff1916838001178555620002a9565b82800160010185558215620002a9579182015b82811115620002a85782518255916020019190600101906200028b565b5b509050620002b89190620002bc565b5090565b5b80821115620002d7576000816000905550600101620002bd565b5090565b6000808291508390505b60018511156200032d5780860481111562000305576200030462000514565b5b6001851615620003155780820291505b8081029050620003258562000572565b9450620002e5565b94509492505050565b60006200034382620004d4565b91506200035083620004d4565b92506200037f7fffffffffffffffffffffffffffffffffffffffffffffffffffffffffffffffff848462000387565b905092915050565b6000826200039957600190506200046c565b81620003a957600090506200046c565b8160018114620003c25760028114620003cd5762000403565b60019150506200046c565b60ff841115620003e257620003e162000514565b5b8360020a915084821115620003fc57620003fb62000514565b5b506200046c565b5060208310610133831016604e8410600b84101617156200043d5782820a90508381111562000437576200043662000514565b5b6200046c565b6200044c8484846001620002db565b9250905081840481111562000466576200046562000514565b5b81810290505b9392505050565b60006200048082620004d4565b91506200048d83620004d4565b9250817fffffffffffffffffffffffffffffffffffffffffffffffffffffffffffffffff0483118215151615620004c957620004c862000514565b5b828202905092915050565b6000819050919050565b60006002820490506001821680620004f757607f821691505b602082108114156200050e576200050d62000543565b5b50919050565b7f4e487b7100000000000000000000000000000000000000000000000000000000600052601160045260246000fd5b7f4e487b7100000000000000000000000000000000000000000000000000000000600052602260045260246000fd5b60008160011c9050919050565b6109a2806200058f6000396000f3fe608060405234801561001057600080fd5b50600436106101005760003560e01c80637837e17011610097578063ae111cfa11610066578063ae111cfa146102d9578063bd65ba8314610309578063e729938014610339578063fd4a772c1461036957610100565b80637837e1701461023d5780638355092a1461026d5780638da5cb5b1461029d57806395d89b41146102bb57610100565b80633c2e34c7116100d35780633c2e34c71461018f57806340908298146101bf5780635eeb9ff9146101ef57806370a082311461020d57610100565b806306fdde031461010557806318160ddd14610123578063313ce5671461014157806334af370f1461015f575b600080fd5b61010d610399565b60405161011a91906107d0565b60405180910390f35b61012b610427565b60405161013891906107f2565b60405180910390f35b61014961042d565b60405161015691906107f2565b60405180910390f35b610179600480360381019061017491906106e9565b610433565b60405161018691906107f2565b60405180910390f35b6101a960048036038101906101a491906106e9565b610464565b6040516101b6919061080d565b60405180910390f35b6101d960048036038101906101d491906106c0565b6104a7565b6040516101e691906107b5565b60405180910390f35b6101f76104c7565b60405161020491906107b5565b60405180910390f35b610227600480360381019061022291906106c0565b6104de565b60405161023491906107f2565b60405180910390f35b610257600480360381019061025291906106e9565b6104f6565b60405161026491906107f2565b60405180910390f35b610287600480360381019061028291906106c0565b610527565b60405161029491906107b5565b60405180910390f35b6102a5610547565b6040516102b2919061079a565b60405180910390f35b6102c361056d565b6040516102d091906107d0565b60405180910390f35b6102f360048036038101906102ee91906106c0565b6105fb565b60405161030091906107f2565b60405180910390f35b610323600480360381019061031e91906106c0565b610613565b604051610330919061080d565b60405180910390f35b610353600480360381019061034e91906106e9565b610633565b60405161036091906107b5565b60405180910390f35b610383600480360381019061037e91906106c0565b610676565b60405161039091906107b5565b60405180910390f35b600080546103a6906108cc565b80601f01602080910402602001604051908101604052809291908181526020018280546103d2906108cc565b801561041f5780601f106103f45761010080835404028352916020019161041f565b820191906000526020600020905b81548152906001019060200180831161040257829003601f168201915b505050505081565b60035481565b60025481565b600d602052816000526040600020818154811061044f57600080fd5b90600052602060002001600091509150505481565b600e602052816000526040600020818154811061048057600080fd5b9060005260206000209060209182820401919006915091509054906101000a900460ff1681565b60076020528060005260406000206000915054906101000a900460ff1681565b6000600660009054906101000a900460ff16905090565b60096020528060005260406000206000915090505481565b6010602052816000526040600020818154811061051257600080fd5b90600052602060002001600091509150505481565b600a6020528060005260406000206000915054906101000a900460ff1681565b600460009054906101000a900473ffffffffffffffffffffffffffffffffffffffff1681565b6001805461057a906108cc565b80601f01602080910402602001604051908101604052809291908181526020018280546105a6906108cc565b80156105f35780601f106105c8576101008083540402835291602001916105f3565b820191906000526020600020905b8154815290600101906020018083116105d657829003601f168201915b505050505081565b600c6020528060005260406000206000915090505481565b600b6020528060005260406000206000915054906101000a900460ff1681565b600f602052816000526040600020818154811061064f57600080fd5b9060005260206000209060209182820401919006915091509054906101000a900460ff1681565b60086020528060005260406000206000915054906101000a900460ff1681565b6000813590506106a58161093e565b92915050565b6000813590506106ba81610955565b92915050565b6000602082840312156106d257600080fd5b60006106e084828501610696565b91505092915050565b600080604083850312156106fc57600080fd5b600061070a85828601610696565b925050602061071b858286016106ab565b9150509250929050565b61072e81610844565b82525050565b61073d81610856565b82525050565b600061074e82610828565b6107588185610833565b9350610768818560208601610899565b6107718161092d565b840191505092915050565b61078581610882565b82525050565b6107948161088c565b82525050565b60006020820190506107af6000830184610725565b92915050565b60006020820190506107ca6000830184610734565b92915050565b600060208201905081810360008301526107ea8184610743565b905092915050565b6000602082019050610807600083018461077c565b92915050565b6000602082019050610822600083018461078b565b92915050565b600081519050919050565b600082825260208201905092915050565b600061084f82610862565b9050919050565b60008115159050919050565b600073ffffffffffffffffffffffffffffffffffffffff82169050919050565b6000819050919050565b600060ff82169050919050565b60005b838110156108b757808201518184015260208101905061089c565b838111156108c6576000848401525b50505050565b600060028204905060018216806108e457607f821691505b602082108114156108f8576108f76108fe565b5b50919050565b7f4e487b7100000000000000000000000000000000000000000000000000000000600052602260045260246000fd5b6000601f19601f8301169050919050565b61094781610844565b811461095257600080fd5b50565b61095e81610882565b811461096957600080fd5b5056fea264697066735822122095595ed619a00d197d5a12a2b337a4809643ac7f174974f7e4f0bc6f8f23f9f864736f6c63430008010033",
	"immutableReferences": {},
	"source": "// SPDX-License-Identifier: MIT\npragma solidity >0.5.17;\n\nlibrary SafeMath {\n\tfunction add(uint256 a, uint256 b) internal pure returns (uint256 c) {\n\t\tc = a + b;\n\t\trequire(c >= a, 'SafeMath: addition overflow');\n\t}\n\n\tfunction sub(uint256 a, uint256 b) internal pure returns (uint256 c) {\n\t\trequire(b <= a, 'SafeMath: subtraction overflow');\n\t\tc = a - b;\n\t}\n\n\tfunction mul(uint256 a, uint256 b) internal pure returns (uint256 c) {\n\t\tc = a * b;\n\t\trequire(a == 0 || c / a == b, 'SafeMath: multiplication overflow');\n\t}\n\n\tfunction div(uint256 a, uint256 b) internal pure returns (uint256 c) {\n\t\trequire(b > 0, 'SafeMath: division by zero');\n\t\tc = a / b;\n\t}\n}\n\ncontract Variable {\n\tstring public name;\n\tstring public symbol;\n\tuint256 public decimals;\n\tuint256 public totalSupply;\n\taddress public owner;\n\n\tuint256 internal _decimals;\n\tbool internal transferLock;\n\n\tmapping(address => bool) public allowedAddress;\n\tmapping(address => bool) public blockedAddress;\n\n\tmapping(address => uint256) public balanceOf;\n\n\tmapping(address => bool) public lockTimeAddress;\n\tmapping(address => uint8) public lockCountMonth;\n\tmapping(address => uint256) public lockPermitBalance;\n\tmapping(address => uint256[]) public lockTime;\n\tmapping(address => uint8[]) public lockPercent;\n\tmapping(address => bool[]) public lockCheck;\n\tmapping(address => uint256[]) public lockBalance;\n\n\tmapping(address => mapping(address => uint256)) internal allowed;\n\n\tconstructor() public {\n\t\tname = 'Beyond Finance';\n\t\tsymbol = 'BYN';\n\t\tdecimals = 18;\n\t\t_decimals = 10**uint256(decimals);\n\t\ttotalSupply = _decimals * 100000000;\n\t\ttransferLock = false;\n\t\towner = msg.sender;\n\t\tbalanceOf[owner] = totalSupply;\n\t\tallowedAddress[owner] = true;\n\t}\n}\n\ncontract Modifiers is Variable {\n\tmodifier isOwner {\n\t\tassert(owner == msg.sender);\n\t\t_;\n\t}\n}\n\ncontract Event {\n\tevent Transfer(address indexed from, address indexed to, uint256 value);\n\tevent TokenBurn(address indexed from, uint256 value);\n\tevent Approval(address indexed owner, address indexed spender, uint256 value);\n}\n\ncontract manageAddress is Variable, Modifiers, Event {\n\tusing SafeMath for uint256;\n\n\tfunction add_allowedAddress(address _address) public isOwner {\n\t\tallowedAddress[_address] = true;\n\t}\n\n\tfunction delete_allowedAddress(address _address) public isOwner {\n\t\trequire(_address != owner, 'Not owner');\n\t\tallowedAddress[_address] = false;\n\t}\n\n\tfunction add_blockedAddress(address _address) public isOwner {\n\t\trequire(_address != owner, 'Not owner');\n\t\tblockedAddress[_address] = true;\n\t}\n\n\tfunction delete_blockedAddress(address _address) public isOwner {\n\t\tblockedAddress[_address] = false;\n\t}\n\n\tfunction add_timeAddress(address _address, uint8 total_month) public isOwner {\n\t\tif (lockTimeAddress[_address] == true) {\n\t\t\trevert('Already set address');\n\t\t}\n\t\tif (total_month < 2 && lockCountMonth[_address] > 0) {\n\t\t\trevert('Period want to set is short');\n\t\t}\n\t\tlockCountMonth[_address] = total_month;\n\t\tlockTime[_address] = new uint256[](total_month);\n\t\tlockPercent[_address] = new uint8[](total_month);\n\t\tlockCheck[_address] = new bool[](total_month);\n\t\tlockBalance[_address] = new uint256[](total_month);\n\t}\n\n\tfunction delete_timeAddress(address _address) public isOwner {\n\t\tlockTimeAddress[_address] = false;\n\t\tlockPermitBalance[_address] = 0;\n\t\tfor (uint8 i = 0; i < lockCountMonth[_address]; i++) {\n\t\t\tdelete lockTime[_address][i];\n\t\t\tdelete lockPercent[_address][i];\n\t\t\tdelete lockCheck[_address][i];\n\t\t\tdelete lockBalance[_address][i];\n\t\t}\n\t\tlockCountMonth[_address] = 0;\n\t}\n\n\tfunction add_timeAddressMonth(\n\t\taddress _address,\n\t\tuint256 _time,\n\t\tuint8 idx,\n\t\tuint8 _percent\n\t) public isOwner {\n\t\tif (block.timestamp > _time) {\n\t\t\trevert('Must greater than current time');\n\t\t}\n\t\tif (idx >= lockCountMonth[_address]) {\n\t\t\trevert('Invalid Setup Period');\n\t\t}\n\t\tif (idx != 0 && lockTime[_address][idx - 1] >= _time) {\n\t\t\trevert('Must greater than previous time');\n\t\t}\n\n\t\tlockPercent[_address][idx] = _percent;\n\t\tlockTime[_address][idx] = _time;\n\t}\n\n\tfunction add_timeAddressApply(address _address, uint256 lock_balance) public isOwner {\n\t\tif (balanceOf[_address] >= lock_balance && lock_balance > 0) {\n\t\t\tuint8 sum = lockPercent[_address][0];\n\n\t\t\tlockPermitBalance[_address] = 0;\n\t\t\tfor (uint8 i = 0; i < lockCountMonth[_address]; i++) {\n\t\t\t\tlockBalance[_address][i] = (lock_balance.mul(lockPercent[_address][i])).div(100);\n\t\t\t\tif (i > 0) {\n\t\t\t\t\tsum += lockPercent[_address][i];\n\t\t\t\t}\n\t\t\t}\n\n\t\t\tif (sum != 100) {\n\t\t\t\trevert('Invalid percentage');\n\t\t\t}\n\t\t\tlockTimeAddress[_address] = true;\n\t\t} else {\n\t\t\trevert('Invalid balance');\n\t\t}\n\t}\n\n\tfunction refresh_lockPermitBalance(address _address) public {\n\t\tif (lockTimeAddress[_address] == false) {\n\t\t\trevert('Address without Lock');\n\t\t}\n\t\tfor (uint8 i = 0; i < lockCountMonth[msg.sender]; i++) {\n\t\t\tif (block.timestamp >= lockTime[_address][i] && lockCheck[_address][i] == false) {\n\t\t\t\tlockPermitBalance[_address] += lockBalance[_address][i];\n\t\t\t\tlockCheck[_address][i] = true;\n\t\t\t\tif (lockCountMonth[_address] - 1 == i) {\n\t\t\t\t\tdelete_timeAddress(_address);\n\t\t\t\t}\n\t\t\t}\n\t\t}\n\t}\n}\n\ncontract Admin is Variable, Modifiers, Event {\n\tusing SafeMath for uint256;\n\n\tfunction admin_tokenBurn(uint256 _value) public isOwner returns (bool success) {\n\t\trequire(balanceOf[msg.sender] >= _value, 'Invalid balance');\n\t\tbalanceOf[msg.sender] = balanceOf[msg.sender].sub(_value);\n\t\ttotalSupply = totalSupply.sub(_value);\n\t\temit TokenBurn(msg.sender, _value);\n\t\treturn true;\n\t}\n}\n\ncontract Get is Variable, Modifiers {\n\tfunction get_transferLock() public view returns (bool) {\n\t\treturn transferLock;\n\t}\n}\n\ncontract Set is Variable, Modifiers, Event {\n\tfunction setTransferLock(bool _transferLock) public isOwner returns (bool success) {\n\t\ttransferLock = _transferLock;\n\t\treturn true;\n\t}\n}\n\ncontract BYN is Variable, Event, Get, Set, Admin, manageAddress {\n\tusing SafeMath for uint256;\n\tfunction allowance(address tokenOwner, address spender) public view returns (uint256 remaining) {\n\t\treturn allowed[tokenOwner][spender];\n\t}\n\n\tfunction increaseApproval(address _spender, uint256 _addedValue) public returns (bool) {\n\t\tallowed[msg.sender][_spender] = allowed[msg.sender][_spender] + (_addedValue);\n\t\temit Approval(msg.sender, _spender, allowed[msg.sender][_spender]);\n\t\treturn true;\n\t}\n\n\tfunction decreaseApproval(address _spender, uint256 _subtractedValue) public returns (bool) {\n\t\tuint256 oldValue = allowed[msg.sender][_spender];\n\t\tif (_subtractedValue > oldValue) {\n\t\t\tallowed[msg.sender][_spender] = 0;\n\t\t} else {\n\t\t\tallowed[msg.sender][_spender] = oldValue.sub(_subtractedValue);\n\t\t}\n\t\temit Approval(msg.sender, _spender, allowed[msg.sender][_spender]);\n\t\treturn true;\n\t}\n\n\tfunction approve(address _spender, uint256 _value) public returns (bool) {\n\t\tallowed[msg.sender][_spender] = _value;\n\t\temit Approval(msg.sender, _spender, _value);\n\t\treturn true;\n\t}\n\n\tfunction transferFrom(\n\t\taddress _from,\n\t\taddress _to,\n\t\tuint256 _value\n\t) public returns (bool) {\n\t\trequire(allowedAddress[_from] || transferLock == false, 'Transfer lock : true');\n\t\trequire(!blockedAddress[_from] && !blockedAddress[_to] && !blockedAddress[msg.sender], 'Blocked address');\n\t\trequire(balanceOf[_from] >= _value && (balanceOf[_to].add(_value)) >= balanceOf[_to], 'Invalid balance');\n\t\trequire(lockTimeAddress[_to] == false, 'Lock address : to');\n\t\trequire(_value <= allowed[_from][msg.sender], 'Invalid balance : allowed');\n\n\t\tif (lockTimeAddress[_from]) {\n\t\t\tlockPermitBalance[_from] = lockPermitBalance[_from].sub(_value);\n\t\t}\n\n\t\tbalanceOf[_from] = balanceOf[_from].sub(_value);\n\t\tbalanceOf[_to] = balanceOf[_to].add(_value);\n\t\tallowed[_from][msg.sender] = allowed[_from][msg.sender].sub(_value);\n\t\temit Transfer(_from, _to, _value);\n\n\t\treturn true;\n\t}\n\n\tfunction transfer(address _to, uint256 _value) public returns (bool) {\n\t\trequire(allowedAddress[msg.sender] || transferLock == false, 'Transfer lock : true');\n\t\trequire(!blockedAddress[msg.sender] && !blockedAddress[_to], 'Blocked address');\n\t\trequire(balanceOf[msg.sender] >= _value && (balanceOf[_to].add(_value)) >= balanceOf[_to], 'Invalid balance');\n\t\trequire(lockTimeAddress[_to] == false, 'Lock address : to');\n\n\t\tif (lockTimeAddress[msg.sender]) {\n\t\t\tlockPermitBalance[msg.sender] = lockPermitBalance[msg.sender].sub(_value);\n\t\t}\n\n\t\tbalanceOf[msg.sender] = balanceOf[msg.sender].sub(_value);\n\t\tbalanceOf[_to] = balanceOf[_to].add(_value);\n\t\temit Transfer(msg.sender, _to, _value);\n\n\t\treturn true;\n\t}\n}\n",
	"sourcePath": "/media/aniket/home/aniket/Work/nonceblox-work/BF_Staking/contracts/Tokens.sol",
	"compiler": {
		"name": "solc",
		"version": "0.8.1+commit.df193b15.Emscripten.clang"
	},
	"schemaVersion": "3.3.4",
	"updatedAt": "2021-04-16T04:31:23.189Z",
	"devdoc": {
		"kind": "dev",
		"methods": {},
		"version": 1
	},
	"userdoc": {
		"kind": "user",
		"methods": {},
		"version": 1
	}
}