{
	"contractName": "manageAddress",
	"abi": [
		{
			"anonymous": false,
			"inputs": [
				{
					"indexed": true,
					"internalType": "address",
					"name": "owner",
					"type": "address"
				},
				{
					"indexed": true,
					"internalType": "address",
					"name": "spender",
					"type": "address"
				},
				{
					"indexed": false,
					"internalType": "uint256",
					"name": "value",
					"type": "uint256"
				}
			],
			"name": "Approval",
			"type": "event"
		},
		{
			"anonymous": false,
			"inputs": [
				{
					"indexed": true,
					"internalType": "address",
					"name": "from",
					"type": "address"
				},
				{
					"indexed": false,
					"internalType": "uint256",
					"name": "value",
					"type": "uint256"
				}
			],
			"name": "TokenBurn",
			"type": "event"
		},
		{
			"anonymous": false,
			"inputs": [
				{
					"indexed": true,
					"internalType": "address",
					"name": "from",
					"type": "address"
				},
				{
					"indexed": true,
					"internalType": "address",
					"name": "to",
					"type": "address"
				},
				{
					"indexed": false,
					"internalType": "uint256",
					"name": "value",
					"type": "uint256"
				}
			],
			"name": "Transfer",
			"type": "event"
		},
		{
			"inputs": [
				{
					"internalType": "address",
					"name": "",
					"type": "address"
				}
			],
			"name": "allowedAddress",
			"outputs": [
				{
					"internalType": "bool",
					"name": "",
					"type": "bool"
				}
			],
			"stateMutability": "view",
			"type": "function"
		},
		{
			"inputs": [
				{
					"internalType": "address",
					"name": "",
					"type": "address"
				}
			],
			"name": "balanceOf",
			"outputs": [
				{
					"internalType": "uint256",
					"name": "",
					"type": "uint256"
				}
			],
			"stateMutability": "view",
			"type": "function"
		},
		{
			"inputs": [
				{
					"internalType": "address",
					"name": "",
					"type": "address"
				}
			],
			"name": "blockedAddress",
			"outputs": [
				{
					"internalType": "bool",
					"name": "",
					"type": "bool"
				}
			],
			"stateMutability": "view",
			"type": "function"
		},
		{
			"inputs": [],
			"name": "decimals",
			"outputs": [
				{
					"internalType": "uint256",
					"name": "",
					"type": "uint256"
				}
			],
			"stateMutability": "view",
			"type": "function"
		},
		{
			"inputs": [
				{
					"internalType": "address",
					"name": "",
					"type": "address"
				},
				{
					"internalType": "uint256",
					"name": "",
					"type": "uint256"
				}
			],
			"name": "lockBalance",
			"outputs": [
				{
					"internalType": "uint256",
					"name": "",
					"type": "uint256"
				}
			],
			"stateMutability": "view",
			"type": "function"
		},
		{
			"inputs": [
				{
					"internalType": "address",
					"name": "",
					"type": "address"
				},
				{
					"internalType": "uint256",
					"name": "",
					"type": "uint256"
				}
			],
			"name": "lockCheck",
			"outputs": [
				{
					"internalType": "bool",
					"name": "",
					"type": "bool"
				}
			],
			"stateMutability": "view",
			"type": "function"
		},
		{
			"inputs": [
				{
					"internalType": "address",
					"name": "",
					"type": "address"
				}
			],
			"name": "lockCountMonth",
			"outputs": [
				{
					"internalType": "uint8",
					"name": "",
					"type": "uint8"
				}
			],
			"stateMutability": "view",
			"type": "function"
		},
		{
			"inputs": [
				{
					"internalType": "address",
					"name": "",
					"type": "address"
				},
				{
					"internalType": "uint256",
					"name": "",
					"type": "uint256"
				}
			],
			"name": "lockPercent",
			"outputs": [
				{
					"internalType": "uint8",
					"name": "",
					"type": "uint8"
				}
			],
			"stateMutability": "view",
			"type": "function"
		},
		{
			"inputs": [
				{
					"internalType": "address",
					"name": "",
					"type": "address"
				}
			],
			"name": "lockPermitBalance",
			"outputs": [
				{
					"internalType": "uint256",
					"name": "",
					"type": "uint256"
				}
			],
			"stateMutability": "view",
			"type": "function"
		},
		{
			"inputs": [
				{
					"internalType": "address",
					"name": "",
					"type": "address"
				},
				{
					"internalType": "uint256",
					"name": "",
					"type": "uint256"
				}
			],
			"name": "lockTime",
			"outputs": [
				{
					"internalType": "uint256",
					"name": "",
					"type": "uint256"
				}
			],
			"stateMutability": "view",
			"type": "function"
		},
		{
			"inputs": [
				{
					"internalType": "address",
					"name": "",
					"type": "address"
				}
			],
			"name": "lockTimeAddress",
			"outputs": [
				{
					"internalType": "bool",
					"name": "",
					"type": "bool"
				}
			],
			"stateMutability": "view",
			"type": "function"
		},
		{
			"inputs": [],
			"name": "name",
			"outputs": [
				{
					"internalType": "string",
					"name": "",
					"type": "string"
				}
			],
			"stateMutability": "view",
			"type": "function"
		},
		{
			"inputs": [],
			"name": "owner",
			"outputs": [
				{
					"internalType": "address",
					"name": "",
					"type": "address"
				}
			],
			"stateMutability": "view",
			"type": "function"
		},
		{
			"inputs": [],
			"name": "symbol",
			"outputs": [
				{
					"internalType": "string",
					"name": "",
					"type": "string"
				}
			],
			"stateMutability": "view",
			"type": "function"
		},
		{
			"inputs": [],
			"name": "totalSupply",
			"outputs": [
				{
					"internalType": "uint256",
					"name": "",
					"type": "uint256"
				}
			],
			"stateMutability": "view",
			"type": "function"
		},
		{
			"inputs": [
				{
					"internalType": "address",
					"name": "_address",
					"type": "address"
				}
			],
			"name": "add_allowedAddress",
			"outputs": [],
			"stateMutability": "nonpayable",
			"type": "function"
		},
		{
			"inputs": [
				{
					"internalType": "address",
					"name": "_address",
					"type": "address"
				}
			],
			"name": "delete_allowedAddress",
			"outputs": [],
			"stateMutability": "nonpayable",
			"type": "function"
		},
		{
			"inputs": [
				{
					"internalType": "address",
					"name": "_address",
					"type": "address"
				}
			],
			"name": "add_blockedAddress",
			"outputs": [],
			"stateMutability": "nonpayable",
			"type": "function"
		},
		{
			"inputs": [
				{
					"internalType": "address",
					"name": "_address",
					"type": "address"
				}
			],
			"name": "delete_blockedAddress",
			"outputs": [],
			"stateMutability": "nonpayable",
			"type": "function"
		},
		{
			"inputs": [
				{
					"internalType": "address",
					"name": "_address",
					"type": "address"
				},
				{
					"internalType": "uint8",
					"name": "total_month",
					"type": "uint8"
				}
			],
			"name": "add_timeAddress",
			"outputs": [],
			"stateMutability": "nonpayable",
			"type": "function"
		},
		{
			"inputs": [
				{
					"internalType": "address",
					"name": "_address",
					"type": "address"
				}
			],
			"name": "delete_timeAddress",
			"outputs": [],
			"stateMutability": "nonpayable",
			"type": "function"
		},
		{
			"inputs": [
				{
					"internalType": "address",
					"name": "_address",
					"type": "address"
				},
				{
					"internalType": "uint256",
					"name": "_time",
					"type": "uint256"
				},
				{
					"internalType": "uint8",
					"name": "idx",
					"type": "uint8"
				},
				{
					"internalType": "uint8",
					"name": "_percent",
					"type": "uint8"
				}
			],
			"name": "add_timeAddressMonth",
			"outputs": [],
			"stateMutability": "nonpayable",
			"type": "function"
		},
		{
			"inputs": [
				{
					"internalType": "address",
					"name": "_address",
					"type": "address"
				},
				{
					"internalType": "uint256",
					"name": "lock_balance",
					"type": "uint256"
				}
			],
			"name": "add_timeAddressApply",
			"outputs": [],
			"stateMutability": "nonpayable",
			"type": "function"
		},
		{
			"inputs": [
				{
					"internalType": "address",
					"name": "_address",
					"type": "address"
				}
			],
			"name": "refresh_lockPermitBalance",
			"outputs": [],
			"stateMutability": "nonpayable",
			"type": "function"
		}
	],
	"bytecode": "0x60806040523480156200001157600080fd5b506040518060400160405280600e81526020017f4265796f6e642046696e616e6365000000000000000000000000000000000000815250600090805190602001906200005f9291906200022b565b506040518060400160405280600381526020017f42594e000000000000000000000000000000000000000000000000000000000081525060019080519060200190620000ad9291906200022b565b506012600281905550600254600a620000c7919062000336565b6005819055506305f5e100600554620000e1919062000473565b6003819055506000600660006101000a81548160ff02191690831515021790555033600460006101000a81548173ffffffffffffffffffffffffffffffffffffffff021916908373ffffffffffffffffffffffffffffffffffffffff16021790555060035460096000600460009054906101000a900473ffffffffffffffffffffffffffffffffffffffff1673ffffffffffffffffffffffffffffffffffffffff1673ffffffffffffffffffffffffffffffffffffffff16815260200190815260200160002081905550600160076000600460009054906101000a900473ffffffffffffffffffffffffffffffffffffffff1673ffffffffffffffffffffffffffffffffffffffff1673ffffffffffffffffffffffffffffffffffffffff16815260200190815260200160002060006101000a81548160ff0219169083151502179055506200057f565b8280546200023990620004de565b90600052602060002090601f0160209004810192826200025d5760008555620002a9565b82601f106200027857805160ff1916838001178555620002a9565b82800160010185558215620002a9579182015b82811115620002a85782518255916020019190600101906200028b565b5b509050620002b89190620002bc565b5090565b5b80821115620002d7576000816000905550600101620002bd565b5090565b6000808291508390505b60018511156200032d5780860481111562000305576200030462000514565b5b6001851615620003155780820291505b8081029050620003258562000572565b9450620002e5565b94509492505050565b60006200034382620004d4565b91506200035083620004d4565b92506200037f7fffffffffffffffffffffffffffffffffffffffffffffffffffffffffffffffff848462000387565b905092915050565b6000826200039957600190506200046c565b81620003a957600090506200046c565b8160018114620003c25760028114620003cd5762000403565b60019150506200046c565b60ff841115620003e257620003e162000514565b5b8360020a915084821115620003fc57620003fb62000514565b5b506200046c565b5060208310610133831016604e8410600b84101617156200043d5782820a90508381111562000437576200043662000514565b5b6200046c565b6200044c8484846001620002db565b9250905081840481111562000466576200046562000514565b5b81810290505b9392505050565b60006200048082620004d4565b91506200048d83620004d4565b9250817fffffffffffffffffffffffffffffffffffffffffffffffffffffffffffffffff0483118215151615620004c957620004c862000514565b5b828202905092915050565b6000819050919050565b60006002820490506001821680620004f757607f821691505b602082108114156200050e576200050d62000543565b5b50919050565b7f4e487b7100000000000000000000000000000000000000000000000000000000600052601160045260246000fd5b7f4e487b7100000000000000000000000000000000000000000000000000000000600052602260045260246000fd5b60008160011c9050919050565b612f51806200058f6000396000f3fe608060405234801561001057600080fd5b50600436106101585760003560e01c806370a08231116100c3578063bc0829861161007c578063bc082986146103eb578063bd65ba8314610407578063d016492e14610437578063db3eefb514610453578063e72993801461046f578063fd4a772c1461049f57610158565b806370a08231146102ef5780637837e1701461031f5780638355092a1461034f5780638da5cb5b1461037f57806395d89b411461039d578063ae111cfa146103bb57610158565b80633c2e34c7116101155780633c2e34c71461021f578063409082981461024f5780634ebb380e1461027f578063512218731461029b578063550fee0b146102b75780635952c4b2146102d357610158565b806306fdde031461015d57806318160ddd1461017b578063271aedcf146101995780632e1bf913146101b5578063313ce567146101d157806334af370f146101ef575b600080fd5b6101656104cf565b604051610172919061284b565b60405180910390f35b61018361055d565b60405161019091906129cd565b60405180910390f35b6101b360048036038101906101ae919061251b565b610563565b005b6101cf60048036038101906101ca9190612544565b6106d3565b005b6101d9610bde565b6040516101e691906129cd565b60405180910390f35b61020960048036038101906102049190612544565b610be4565b60405161021691906129cd565b60405180910390f35b61023960048036038101906102349190612544565b610c15565b60405161024691906129e8565b60405180910390f35b6102696004803603810190610264919061251b565b610c58565b6040516102769190612830565b60405180910390f35b6102996004803603810190610294919061251b565b610c78565b005b6102b560048036038101906102b0919061251b565b610d57565b005b6102d160048036038101906102cc919061251b565b610e36565b005b6102ed60048036038101906102e891906125e3565b61126c565b005b6103096004803603810190610304919061251b565b611796565b60405161031691906129cd565b60405180910390f35b61033960048036038101906103349190612544565b6117ae565b60405161034691906129cd565b60405180910390f35b6103696004803603810190610364919061251b565b6117df565b6040516103769190612830565b60405180910390f35b6103876117ff565b6040516103949190612815565b60405180910390f35b6103a5611825565b6040516103b2919061284b565b60405180910390f35b6103d560048036038101906103d0919061251b565b6118b3565b6040516103e291906129cd565b60405180910390f35b6104056004803603810190610400919061251b565b6118cb565b005b610421600480360381019061041c919061251b565b611cf9565b60405161042e91906129e8565b60405180910390f35b610451600480360381019061044c919061251b565b611d19565b005b61046d60048036038101906104689190612580565b611e89565b005b61048960048036038101906104849190612544565b6121fc565b6040516104969190612830565b60405180910390f35b6104b960048036038101906104b4919061251b565b61223f565b6040516104c69190612830565b60405180910390f35b600080546104dc90612bf3565b80601f016020809104026020016040519081016040528092919081815260200182805461050890612bf3565b80156105555780601f1061052a57610100808354040283529160200191610555565b820191906000526020600020905b81548152906001019060200180831161053857829003601f168201915b505050505081565b60035481565b3373ffffffffffffffffffffffffffffffffffffffff16600460009054906101000a900473ffffffffffffffffffffffffffffffffffffffff1673ffffffffffffffffffffffffffffffffffffffff16146105e7577f4e487b7100000000000000000000000000000000000000000000000000000000600052600160045260246000fd5b600460009054906101000a900473ffffffffffffffffffffffffffffffffffffffff1673ffffffffffffffffffffffffffffffffffffffff168173ffffffffffffffffffffffffffffffffffffffff161415610678576040517f08c379a000000000000000000000000000000000000000000000000000000000815260040161066f9061298d565b60405180910390fd5b6001600860008373ffffffffffffffffffffffffffffffffffffffff1673ffffffffffffffffffffffffffffffffffffffff16815260200190815260200160002060006101000a81548160ff02191690831515021790555050565b3373ffffffffffffffffffffffffffffffffffffffff16600460009054906101000a900473ffffffffffffffffffffffffffffffffffffffff1673ffffffffffffffffffffffffffffffffffffffff1614610757577f4e487b7100000000000000000000000000000000000000000000000000000000600052600160045260246000fd5b80600960008473ffffffffffffffffffffffffffffffffffffffff1673ffffffffffffffffffffffffffffffffffffffff16815260200190815260200160002054101580156107a65750600081115b15610b9f576000600e60008473ffffffffffffffffffffffffffffffffffffffff1673ffffffffffffffffffffffffffffffffffffffff168152602001908152602001600020600081548110610825577f4e487b7100000000000000000000000000000000000000000000000000000000600052603260045260246000fd5b90600052602060002090602091828204019190069054906101000a900460ff1690506000600c60008573ffffffffffffffffffffffffffffffffffffffff1673ffffffffffffffffffffffffffffffffffffffff1681526020019081526020016000208190555060005b600b60008573ffffffffffffffffffffffffffffffffffffffff1673ffffffffffffffffffffffffffffffffffffffff16815260200190815260200160002060009054906101000a900460ff1660ff168160ff161015610afa576109ab606461099d600e60008873ffffffffffffffffffffffffffffffffffffffff1673ffffffffffffffffffffffffffffffffffffffff1681526020019081526020016000208460ff168154811061096b577f4e487b7100000000000000000000000000000000000000000000000000000000600052603260045260246000fd5b90600052602060002090602091828204019190069054906101000a900460ff1660ff168661225f90919063ffffffff16565b6122cd90919063ffffffff16565b601060008673ffffffffffffffffffffffffffffffffffffffff1673ffffffffffffffffffffffffffffffffffffffff1681526020019081526020016000208260ff1681548110610a25577f4e487b7100000000000000000000000000000000000000000000000000000000600052603260045260246000fd5b906000526020600020018190555060008160ff161115610ae757600e60008573ffffffffffffffffffffffffffffffffffffffff1673ffffffffffffffffffffffffffffffffffffffff1681526020019081526020016000208160ff1681548110610ab9577f4e487b7100000000000000000000000000000000000000000000000000000000600052603260045260246000fd5b90600052602060002090602091828204019190069054906101000a900460ff1682610ae49190612a75565b91505b8080610af290612c25565b91505061088f565b5060648160ff1614610b41576040517f08c379a0000000000000000000000000000000000000000000000000000000008152600401610b38906128cd565b60405180910390fd5b6001600a60008573ffffffffffffffffffffffffffffffffffffffff1673ffffffffffffffffffffffffffffffffffffffff16815260200190815260200160002060006101000a81548160ff02191690831515021790555050610bda565b6040517f08c379a0000000000000000000000000000000000000000000000000000000008152600401610bd1906129ad565b60405180910390fd5b5050565b60025481565b600d6020528160005260406000208181548110610c0057600080fd5b90600052602060002001600091509150505481565b600e6020528160005260406000208181548110610c3157600080fd5b9060005260206000209060209182820401919006915091509054906101000a900460ff1681565b60076020528060005260406000206000915054906101000a900460ff1681565b3373ffffffffffffffffffffffffffffffffffffffff16600460009054906101000a900473ffffffffffffffffffffffffffffffffffffffff1673ffffffffffffffffffffffffffffffffffffffff1614610cfc577f4e487b7100000000000000000000000000000000000000000000000000000000600052600160045260246000fd5b6001600760008373ffffffffffffffffffffffffffffffffffffffff1673ffffffffffffffffffffffffffffffffffffffff16815260200190815260200160002060006101000a81548160ff02191690831515021790555050565b3373ffffffffffffffffffffffffffffffffffffffff16600460009054906101000a900473ffffffffffffffffffffffffffffffffffffffff1673ffffffffffffffffffffffffffffffffffffffff1614610ddb577f4e487b7100000000000000000000000000000000000000000000000000000000600052600160045260246000fd5b6000600860008373ffffffffffffffffffffffffffffffffffffffff1673ffffffffffffffffffffffffffffffffffffffff16815260200190815260200160002060006101000a81548160ff02191690831515021790555050565b3373ffffffffffffffffffffffffffffffffffffffff16600460009054906101000a900473ffffffffffffffffffffffffffffffffffffffff1673ffffffffffffffffffffffffffffffffffffffff1614610eba577f4e487b7100000000000000000000000000000000000000000000000000000000600052600160045260246000fd5b6000600a60008373ffffffffffffffffffffffffffffffffffffffff1673ffffffffffffffffffffffffffffffffffffffff16815260200190815260200160002060006101000a81548160ff0219169083151502179055506000600c60008373ffffffffffffffffffffffffffffffffffffffff1673ffffffffffffffffffffffffffffffffffffffff1681526020019081526020016000208190555060005b600b60008373ffffffffffffffffffffffffffffffffffffffff1673ffffffffffffffffffffffffffffffffffffffff16815260200190815260200160002060009054906101000a900460ff1660ff168160ff16101561120f57600d60008373ffffffffffffffffffffffffffffffffffffffff1673ffffffffffffffffffffffffffffffffffffffff1681526020019081526020016000208160ff168154811061102e577f4e487b7100000000000000000000000000000000000000000000000000000000600052603260045260246000fd5b9060005260206000200160009055600e60008373ffffffffffffffffffffffffffffffffffffffff1673ffffffffffffffffffffffffffffffffffffffff1681526020019081526020016000208160ff16815481106110b6577f4e487b7100000000000000000000000000000000000000000000000000000000600052603260045260246000fd5b90600052602060002090602091828204019190066101000a81549060ff0219169055600f60008373ffffffffffffffffffffffffffffffffffffffff1673ffffffffffffffffffffffffffffffffffffffff1681526020019081526020016000208160ff1681548110611152577f4e487b7100000000000000000000000000000000000000000000000000000000600052603260045260246000fd5b90600052602060002090602091828204019190066101000a81549060ff0219169055601060008373ffffffffffffffffffffffffffffffffffffffff1673ffffffffffffffffffffffffffffffffffffffff1681526020019081526020016000208160ff16815481106111ee577f4e487b7100000000000000000000000000000000000000000000000000000000600052603260045260246000fd5b9060005260206000200160009055808061120790612c25565b915050610f5a565b506000600b60008373ffffffffffffffffffffffffffffffffffffffff1673ffffffffffffffffffffffffffffffffffffffff16815260200190815260200160002060006101000a81548160ff021916908360ff16021790555050565b3373ffffffffffffffffffffffffffffffffffffffff16600460009054906101000a900473ffffffffffffffffffffffffffffffffffffffff1673ffffffffffffffffffffffffffffffffffffffff16146112f0577f4e487b7100000000000000000000000000000000000000000000000000000000600052600160045260246000fd5b60011515600a60008473ffffffffffffffffffffffffffffffffffffffff1673ffffffffffffffffffffffffffffffffffffffff16815260200190815260200160002060009054906101000a900460ff1615151415611384576040517f08c379a000000000000000000000000000000000000000000000000000000000815260040161137b9061286d565b60405180910390fd5b60028160ff161080156113e657506000600b60008473ffffffffffffffffffffffffffffffffffffffff1673ffffffffffffffffffffffffffffffffffffffff16815260200190815260200160002060009054906101000a900460ff1660ff16115b15611426576040517f08c379a000000000000000000000000000000000000000000000000000000000815260040161141d906128ed565b60405180910390fd5b80600b60008473ffffffffffffffffffffffffffffffffffffffff1673ffffffffffffffffffffffffffffffffffffffff16815260200190815260200160002060006101000a81548160ff021916908360ff1602179055508060ff1667ffffffffffffffff8111156114c1577f4e487b7100000000000000000000000000000000000000000000000000000000600052604160045260246000fd5b6040519080825280602002602001820160405280156114ef5781602001602082028036833780820191505090505b50600d60008473ffffffffffffffffffffffffffffffffffffffff1673ffffffffffffffffffffffffffffffffffffffff1681526020019081526020016000209080519060200190611542929190612325565b508060ff1667ffffffffffffffff811115611586577f4e487b7100000000000000000000000000000000000000000000000000000000600052604160045260246000fd5b6040519080825280602002602001820160405280156115b45781602001602082028036833780820191505090505b50600e60008473ffffffffffffffffffffffffffffffffffffffff1673ffffffffffffffffffffffffffffffffffffffff1681526020019081526020016000209080519060200190611607929190612372565b508060ff1667ffffffffffffffff81111561164b577f4e487b7100000000000000000000000000000000000000000000000000000000600052604160045260246000fd5b6040519080825280602002602001820160405280156116795781602001602082028036833780820191505090505b50600f60008473ffffffffffffffffffffffffffffffffffffffff1673ffffffffffffffffffffffffffffffffffffffff16815260200190815260200160002090805190602001906116cc929190612419565b508060ff1667ffffffffffffffff811115611710577f4e487b7100000000000000000000000000000000000000000000000000000000600052604160045260246000fd5b60405190808252806020026020018201604052801561173e5781602001602082028036833780820191505090505b50601060008473ffffffffffffffffffffffffffffffffffffffff1673ffffffffffffffffffffffffffffffffffffffff1681526020019081526020016000209080519060200190611791929190612325565b505050565b60096020528060005260406000206000915090505481565b601060205281600052604060002081815481106117ca57600080fd5b90600052602060002001600091509150505481565b600a6020528060005260406000206000915054906101000a900460ff1681565b600460009054906101000a900473ffffffffffffffffffffffffffffffffffffffff1681565b6001805461183290612bf3565b80601f016020809104026020016040519081016040528092919081815260200182805461185e90612bf3565b80156118ab5780601f10611880576101008083540402835291602001916118ab565b820191906000526020600020905b81548152906001019060200180831161188e57829003601f168201915b505050505081565b600c6020528060005260406000206000915090505481565b60001515600a60008373ffffffffffffffffffffffffffffffffffffffff1673ffffffffffffffffffffffffffffffffffffffff16815260200190815260200160002060009054906101000a900460ff161515141561195f576040517f08c379a0000000000000000000000000000000000000000000000000000000008152600401611956906128ad565b60405180910390fd5b60005b600b60003373ffffffffffffffffffffffffffffffffffffffff1673ffffffffffffffffffffffffffffffffffffffff16815260200190815260200160002060009054906101000a900460ff1660ff168160ff161015611cf557600d60008373ffffffffffffffffffffffffffffffffffffffff1673ffffffffffffffffffffffffffffffffffffffff1681526020019081526020016000208160ff1681548110611a36577f4e487b7100000000000000000000000000000000000000000000000000000000600052603260045260246000fd5b90600052602060002001544210158015611aed575060001515600f60008473ffffffffffffffffffffffffffffffffffffffff1673ffffffffffffffffffffffffffffffffffffffff1681526020019081526020016000208260ff1681548110611ac9577f4e487b7100000000000000000000000000000000000000000000000000000000600052603260045260246000fd5b90600052602060002090602091828204019190069054906101000a900460ff161515145b15611ce257601060008373ffffffffffffffffffffffffffffffffffffffff1673ffffffffffffffffffffffffffffffffffffffff1681526020019081526020016000208160ff1681548110611b6c577f4e487b7100000000000000000000000000000000000000000000000000000000600052603260045260246000fd5b9060005260206000200154600c60008473ffffffffffffffffffffffffffffffffffffffff1673ffffffffffffffffffffffffffffffffffffffff1681526020019081526020016000206000828254611bc59190612a1f565b925050819055506001600f60008473ffffffffffffffffffffffffffffffffffffffff1673ffffffffffffffffffffffffffffffffffffffff1681526020019081526020016000208260ff1681548110611c48577f4e487b7100000000000000000000000000000000000000000000000000000000600052603260045260246000fd5b90600052602060002090602091828204019190066101000a81548160ff0219169083151502179055508060ff166001600b60008573ffffffffffffffffffffffffffffffffffffffff1673ffffffffffffffffffffffffffffffffffffffff16815260200190815260200160002060009054906101000a900460ff16611cce9190612b37565b60ff161415611ce157611ce082610e36565b5b5b8080611ced90612c25565b915050611962565b5050565b600b6020528060005260406000206000915054906101000a900460ff1681565b3373ffffffffffffffffffffffffffffffffffffffff16600460009054906101000a900473ffffffffffffffffffffffffffffffffffffffff1673ffffffffffffffffffffffffffffffffffffffff1614611d9d577f4e487b7100000000000000000000000000000000000000000000000000000000600052600160045260246000fd5b600460009054906101000a900473ffffffffffffffffffffffffffffffffffffffff1673ffffffffffffffffffffffffffffffffffffffff168173ffffffffffffffffffffffffffffffffffffffff161415611e2e576040517f08c379a0000000000000000000000000000000000000000000000000000000008152600401611e259061298d565b60405180910390fd5b6000600760008373ffffffffffffffffffffffffffffffffffffffff1673ffffffffffffffffffffffffffffffffffffffff16815260200190815260200160002060006101000a81548160ff02191690831515021790555050565b3373ffffffffffffffffffffffffffffffffffffffff16600460009054906101000a900473ffffffffffffffffffffffffffffffffffffffff1673ffffffffffffffffffffffffffffffffffffffff1614611f0d577f4e487b7100000000000000000000000000000000000000000000000000000000600052600160045260246000fd5b82421115611f50576040517f08c379a0000000000000000000000000000000000000000000000000000000008152600401611f479061288d565b60405180910390fd5b600b60008573ffffffffffffffffffffffffffffffffffffffff1673ffffffffffffffffffffffffffffffffffffffff16815260200190815260200160002060009054906101000a900460ff1660ff168260ff1610611fe4576040517f08c379a0000000000000000000000000000000000000000000000000000000008152600401611fdb9061292d565b60405180910390fd5b60008260ff1614158015612088575082600d60008673ffffffffffffffffffffffffffffffffffffffff1673ffffffffffffffffffffffffffffffffffffffff1681526020019081526020016000206001846120409190612b37565b60ff168154811061207a577f4e487b7100000000000000000000000000000000000000000000000000000000600052603260045260246000fd5b906000526020600020015410155b156120c8576040517f08c379a00000000000000000000000000000000000000000000000000000000081526004016120bf9061294d565b60405180910390fd5b80600e60008673ffffffffffffffffffffffffffffffffffffffff1673ffffffffffffffffffffffffffffffffffffffff1681526020019081526020016000208360ff1681548110612143577f4e487b7100000000000000000000000000000000000000000000000000000000600052603260045260246000fd5b90600052602060002090602091828204019190066101000a81548160ff021916908360ff16021790555082600d60008673ffffffffffffffffffffffffffffffffffffffff1673ffffffffffffffffffffffffffffffffffffffff1681526020019081526020016000208360ff16815481106121e8577f4e487b7100000000000000000000000000000000000000000000000000000000600052603260045260246000fd5b906000526020600020018190555050505050565b600f602052816000526040600020818154811061221857600080fd5b9060005260206000209060209182820401919006915091509054906101000a900460ff1681565b60086020528060005260406000206000915054906101000a900460ff1681565b6000818361226d9190612add565b9050600083148061228857508183826122869190612aac565b145b6122c7576040517f08c379a00000000000000000000000000000000000000000000000000000000081526004016122be9061296d565b60405180910390fd5b92915050565b6000808211612311576040517f08c379a00000000000000000000000000000000000000000000000000000000081526004016123089061290d565b60405180910390fd5b818361231d9190612aac565b905092915050565b828054828255906000526020600020908101928215612361579160200282015b82811115612360578251825591602001919060010190612345565b5b50905061236e91906124bf565b5090565b82805482825590600052602060002090601f016020900481019282156124085791602002820160005b838211156123d957835183826101000a81548160ff021916908360ff160217905550926020019260010160208160000104928301926001030261239b565b80156124065782816101000a81549060ff02191690556001016020816000010492830192600103026123d9565b505b50905061241591906124bf565b5090565b82805482825590600052602060002090601f016020900481019282156124ae5791602002820160005b8382111561247f57835183826101000a81548160ff0219169083151502179055509260200192600101602081600001049283019260010302612442565b80156124ac5782816101000a81549060ff021916905560010160208160000104928301926001030261247f565b505b5090506124bb91906124bf565b5090565b5b808211156124d85760008160009055506001016124c0565b5090565b6000813590506124eb81612ed6565b92915050565b60008135905061250081612eed565b92915050565b60008135905061251581612f04565b92915050565b60006020828403121561252d57600080fd5b600061253b848285016124dc565b91505092915050565b6000806040838503121561255757600080fd5b6000612565858286016124dc565b9250506020612576858286016124f1565b9150509250929050565b6000806000806080858703121561259657600080fd5b60006125a4878288016124dc565b94505060206125b5878288016124f1565b93505060406125c687828801612506565b92505060606125d787828801612506565b91505092959194509250565b600080604083850312156125f657600080fd5b6000612604858286016124dc565b925050602061261585828601612506565b9150509250929050565b61262881612b6b565b82525050565b61263781612b7d565b82525050565b600061264882612a03565b6126528185612a0e565b9350612662818560208601612bc0565b61266b81612cdc565b840191505092915050565b6000612683601383612a0e565b915061268e82612ced565b602082019050919050565b60006126a6601e83612a0e565b91506126b182612d16565b602082019050919050565b60006126c9601483612a0e565b91506126d482612d3f565b602082019050919050565b60006126ec601283612a0e565b91506126f782612d68565b602082019050919050565b600061270f601b83612a0e565b915061271a82612d91565b602082019050919050565b6000612732601a83612a0e565b915061273d82612dba565b602082019050919050565b6000612755601483612a0e565b915061276082612de3565b602082019050919050565b6000612778601f83612a0e565b915061278382612e0c565b602082019050919050565b600061279b602183612a0e565b91506127a682612e35565b604082019050919050565b60006127be600983612a0e565b91506127c982612e84565b602082019050919050565b60006127e1600f83612a0e565b91506127ec82612ead565b602082019050919050565b61280081612ba9565b82525050565b61280f81612bb3565b82525050565b600060208201905061282a600083018461261f565b92915050565b6000602082019050612845600083018461262e565b92915050565b60006020820190508181036000830152612865818461263d565b905092915050565b6000602082019050818103600083015261288681612676565b9050919050565b600060208201905081810360008301526128a681612699565b9050919050565b600060208201905081810360008301526128c6816126bc565b9050919050565b600060208201905081810360008301526128e6816126df565b9050919050565b6000602082019050818103600083015261290681612702565b9050919050565b6000602082019050818103600083015261292681612725565b9050919050565b6000602082019050818103600083015261294681612748565b9050919050565b600060208201905081810360008301526129668161276b565b9050919050565b600060208201905081810360008301526129868161278e565b9050919050565b600060208201905081810360008301526129a6816127b1565b9050919050565b600060208201905081810360008301526129c6816127d4565b9050919050565b60006020820190506129e260008301846127f7565b92915050565b60006020820190506129fd6000830184612806565b92915050565b600081519050919050565b600082825260208201905092915050565b6000612a2a82612ba9565b9150612a3583612ba9565b9250827fffffffffffffffffffffffffffffffffffffffffffffffffffffffffffffffff03821115612a6a57612a69612c4f565b5b828201905092915050565b6000612a8082612bb3565b9150612a8b83612bb3565b92508260ff03821115612aa157612aa0612c4f565b5b828201905092915050565b6000612ab782612ba9565b9150612ac283612ba9565b925082612ad257612ad1612c7e565b5b828204905092915050565b6000612ae882612ba9565b9150612af383612ba9565b9250817fffffffffffffffffffffffffffffffffffffffffffffffffffffffffffffffff0483118215151615612b2c57612b2b612c4f565b5b828202905092915050565b6000612b4282612bb3565b9150612b4d83612bb3565b925082821015612b6057612b5f612c4f565b5b828203905092915050565b6000612b7682612b89565b9050919050565b60008115159050919050565b600073ffffffffffffffffffffffffffffffffffffffff82169050919050565b6000819050919050565b600060ff82169050919050565b60005b83811015612bde578082015181840152602081019050612bc3565b83811115612bed576000848401525b50505050565b60006002820490506001821680612c0b57607f821691505b60208210811415612c1f57612c1e612cad565b5b50919050565b6000612c3082612bb3565b915060ff821415612c4457612c43612c4f565b5b600182019050919050565b7f4e487b7100000000000000000000000000000000000000000000000000000000600052601160045260246000fd5b7f4e487b7100000000000000000000000000000000000000000000000000000000600052601260045260246000fd5b7f4e487b7100000000000000000000000000000000000000000000000000000000600052602260045260246000fd5b6000601f19601f8301169050919050565b7f416c726561647920736574206164647265737300000000000000000000000000600082015250565b7f4d7573742067726561746572207468616e2063757272656e742074696d650000600082015250565b7f4164647265737320776974686f7574204c6f636b000000000000000000000000600082015250565b7f496e76616c69642070657263656e746167650000000000000000000000000000600082015250565b7f506572696f642077616e7420746f207365742069732073686f72740000000000600082015250565b7f536166654d6174683a206469766973696f6e206279207a65726f000000000000600082015250565b7f496e76616c696420536574757020506572696f64000000000000000000000000600082015250565b7f4d7573742067726561746572207468616e2070726576696f75732074696d6500600082015250565b7f536166654d6174683a206d756c7469706c69636174696f6e206f766572666c6f60008201527f7700000000000000000000000000000000000000000000000000000000000000602082015250565b7f4e6f74206f776e65720000000000000000000000000000000000000000000000600082015250565b7f496e76616c69642062616c616e63650000000000000000000000000000000000600082015250565b612edf81612b6b565b8114612eea57600080fd5b50565b612ef681612ba9565b8114612f0157600080fd5b50565b612f0d81612bb3565b8114612f1857600080fd5b5056fea2646970667358221220d0f1709d01c9cf5b96314952c1205db1191e24574e90902a3364b463f5c9c51e64736f6c63430008010033",
	"immutableReferences": {},
	"source": "// SPDX-License-Identifier: MIT\npragma solidity >0.5.17;\n\nlibrary SafeMath {\n\tfunction add(uint256 a, uint256 b) internal pure returns (uint256 c) {\n\t\tc = a + b;\n\t\trequire(c >= a, 'SafeMath: addition overflow');\n\t}\n\n\tfunction sub(uint256 a, uint256 b) internal pure returns (uint256 c) {\n\t\trequire(b <= a, 'SafeMath: subtraction overflow');\n\t\tc = a - b;\n\t}\n\n\tfunction mul(uint256 a, uint256 b) internal pure returns (uint256 c) {\n\t\tc = a * b;\n\t\trequire(a == 0 || c / a == b, 'SafeMath: multiplication overflow');\n\t}\n\n\tfunction div(uint256 a, uint256 b) internal pure returns (uint256 c) {\n\t\trequire(b > 0, 'SafeMath: division by zero');\n\t\tc = a / b;\n\t}\n}\n\ncontract Variable {\n\tstring public name;\n\tstring public symbol;\n\tuint256 public decimals;\n\tuint256 public totalSupply;\n\taddress public owner;\n\n\tuint256 internal _decimals;\n\tbool internal transferLock;\n\n\tmapping(address => bool) public allowedAddress;\n\tmapping(address => bool) public blockedAddress;\n\n\tmapping(address => uint256) public balanceOf;\n\n\tmapping(address => bool) public lockTimeAddress;\n\tmapping(address => uint8) public lockCountMonth;\n\tmapping(address => uint256) public lockPermitBalance;\n\tmapping(address => uint256[]) public lockTime;\n\tmapping(address => uint8[]) public lockPercent;\n\tmapping(address => bool[]) public lockCheck;\n\tmapping(address => uint256[]) public lockBalance;\n\n\tmapping(address => mapping(address => uint256)) internal allowed;\n\n\tconstructor() public {\n\t\tname = 'Beyond Finance';\n\t\tsymbol = 'BYN';\n\t\tdecimals = 18;\n\t\t_decimals = 10**uint256(decimals);\n\t\ttotalSupply = _decimals * 100000000;\n\t\ttransferLock = false;\n\t\towner = msg.sender;\n\t\tbalanceOf[owner] = totalSupply;\n\t\tallowedAddress[owner] = true;\n\t}\n}\n\ncontract Modifiers is Variable {\n\tmodifier isOwner {\n\t\tassert(owner == msg.sender);\n\t\t_;\n\t}\n}\n\ncontract Event {\n\tevent Transfer(address indexed from, address indexed to, uint256 value);\n\tevent TokenBurn(address indexed from, uint256 value);\n\tevent Approval(address indexed owner, address indexed spender, uint256 value);\n}\n\ncontract manageAddress is Variable, Modifiers, Event {\n\tusing SafeMath for uint256;\n\n\tfunction add_allowedAddress(address _address) public isOwner {\n\t\tallowedAddress[_address] = true;\n\t}\n\n\tfunction delete_allowedAddress(address _address) public isOwner {\n\t\trequire(_address != owner, 'Not owner');\n\t\tallowedAddress[_address] = false;\n\t}\n\n\tfunction add_blockedAddress(address _address) public isOwner {\n\t\trequire(_address != owner, 'Not owner');\n\t\tblockedAddress[_address] = true;\n\t}\n\n\tfunction delete_blockedAddress(address _address) public isOwner {\n\t\tblockedAddress[_address] = false;\n\t}\n\n\tfunction add_timeAddress(address _address, uint8 total_month) public isOwner {\n\t\tif (lockTimeAddress[_address] == true) {\n\t\t\trevert('Already set address');\n\t\t}\n\t\tif (total_month < 2 && lockCountMonth[_address] > 0) {\n\t\t\trevert('Period want to set is short');\n\t\t}\n\t\tlockCountMonth[_address] = total_month;\n\t\tlockTime[_address] = new uint256[](total_month);\n\t\tlockPercent[_address] = new uint8[](total_month);\n\t\tlockCheck[_address] = new bool[](total_month);\n\t\tlockBalance[_address] = new uint256[](total_month);\n\t}\n\n\tfunction delete_timeAddress(address _address) public isOwner {\n\t\tlockTimeAddress[_address] = false;\n\t\tlockPermitBalance[_address] = 0;\n\t\tfor (uint8 i = 0; i < lockCountMonth[_address]; i++) {\n\t\t\tdelete lockTime[_address][i];\n\t\t\tdelete lockPercent[_address][i];\n\t\t\tdelete lockCheck[_address][i];\n\t\t\tdelete lockBalance[_address][i];\n\t\t}\n\t\tlockCountMonth[_address] = 0;\n\t}\n\n\tfunction add_timeAddressMonth(\n\t\taddress _address,\n\t\tuint256 _time,\n\t\tuint8 idx,\n\t\tuint8 _percent\n\t) public isOwner {\n\t\tif (block.timestamp > _time) {\n\t\t\trevert('Must greater than current time');\n\t\t}\n\t\tif (idx >= lockCountMonth[_address]) {\n\t\t\trevert('Invalid Setup Period');\n\t\t}\n\t\tif (idx != 0 && lockTime[_address][idx - 1] >= _time) {\n\t\t\trevert('Must greater than previous time');\n\t\t}\n\n\t\tlockPercent[_address][idx] = _percent;\n\t\tlockTime[_address][idx] = _time;\n\t}\n\n\tfunction add_timeAddressApply(address _address, uint256 lock_balance) public isOwner {\n\t\tif (balanceOf[_address] >= lock_balance && lock_balance > 0) {\n\t\t\tuint8 sum = lockPercent[_address][0];\n\n\t\t\tlockPermitBalance[_address] = 0;\n\t\t\tfor (uint8 i = 0; i < lockCountMonth[_address]; i++) {\n\t\t\t\tlockBalance[_address][i] = (lock_balance.mul(lockPercent[_address][i])).div(100);\n\t\t\t\tif (i > 0) {\n\t\t\t\t\tsum += lockPercent[_address][i];\n\t\t\t\t}\n\t\t\t}\n\n\t\t\tif (sum != 100) {\n\t\t\t\trevert('Invalid percentage');\n\t\t\t}\n\t\t\tlockTimeAddress[_address] = true;\n\t\t} else {\n\t\t\trevert('Invalid balance');\n\t\t}\n\t}\n\n\tfunction refresh_lockPermitBalance(address _address) public {\n\t\tif (lockTimeAddress[_address] == false) {\n\t\t\trevert('Address without Lock');\n\t\t}\n\t\tfor (uint8 i = 0; i < lockCountMonth[msg.sender]; i++) {\n\t\t\tif (block.timestamp >= lockTime[_address][i] && lockCheck[_address][i] == false) {\n\t\t\t\tlockPermitBalance[_address] += lockBalance[_address][i];\n\t\t\t\tlockCheck[_address][i] = true;\n\t\t\t\tif (lockCountMonth[_address] - 1 == i) {\n\t\t\t\t\tdelete_timeAddress(_address);\n\t\t\t\t}\n\t\t\t}\n\t\t}\n\t}\n}\n\ncontract Admin is Variable, Modifiers, Event {\n\tusing SafeMath for uint256;\n\n\tfunction admin_tokenBurn(uint256 _value) public isOwner returns (bool success) {\n\t\trequire(balanceOf[msg.sender] >= _value, 'Invalid balance');\n\t\tbalanceOf[msg.sender] = balanceOf[msg.sender].sub(_value);\n\t\ttotalSupply = totalSupply.sub(_value);\n\t\temit TokenBurn(msg.sender, _value);\n\t\treturn true;\n\t}\n}\n\ncontract Get is Variable, Modifiers {\n\tfunction get_transferLock() public view returns (bool) {\n\t\treturn transferLock;\n\t}\n}\n\ncontract Set is Variable, Modifiers, Event {\n\tfunction setTransferLock(bool _transferLock) public isOwner returns (bool success) {\n\t\ttransferLock = _transferLock;\n\t\treturn true;\n\t}\n}\n\ncontract BYN is Variable, Event, Get, Set, Admin, manageAddress {\n\tusing SafeMath for uint256;\n\tfunction allowance(address tokenOwner, address spender) public view returns (uint256 remaining) {\n\t\treturn allowed[tokenOwner][spender];\n\t}\n\n\tfunction increaseApproval(address _spender, uint256 _addedValue) public returns (bool) {\n\t\tallowed[msg.sender][_spender] = allowed[msg.sender][_spender] + (_addedValue);\n\t\temit Approval(msg.sender, _spender, allowed[msg.sender][_spender]);\n\t\treturn true;\n\t}\n\n\tfunction decreaseApproval(address _spender, uint256 _subtractedValue) public returns (bool) {\n\t\tuint256 oldValue = allowed[msg.sender][_spender];\n\t\tif (_subtractedValue > oldValue) {\n\t\t\tallowed[msg.sender][_spender] = 0;\n\t\t} else {\n\t\t\tallowed[msg.sender][_spender] = oldValue.sub(_subtractedValue);\n\t\t}\n\t\temit Approval(msg.sender, _spender, allowed[msg.sender][_spender]);\n\t\treturn true;\n\t}\n\n\tfunction approve(address _spender, uint256 _value) public returns (bool) {\n\t\tallowed[msg.sender][_spender] = _value;\n\t\temit Approval(msg.sender, _spender, _value);\n\t\treturn true;\n\t}\n\n\tfunction transferFrom(\n\t\taddress _from,\n\t\taddress _to,\n\t\tuint256 _value\n\t) public returns (bool) {\n\t\trequire(allowedAddress[_from] || transferLock == false, 'Transfer lock : true');\n\t\trequire(!blockedAddress[_from] && !blockedAddress[_to] && !blockedAddress[msg.sender], 'Blocked address');\n\t\trequire(balanceOf[_from] >= _value && (balanceOf[_to].add(_value)) >= balanceOf[_to], 'Invalid balance');\n\t\trequire(lockTimeAddress[_to] == false, 'Lock address : to');\n\t\trequire(_value <= allowed[_from][msg.sender], 'Invalid balance : allowed');\n\n\t\tif (lockTimeAddress[_from]) {\n\t\t\tlockPermitBalance[_from] = lockPermitBalance[_from].sub(_value);\n\t\t}\n\n\t\tbalanceOf[_from] = balanceOf[_from].sub(_value);\n\t\tbalanceOf[_to] = balanceOf[_to].add(_value);\n\t\tallowed[_from][msg.sender] = allowed[_from][msg.sender].sub(_value);\n\t\temit Transfer(_from, _to, _value);\n\n\t\treturn true;\n\t}\n\n\tfunction transfer(address _to, uint256 _value) public returns (bool) {\n\t\trequire(allowedAddress[msg.sender] || transferLock == false, 'Transfer lock : true');\n\t\trequire(!blockedAddress[msg.sender] && !blockedAddress[_to], 'Blocked address');\n\t\trequire(balanceOf[msg.sender] >= _value && (balanceOf[_to].add(_value)) >= balanceOf[_to], 'Invalid balance');\n\t\trequire(lockTimeAddress[_to] == false, 'Lock address : to');\n\n\t\tif (lockTimeAddress[msg.sender]) {\n\t\t\tlockPermitBalance[msg.sender] = lockPermitBalance[msg.sender].sub(_value);\n\t\t}\n\n\t\tbalanceOf[msg.sender] = balanceOf[msg.sender].sub(_value);\n\t\tbalanceOf[_to] = balanceOf[_to].add(_value);\n\t\temit Transfer(msg.sender, _to, _value);\n\n\t\treturn true;\n\t}\n}\n",
	"sourcePath": "/media/aniket/home/aniket/Work/nonceblox-work/BF_Staking/contracts/Tokens.sol",
	"compiler": {
		"name": "solc",
		"version": "0.8.1+commit.df193b15.Emscripten.clang"
	},
	"schemaVersion": "3.3.4",
	"updatedAt": "2021-04-16T04:31:23.518Z",
	"devdoc": {
		"kind": "dev",
		"methods": {},
		"version": 1
	},
	"userdoc": {
		"kind": "user",
		"methods": {},
		"version": 1
	}
}