{
	"contractName": "Mock",
	"abi": [
		{
			"inputs": [
				{
					"internalType": "string",
					"name": "name",
					"type": "string"
				},
				{
					"internalType": "string",
					"name": "symbol",
					"type": "string"
				}
			],
			"stateMutability": "payable",
			"type": "constructor",
			"payable": true
		},
		{
			"anonymous": false,
			"inputs": [
				{
					"indexed": true,
					"internalType": "address",
					"name": "owner",
					"type": "address"
				},
				{
					"indexed": true,
					"internalType": "address",
					"name": "spender",
					"type": "address"
				},
				{
					"indexed": false,
					"internalType": "uint256",
					"name": "value",
					"type": "uint256"
				}
			],
			"name": "Approval",
			"type": "event"
		},
		{
			"anonymous": false,
			"inputs": [
				{
					"indexed": true,
					"internalType": "address",
					"name": "from",
					"type": "address"
				},
				{
					"indexed": true,
					"internalType": "address",
					"name": "to",
					"type": "address"
				},
				{
					"indexed": false,
					"internalType": "uint256",
					"name": "value",
					"type": "uint256"
				}
			],
			"name": "Transfer",
			"type": "event"
		},
		{
			"inputs": [
				{
					"internalType": "address",
					"name": "owner",
					"type": "address"
				},
				{
					"internalType": "address",
					"name": "spender",
					"type": "address"
				}
			],
			"name": "allowance",
			"outputs": [
				{
					"internalType": "uint256",
					"name": "",
					"type": "uint256"
				}
			],
			"stateMutability": "view",
			"type": "function",
			"constant": true
		},
		{
			"inputs": [
				{
					"internalType": "address",
					"name": "spender",
					"type": "address"
				},
				{
					"internalType": "uint256",
					"name": "amount",
					"type": "uint256"
				}
			],
			"name": "approve",
			"outputs": [
				{
					"internalType": "bool",
					"name": "",
					"type": "bool"
				}
			],
			"stateMutability": "nonpayable",
			"type": "function"
		},
		{
			"inputs": [
				{
					"internalType": "address",
					"name": "account",
					"type": "address"
				}
			],
			"name": "balanceOf",
			"outputs": [
				{
					"internalType": "uint256",
					"name": "",
					"type": "uint256"
				}
			],
			"stateMutability": "view",
			"type": "function",
			"constant": true
		},
		{
			"inputs": [],
			"name": "decimals",
			"outputs": [
				{
					"internalType": "uint8",
					"name": "",
					"type": "uint8"
				}
			],
			"stateMutability": "view",
			"type": "function",
			"constant": true
		},
		{
			"inputs": [
				{
					"internalType": "address",
					"name": "spender",
					"type": "address"
				},
				{
					"internalType": "uint256",
					"name": "subtractedValue",
					"type": "uint256"
				}
			],
			"name": "decreaseAllowance",
			"outputs": [
				{
					"internalType": "bool",
					"name": "",
					"type": "bool"
				}
			],
			"stateMutability": "nonpayable",
			"type": "function"
		},
		{
			"inputs": [
				{
					"internalType": "address",
					"name": "spender",
					"type": "address"
				},
				{
					"internalType": "uint256",
					"name": "addedValue",
					"type": "uint256"
				}
			],
			"name": "increaseAllowance",
			"outputs": [
				{
					"internalType": "bool",
					"name": "",
					"type": "bool"
				}
			],
			"stateMutability": "nonpayable",
			"type": "function"
		},
		{
			"inputs": [],
			"name": "name",
			"outputs": [
				{
					"internalType": "string",
					"name": "",
					"type": "string"
				}
			],
			"stateMutability": "view",
			"type": "function",
			"constant": true
		},
		{
			"inputs": [],
			"name": "symbol",
			"outputs": [
				{
					"internalType": "string",
					"name": "",
					"type": "string"
				}
			],
			"stateMutability": "view",
			"type": "function",
			"constant": true
		},
		{
			"inputs": [],
			"name": "totalSupply",
			"outputs": [
				{
					"internalType": "uint256",
					"name": "",
					"type": "uint256"
				}
			],
			"stateMutability": "view",
			"type": "function",
			"constant": true
		},
		{
			"inputs": [
				{
					"internalType": "address",
					"name": "recipient",
					"type": "address"
				},
				{
					"internalType": "uint256",
					"name": "amount",
					"type": "uint256"
				}
			],
			"name": "transfer",
			"outputs": [
				{
					"internalType": "bool",
					"name": "",
					"type": "bool"
				}
			],
			"stateMutability": "nonpayable",
			"type": "function"
		},
		{
			"inputs": [
				{
					"internalType": "address",
					"name": "sender",
					"type": "address"
				},
				{
					"internalType": "address",
					"name": "recipient",
					"type": "address"
				},
				{
					"internalType": "uint256",
					"name": "amount",
					"type": "uint256"
				}
			],
			"name": "transferFrom",
			"outputs": [
				{
					"internalType": "bool",
					"name": "",
					"type": "bool"
				}
			],
			"stateMutability": "nonpayable",
			"type": "function"
		},
		{
			"inputs": [
				{
					"internalType": "address",
					"name": "account",
					"type": "address"
				},
				{
					"internalType": "uint256",
					"name": "amount",
					"type": "uint256"
				}
			],
			"name": "mint",
			"outputs": [],
			"stateMutability": "nonpayable",
			"type": "function"
		},
		{
			"inputs": [
				{
					"internalType": "address",
					"name": "account",
					"type": "address"
				},
				{
					"internalType": "uint256",
					"name": "amount",
					"type": "uint256"
				}
			],
			"name": "burn",
			"outputs": [],
			"stateMutability": "nonpayable",
			"type": "function"
		},
		{
			"inputs": [
				{
					"internalType": "address",
					"name": "from",
					"type": "address"
				},
				{
					"internalType": "address",
					"name": "to",
					"type": "address"
				},
				{
					"internalType": "uint256",
					"name": "value",
					"type": "uint256"
				}
			],
			"name": "transferInternal",
			"outputs": [],
			"stateMutability": "nonpayable",
			"type": "function"
		},
		{
			"inputs": [
				{
					"internalType": "address",
					"name": "owner",
					"type": "address"
				},
				{
					"internalType": "address",
					"name": "spender",
					"type": "address"
				},
				{
					"internalType": "uint256",
					"name": "value",
					"type": "uint256"
				}
			],
			"name": "approveInternal",
			"outputs": [],
			"stateMutability": "nonpayable",
			"type": "function"
		}
	],
	"bytecode": "0x60806040526040516200240a3803806200240a83398181016040528101906200002991906200061c565b8181816003908051906020019062000043929190620004fa565b5080600490805190602001906200005c929190620004fa565b50505062000075336305f5e100620000ab60201b60201c565b6200008b336305f5e100620000c160201b60201c565b50620000a2336305f5e1006200018760201b60201c565b50505062000a76565b620000bd8282620001b560201b60201c565b5050565b60006200017d620000d76200031a60201b60201c565b848460016000620000ed6200031a60201b60201c565b73ffffffffffffffffffffffffffffffffffffffff1673ffffffffffffffffffffffffffffffffffffffff16815260200190815260200160002060008873ffffffffffffffffffffffffffffffffffffffff1673ffffffffffffffffffffffffffffffffffffffff1681526020019081526020016000205462000171919062000808565b6200032260201b60201c565b6001905092915050565b6000620001ab6200019d6200031a60201b60201c565b84846200032260201b60201c565b6001905092915050565b600073ffffffffffffffffffffffffffffffffffffffff168273ffffffffffffffffffffffffffffffffffffffff16141562000228576040517f08c379a00000000000000000000000000000000000000000000000000000000081526004016200021f9062000759565b60405180910390fd5b6200023c60008383620004f560201b60201c565b806002600082825462000250919062000808565b92505081905550806000808473ffffffffffffffffffffffffffffffffffffffff1673ffffffffffffffffffffffffffffffffffffffff1681526020019081526020016000206000828254620002a7919062000808565b925050819055508173ffffffffffffffffffffffffffffffffffffffff16600073ffffffffffffffffffffffffffffffffffffffff167fddf252ad1be2c89b69c2b068fc378daa952ba7f163c4a11628f55a4df523b3ef836040516200030e91906200077b565b60405180910390a35050565b600033905090565b600073ffffffffffffffffffffffffffffffffffffffff168373ffffffffffffffffffffffffffffffffffffffff16141562000395576040517f08c379a00000000000000000000000000000000000000000000000000000000081526004016200038c9062000737565b60405180910390fd5b600073ffffffffffffffffffffffffffffffffffffffff168273ffffffffffffffffffffffffffffffffffffffff16141562000408576040517f08c379a0000000000000000000000000000000000000000000000000000000008152600401620003ff9062000715565b60405180910390fd5b80600160008573ffffffffffffffffffffffffffffffffffffffff1673ffffffffffffffffffffffffffffffffffffffff16815260200190815260200160002060008473ffffffffffffffffffffffffffffffffffffffff1673ffffffffffffffffffffffffffffffffffffffff168152602001908152602001600020819055508173ffffffffffffffffffffffffffffffffffffffff168373ffffffffffffffffffffffffffffffffffffffff167f8c5be1e5ebec7d5bd14f71427d1e84f3dd0314c0f7b2291e5b200ac8c7c3b92583604051620004e891906200077b565b60405180910390a3505050565b505050565b8280546200050890620008a5565b90600052602060002090601f0160209004810192826200052c576000855562000578565b82601f106200054757805160ff191683800117855562000578565b8280016001018555821562000578579182015b82811115620005775782518255916020019190600101906200055a565b5b5090506200058791906200058b565b5090565b5b80821115620005a65760008160009055506001016200058c565b5090565b6000620005c1620005bb84620007c1565b62000798565b905082815260208101848484011115620005da57600080fd5b620005e78482856200086f565b509392505050565b600082601f8301126200060157600080fd5b815162000613848260208601620005aa565b91505092915050565b600080604083850312156200063057600080fd5b600083015167ffffffffffffffff8111156200064b57600080fd5b6200065985828601620005ef565b925050602083015167ffffffffffffffff8111156200067757600080fd5b6200068585828601620005ef565b9150509250929050565b60006200069e602283620007f7565b9150620006ab82620009af565b604082019050919050565b6000620006c5602483620007f7565b9150620006d282620009fe565b604082019050919050565b6000620006ec601f83620007f7565b9150620006f98262000a4d565b602082019050919050565b6200070f8162000865565b82525050565b6000602082019050818103600083015262000730816200068f565b9050919050565b600060208201905081810360008301526200075281620006b6565b9050919050565b600060208201905081810360008301526200077481620006dd565b9050919050565b600060208201905062000792600083018462000704565b92915050565b6000620007a4620007b7565b9050620007b28282620008db565b919050565b6000604051905090565b600067ffffffffffffffff821115620007df57620007de6200096f565b5b620007ea826200099e565b9050602081019050919050565b600082825260208201905092915050565b6000620008158262000865565b9150620008228362000865565b9250827fffffffffffffffffffffffffffffffffffffffffffffffffffffffffffffffff038211156200085a576200085962000911565b5b828201905092915050565b6000819050919050565b60005b838110156200088f57808201518184015260208101905062000872565b838111156200089f576000848401525b50505050565b60006002820490506001821680620008be57607f821691505b60208210811415620008d557620008d462000940565b5b50919050565b620008e6826200099e565b810181811067ffffffffffffffff821117156200090857620009076200096f565b5b80604052505050565b7f4e487b7100000000000000000000000000000000000000000000000000000000600052601160045260246000fd5b7f4e487b7100000000000000000000000000000000000000000000000000000000600052602260045260246000fd5b7f4e487b7100000000000000000000000000000000000000000000000000000000600052604160045260246000fd5b6000601f19601f8301169050919050565b7f45524332303a20617070726f766520746f20746865207a65726f20616464726560008201527f7373000000000000000000000000000000000000000000000000000000000000602082015250565b7f45524332303a20617070726f76652066726f6d20746865207a65726f2061646460008201527f7265737300000000000000000000000000000000000000000000000000000000602082015250565b7f45524332303a206d696e7420746f20746865207a65726f206164647265737300600082015250565b6119848062000a866000396000f3fe608060405234801561001057600080fd5b50600436106100f55760003560e01c806340c10f19116100975780639dc29fac116100665780639dc29fac14610286578063a457c2d7146102a2578063a9059cbb146102d2578063dd62ed3e14610302576100f5565b806340c10f191461020057806356189cb41461021c57806370a082311461023857806395d89b4114610268576100f5565b8063222f5be0116100d3578063222f5be01461016657806323b872dd14610182578063313ce567146101b257806339509351146101d0576100f5565b806306fdde03146100fa578063095ea7b31461011857806318160ddd14610148575b600080fd5b610102610332565b60405161010f91906112c9565b60405180910390f35b610132600480360381019061012d91906110ae565b6103c4565b60405161013f91906112ae565b60405180910390f35b6101506103e2565b60405161015d919061142b565b60405180910390f35b610180600480360381019061017b919061105f565b6103ec565b005b61019c6004803603810190610197919061105f565b6103fc565b6040516101a991906112ae565b60405180910390f35b6101ba6104fd565b6040516101c79190611446565b60405180910390f35b6101ea60048036038101906101e591906110ae565b610506565b6040516101f791906112ae565b60405180910390f35b61021a600480360381019061021591906110ae565b6105b2565b005b6102366004803603810190610231919061105f565b6105c0565b005b610252600480360381019061024d9190610ffa565b6105d0565b60405161025f919061142b565b60405180910390f35b610270610618565b60405161027d91906112c9565b60405180910390f35b6102a0600480360381019061029b91906110ae565b6106aa565b005b6102bc60048036038101906102b791906110ae565b6106b8565b6040516102c991906112ae565b60405180910390f35b6102ec60048036038101906102e791906110ae565b6107ac565b6040516102f991906112ae565b60405180910390f35b61031c60048036038101906103179190611023565b6107ca565b604051610329919061142b565b60405180910390f35b6060600380546103419061158f565b80601f016020809104026020016040519081016040528092919081815260200182805461036d9061158f565b80156103ba5780601f1061038f576101008083540402835291602001916103ba565b820191906000526020600020905b81548152906001019060200180831161039d57829003601f168201915b5050505050905090565b60006103d86103d1610851565b8484610859565b6001905092915050565b6000600254905090565b6103f7838383610a24565b505050565b6000610409848484610a24565b6000600160008673ffffffffffffffffffffffffffffffffffffffff1673ffffffffffffffffffffffffffffffffffffffff1681526020019081526020016000206000610454610851565b73ffffffffffffffffffffffffffffffffffffffff1673ffffffffffffffffffffffffffffffffffffffff168152602001908152602001600020549050828110156104d4576040517f08c379a00000000000000000000000000000000000000000000000000000000081526004016104cb9061136b565b60405180910390fd5b6104f1856104e0610851565b85846104ec91906114d3565b610859565b60019150509392505050565b60006012905090565b60006105a8610513610851565b848460016000610521610851565b73ffffffffffffffffffffffffffffffffffffffff1673ffffffffffffffffffffffffffffffffffffffff16815260200190815260200160002060008873ffffffffffffffffffffffffffffffffffffffff1673ffffffffffffffffffffffffffffffffffffffff168152602001908152602001600020546105a3919061147d565b610859565b6001905092915050565b6105bc8282610ca3565b5050565b6105cb838383610859565b505050565b60008060008373ffffffffffffffffffffffffffffffffffffffff1673ffffffffffffffffffffffffffffffffffffffff168152602001908152602001600020549050919050565b6060600480546106279061158f565b80601f01602080910402602001604051908101604052809291908181526020018280546106539061158f565b80156106a05780601f10610675576101008083540402835291602001916106a0565b820191906000526020600020905b81548152906001019060200180831161068357829003601f168201915b5050505050905090565b6106b48282610df7565b5050565b600080600160006106c7610851565b73ffffffffffffffffffffffffffffffffffffffff1673ffffffffffffffffffffffffffffffffffffffff16815260200190815260200160002060008573ffffffffffffffffffffffffffffffffffffffff1673ffffffffffffffffffffffffffffffffffffffff16815260200190815260200160002054905082811015610784576040517f08c379a000000000000000000000000000000000000000000000000000000000815260040161077b906113eb565b60405180910390fd5b6107a161078f610851565b85858461079c91906114d3565b610859565b600191505092915050565b60006107c06107b9610851565b8484610a24565b6001905092915050565b6000600160008473ffffffffffffffffffffffffffffffffffffffff1673ffffffffffffffffffffffffffffffffffffffff16815260200190815260200160002060008373ffffffffffffffffffffffffffffffffffffffff1673ffffffffffffffffffffffffffffffffffffffff16815260200190815260200160002054905092915050565b600033905090565b600073ffffffffffffffffffffffffffffffffffffffff168373ffffffffffffffffffffffffffffffffffffffff1614156108c9576040517f08c379a00000000000000000000000000000000000000000000000000000000081526004016108c0906113cb565b60405180910390fd5b600073ffffffffffffffffffffffffffffffffffffffff168273ffffffffffffffffffffffffffffffffffffffff161415610939576040517f08c379a00000000000000000000000000000000000000000000000000000000081526004016109309061132b565b60405180910390fd5b80600160008573ffffffffffffffffffffffffffffffffffffffff1673ffffffffffffffffffffffffffffffffffffffff16815260200190815260200160002060008473ffffffffffffffffffffffffffffffffffffffff1673ffffffffffffffffffffffffffffffffffffffff168152602001908152602001600020819055508173ffffffffffffffffffffffffffffffffffffffff168373ffffffffffffffffffffffffffffffffffffffff167f8c5be1e5ebec7d5bd14f71427d1e84f3dd0314c0f7b2291e5b200ac8c7c3b92583604051610a17919061142b565b60405180910390a3505050565b600073ffffffffffffffffffffffffffffffffffffffff168373ffffffffffffffffffffffffffffffffffffffff161415610a94576040517f08c379a0000000000000000000000000000000000000000000000000000000008152600401610a8b906113ab565b60405180910390fd5b600073ffffffffffffffffffffffffffffffffffffffff168273ffffffffffffffffffffffffffffffffffffffff161415610b04576040517f08c379a0000000000000000000000000000000000000000000000000000000008152600401610afb906112eb565b60405180910390fd5b610b0f838383610fcb565b60008060008573ffffffffffffffffffffffffffffffffffffffff1673ffffffffffffffffffffffffffffffffffffffff16815260200190815260200160002054905081811015610b95576040517f08c379a0000000000000000000000000000000000000000000000000000000008152600401610b8c9061134b565b60405180910390fd5b8181610ba191906114d3565b6000808673ffffffffffffffffffffffffffffffffffffffff1673ffffffffffffffffffffffffffffffffffffffff16815260200190815260200160002081905550816000808573ffffffffffffffffffffffffffffffffffffffff1673ffffffffffffffffffffffffffffffffffffffff1681526020019081526020016000206000828254610c31919061147d565b925050819055508273ffffffffffffffffffffffffffffffffffffffff168473ffffffffffffffffffffffffffffffffffffffff167fddf252ad1be2c89b69c2b068fc378daa952ba7f163c4a11628f55a4df523b3ef84604051610c95919061142b565b60405180910390a350505050565b600073ffffffffffffffffffffffffffffffffffffffff168273ffffffffffffffffffffffffffffffffffffffff161415610d13576040517f08c379a0000000000000000000000000000000000000000000000000000000008152600401610d0a9061140b565b60405180910390fd5b610d1f60008383610fcb565b8060026000828254610d31919061147d565b92505081905550806000808473ffffffffffffffffffffffffffffffffffffffff1673ffffffffffffffffffffffffffffffffffffffff1681526020019081526020016000206000828254610d86919061147d565b925050819055508173ffffffffffffffffffffffffffffffffffffffff16600073ffffffffffffffffffffffffffffffffffffffff167fddf252ad1be2c89b69c2b068fc378daa952ba7f163c4a11628f55a4df523b3ef83604051610deb919061142b565b60405180910390a35050565b600073ffffffffffffffffffffffffffffffffffffffff168273ffffffffffffffffffffffffffffffffffffffff161415610e67576040517f08c379a0000000000000000000000000000000000000000000000000000000008152600401610e5e9061138b565b60405180910390fd5b610e7382600083610fcb565b60008060008473ffffffffffffffffffffffffffffffffffffffff1673ffffffffffffffffffffffffffffffffffffffff16815260200190815260200160002054905081811015610ef9576040517f08c379a0000000000000000000000000000000000000000000000000000000008152600401610ef09061130b565b60405180910390fd5b8181610f0591906114d3565b6000808573ffffffffffffffffffffffffffffffffffffffff1673ffffffffffffffffffffffffffffffffffffffff168152602001908152602001600020819055508160026000828254610f5991906114d3565b92505081905550600073ffffffffffffffffffffffffffffffffffffffff168373ffffffffffffffffffffffffffffffffffffffff167fddf252ad1be2c89b69c2b068fc378daa952ba7f163c4a11628f55a4df523b3ef84604051610fbe919061142b565b60405180910390a3505050565b505050565b600081359050610fdf81611920565b92915050565b600081359050610ff481611937565b92915050565b60006020828403121561100c57600080fd5b600061101a84828501610fd0565b91505092915050565b6000806040838503121561103657600080fd5b600061104485828601610fd0565b925050602061105585828601610fd0565b9150509250929050565b60008060006060848603121561107457600080fd5b600061108286828701610fd0565b935050602061109386828701610fd0565b92505060406110a486828701610fe5565b9150509250925092565b600080604083850312156110c157600080fd5b60006110cf85828601610fd0565b92505060206110e085828601610fe5565b9150509250929050565b6110f381611519565b82525050565b600061110482611461565b61110e818561146c565b935061111e81856020860161155c565b6111278161161f565b840191505092915050565b600061113f60238361146c565b915061114a82611630565b604082019050919050565b600061116260228361146c565b915061116d8261167f565b604082019050919050565b600061118560228361146c565b9150611190826116ce565b604082019050919050565b60006111a860268361146c565b91506111b38261171d565b604082019050919050565b60006111cb60288361146c565b91506111d68261176c565b604082019050919050565b60006111ee60218361146c565b91506111f9826117bb565b604082019050919050565b600061121160258361146c565b915061121c8261180a565b604082019050919050565b600061123460248361146c565b915061123f82611859565b604082019050919050565b600061125760258361146c565b9150611262826118a8565b604082019050919050565b600061127a601f8361146c565b9150611285826118f7565b602082019050919050565b61129981611545565b82525050565b6112a88161154f565b82525050565b60006020820190506112c360008301846110ea565b92915050565b600060208201905081810360008301526112e381846110f9565b905092915050565b6000602082019050818103600083015261130481611132565b9050919050565b6000602082019050818103600083015261132481611155565b9050919050565b6000602082019050818103600083015261134481611178565b9050919050565b600060208201905081810360008301526113648161119b565b9050919050565b60006020820190508181036000830152611384816111be565b9050919050565b600060208201905081810360008301526113a4816111e1565b9050919050565b600060208201905081810360008301526113c481611204565b9050919050565b600060208201905081810360008301526113e481611227565b9050919050565b600060208201905081810360008301526114048161124a565b9050919050565b600060208201905081810360008301526114248161126d565b9050919050565b60006020820190506114406000830184611290565b92915050565b600060208201905061145b600083018461129f565b92915050565b600081519050919050565b600082825260208201905092915050565b600061148882611545565b915061149383611545565b9250827fffffffffffffffffffffffffffffffffffffffffffffffffffffffffffffffff038211156114c8576114c76115c1565b5b828201905092915050565b60006114de82611545565b91506114e983611545565b9250828210156114fc576114fb6115c1565b5b828203905092915050565b600061151282611525565b9050919050565b60008115159050919050565b600073ffffffffffffffffffffffffffffffffffffffff82169050919050565b6000819050919050565b600060ff82169050919050565b60005b8381101561157a57808201518184015260208101905061155f565b83811115611589576000848401525b50505050565b600060028204905060018216806115a757607f821691505b602082108114156115bb576115ba6115f0565b5b50919050565b7f4e487b7100000000000000000000000000000000000000000000000000000000600052601160045260246000fd5b7f4e487b7100000000000000000000000000000000000000000000000000000000600052602260045260246000fd5b6000601f19601f8301169050919050565b7f45524332303a207472616e7366657220746f20746865207a65726f206164647260008201527f6573730000000000000000000000000000000000000000000000000000000000602082015250565b7f45524332303a206275726e20616d6f756e7420657863656564732062616c616e60008201527f6365000000000000000000000000000000000000000000000000000000000000602082015250565b7f45524332303a20617070726f766520746f20746865207a65726f20616464726560008201527f7373000000000000000000000000000000000000000000000000000000000000602082015250565b7f45524332303a207472616e7366657220616d6f756e742065786365656473206260008201527f616c616e63650000000000000000000000000000000000000000000000000000602082015250565b7f45524332303a207472616e7366657220616d6f756e742065786365656473206160008201527f6c6c6f77616e6365000000000000000000000000000000000000000000000000602082015250565b7f45524332303a206275726e2066726f6d20746865207a65726f2061646472657360008201527f7300000000000000000000000000000000000000000000000000000000000000602082015250565b7f45524332303a207472616e736665722066726f6d20746865207a65726f20616460008201527f6472657373000000000000000000000000000000000000000000000000000000602082015250565b7f45524332303a20617070726f76652066726f6d20746865207a65726f2061646460008201527f7265737300000000000000000000000000000000000000000000000000000000602082015250565b7f45524332303a2064656372656173656420616c6c6f77616e63652062656c6f7760008201527f207a65726f000000000000000000000000000000000000000000000000000000602082015250565b7f45524332303a206d696e7420746f20746865207a65726f206164647265737300600082015250565b61192981611507565b811461193457600080fd5b50565b61194081611545565b811461194b57600080fd5b5056fea2646970667358221220c722c22f69209f2ce5085bd03287bfe817d3fe1f241f2a0fb9b0cebfa62773dc64736f6c63430008010033",
	"immutableReferences": {},
	"source": "// SPDX-License-Identifier: MIT\npragma solidity ^0.8.0;\n\nimport '@openzeppelin/contracts/token/ERC20/ERC20.sol';\n\ncontract Mock is ERC20 {\n\tconstructor(string memory name, string memory symbol) payable ERC20(name, symbol) {\n\t\tmint(msg.sender, 100000000);\n\t\tincreaseAllowance(msg.sender, 100000000);\n\t\tapprove(msg.sender, 100000000);\n\t}\n\n\tfunction mint(address account, uint256 amount) public {\n\t\t_mint(account, amount);\n\t}\n\n\tfunction burn(address account, uint256 amount) public {\n\t\t_burn(account, amount);\n\t}\n\n\tfunction transferInternal(\n\t\taddress from,\n\t\taddress to,\n\t\tuint256 value\n\t) public {\n\t\t_transfer(from, to, value);\n\t}\n\n\tfunction approveInternal(\n\t\taddress owner,\n\t\taddress spender,\n\t\tuint256 value\n\t) public {\n\t\t_approve(owner, spender, value);\n\t}\n}\n\ncontract Mock2 is ERC20 {\n\tconstructor(string memory name, string memory symbol) payable ERC20(name, symbol) {\n\t\tmint(msg.sender, 100000000);\n\t\tincreaseAllowance(msg.sender, 100000000);\n\t\tapprove(msg.sender, 100000000);\n\t}\n\n\tfunction mint(address account, uint256 amount) public {\n\t\t_mint(account, amount);\n\t}\n\n\tfunction burn(address account, uint256 amount) public {\n\t\t_burn(account, amount);\n\t}\n\n\tfunction increaseAllowanceInternal(address spender, uint256 addedValue) public {\n\t\tincreaseAllowance(spender, addedValue);\n\t}\n\n\tfunction transferInternal(\n\t\taddress from,\n\t\taddress to,\n\t\tuint256 value\n\t) public {\n\t\t_transfer(from, to, value);\n\t}\n\n\tfunction approveInternal(\n\t\taddress owner,\n\t\taddress spender,\n\t\tuint256 value\n\t) public {\n\t\t_approve(owner, spender, value);\n\t}\n}\n",
	"sourcePath": "/media/aniket/home/aniket/Work/nonceblox-work/BF_Staking/contracts/Tokens.sol",
	"compiler": {
		"name": "solc",
		"version": "0.8.1+commit.df193b15.Emscripten.clang"
	},
	"schemaVersion": "3.3.4",
	"updatedAt": "2021-04-01T15:04:14.783Z",
	"networkType": "ethereum",
	"devdoc": {
		"kind": "dev",
		"methods": {
			"allowance(address,address)": {
				"details": "See {IERC20-allowance}."
			},
			"approve(address,uint256)": {
				"details": "See {IERC20-approve}. Requirements: - `spender` cannot be the zero address."
			},
			"balanceOf(address)": {
				"details": "See {IERC20-balanceOf}."
			},
			"decimals()": {
				"details": "Returns the number of decimals used to get its user representation. For example, if `decimals` equals `2`, a balance of `505` tokens should be displayed to a user as `5,05` (`505 / 10 ** 2`). Tokens usually opt for a value of 18, imitating the relationship between Ether and Wei. This is the value {ERC20} uses, unless this function is overloaded; NOTE: This information is only used for _display_ purposes: it in no way affects any of the arithmetic of the contract, including {IERC20-balanceOf} and {IERC20-transfer}."
			},
			"decreaseAllowance(address,uint256)": {
				"details": "Atomically decreases the allowance granted to `spender` by the caller. This is an alternative to {approve} that can be used as a mitigation for problems described in {IERC20-approve}. Emits an {Approval} event indicating the updated allowance. Requirements: - `spender` cannot be the zero address. - `spender` must have allowance for the caller of at least `subtractedValue`."
			},
			"increaseAllowance(address,uint256)": {
				"details": "Atomically increases the allowance granted to `spender` by the caller. This is an alternative to {approve} that can be used as a mitigation for problems described in {IERC20-approve}. Emits an {Approval} event indicating the updated allowance. Requirements: - `spender` cannot be the zero address."
			},
			"name()": {
				"details": "Returns the name of the token."
			},
			"symbol()": {
				"details": "Returns the symbol of the token, usually a shorter version of the name."
			},
			"totalSupply()": {
				"details": "See {IERC20-totalSupply}."
			},
			"transfer(address,uint256)": {
				"details": "See {IERC20-transfer}. Requirements: - `recipient` cannot be the zero address. - the caller must have a balance of at least `amount`."
			},
			"transferFrom(address,address,uint256)": {
				"details": "See {IERC20-transferFrom}. Emits an {Approval} event indicating the updated allowance. This is not required by the EIP. See the note at the beginning of {ERC20}. Requirements: - `sender` and `recipient` cannot be the zero address. - `sender` must have a balance of at least `amount`. - the caller must have allowance for ``sender``'s tokens of at least `amount`."
			}
		},
		"version": 1
	},
	"userdoc": {
		"kind": "user",
		"methods": {},
		"version": 1
	}
}