{
	"contractName": "Mock2",
	"abi": [
		{
			"inputs": [
				{
					"internalType": "string",
					"name": "name",
					"type": "string"
				},
				{
					"internalType": "string",
					"name": "symbol",
					"type": "string"
				}
			],
			"stateMutability": "payable",
			"type": "constructor",
			"payable": true
		},
		{
			"anonymous": false,
			"inputs": [
				{
					"indexed": true,
					"internalType": "address",
					"name": "owner",
					"type": "address"
				},
				{
					"indexed": true,
					"internalType": "address",
					"name": "spender",
					"type": "address"
				},
				{
					"indexed": false,
					"internalType": "uint256",
					"name": "value",
					"type": "uint256"
				}
			],
			"name": "Approval",
			"type": "event"
		},
		{
			"anonymous": false,
			"inputs": [
				{
					"indexed": true,
					"internalType": "address",
					"name": "from",
					"type": "address"
				},
				{
					"indexed": true,
					"internalType": "address",
					"name": "to",
					"type": "address"
				},
				{
					"indexed": false,
					"internalType": "uint256",
					"name": "value",
					"type": "uint256"
				}
			],
			"name": "Transfer",
			"type": "event"
		},
		{
			"inputs": [
				{
					"internalType": "address",
					"name": "owner",
					"type": "address"
				},
				{
					"internalType": "address",
					"name": "spender",
					"type": "address"
				}
			],
			"name": "allowance",
			"outputs": [
				{
					"internalType": "uint256",
					"name": "",
					"type": "uint256"
				}
			],
			"stateMutability": "view",
			"type": "function",
			"constant": true
		},
		{
			"inputs": [
				{
					"internalType": "address",
					"name": "spender",
					"type": "address"
				},
				{
					"internalType": "uint256",
					"name": "amount",
					"type": "uint256"
				}
			],
			"name": "approve",
			"outputs": [
				{
					"internalType": "bool",
					"name": "",
					"type": "bool"
				}
			],
			"stateMutability": "nonpayable",
			"type": "function"
		},
		{
			"inputs": [
				{
					"internalType": "address",
					"name": "account",
					"type": "address"
				}
			],
			"name": "balanceOf",
			"outputs": [
				{
					"internalType": "uint256",
					"name": "",
					"type": "uint256"
				}
			],
			"stateMutability": "view",
			"type": "function",
			"constant": true
		},
		{
			"inputs": [],
			"name": "decimals",
			"outputs": [
				{
					"internalType": "uint8",
					"name": "",
					"type": "uint8"
				}
			],
			"stateMutability": "view",
			"type": "function",
			"constant": true
		},
		{
			"inputs": [
				{
					"internalType": "address",
					"name": "spender",
					"type": "address"
				},
				{
					"internalType": "uint256",
					"name": "subtractedValue",
					"type": "uint256"
				}
			],
			"name": "decreaseAllowance",
			"outputs": [
				{
					"internalType": "bool",
					"name": "",
					"type": "bool"
				}
			],
			"stateMutability": "nonpayable",
			"type": "function"
		},
		{
			"inputs": [
				{
					"internalType": "address",
					"name": "spender",
					"type": "address"
				},
				{
					"internalType": "uint256",
					"name": "addedValue",
					"type": "uint256"
				}
			],
			"name": "increaseAllowance",
			"outputs": [
				{
					"internalType": "bool",
					"name": "",
					"type": "bool"
				}
			],
			"stateMutability": "nonpayable",
			"type": "function"
		},
		{
			"inputs": [],
			"name": "name",
			"outputs": [
				{
					"internalType": "string",
					"name": "",
					"type": "string"
				}
			],
			"stateMutability": "view",
			"type": "function",
			"constant": true
		},
		{
			"inputs": [],
			"name": "symbol",
			"outputs": [
				{
					"internalType": "string",
					"name": "",
					"type": "string"
				}
			],
			"stateMutability": "view",
			"type": "function",
			"constant": true
		},
		{
			"inputs": [],
			"name": "totalSupply",
			"outputs": [
				{
					"internalType": "uint256",
					"name": "",
					"type": "uint256"
				}
			],
			"stateMutability": "view",
			"type": "function",
			"constant": true
		},
		{
			"inputs": [
				{
					"internalType": "address",
					"name": "recipient",
					"type": "address"
				},
				{
					"internalType": "uint256",
					"name": "amount",
					"type": "uint256"
				}
			],
			"name": "transfer",
			"outputs": [
				{
					"internalType": "bool",
					"name": "",
					"type": "bool"
				}
			],
			"stateMutability": "nonpayable",
			"type": "function"
		},
		{
			"inputs": [
				{
					"internalType": "address",
					"name": "sender",
					"type": "address"
				},
				{
					"internalType": "address",
					"name": "recipient",
					"type": "address"
				},
				{
					"internalType": "uint256",
					"name": "amount",
					"type": "uint256"
				}
			],
			"name": "transferFrom",
			"outputs": [
				{
					"internalType": "bool",
					"name": "",
					"type": "bool"
				}
			],
			"stateMutability": "nonpayable",
			"type": "function"
		},
		{
			"inputs": [
				{
					"internalType": "address",
					"name": "account",
					"type": "address"
				},
				{
					"internalType": "uint256",
					"name": "amount",
					"type": "uint256"
				}
			],
			"name": "mint",
			"outputs": [],
			"stateMutability": "nonpayable",
			"type": "function"
		},
		{
			"inputs": [
				{
					"internalType": "address",
					"name": "account",
					"type": "address"
				},
				{
					"internalType": "uint256",
					"name": "amount",
					"type": "uint256"
				}
			],
			"name": "burn",
			"outputs": [],
			"stateMutability": "nonpayable",
			"type": "function"
		},
		{
			"inputs": [
				{
					"internalType": "address",
					"name": "spender",
					"type": "address"
				},
				{
					"internalType": "uint256",
					"name": "addedValue",
					"type": "uint256"
				}
			],
			"name": "increaseAllowanceInternal",
			"outputs": [],
			"stateMutability": "nonpayable",
			"type": "function"
		},
		{
			"inputs": [
				{
					"internalType": "address",
					"name": "from",
					"type": "address"
				},
				{
					"internalType": "address",
					"name": "to",
					"type": "address"
				},
				{
					"internalType": "uint256",
					"name": "value",
					"type": "uint256"
				}
			],
			"name": "transferInternal",
			"outputs": [],
			"stateMutability": "nonpayable",
			"type": "function"
		},
		{
			"inputs": [
				{
					"internalType": "address",
					"name": "owner",
					"type": "address"
				},
				{
					"internalType": "address",
					"name": "spender",
					"type": "address"
				},
				{
					"internalType": "uint256",
					"name": "value",
					"type": "uint256"
				}
			],
			"name": "approveInternal",
			"outputs": [],
			"stateMutability": "nonpayable",
			"type": "function"
		}
	],
	"bytecode": "0x60806040526040516200243d3803806200243d833981810160405281019062000029919062000619565b8181816003908051906020019062000043929190620004f7565b5080600490805190602001906200005c929190620004f7565b5050506200007433620f4240620000a860201b60201c565b6200008933620f4240620000be60201b60201c565b506200009f33620f42406200018460201b60201c565b50505062000a73565b620000ba8282620001b260201b60201c565b5050565b60006200017a620000d46200031760201b60201c565b848460016000620000ea6200031760201b60201c565b73ffffffffffffffffffffffffffffffffffffffff1673ffffffffffffffffffffffffffffffffffffffff16815260200190815260200160002060008873ffffffffffffffffffffffffffffffffffffffff1673ffffffffffffffffffffffffffffffffffffffff168152602001908152602001600020546200016e919062000805565b6200031f60201b60201c565b6001905092915050565b6000620001a86200019a6200031760201b60201c565b84846200031f60201b60201c565b6001905092915050565b600073ffffffffffffffffffffffffffffffffffffffff168273ffffffffffffffffffffffffffffffffffffffff16141562000225576040517f08c379a00000000000000000000000000000000000000000000000000000000081526004016200021c9062000756565b60405180910390fd5b6200023960008383620004f260201b60201c565b80600260008282546200024d919062000805565b92505081905550806000808473ffffffffffffffffffffffffffffffffffffffff1673ffffffffffffffffffffffffffffffffffffffff1681526020019081526020016000206000828254620002a4919062000805565b925050819055508173ffffffffffffffffffffffffffffffffffffffff16600073ffffffffffffffffffffffffffffffffffffffff167fddf252ad1be2c89b69c2b068fc378daa952ba7f163c4a11628f55a4df523b3ef836040516200030b919062000778565b60405180910390a35050565b600033905090565b600073ffffffffffffffffffffffffffffffffffffffff168373ffffffffffffffffffffffffffffffffffffffff16141562000392576040517f08c379a0000000000000000000000000000000000000000000000000000000008152600401620003899062000734565b60405180910390fd5b600073ffffffffffffffffffffffffffffffffffffffff168273ffffffffffffffffffffffffffffffffffffffff16141562000405576040517f08c379a0000000000000000000000000000000000000000000000000000000008152600401620003fc9062000712565b60405180910390fd5b80600160008573ffffffffffffffffffffffffffffffffffffffff1673ffffffffffffffffffffffffffffffffffffffff16815260200190815260200160002060008473ffffffffffffffffffffffffffffffffffffffff1673ffffffffffffffffffffffffffffffffffffffff168152602001908152602001600020819055508173ffffffffffffffffffffffffffffffffffffffff168373ffffffffffffffffffffffffffffffffffffffff167f8c5be1e5ebec7d5bd14f71427d1e84f3dd0314c0f7b2291e5b200ac8c7c3b92583604051620004e5919062000778565b60405180910390a3505050565b505050565b8280546200050590620008a2565b90600052602060002090601f01602090048101928262000529576000855562000575565b82601f106200054457805160ff191683800117855562000575565b8280016001018555821562000575579182015b828111156200057457825182559160200191906001019062000557565b5b50905062000584919062000588565b5090565b5b80821115620005a357600081600090555060010162000589565b5090565b6000620005be620005b884620007be565b62000795565b905082815260208101848484011115620005d757600080fd5b620005e48482856200086c565b509392505050565b600082601f830112620005fe57600080fd5b815162000610848260208601620005a7565b91505092915050565b600080604083850312156200062d57600080fd5b600083015167ffffffffffffffff8111156200064857600080fd5b6200065685828601620005ec565b925050602083015167ffffffffffffffff8111156200067457600080fd5b6200068285828601620005ec565b9150509250929050565b60006200069b602283620007f4565b9150620006a882620009ac565b604082019050919050565b6000620006c2602483620007f4565b9150620006cf82620009fb565b604082019050919050565b6000620006e9601f83620007f4565b9150620006f68262000a4a565b602082019050919050565b6200070c8162000862565b82525050565b600060208201905081810360008301526200072d816200068c565b9050919050565b600060208201905081810360008301526200074f81620006b3565b9050919050565b600060208201905081810360008301526200077181620006da565b9050919050565b60006020820190506200078f600083018462000701565b92915050565b6000620007a1620007b4565b9050620007af8282620008d8565b919050565b6000604051905090565b600067ffffffffffffffff821115620007dc57620007db6200096c565b5b620007e7826200099b565b9050602081019050919050565b600082825260208201905092915050565b6000620008128262000862565b91506200081f8362000862565b9250827fffffffffffffffffffffffffffffffffffffffffffffffffffffffffffffffff038211156200085757620008566200090e565b5b828201905092915050565b6000819050919050565b60005b838110156200088c5780820151818401526020810190506200086f565b838111156200089c576000848401525b50505050565b60006002820490506001821680620008bb57607f821691505b60208210811415620008d257620008d16200093d565b5b50919050565b620008e3826200099b565b810181811067ffffffffffffffff821117156200090557620009046200096c565b5b80604052505050565b7f4e487b7100000000000000000000000000000000000000000000000000000000600052601160045260246000fd5b7f4e487b7100000000000000000000000000000000000000000000000000000000600052602260045260246000fd5b7f4e487b7100000000000000000000000000000000000000000000000000000000600052604160045260246000fd5b6000601f19601f8301169050919050565b7f45524332303a20617070726f766520746f20746865207a65726f20616464726560008201527f7373000000000000000000000000000000000000000000000000000000000000602082015250565b7f45524332303a20617070726f76652066726f6d20746865207a65726f2061646460008201527f7265737300000000000000000000000000000000000000000000000000000000602082015250565b7f45524332303a206d696e7420746f20746865207a65726f206164647265737300600082015250565b6119ba8062000a836000396000f3fe608060405234801561001057600080fd5b50600436106101005760003560e01c806340c10f19116100975780639dc29fac116100665780639dc29fac146102ad578063a457c2d7146102c9578063a9059cbb146102f9578063dd62ed3e1461032957610100565b806340c10f191461022757806356189cb41461024357806370a082311461025f57806395d89b411461028f57610100565b8063222f5be0116100d3578063222f5be01461018d57806323b872dd146101a9578063313ce567146101d957806339509351146101f757610100565b806306fdde0314610105578063095ea7b31461012357806318160ddd146101535780631be851b614610171575b600080fd5b61010d610359565b60405161011a91906112ff565b60405180910390f35b61013d600480360381019061013891906110e4565b6103eb565b60405161014a91906112e4565b60405180910390f35b61015b610409565b6040516101689190611461565b60405180910390f35b61018b600480360381019061018691906110e4565b610413565b005b6101a760048036038101906101a29190611095565b610422565b005b6101c360048036038101906101be9190611095565b610432565b6040516101d091906112e4565b60405180910390f35b6101e1610533565b6040516101ee919061147c565b60405180910390f35b610211600480360381019061020c91906110e4565b61053c565b60405161021e91906112e4565b60405180910390f35b610241600480360381019061023c91906110e4565b6105e8565b005b61025d60048036038101906102589190611095565b6105f6565b005b61027960048036038101906102749190611030565b610606565b6040516102869190611461565b60405180910390f35b61029761064e565b6040516102a491906112ff565b60405180910390f35b6102c760048036038101906102c291906110e4565b6106e0565b005b6102e360048036038101906102de91906110e4565b6106ee565b6040516102f091906112e4565b60405180910390f35b610313600480360381019061030e91906110e4565b6107e2565b60405161032091906112e4565b60405180910390f35b610343600480360381019061033e9190611059565b610800565b6040516103509190611461565b60405180910390f35b606060038054610368906115c5565b80601f0160208091040260200160405190810160405280929190818152602001828054610394906115c5565b80156103e15780601f106103b6576101008083540402835291602001916103e1565b820191906000526020600020905b8154815290600101906020018083116103c457829003601f168201915b5050505050905090565b60006103ff6103f8610887565b848461088f565b6001905092915050565b6000600254905090565b61041d828261053c565b505050565b61042d838383610a5a565b505050565b600061043f848484610a5a565b6000600160008673ffffffffffffffffffffffffffffffffffffffff1673ffffffffffffffffffffffffffffffffffffffff168152602001908152602001600020600061048a610887565b73ffffffffffffffffffffffffffffffffffffffff1673ffffffffffffffffffffffffffffffffffffffff1681526020019081526020016000205490508281101561050a576040517f08c379a0000000000000000000000000000000000000000000000000000000008152600401610501906113a1565b60405180910390fd5b61052785610516610887565b85846105229190611509565b61088f565b60019150509392505050565b60006012905090565b60006105de610549610887565b848460016000610557610887565b73ffffffffffffffffffffffffffffffffffffffff1673ffffffffffffffffffffffffffffffffffffffff16815260200190815260200160002060008873ffffffffffffffffffffffffffffffffffffffff1673ffffffffffffffffffffffffffffffffffffffff168152602001908152602001600020546105d991906114b3565b61088f565b6001905092915050565b6105f28282610cd9565b5050565b61060183838361088f565b505050565b60008060008373ffffffffffffffffffffffffffffffffffffffff1673ffffffffffffffffffffffffffffffffffffffff168152602001908152602001600020549050919050565b60606004805461065d906115c5565b80601f0160208091040260200160405190810160405280929190818152602001828054610689906115c5565b80156106d65780601f106106ab576101008083540402835291602001916106d6565b820191906000526020600020905b8154815290600101906020018083116106b957829003601f168201915b5050505050905090565b6106ea8282610e2d565b5050565b600080600160006106fd610887565b73ffffffffffffffffffffffffffffffffffffffff1673ffffffffffffffffffffffffffffffffffffffff16815260200190815260200160002060008573ffffffffffffffffffffffffffffffffffffffff1673ffffffffffffffffffffffffffffffffffffffff168152602001908152602001600020549050828110156107ba576040517f08c379a00000000000000000000000000000000000000000000000000000000081526004016107b190611421565b60405180910390fd5b6107d76107c5610887565b8585846107d29190611509565b61088f565b600191505092915050565b60006107f66107ef610887565b8484610a5a565b6001905092915050565b6000600160008473ffffffffffffffffffffffffffffffffffffffff1673ffffffffffffffffffffffffffffffffffffffff16815260200190815260200160002060008373ffffffffffffffffffffffffffffffffffffffff1673ffffffffffffffffffffffffffffffffffffffff16815260200190815260200160002054905092915050565b600033905090565b600073ffffffffffffffffffffffffffffffffffffffff168373ffffffffffffffffffffffffffffffffffffffff1614156108ff576040517f08c379a00000000000000000000000000000000000000000000000000000000081526004016108f690611401565b60405180910390fd5b600073ffffffffffffffffffffffffffffffffffffffff168273ffffffffffffffffffffffffffffffffffffffff16141561096f576040517f08c379a000000000000000000000000000000000000000000000000000000000815260040161096690611361565b60405180910390fd5b80600160008573ffffffffffffffffffffffffffffffffffffffff1673ffffffffffffffffffffffffffffffffffffffff16815260200190815260200160002060008473ffffffffffffffffffffffffffffffffffffffff1673ffffffffffffffffffffffffffffffffffffffff168152602001908152602001600020819055508173ffffffffffffffffffffffffffffffffffffffff168373ffffffffffffffffffffffffffffffffffffffff167f8c5be1e5ebec7d5bd14f71427d1e84f3dd0314c0f7b2291e5b200ac8c7c3b92583604051610a4d9190611461565b60405180910390a3505050565b600073ffffffffffffffffffffffffffffffffffffffff168373ffffffffffffffffffffffffffffffffffffffff161415610aca576040517f08c379a0000000000000000000000000000000000000000000000000000000008152600401610ac1906113e1565b60405180910390fd5b600073ffffffffffffffffffffffffffffffffffffffff168273ffffffffffffffffffffffffffffffffffffffff161415610b3a576040517f08c379a0000000000000000000000000000000000000000000000000000000008152600401610b3190611321565b60405180910390fd5b610b45838383611001565b60008060008573ffffffffffffffffffffffffffffffffffffffff1673ffffffffffffffffffffffffffffffffffffffff16815260200190815260200160002054905081811015610bcb576040517f08c379a0000000000000000000000000000000000000000000000000000000008152600401610bc290611381565b60405180910390fd5b8181610bd79190611509565b6000808673ffffffffffffffffffffffffffffffffffffffff1673ffffffffffffffffffffffffffffffffffffffff16815260200190815260200160002081905550816000808573ffffffffffffffffffffffffffffffffffffffff1673ffffffffffffffffffffffffffffffffffffffff1681526020019081526020016000206000828254610c6791906114b3565b925050819055508273ffffffffffffffffffffffffffffffffffffffff168473ffffffffffffffffffffffffffffffffffffffff167fddf252ad1be2c89b69c2b068fc378daa952ba7f163c4a11628f55a4df523b3ef84604051610ccb9190611461565b60405180910390a350505050565b600073ffffffffffffffffffffffffffffffffffffffff168273ffffffffffffffffffffffffffffffffffffffff161415610d49576040517f08c379a0000000000000000000000000000000000000000000000000000000008152600401610d4090611441565b60405180910390fd5b610d5560008383611001565b8060026000828254610d6791906114b3565b92505081905550806000808473ffffffffffffffffffffffffffffffffffffffff1673ffffffffffffffffffffffffffffffffffffffff1681526020019081526020016000206000828254610dbc91906114b3565b925050819055508173ffffffffffffffffffffffffffffffffffffffff16600073ffffffffffffffffffffffffffffffffffffffff167fddf252ad1be2c89b69c2b068fc378daa952ba7f163c4a11628f55a4df523b3ef83604051610e219190611461565b60405180910390a35050565b600073ffffffffffffffffffffffffffffffffffffffff168273ffffffffffffffffffffffffffffffffffffffff161415610e9d576040517f08c379a0000000000000000000000000000000000000000000000000000000008152600401610e94906113c1565b60405180910390fd5b610ea982600083611001565b60008060008473ffffffffffffffffffffffffffffffffffffffff1673ffffffffffffffffffffffffffffffffffffffff16815260200190815260200160002054905081811015610f2f576040517f08c379a0000000000000000000000000000000000000000000000000000000008152600401610f2690611341565b60405180910390fd5b8181610f3b9190611509565b6000808573ffffffffffffffffffffffffffffffffffffffff1673ffffffffffffffffffffffffffffffffffffffff168152602001908152602001600020819055508160026000828254610f8f9190611509565b92505081905550600073ffffffffffffffffffffffffffffffffffffffff168373ffffffffffffffffffffffffffffffffffffffff167fddf252ad1be2c89b69c2b068fc378daa952ba7f163c4a11628f55a4df523b3ef84604051610ff49190611461565b60405180910390a3505050565b505050565b60008135905061101581611956565b92915050565b60008135905061102a8161196d565b92915050565b60006020828403121561104257600080fd5b600061105084828501611006565b91505092915050565b6000806040838503121561106c57600080fd5b600061107a85828601611006565b925050602061108b85828601611006565b9150509250929050565b6000806000606084860312156110aa57600080fd5b60006110b886828701611006565b93505060206110c986828701611006565b92505060406110da8682870161101b565b9150509250925092565b600080604083850312156110f757600080fd5b600061110585828601611006565b92505060206111168582860161101b565b9150509250929050565b6111298161154f565b82525050565b600061113a82611497565b61114481856114a2565b9350611154818560208601611592565b61115d81611655565b840191505092915050565b60006111756023836114a2565b915061118082611666565b604082019050919050565b60006111986022836114a2565b91506111a3826116b5565b604082019050919050565b60006111bb6022836114a2565b91506111c682611704565b604082019050919050565b60006111de6026836114a2565b91506111e982611753565b604082019050919050565b60006112016028836114a2565b915061120c826117a2565b604082019050919050565b60006112246021836114a2565b915061122f826117f1565b604082019050919050565b60006112476025836114a2565b915061125282611840565b604082019050919050565b600061126a6024836114a2565b91506112758261188f565b604082019050919050565b600061128d6025836114a2565b9150611298826118de565b604082019050919050565b60006112b0601f836114a2565b91506112bb8261192d565b602082019050919050565b6112cf8161157b565b82525050565b6112de81611585565b82525050565b60006020820190506112f96000830184611120565b92915050565b60006020820190508181036000830152611319818461112f565b905092915050565b6000602082019050818103600083015261133a81611168565b9050919050565b6000602082019050818103600083015261135a8161118b565b9050919050565b6000602082019050818103600083015261137a816111ae565b9050919050565b6000602082019050818103600083015261139a816111d1565b9050919050565b600060208201905081810360008301526113ba816111f4565b9050919050565b600060208201905081810360008301526113da81611217565b9050919050565b600060208201905081810360008301526113fa8161123a565b9050919050565b6000602082019050818103600083015261141a8161125d565b9050919050565b6000602082019050818103600083015261143a81611280565b9050919050565b6000602082019050818103600083015261145a816112a3565b9050919050565b600060208201905061147660008301846112c6565b92915050565b600060208201905061149160008301846112d5565b92915050565b600081519050919050565b600082825260208201905092915050565b60006114be8261157b565b91506114c98361157b565b9250827fffffffffffffffffffffffffffffffffffffffffffffffffffffffffffffffff038211156114fe576114fd6115f7565b5b828201905092915050565b60006115148261157b565b915061151f8361157b565b925082821015611532576115316115f7565b5b828203905092915050565b60006115488261155b565b9050919050565b60008115159050919050565b600073ffffffffffffffffffffffffffffffffffffffff82169050919050565b6000819050919050565b600060ff82169050919050565b60005b838110156115b0578082015181840152602081019050611595565b838111156115bf576000848401525b50505050565b600060028204905060018216806115dd57607f821691505b602082108114156115f1576115f0611626565b5b50919050565b7f4e487b7100000000000000000000000000000000000000000000000000000000600052601160045260246000fd5b7f4e487b7100000000000000000000000000000000000000000000000000000000600052602260045260246000fd5b6000601f19601f8301169050919050565b7f45524332303a207472616e7366657220746f20746865207a65726f206164647260008201527f6573730000000000000000000000000000000000000000000000000000000000602082015250565b7f45524332303a206275726e20616d6f756e7420657863656564732062616c616e60008201527f6365000000000000000000000000000000000000000000000000000000000000602082015250565b7f45524332303a20617070726f766520746f20746865207a65726f20616464726560008201527f7373000000000000000000000000000000000000000000000000000000000000602082015250565b7f45524332303a207472616e7366657220616d6f756e742065786365656473206260008201527f616c616e63650000000000000000000000000000000000000000000000000000602082015250565b7f45524332303a207472616e7366657220616d6f756e742065786365656473206160008201527f6c6c6f77616e6365000000000000000000000000000000000000000000000000602082015250565b7f45524332303a206275726e2066726f6d20746865207a65726f2061646472657360008201527f7300000000000000000000000000000000000000000000000000000000000000602082015250565b7f45524332303a207472616e736665722066726f6d20746865207a65726f20616460008201527f6472657373000000000000000000000000000000000000000000000000000000602082015250565b7f45524332303a20617070726f76652066726f6d20746865207a65726f2061646460008201527f7265737300000000000000000000000000000000000000000000000000000000602082015250565b7f45524332303a2064656372656173656420616c6c6f77616e63652062656c6f7760008201527f207a65726f000000000000000000000000000000000000000000000000000000602082015250565b7f45524332303a206d696e7420746f20746865207a65726f206164647265737300600082015250565b61195f8161153d565b811461196a57600080fd5b50565b6119768161157b565b811461198157600080fd5b5056fea264697066735822122091949e1195d3ba0317bb6dc3e5f2262cd80424d9cbf91204c1b7e1b10b0bc1c364736f6c63430008010033",
	"immutableReferences": {},
	"source": "// SPDX-License-Identifier: MIT\npragma solidity ^0.8.0;\n\nimport '@openzeppelin/contracts/token/ERC20/ERC20.sol';\n\ncontract Mock is ERC20 {\n\tconstructor(string memory name, string memory symbol) payable ERC20(name, symbol) {\n\t\tmint(msg.sender, 1000000);\n\t\tincreaseAllowance(msg.sender, 1000000);\n\t\tapprove(msg.sender, 1000000);\n\t}\n\n\tfunction mint(address account, uint256 amount) public {\n\t\t_mint(account, amount);\n\t}\n\n\tfunction burn(address account, uint256 amount) public {\n\t\t_burn(account, amount);\n\t}\n\n\tfunction transferInternal(\n\t\taddress from,\n\t\taddress to,\n\t\tuint256 value\n\t) public {\n\t\t_transfer(from, to, value);\n\t}\n\n\tfunction approveInternal(\n\t\taddress owner,\n\t\taddress spender,\n\t\tuint256 value\n\t) public {\n\t\t_approve(owner, spender, value);\n\t}\n}\n\ncontract Mock2 is ERC20 {\n\tconstructor(string memory name, string memory symbol) payable ERC20(name, symbol) {\n\t\tmint(msg.sender, 1000000);\n\t\tincreaseAllowance(msg.sender, 1000000);\n\t\tapprove(msg.sender, 1000000);\n\t}\n\n\tfunction mint(address account, uint256 amount) public {\n\t\t_mint(account, amount);\n\t}\n\n\tfunction burn(address account, uint256 amount) public {\n\t\t_burn(account, amount);\n\t}\n\n\tfunction increaseAllowanceInternal(address spender, uint256 addedValue) public {\n\t\tincreaseAllowance(spender, addedValue);\n\t}\n\n\tfunction transferInternal(\n\t\taddress from,\n\t\taddress to,\n\t\tuint256 value\n\t) public {\n\t\t_transfer(from, to, value);\n\t}\n\n\tfunction approveInternal(\n\t\taddress owner,\n\t\taddress spender,\n\t\tuint256 value\n\t) public {\n\t\t_approve(owner, spender, value);\n\t}\n}\n",
	"sourcePath": "/media/aniket/home/aniket/Work/nonceblox-work/BF_Staking/contracts/Tokens.sol",
	"compiler": {
		"name": "solc",
		"version": "0.8.1+commit.df193b15.Emscripten.clang"
	},
	"schemaVersion": "3.3.4",
	"updatedAt": "2021-03-31T17:46:42.920Z",
	"networkType": "ethereum",
	"devdoc": {
		"kind": "dev",
		"methods": {
			"allowance(address,address)": {
				"details": "See {IERC20-allowance}."
			},
			"approve(address,uint256)": {
				"details": "See {IERC20-approve}. Requirements: - `spender` cannot be the zero address."
			},
			"balanceOf(address)": {
				"details": "See {IERC20-balanceOf}."
			},
			"decimals()": {
				"details": "Returns the number of decimals used to get its user representation. For example, if `decimals` equals `2`, a balance of `505` tokens should be displayed to a user as `5,05` (`505 / 10 ** 2`). Tokens usually opt for a value of 18, imitating the relationship between Ether and Wei. This is the value {ERC20} uses, unless this function is overloaded; NOTE: This information is only used for _display_ purposes: it in no way affects any of the arithmetic of the contract, including {IERC20-balanceOf} and {IERC20-transfer}."
			},
			"decreaseAllowance(address,uint256)": {
				"details": "Atomically decreases the allowance granted to `spender` by the caller. This is an alternative to {approve} that can be used as a mitigation for problems described in {IERC20-approve}. Emits an {Approval} event indicating the updated allowance. Requirements: - `spender` cannot be the zero address. - `spender` must have allowance for the caller of at least `subtractedValue`."
			},
			"increaseAllowance(address,uint256)": {
				"details": "Atomically increases the allowance granted to `spender` by the caller. This is an alternative to {approve} that can be used as a mitigation for problems described in {IERC20-approve}. Emits an {Approval} event indicating the updated allowance. Requirements: - `spender` cannot be the zero address."
			},
			"name()": {
				"details": "Returns the name of the token."
			},
			"symbol()": {
				"details": "Returns the symbol of the token, usually a shorter version of the name."
			},
			"totalSupply()": {
				"details": "See {IERC20-totalSupply}."
			},
			"transfer(address,uint256)": {
				"details": "See {IERC20-transfer}. Requirements: - `recipient` cannot be the zero address. - the caller must have a balance of at least `amount`."
			},
			"transferFrom(address,address,uint256)": {
				"details": "See {IERC20-transferFrom}. Emits an {Approval} event indicating the updated allowance. This is not required by the EIP. See the note at the beginning of {ERC20}. Requirements: - `sender` and `recipient` cannot be the zero address. - `sender` must have a balance of at least `amount`. - the caller must have allowance for ``sender``'s tokens of at least `amount`."
			}
		},
		"version": 1
	},
	"userdoc": {
		"kind": "user",
		"methods": {},
		"version": 1
	}
}