{
	"contractName": "Modifiers",
	"abi": [
		{
			"constant": true,
			"inputs": [
				{
					"internalType": "address",
					"name": "",
					"type": "address"
				}
			],
			"name": "allowedAddress",
			"outputs": [
				{
					"internalType": "bool",
					"name": "allowed",
					"type": "bool"
				},
				{
					"internalType": "uint256",
					"name": "level1Tokens",
					"type": "uint256"
				},
				{
					"internalType": "uint256",
					"name": "level2Tokens",
					"type": "uint256"
				},
				{
					"internalType": "uint256",
					"name": "level3Tokens",
					"type": "uint256"
				}
			],
			"payable": false,
			"stateMutability": "view",
			"type": "function"
		},
		{
			"constant": true,
			"inputs": [
				{
					"internalType": "address",
					"name": "",
					"type": "address"
				}
			],
			"name": "balanceOf",
			"outputs": [
				{
					"internalType": "uint256",
					"name": "",
					"type": "uint256"
				}
			],
			"payable": false,
			"stateMutability": "view",
			"type": "function"
		},
		{
			"constant": true,
			"inputs": [
				{
					"internalType": "address",
					"name": "",
					"type": "address"
				}
			],
			"name": "blockedAddress",
			"outputs": [
				{
					"internalType": "bool",
					"name": "",
					"type": "bool"
				}
			],
			"payable": false,
			"stateMutability": "view",
			"type": "function"
		},
		{
			"constant": true,
			"inputs": [],
			"name": "decimals",
			"outputs": [
				{
					"internalType": "uint256",
					"name": "",
					"type": "uint256"
				}
			],
			"payable": false,
			"stateMutability": "view",
			"type": "function"
		},
		{
			"constant": true,
			"inputs": [],
			"name": "name",
			"outputs": [
				{
					"internalType": "string",
					"name": "",
					"type": "string"
				}
			],
			"payable": false,
			"stateMutability": "view",
			"type": "function"
		},
		{
			"constant": true,
			"inputs": [],
			"name": "owner",
			"outputs": [
				{
					"internalType": "address",
					"name": "",
					"type": "address"
				}
			],
			"payable": false,
			"stateMutability": "view",
			"type": "function"
		},
		{
			"constant": true,
			"inputs": [],
			"name": "symbol",
			"outputs": [
				{
					"internalType": "string",
					"name": "",
					"type": "string"
				}
			],
			"payable": false,
			"stateMutability": "view",
			"type": "function"
		},
		{
			"constant": true,
			"inputs": [],
			"name": "totalSupply",
			"outputs": [
				{
					"internalType": "uint256",
					"name": "",
					"type": "uint256"
				}
			],
			"payable": false,
			"stateMutability": "view",
			"type": "function"
		}
	],
	"bytecode": "0x60806040526040518060400160405280600e81526020017f4265796f6e642046696e616e63650000000000000000000000000000000000008152506000908051906020019061004f929190610205565b506040518060400160405280600381526020017f42594e00000000000000000000000000000000000000000000000000000000008152506001908051906020019061009b929190610205565b506012600281905550600254600a0a6005819055506305f5e100600554026003819055506001600660006101000a81548160ff02191690831515021790555033600460006101000a81548173ffffffffffffffffffffffffffffffffffffffff021916908373ffffffffffffffffffffffffffffffffffffffff16021790555060035460096000600460009054906101000a900473ffffffffffffffffffffffffffffffffffffffff1673ffffffffffffffffffffffffffffffffffffffff1673ffffffffffffffffffffffffffffffffffffffff16815260200190815260200160002081905550600160076000600460009054906101000a900473ffffffffffffffffffffffffffffffffffffffff1673ffffffffffffffffffffffffffffffffffffffff1673ffffffffffffffffffffffffffffffffffffffff16815260200190815260200160002060000160006101000a81548160ff0219169083151502179055506102aa565b828054600181600116156101000203166002900490600052602060002090601f016020900481019282601f1061024657805160ff1916838001178555610274565b82800160010185558215610274579182015b82811115610273578251825591602001919060010190610258565b5b5090506102819190610285565b5090565b6102a791905b808211156102a357600081600090555060010161028b565b5090565b90565b610556806102b96000396000f3fe608060405234801561001057600080fd5b50600436106100885760003560e01c806370a082311161005b57806370a08231146101bd5780638da5cb5b1461021557806395d89b411461025f578063fd4a772c146102e257610088565b806306fdde031461008d57806318160ddd14610110578063313ce5671461012e578063409082981461014c575b600080fd5b61009561033e565b6040518080602001828103825283818151815260200191508051906020019080838360005b838110156100d55780820151818401526020810190506100ba565b50505050905090810190601f1680156101025780820380516001836020036101000a031916815260200191505b509250505060405180910390f35b6101186103dc565b6040518082815260200191505060405180910390f35b6101366103e2565b6040518082815260200191505060405180910390f35b61018e6004803603602081101561016257600080fd5b81019080803573ffffffffffffffffffffffffffffffffffffffff1690602001909291905050506103e8565b604051808515151515815260200184815260200183815260200182815260200194505050505060405180910390f35b6101ff600480360360208110156101d357600080fd5b81019080803573ffffffffffffffffffffffffffffffffffffffff169060200190929190505050610425565b6040518082815260200191505060405180910390f35b61021d61043d565b604051808273ffffffffffffffffffffffffffffffffffffffff1673ffffffffffffffffffffffffffffffffffffffff16815260200191505060405180910390f35b610267610463565b6040518080602001828103825283818151815260200191508051906020019080838360005b838110156102a757808201518184015260208101905061028c565b50505050905090810190601f1680156102d45780820380516001836020036101000a031916815260200191505b509250505060405180910390f35b610324600480360360208110156102f857600080fd5b81019080803573ffffffffffffffffffffffffffffffffffffffff169060200190929190505050610501565b604051808215151515815260200191505060405180910390f35b60008054600181600116156101000203166002900480601f0160208091040260200160405190810160405280929190818152602001828054600181600116156101000203166002900480156103d45780601f106103a9576101008083540402835291602001916103d4565b820191906000526020600020905b8154815290600101906020018083116103b757829003601f168201915b505050505081565b60035481565b60025481565b60076020528060005260406000206000915090508060000160009054906101000a900460ff16908060010154908060020154908060030154905084565b60096020528060005260406000206000915090505481565b600460009054906101000a900473ffffffffffffffffffffffffffffffffffffffff1681565b60018054600181600116156101000203166002900480601f0160208091040260200160405190810160405280929190818152602001828054600181600116156101000203166002900480156104f95780601f106104ce576101008083540402835291602001916104f9565b820191906000526020600020905b8154815290600101906020018083116104dc57829003601f168201915b505050505081565b60086020528060005260406000206000915054906101000a900460ff168156fea265627a7a72315820cae30c5a3d687eb8aa8940be598cdfa27d916ba659535642d9365756dc50760d64736f6c63430005110032",
	"source": "pragma solidity ^0.5.17;\n\nlibrary SafeMath {\n\tfunction add(uint256 a, uint256 b) internal pure returns (uint256) {\n\t\tuint256 c = a + b;\n\t\tassert(c >= a);\n\t\treturn c;\n\t}\n}\n\ncontract Variable {\n\tstring public name;\n\tstring public symbol;\n\tuint256 public decimals;\n\tuint256 public totalSupply;\n\taddress public owner;\n\n\tuint256 internal _decimals;\n\tbool internal transferLock;\n\n\tstruct Transaction {\n\t\tuint256 addedOn;\n\t\tuint256 level;\n\t\tuint256 qty;\n\t}\n\tstruct UserData {\n\t\tbool allowed;\n\t\tuint256 level1Tokens;\n\t\tuint256 level2Tokens;\n\t\tuint256 level3Tokens;\n\t\tTransaction[] transactions;\n\t}\n\n\tmapping(address => UserData) public allowedAddress;\n\tmapping(address => bool) public blockedAddress;\n\n\tmapping(address => uint256) public balanceOf;\n\n\tconstructor() public {\n\t\tname = 'Beyond Finance';\n\t\tsymbol = 'BYN';\n\t\tdecimals = 18;\n\t\t_decimals = 10**uint256(decimals);\n\t\ttotalSupply = _decimals * 100000000;\n\t\ttransferLock = true;\n\t\towner = msg.sender;\n\t\tbalanceOf[owner] = totalSupply;\n\t\tallowedAddress[owner].allowed = true;\n\t}\n}\n\ncontract Modifiers is Variable {\n\tmodifier isOwner {\n\t\tassert(owner == msg.sender);\n\t\t_;\n\t}\n}\n\ncontract Event {\n\tevent Transfer(address indexed from, address indexed to, uint256 value);\n\tevent TokenBurn(address indexed from, uint256 value);\n\tevent Deposit(address _sender, uint256 amount);\n}\n\ncontract manageAddress is Variable, Modifiers, Event {\n\tfunction add_allowedAddress(address _address) public isOwner {\n\t\tallowedAddress[_address].allowed = true;\n\t}\n\n\tfunction delete_allowedAddress(address _address) public isOwner {\n\t\trequire(_address != owner);\n\t\tallowedAddress[_address].allowed = false;\n\t}\n\n\tfunction add_blockedAddress(address _address) public isOwner {\n\t\trequire(_address != owner);\n\t\tblockedAddress[_address] = true;\n\t}\n\n\tfunction delete_blockedAddress(address _address) public isOwner {\n\t\tblockedAddress[_address] = false;\n\t}\n}\n\ncontract Admin is Variable, Modifiers, Event {\n\tfunction admin_tokenBurn(uint256 _value) public isOwner returns (bool success) {\n\t\trequire(balanceOf[msg.sender] >= _value);\n\t\tbalanceOf[msg.sender] -= _value;\n\t\ttotalSupply -= _value;\n\t\temit TokenBurn(msg.sender, _value);\n\t\treturn true;\n\t}\n}\n\ncontract Get is Variable, Modifiers {\n\tfunction get_transferLock() public view returns (bool) {\n\t\treturn transferLock;\n\t}\n\n\tfunction get_blockedAddress(address _address) public view returns (bool) {\n\t\treturn blockedAddress[_address];\n\t}\n}\n\ncontract Set is Variable, Modifiers, Event {\n\tfunction setTransferLock(bool _transferLock) public isOwner returns (bool success) {\n\t\ttransferLock = _transferLock;\n\t\treturn true;\n\t}\n}\n\ncontract BYN is Variable, Event, Get, Set, Admin, manageAddress {\n\tusing SafeMath for uint256;\n\n\tuint256 issuedTokens;\n\tstruct LevelData {\n\t\tuint256 allowedForXCoins;\n\t\tuint256 rewardPercentTimes100;\n\t\tuint256 lockedDuration;\n\t\tuint256 allowedReward;\n\t}\n\n\tmapping(int256 => LevelData) levels;\n\n\tuint8 public level;\n\n\tconstructor() public {\n\t\tname = 'Beyond Finance';\n\t\tsymbol = 'BYN';\n\t\tdecimals = 18;\n\t\t_decimals = 10**uint256(decimals);\n\t\ttotalSupply = _decimals * 100000000;\n\t\ttransferLock = true;\n\t\towner = msg.sender;\n\t\tbalanceOf[owner] = totalSupply;\n\t\tallowedAddress[owner].allowed = true;\n\n\t\tcreateLevels();\n\t}\n\n\tfunction createLevels() internal isOwner {\n\t\tlevels[1] = LevelData(300000, 8219, 30, 246575);\n\t\tlevels[2] = LevelData(600000, 3082, 45, 184932);\n\t\tlevels[3] = LevelData(1000000, 2630, 60, 263014);\n\n\t\tlevel = 1;\n\t}\n\n\tfunction() external payable {\n\t\temit Deposit(msg.sender, msg.value);\n\t}\n\n\tfunction withdraw() public isOwner {\n\t\tmsg.sender.transfer(address(this).balance);\n\t}\n\n\tfunction getTokenForEth(uint256 weiValue) public pure returns (uint256 tokenValue) {\n\t\treturn weiValue;\n\t}\n\n\tfunction addTokens() public payable {\n\t\trequire(allowedAddress[msg.sender].allowed == true);\n\t\trequire(!blockedAddress[msg.sender]);\n\t\trequire(level <= 4 && level >= 1);\n\n\t\trequire(msg.value > 0);\n\n\t\tuint256 tokenValue = getTokenForEth(msg.value);\n\n\t\tif (level == 1) {\n\t\t\trequire(allowedAddress[msg.sender].level1Tokens == 0);\n\t\t\tif (issuedTokens + tokenValue > levels[level].allowedForXCoins) {\n\t\t\t\tallowedAddress[msg.sender].level1Tokens += levels[level].allowedForXCoins - issuedTokens;\n\t\t\t\tallowedAddress[msg.sender].transactions.push(Transaction(now, level, levels[level].allowedForXCoins - issuedTokens));\n\t\t\t\tlevel += 1;\n\t\t\t\tallowedAddress[msg.sender].level2Tokens += tokenValue - (levels[level].allowedForXCoins - issuedTokens);\n\t\t\t\tallowedAddress[msg.sender].transactions.push(Transaction(now, level, tokenValue - (levels[level].allowedForXCoins - issuedTokens)));\n\n\t\t\t\tbalanceOf[msg.sender] += tokenValue;\n\t\t\t\tissuedTokens += tokenValue;\n\t\t\t} else {\n\t\t\t\tissuedTokens += tokenValue;\n\t\t\t\tallowedAddress[msg.sender].level1Tokens += tokenValue;\n\t\t\t\tbalanceOf[msg.sender] += tokenValue;\n\t\t\t\tallowedAddress[msg.sender].transactions.push(Transaction(now, level, tokenValue));\n\t\t\t}\n\t\t} else if (level == 2) {\n\t\t\trequire(allowedAddress[msg.sender].level2Tokens == 0);\n\t\t\tif (issuedTokens + tokenValue > levels[level].allowedForXCoins) {\n\t\t\t\tallowedAddress[msg.sender].level2Tokens += levels[level].allowedForXCoins - issuedTokens;\n\t\t\t\tallowedAddress[msg.sender].transactions.push(Transaction(now, level, levels[level].allowedForXCoins - issuedTokens));\n\t\t\t\tlevel += 1;\n\t\t\t\tallowedAddress[msg.sender].level3Tokens += tokenValue - (levels[level].allowedForXCoins - issuedTokens);\n\t\t\t\tallowedAddress[msg.sender].transactions.push(Transaction(now, level, tokenValue - (levels[level].allowedForXCoins - issuedTokens)));\n\n\t\t\t\tbalanceOf[msg.sender] += tokenValue;\n\t\t\t\tissuedTokens += tokenValue;\n\t\t\t} else {\n\t\t\t\tissuedTokens += tokenValue;\n\t\t\t\tallowedAddress[msg.sender].level2Tokens += tokenValue;\n\t\t\t\tbalanceOf[msg.sender] += tokenValue;\n\t\t\t\tallowedAddress[msg.sender].transactions.push(Transaction(now, level, tokenValue));\n\t\t\t}\n\t\t} else if (level == 3) {\n\t\t\trequire(allowedAddress[msg.sender].level3Tokens == 0);\n\t\t\tif (issuedTokens + tokenValue > levels[level].allowedForXCoins) {\n\t\t\t\tallowedAddress[msg.sender].level3Tokens += levels[level].allowedForXCoins - issuedTokens;\n\t\t\t\tallowedAddress[msg.sender].transactions.push(Transaction(now, level, levels[level].allowedForXCoins - issuedTokens));\n\t\t\t\tlevel += 1;\n\n\t\t\t\tbalanceOf[msg.sender] += tokenValue;\n\t\t\t\tissuedTokens += tokenValue;\n\t\t\t\tallowedAddress[msg.sender].transactions.push(Transaction(now, level, tokenValue - (levels[level].allowedForXCoins - issuedTokens)));\n\t\t\t} else {\n\t\t\t\tissuedTokens += tokenValue;\n\t\t\t\tallowedAddress[msg.sender].level3Tokens += tokenValue;\n\t\t\t\tbalanceOf[msg.sender] += tokenValue;\n\t\t\t\tallowedAddress[msg.sender].transactions.push(Transaction(now, level, tokenValue));\n\t\t\t}\n\t\t} else {\n\t\t\tissuedTokens += tokenValue;\n\t\t\tbalanceOf[msg.sender] += tokenValue;\n\t\t\tallowedAddress[msg.sender].transactions.push(Transaction(now, level, tokenValue));\n\t\t}\n\t}\n\n\tfunction transfer(address _to, uint256 _value) public {\n\t\trequire(allowedAddress[msg.sender].allowed == true || transferLock == false);\n\t\trequire(!blockedAddress[msg.sender] && !blockedAddress[_to]);\n\t\trequire(balanceOf[msg.sender] >= _value && _value > 0);\n\t\trequire((balanceOf[_to].add(_value)) >= balanceOf[_to]);\n\n\t\tbalanceOf[msg.sender] -= _value;\n\t\tbalanceOf[_to] += _value;\n\t\temit Transfer(msg.sender, _to, _value);\n\t}\n}\n",
	"sourcePath": "/media/aniket/home/aniket/Work/nonceblox-work/BF_Staking/contracts/BYN.sol",
	"compiler": {
		"name": "solc",
		"version": "0.5.17+commit.d19bba13.Emscripten.clang"
	},
	"schemaVersion": "3.3.4",
	"updatedAt": "2021-03-30T14:13:51.289Z",
	"devdoc": {
		"methods": {}
	},
	"userdoc": {
		"methods": {}
	}
}