{
	"contractName": "Modifiers",
	"abi": [
		{
			"inputs": [
				{
					"internalType": "address",
					"name": "",
					"type": "address"
				}
			],
			"name": "allowedAddress",
			"outputs": [
				{
					"internalType": "bool",
					"name": "",
					"type": "bool"
				}
			],
			"stateMutability": "view",
			"type": "function"
		},
		{
			"inputs": [
				{
					"internalType": "address",
					"name": "",
					"type": "address"
				}
			],
			"name": "balanceOf",
			"outputs": [
				{
					"internalType": "uint256",
					"name": "",
					"type": "uint256"
				}
			],
			"stateMutability": "view",
			"type": "function"
		},
		{
			"inputs": [
				{
					"internalType": "address",
					"name": "",
					"type": "address"
				}
			],
			"name": "blockedAddress",
			"outputs": [
				{
					"internalType": "bool",
					"name": "",
					"type": "bool"
				}
			],
			"stateMutability": "view",
			"type": "function"
		},
		{
			"inputs": [],
			"name": "decimals",
			"outputs": [
				{
					"internalType": "uint256",
					"name": "",
					"type": "uint256"
				}
			],
			"stateMutability": "view",
			"type": "function"
		},
		{
			"inputs": [
				{
					"internalType": "address",
					"name": "",
					"type": "address"
				},
				{
					"internalType": "uint256",
					"name": "",
					"type": "uint256"
				}
			],
			"name": "lockBalance",
			"outputs": [
				{
					"internalType": "uint256",
					"name": "",
					"type": "uint256"
				}
			],
			"stateMutability": "view",
			"type": "function"
		},
		{
			"inputs": [
				{
					"internalType": "address",
					"name": "",
					"type": "address"
				},
				{
					"internalType": "uint256",
					"name": "",
					"type": "uint256"
				}
			],
			"name": "lockCheck",
			"outputs": [
				{
					"internalType": "bool",
					"name": "",
					"type": "bool"
				}
			],
			"stateMutability": "view",
			"type": "function"
		},
		{
			"inputs": [
				{
					"internalType": "address",
					"name": "",
					"type": "address"
				}
			],
			"name": "lockCountMonth",
			"outputs": [
				{
					"internalType": "uint8",
					"name": "",
					"type": "uint8"
				}
			],
			"stateMutability": "view",
			"type": "function"
		},
		{
			"inputs": [
				{
					"internalType": "address",
					"name": "",
					"type": "address"
				},
				{
					"internalType": "uint256",
					"name": "",
					"type": "uint256"
				}
			],
			"name": "lockPercent",
			"outputs": [
				{
					"internalType": "uint8",
					"name": "",
					"type": "uint8"
				}
			],
			"stateMutability": "view",
			"type": "function"
		},
		{
			"inputs": [
				{
					"internalType": "address",
					"name": "",
					"type": "address"
				}
			],
			"name": "lockPermitBalance",
			"outputs": [
				{
					"internalType": "uint256",
					"name": "",
					"type": "uint256"
				}
			],
			"stateMutability": "view",
			"type": "function"
		},
		{
			"inputs": [
				{
					"internalType": "address",
					"name": "",
					"type": "address"
				},
				{
					"internalType": "uint256",
					"name": "",
					"type": "uint256"
				}
			],
			"name": "lockTime",
			"outputs": [
				{
					"internalType": "uint256",
					"name": "",
					"type": "uint256"
				}
			],
			"stateMutability": "view",
			"type": "function"
		},
		{
			"inputs": [
				{
					"internalType": "address",
					"name": "",
					"type": "address"
				}
			],
			"name": "lockTimeAddress",
			"outputs": [
				{
					"internalType": "bool",
					"name": "",
					"type": "bool"
				}
			],
			"stateMutability": "view",
			"type": "function"
		},
		{
			"inputs": [],
			"name": "name",
			"outputs": [
				{
					"internalType": "string",
					"name": "",
					"type": "string"
				}
			],
			"stateMutability": "view",
			"type": "function"
		},
		{
			"inputs": [],
			"name": "owner",
			"outputs": [
				{
					"internalType": "address",
					"name": "",
					"type": "address"
				}
			],
			"stateMutability": "view",
			"type": "function"
		},
		{
			"inputs": [],
			"name": "symbol",
			"outputs": [
				{
					"internalType": "string",
					"name": "",
					"type": "string"
				}
			],
			"stateMutability": "view",
			"type": "function"
		},
		{
			"inputs": [],
			"name": "totalSupply",
			"outputs": [
				{
					"internalType": "uint256",
					"name": "",
					"type": "uint256"
				}
			],
			"stateMutability": "view",
			"type": "function"
		}
	],
	"bytecode": "0x60806040523480156200001157600080fd5b506040518060400160405280600e81526020017f4265796f6e642046696e616e6365000000000000000000000000000000000000815250600090805190602001906200005f9291906200022b565b506040518060400160405280600381526020017f42594e000000000000000000000000000000000000000000000000000000000081525060019080519060200190620000ad9291906200022b565b506012600281905550600254600a620000c7919062000336565b6005819055506305f5e100600554620000e1919062000473565b6003819055506000600660006101000a81548160ff02191690831515021790555033600460006101000a81548173ffffffffffffffffffffffffffffffffffffffff021916908373ffffffffffffffffffffffffffffffffffffffff16021790555060035460096000600460009054906101000a900473ffffffffffffffffffffffffffffffffffffffff1673ffffffffffffffffffffffffffffffffffffffff1673ffffffffffffffffffffffffffffffffffffffff16815260200190815260200160002081905550600160076000600460009054906101000a900473ffffffffffffffffffffffffffffffffffffffff1673ffffffffffffffffffffffffffffffffffffffff1673ffffffffffffffffffffffffffffffffffffffff16815260200190815260200160002060006101000a81548160ff0219169083151502179055506200057f565b8280546200023990620004de565b90600052602060002090601f0160209004810192826200025d5760008555620002a9565b82601f106200027857805160ff1916838001178555620002a9565b82800160010185558215620002a9579182015b82811115620002a85782518255916020019190600101906200028b565b5b509050620002b89190620002bc565b5090565b5b80821115620002d7576000816000905550600101620002bd565b5090565b6000808291508390505b60018511156200032d5780860481111562000305576200030462000514565b5b6001851615620003155780820291505b8081029050620003258562000572565b9450620002e5565b94509492505050565b60006200034382620004d4565b91506200035083620004d4565b92506200037f7fffffffffffffffffffffffffffffffffffffffffffffffffffffffffffffffff848462000387565b905092915050565b6000826200039957600190506200046c565b81620003a957600090506200046c565b8160018114620003c25760028114620003cd5762000403565b60019150506200046c565b60ff841115620003e257620003e162000514565b5b8360020a915084821115620003fc57620003fb62000514565b5b506200046c565b5060208310610133831016604e8410600b84101617156200043d5782820a90508381111562000437576200043662000514565b5b6200046c565b6200044c8484846001620002db565b9250905081840481111562000466576200046562000514565b5b81810290505b9392505050565b60006200048082620004d4565b91506200048d83620004d4565b9250817fffffffffffffffffffffffffffffffffffffffffffffffffffffffffffffffff0483118215151615620004c957620004c862000514565b5b828202905092915050565b6000819050919050565b60006002820490506001821680620004f757607f821691505b602082108114156200050e576200050d62000543565b5b50919050565b7f4e487b7100000000000000000000000000000000000000000000000000000000600052601160045260246000fd5b7f4e487b7100000000000000000000000000000000000000000000000000000000600052602260045260246000fd5b60008160011c9050919050565b610962806200058f6000396000f3fe608060405234801561001057600080fd5b50600436106100f55760003560e01c80637837e17011610097578063ae111cfa11610066578063ae111cfa146102b0578063bd65ba83146102e0578063e729938014610310578063fd4a772c14610340576100f5565b80637837e170146102145780638355092a146102445780638da5cb5b1461027457806395d89b4114610292576100f5565b806334af370f116100d357806334af370f146101545780633c2e34c71461018457806340908298146101b457806370a08231146101e4576100f5565b806306fdde03146100fa57806318160ddd14610118578063313ce56714610136575b600080fd5b610102610370565b60405161010f9190610790565b60405180910390f35b6101206103fe565b60405161012d91906107b2565b60405180910390f35b61013e610404565b60405161014b91906107b2565b60405180910390f35b61016e600480360381019061016991906106a9565b61040a565b60405161017b91906107b2565b60405180910390f35b61019e600480360381019061019991906106a9565b61043b565b6040516101ab91906107cd565b60405180910390f35b6101ce60048036038101906101c99190610680565b61047e565b6040516101db9190610775565b60405180910390f35b6101fe60048036038101906101f99190610680565b61049e565b60405161020b91906107b2565b60405180910390f35b61022e600480360381019061022991906106a9565b6104b6565b60405161023b91906107b2565b60405180910390f35b61025e60048036038101906102599190610680565b6104e7565b60405161026b9190610775565b60405180910390f35b61027c610507565b604051610289919061075a565b60405180910390f35b61029a61052d565b6040516102a79190610790565b60405180910390f35b6102ca60048036038101906102c59190610680565b6105bb565b6040516102d791906107b2565b60405180910390f35b6102fa60048036038101906102f59190610680565b6105d3565b60405161030791906107cd565b60405180910390f35b61032a600480360381019061032591906106a9565b6105f3565b6040516103379190610775565b60405180910390f35b61035a60048036038101906103559190610680565b610636565b6040516103679190610775565b60405180910390f35b6000805461037d9061088c565b80601f01602080910402602001604051908101604052809291908181526020018280546103a99061088c565b80156103f65780601f106103cb576101008083540402835291602001916103f6565b820191906000526020600020905b8154815290600101906020018083116103d957829003601f168201915b505050505081565b60035481565b60025481565b600d602052816000526040600020818154811061042657600080fd5b90600052602060002001600091509150505481565b600e602052816000526040600020818154811061045757600080fd5b9060005260206000209060209182820401919006915091509054906101000a900460ff1681565b60076020528060005260406000206000915054906101000a900460ff1681565b60096020528060005260406000206000915090505481565b601060205281600052604060002081815481106104d257600080fd5b90600052602060002001600091509150505481565b600a6020528060005260406000206000915054906101000a900460ff1681565b600460009054906101000a900473ffffffffffffffffffffffffffffffffffffffff1681565b6001805461053a9061088c565b80601f01602080910402602001604051908101604052809291908181526020018280546105669061088c565b80156105b35780601f10610588576101008083540402835291602001916105b3565b820191906000526020600020905b81548152906001019060200180831161059657829003601f168201915b505050505081565b600c6020528060005260406000206000915090505481565b600b6020528060005260406000206000915054906101000a900460ff1681565b600f602052816000526040600020818154811061060f57600080fd5b9060005260206000209060209182820401919006915091509054906101000a900460ff1681565b60086020528060005260406000206000915054906101000a900460ff1681565b600081359050610665816108fe565b92915050565b60008135905061067a81610915565b92915050565b60006020828403121561069257600080fd5b60006106a084828501610656565b91505092915050565b600080604083850312156106bc57600080fd5b60006106ca85828601610656565b92505060206106db8582860161066b565b9150509250929050565b6106ee81610804565b82525050565b6106fd81610816565b82525050565b600061070e826107e8565b61071881856107f3565b9350610728818560208601610859565b610731816108ed565b840191505092915050565b61074581610842565b82525050565b6107548161084c565b82525050565b600060208201905061076f60008301846106e5565b92915050565b600060208201905061078a60008301846106f4565b92915050565b600060208201905081810360008301526107aa8184610703565b905092915050565b60006020820190506107c7600083018461073c565b92915050565b60006020820190506107e2600083018461074b565b92915050565b600081519050919050565b600082825260208201905092915050565b600061080f82610822565b9050919050565b60008115159050919050565b600073ffffffffffffffffffffffffffffffffffffffff82169050919050565b6000819050919050565b600060ff82169050919050565b60005b8381101561087757808201518184015260208101905061085c565b83811115610886576000848401525b50505050565b600060028204905060018216806108a457607f821691505b602082108114156108b8576108b76108be565b5b50919050565b7f4e487b7100000000000000000000000000000000000000000000000000000000600052602260045260246000fd5b6000601f19601f8301169050919050565b61090781610804565b811461091257600080fd5b50565b61091e81610842565b811461092957600080fd5b5056fea264697066735822122046725870316ba3a675f040688d1511dca296818f40a689e3bb32f94d62df41e364736f6c63430008010033",
	"immutableReferences": {},
	"source": "// SPDX-License-Identifier: MIT\npragma solidity >0.5.17;\n\nlibrary SafeMath {\n\tfunction add(uint256 a, uint256 b) internal pure returns (uint256 c) {\n\t\tc = a + b;\n\t\trequire(c >= a, 'SafeMath: addition overflow');\n\t}\n\n\tfunction sub(uint256 a, uint256 b) internal pure returns (uint256 c) {\n\t\trequire(b <= a, 'SafeMath: subtraction overflow');\n\t\tc = a - b;\n\t}\n\n\tfunction mul(uint256 a, uint256 b) internal pure returns (uint256 c) {\n\t\tc = a * b;\n\t\trequire(a == 0 || c / a == b, 'SafeMath: multiplication overflow');\n\t}\n\n\tfunction div(uint256 a, uint256 b) internal pure returns (uint256 c) {\n\t\trequire(b > 0, 'SafeMath: division by zero');\n\t\tc = a / b;\n\t}\n}\n\ncontract Variable {\n\tstring public name;\n\tstring public symbol;\n\tuint256 public decimals;\n\tuint256 public totalSupply;\n\taddress public owner;\n\n\tuint256 internal _decimals;\n\tbool internal transferLock;\n\n\tmapping(address => bool) public allowedAddress;\n\tmapping(address => bool) public blockedAddress;\n\n\tmapping(address => uint256) public balanceOf;\n\n\tmapping(address => bool) public lockTimeAddress;\n\tmapping(address => uint8) public lockCountMonth;\n\tmapping(address => uint256) public lockPermitBalance;\n\tmapping(address => uint256[]) public lockTime;\n\tmapping(address => uint8[]) public lockPercent;\n\tmapping(address => bool[]) public lockCheck;\n\tmapping(address => uint256[]) public lockBalance;\n\n\tmapping(address => mapping(address => uint256)) internal allowed;\n\n\tconstructor() public {\n\t\tname = 'Beyond Finance';\n\t\tsymbol = 'BYN';\n\t\tdecimals = 18;\n\t\t_decimals = 10**uint256(decimals);\n\t\ttotalSupply = _decimals * 100000000;\n\t\ttransferLock = false;\n\t\towner = msg.sender;\n\t\tbalanceOf[owner] = totalSupply;\n\t\tallowedAddress[owner] = true;\n\t}\n}\n\ncontract Modifiers is Variable {\n\tmodifier isOwner {\n\t\tassert(owner == msg.sender);\n\t\t_;\n\t}\n}\n\ncontract Event {\n\tevent Transfer(address indexed from, address indexed to, uint256 value);\n\tevent TokenBurn(address indexed from, uint256 value);\n\tevent Approval(address indexed owner, address indexed spender, uint256 value);\n}\n\ncontract manageAddress is Variable, Modifiers, Event {\n\tusing SafeMath for uint256;\n\n\tfunction add_allowedAddress(address _address) public isOwner {\n\t\tallowedAddress[_address] = true;\n\t}\n\n\tfunction delete_allowedAddress(address _address) public isOwner {\n\t\trequire(_address != owner, 'Not owner');\n\t\tallowedAddress[_address] = false;\n\t}\n\n\tfunction add_blockedAddress(address _address) public isOwner {\n\t\trequire(_address != owner, 'Not owner');\n\t\tblockedAddress[_address] = true;\n\t}\n\n\tfunction delete_blockedAddress(address _address) public isOwner {\n\t\tblockedAddress[_address] = false;\n\t}\n\n\tfunction add_timeAddress(address _address, uint8 total_month) public isOwner {\n\t\tif (lockTimeAddress[_address] == true) {\n\t\t\trevert('Already set address');\n\t\t}\n\t\tif (total_month < 2 && lockCountMonth[_address] > 0) {\n\t\t\trevert('Period want to set is short');\n\t\t}\n\t\tlockCountMonth[_address] = total_month;\n\t\tlockTime[_address] = new uint256[](total_month);\n\t\tlockPercent[_address] = new uint8[](total_month);\n\t\tlockCheck[_address] = new bool[](total_month);\n\t\tlockBalance[_address] = new uint256[](total_month);\n\t}\n\n\tfunction delete_timeAddress(address _address) public isOwner {\n\t\tlockTimeAddress[_address] = false;\n\t\tlockPermitBalance[_address] = 0;\n\t\tfor (uint8 i = 0; i < lockCountMonth[_address]; i++) {\n\t\t\tdelete lockTime[_address][i];\n\t\t\tdelete lockPercent[_address][i];\n\t\t\tdelete lockCheck[_address][i];\n\t\t\tdelete lockBalance[_address][i];\n\t\t}\n\t\tlockCountMonth[_address] = 0;\n\t}\n\n\tfunction add_timeAddressMonth(\n\t\taddress _address,\n\t\tuint256 _time,\n\t\tuint8 idx,\n\t\tuint8 _percent\n\t) public isOwner {\n\t\tif (block.timestamp > _time) {\n\t\t\trevert('Must greater than current time');\n\t\t}\n\t\tif (idx >= lockCountMonth[_address]) {\n\t\t\trevert('Invalid Setup Period');\n\t\t}\n\t\tif (idx != 0 && lockTime[_address][idx - 1] >= _time) {\n\t\t\trevert('Must greater than previous time');\n\t\t}\n\n\t\tlockPercent[_address][idx] = _percent;\n\t\tlockTime[_address][idx] = _time;\n\t}\n\n\tfunction add_timeAddressApply(address _address, uint256 lock_balance) public isOwner {\n\t\tif (balanceOf[_address] >= lock_balance && lock_balance > 0) {\n\t\t\tuint8 sum = lockPercent[_address][0];\n\n\t\t\tlockPermitBalance[_address] = 0;\n\t\t\tfor (uint8 i = 0; i < lockCountMonth[_address]; i++) {\n\t\t\t\tlockBalance[_address][i] = (lock_balance.mul(lockPercent[_address][i])).div(100);\n\t\t\t\tif (i > 0) {\n\t\t\t\t\tsum += lockPercent[_address][i];\n\t\t\t\t}\n\t\t\t}\n\n\t\t\tif (sum != 100) {\n\t\t\t\trevert('Invalid percentage');\n\t\t\t}\n\t\t\tlockTimeAddress[_address] = true;\n\t\t} else {\n\t\t\trevert('Invalid balance');\n\t\t}\n\t}\n\n\tfunction refresh_lockPermitBalance(address _address) public {\n\t\tif (lockTimeAddress[_address] == false) {\n\t\t\trevert('Address without Lock');\n\t\t}\n\t\tfor (uint8 i = 0; i < lockCountMonth[msg.sender]; i++) {\n\t\t\tif (block.timestamp >= lockTime[_address][i] && lockCheck[_address][i] == false) {\n\t\t\t\tlockPermitBalance[_address] += lockBalance[_address][i];\n\t\t\t\tlockCheck[_address][i] = true;\n\t\t\t\tif (lockCountMonth[_address] - 1 == i) {\n\t\t\t\t\tdelete_timeAddress(_address);\n\t\t\t\t}\n\t\t\t}\n\t\t}\n\t}\n}\n\ncontract Admin is Variable, Modifiers, Event {\n\tusing SafeMath for uint256;\n\n\tfunction admin_tokenBurn(uint256 _value) public isOwner returns (bool success) {\n\t\trequire(balanceOf[msg.sender] >= _value, 'Invalid balance');\n\t\tbalanceOf[msg.sender] = balanceOf[msg.sender].sub(_value);\n\t\ttotalSupply = totalSupply.sub(_value);\n\t\temit TokenBurn(msg.sender, _value);\n\t\treturn true;\n\t}\n}\n\ncontract Get is Variable, Modifiers {\n\tfunction get_transferLock() public view returns (bool) {\n\t\treturn transferLock;\n\t}\n}\n\ncontract Set is Variable, Modifiers, Event {\n\tfunction setTransferLock(bool _transferLock) public isOwner returns (bool success) {\n\t\ttransferLock = _transferLock;\n\t\treturn true;\n\t}\n}\n\ncontract BYN is Variable, Event, Get, Set, Admin, manageAddress {\n\tusing SafeMath for uint256;\n\tfunction allowance(address tokenOwner, address spender) public view returns (uint256 remaining) {\n\t\treturn allowed[tokenOwner][spender];\n\t}\n\n\tfunction increaseApproval(address _spender, uint256 _addedValue) public returns (bool) {\n\t\tallowed[msg.sender][_spender] = allowed[msg.sender][_spender] + (_addedValue);\n\t\temit Approval(msg.sender, _spender, allowed[msg.sender][_spender]);\n\t\treturn true;\n\t}\n\n\tfunction decreaseApproval(address _spender, uint256 _subtractedValue) public returns (bool) {\n\t\tuint256 oldValue = allowed[msg.sender][_spender];\n\t\tif (_subtractedValue > oldValue) {\n\t\t\tallowed[msg.sender][_spender] = 0;\n\t\t} else {\n\t\t\tallowed[msg.sender][_spender] = oldValue.sub(_subtractedValue);\n\t\t}\n\t\temit Approval(msg.sender, _spender, allowed[msg.sender][_spender]);\n\t\treturn true;\n\t}\n\n\tfunction approve(address _spender, uint256 _value) public returns (bool) {\n\t\tallowed[msg.sender][_spender] = _value;\n\t\temit Approval(msg.sender, _spender, _value);\n\t\treturn true;\n\t}\n\n\tfunction transferFrom(\n\t\taddress _from,\n\t\taddress _to,\n\t\tuint256 _value\n\t) public returns (bool) {\n\t\trequire(allowedAddress[_from] || transferLock == false, 'Transfer lock : true');\n\t\trequire(!blockedAddress[_from] && !blockedAddress[_to] && !blockedAddress[msg.sender], 'Blocked address');\n\t\trequire(balanceOf[_from] >= _value && (balanceOf[_to].add(_value)) >= balanceOf[_to], 'Invalid balance');\n\t\trequire(lockTimeAddress[_to] == false, 'Lock address : to');\n\t\trequire(_value <= allowed[_from][msg.sender], 'Invalid balance : allowed');\n\n\t\tif (lockTimeAddress[_from]) {\n\t\t\tlockPermitBalance[_from] = lockPermitBalance[_from].sub(_value);\n\t\t}\n\n\t\tbalanceOf[_from] = balanceOf[_from].sub(_value);\n\t\tbalanceOf[_to] = balanceOf[_to].add(_value);\n\t\tallowed[_from][msg.sender] = allowed[_from][msg.sender].sub(_value);\n\t\temit Transfer(_from, _to, _value);\n\n\t\treturn true;\n\t}\n\n\tfunction transfer(address _to, uint256 _value) public returns (bool) {\n\t\trequire(allowedAddress[msg.sender] || transferLock == false, 'Transfer lock : true');\n\t\trequire(!blockedAddress[msg.sender] && !blockedAddress[_to], 'Blocked address');\n\t\trequire(balanceOf[msg.sender] >= _value && (balanceOf[_to].add(_value)) >= balanceOf[_to], 'Invalid balance');\n\t\trequire(lockTimeAddress[_to] == false, 'Lock address : to');\n\n\t\tif (lockTimeAddress[msg.sender]) {\n\t\t\tlockPermitBalance[msg.sender] = lockPermitBalance[msg.sender].sub(_value);\n\t\t}\n\n\t\tbalanceOf[msg.sender] = balanceOf[msg.sender].sub(_value);\n\t\tbalanceOf[_to] = balanceOf[_to].add(_value);\n\t\temit Transfer(msg.sender, _to, _value);\n\n\t\treturn true;\n\t}\n}\n",
	"sourcePath": "/media/aniket/home/aniket/Work/nonceblox-work/BF_Staking/contracts/Tokens.sol",
	"compiler": {
		"name": "solc",
		"version": "0.8.1+commit.df193b15.Emscripten.clang"
	},
	"schemaVersion": "3.3.4",
	"updatedAt": "2021-04-15T14:00:21.876Z",
	"devdoc": {
		"kind": "dev",
		"methods": {},
		"version": 1
	},
	"userdoc": {
		"kind": "user",
		"methods": {},
		"version": 1
	}
}