{
	"contractName": "Set",
	"abi": [
		{
			"anonymous": false,
			"inputs": [
				{
					"indexed": true,
					"internalType": "address",
					"name": "owner",
					"type": "address"
				},
				{
					"indexed": true,
					"internalType": "address",
					"name": "spender",
					"type": "address"
				},
				{
					"indexed": false,
					"internalType": "uint256",
					"name": "value",
					"type": "uint256"
				}
			],
			"name": "Approval",
			"type": "event"
		},
		{
			"anonymous": false,
			"inputs": [
				{
					"indexed": true,
					"internalType": "address",
					"name": "from",
					"type": "address"
				},
				{
					"indexed": false,
					"internalType": "uint256",
					"name": "value",
					"type": "uint256"
				}
			],
			"name": "TokenBurn",
			"type": "event"
		},
		{
			"anonymous": false,
			"inputs": [
				{
					"indexed": true,
					"internalType": "address",
					"name": "from",
					"type": "address"
				},
				{
					"indexed": true,
					"internalType": "address",
					"name": "to",
					"type": "address"
				},
				{
					"indexed": false,
					"internalType": "uint256",
					"name": "value",
					"type": "uint256"
				}
			],
			"name": "Transfer",
			"type": "event"
		},
		{
			"inputs": [
				{
					"internalType": "address",
					"name": "",
					"type": "address"
				}
			],
			"name": "allowedAddress",
			"outputs": [
				{
					"internalType": "bool",
					"name": "",
					"type": "bool"
				}
			],
			"stateMutability": "view",
			"type": "function"
		},
		{
			"inputs": [
				{
					"internalType": "address",
					"name": "",
					"type": "address"
				}
			],
			"name": "balanceOf",
			"outputs": [
				{
					"internalType": "uint256",
					"name": "",
					"type": "uint256"
				}
			],
			"stateMutability": "view",
			"type": "function"
		},
		{
			"inputs": [
				{
					"internalType": "address",
					"name": "",
					"type": "address"
				}
			],
			"name": "blockedAddress",
			"outputs": [
				{
					"internalType": "bool",
					"name": "",
					"type": "bool"
				}
			],
			"stateMutability": "view",
			"type": "function"
		},
		{
			"inputs": [],
			"name": "decimals",
			"outputs": [
				{
					"internalType": "uint256",
					"name": "",
					"type": "uint256"
				}
			],
			"stateMutability": "view",
			"type": "function"
		},
		{
			"inputs": [
				{
					"internalType": "address",
					"name": "",
					"type": "address"
				},
				{
					"internalType": "uint256",
					"name": "",
					"type": "uint256"
				}
			],
			"name": "lockBalance",
			"outputs": [
				{
					"internalType": "uint256",
					"name": "",
					"type": "uint256"
				}
			],
			"stateMutability": "view",
			"type": "function"
		},
		{
			"inputs": [
				{
					"internalType": "address",
					"name": "",
					"type": "address"
				},
				{
					"internalType": "uint256",
					"name": "",
					"type": "uint256"
				}
			],
			"name": "lockCheck",
			"outputs": [
				{
					"internalType": "bool",
					"name": "",
					"type": "bool"
				}
			],
			"stateMutability": "view",
			"type": "function"
		},
		{
			"inputs": [
				{
					"internalType": "address",
					"name": "",
					"type": "address"
				}
			],
			"name": "lockCountMonth",
			"outputs": [
				{
					"internalType": "uint8",
					"name": "",
					"type": "uint8"
				}
			],
			"stateMutability": "view",
			"type": "function"
		},
		{
			"inputs": [
				{
					"internalType": "address",
					"name": "",
					"type": "address"
				},
				{
					"internalType": "uint256",
					"name": "",
					"type": "uint256"
				}
			],
			"name": "lockPercent",
			"outputs": [
				{
					"internalType": "uint8",
					"name": "",
					"type": "uint8"
				}
			],
			"stateMutability": "view",
			"type": "function"
		},
		{
			"inputs": [
				{
					"internalType": "address",
					"name": "",
					"type": "address"
				}
			],
			"name": "lockPermitBalance",
			"outputs": [
				{
					"internalType": "uint256",
					"name": "",
					"type": "uint256"
				}
			],
			"stateMutability": "view",
			"type": "function"
		},
		{
			"inputs": [
				{
					"internalType": "address",
					"name": "",
					"type": "address"
				},
				{
					"internalType": "uint256",
					"name": "",
					"type": "uint256"
				}
			],
			"name": "lockTime",
			"outputs": [
				{
					"internalType": "uint256",
					"name": "",
					"type": "uint256"
				}
			],
			"stateMutability": "view",
			"type": "function"
		},
		{
			"inputs": [
				{
					"internalType": "address",
					"name": "",
					"type": "address"
				}
			],
			"name": "lockTimeAddress",
			"outputs": [
				{
					"internalType": "bool",
					"name": "",
					"type": "bool"
				}
			],
			"stateMutability": "view",
			"type": "function"
		},
		{
			"inputs": [],
			"name": "name",
			"outputs": [
				{
					"internalType": "string",
					"name": "",
					"type": "string"
				}
			],
			"stateMutability": "view",
			"type": "function"
		},
		{
			"inputs": [],
			"name": "owner",
			"outputs": [
				{
					"internalType": "address",
					"name": "",
					"type": "address"
				}
			],
			"stateMutability": "view",
			"type": "function"
		},
		{
			"inputs": [],
			"name": "symbol",
			"outputs": [
				{
					"internalType": "string",
					"name": "",
					"type": "string"
				}
			],
			"stateMutability": "view",
			"type": "function"
		},
		{
			"inputs": [],
			"name": "totalSupply",
			"outputs": [
				{
					"internalType": "uint256",
					"name": "",
					"type": "uint256"
				}
			],
			"stateMutability": "view",
			"type": "function"
		},
		{
			"inputs": [
				{
					"internalType": "bool",
					"name": "_transferLock",
					"type": "bool"
				}
			],
			"name": "setTransferLock",
			"outputs": [
				{
					"internalType": "bool",
					"name": "success",
					"type": "bool"
				}
			],
			"stateMutability": "nonpayable",
			"type": "function"
		}
	],
	"bytecode": "0x60806040523480156200001157600080fd5b506040518060400160405280600e81526020017f4265796f6e642046696e616e6365000000000000000000000000000000000000815250600090805190602001906200005f9291906200022b565b506040518060400160405280600381526020017f42594e000000000000000000000000000000000000000000000000000000000081525060019080519060200190620000ad9291906200022b565b506012600281905550600254600a620000c7919062000336565b6005819055506305f5e100600554620000e1919062000473565b6003819055506000600660006101000a81548160ff02191690831515021790555033600460006101000a81548173ffffffffffffffffffffffffffffffffffffffff021916908373ffffffffffffffffffffffffffffffffffffffff16021790555060035460096000600460009054906101000a900473ffffffffffffffffffffffffffffffffffffffff1673ffffffffffffffffffffffffffffffffffffffff1673ffffffffffffffffffffffffffffffffffffffff16815260200190815260200160002081905550600160076000600460009054906101000a900473ffffffffffffffffffffffffffffffffffffffff1673ffffffffffffffffffffffffffffffffffffffff1673ffffffffffffffffffffffffffffffffffffffff16815260200190815260200160002060006101000a81548160ff0219169083151502179055506200057f565b8280546200023990620004de565b90600052602060002090601f0160209004810192826200025d5760008555620002a9565b82601f106200027857805160ff1916838001178555620002a9565b82800160010185558215620002a9579182015b82811115620002a85782518255916020019190600101906200028b565b5b509050620002b89190620002bc565b5090565b5b80821115620002d7576000816000905550600101620002bd565b5090565b6000808291508390505b60018511156200032d5780860481111562000305576200030462000514565b5b6001851615620003155780820291505b8081029050620003258562000572565b9450620002e5565b94509492505050565b60006200034382620004d4565b91506200035083620004d4565b92506200037f7fffffffffffffffffffffffffffffffffffffffffffffffffffffffffffffffff848462000387565b905092915050565b6000826200039957600190506200046c565b81620003a957600090506200046c565b8160018114620003c25760028114620003cd5762000403565b60019150506200046c565b60ff841115620003e257620003e162000514565b5b8360020a915084821115620003fc57620003fb62000514565b5b506200046c565b5060208310610133831016604e8410600b84101617156200043d5782820a90508381111562000437576200043662000514565b5b6200046c565b6200044c8484846001620002db565b9250905081840481111562000466576200046562000514565b5b81810290505b9392505050565b60006200048082620004d4565b91506200048d83620004d4565b9250817fffffffffffffffffffffffffffffffffffffffffffffffffffffffffffffffff0483118215151615620004c957620004c862000514565b5b828202905092915050565b6000819050919050565b60006002820490506001821680620004f757607f821691505b602082108114156200050e576200050d62000543565b5b50919050565b7f4e487b7100000000000000000000000000000000000000000000000000000000600052601160045260246000fd5b7f4e487b7100000000000000000000000000000000000000000000000000000000600052602260045260246000fd5b60008160011c9050919050565b610a9b806200058f6000396000f3fe608060405234801561001057600080fd5b50600436106101005760003560e01c80638355092a11610097578063bd65ba8311610066578063bd65ba83146102eb578063bff356181461031b578063e72993801461034b578063fd4a772c1461037b57610100565b80638355092a1461024f5780638da5cb5b1461027f57806395d89b411461029d578063ae111cfa146102bb57610100565b80633c2e34c7116100d35780633c2e34c71461018f57806340908298146101bf57806370a08231146101ef5780637837e1701461021f57610100565b806306fdde031461010557806318160ddd14610123578063313ce5671461014157806334af370f1461015f575b600080fd5b61010d6103ab565b60405161011a91906108b2565b60405180910390f35b61012b610439565b60405161013891906108d4565b60405180910390f35b61014961043f565b60405161015691906108d4565b60405180910390f35b610179600480360381019061017491906107a2565b610445565b60405161018691906108d4565b60405180910390f35b6101a960048036038101906101a491906107a2565b610476565b6040516101b691906108ef565b60405180910390f35b6101d960048036038101906101d49190610779565b6104b9565b6040516101e69190610897565b60405180910390f35b61020960048036038101906102049190610779565b6104d9565b60405161021691906108d4565b60405180910390f35b610239600480360381019061023491906107a2565b6104f1565b60405161024691906108d4565b60405180910390f35b61026960048036038101906102649190610779565b610522565b6040516102769190610897565b60405180910390f35b610287610542565b604051610294919061087c565b60405180910390f35b6102a5610568565b6040516102b291906108b2565b60405180910390f35b6102d560048036038101906102d09190610779565b6105f6565b6040516102e291906108d4565b60405180910390f35b61030560048036038101906103009190610779565b61060e565b60405161031291906108ef565b60405180910390f35b610335600480360381019061033091906107de565b61062e565b6040516103429190610897565b60405180910390f35b610365600480360381019061036091906107a2565b6106d7565b6040516103729190610897565b60405180910390f35b61039560048036038101906103909190610779565b61071a565b6040516103a29190610897565b60405180910390f35b600080546103b8906109ae565b80601f01602080910402602001604051908101604052809291908181526020018280546103e4906109ae565b80156104315780601f1061040657610100808354040283529160200191610431565b820191906000526020600020905b81548152906001019060200180831161041457829003601f168201915b505050505081565b60035481565b60025481565b600d602052816000526040600020818154811061046157600080fd5b90600052602060002001600091509150505481565b600e602052816000526040600020818154811061049257600080fd5b9060005260206000209060209182820401919006915091509054906101000a900460ff1681565b60076020528060005260406000206000915054906101000a900460ff1681565b60096020528060005260406000206000915090505481565b6010602052816000526040600020818154811061050d57600080fd5b90600052602060002001600091509150505481565b600a6020528060005260406000206000915054906101000a900460ff1681565b600460009054906101000a900473ffffffffffffffffffffffffffffffffffffffff1681565b60018054610575906109ae565b80601f01602080910402602001604051908101604052809291908181526020018280546105a1906109ae565b80156105ee5780601f106105c3576101008083540402835291602001916105ee565b820191906000526020600020905b8154815290600101906020018083116105d157829003601f168201915b505050505081565b600c6020528060005260406000206000915090505481565b600b6020528060005260406000206000915054906101000a900460ff1681565b60003373ffffffffffffffffffffffffffffffffffffffff16600460009054906101000a900473ffffffffffffffffffffffffffffffffffffffff1673ffffffffffffffffffffffffffffffffffffffff16146106b4577f4e487b7100000000000000000000000000000000000000000000000000000000600052600160045260246000fd5b81600660006101000a81548160ff02191690831515021790555060019050919050565b600f60205281600052604060002081815481106106f357600080fd5b9060005260206000209060209182820401919006915091509054906101000a900460ff1681565b60086020528060005260406000206000915054906101000a900460ff1681565b60008135905061074981610a20565b92915050565b60008135905061075e81610a37565b92915050565b60008135905061077381610a4e565b92915050565b60006020828403121561078b57600080fd5b60006107998482850161073a565b91505092915050565b600080604083850312156107b557600080fd5b60006107c38582860161073a565b92505060206107d485828601610764565b9150509250929050565b6000602082840312156107f057600080fd5b60006107fe8482850161074f565b91505092915050565b61081081610926565b82525050565b61081f81610938565b82525050565b60006108308261090a565b61083a8185610915565b935061084a81856020860161097b565b61085381610a0f565b840191505092915050565b61086781610964565b82525050565b6108768161096e565b82525050565b60006020820190506108916000830184610807565b92915050565b60006020820190506108ac6000830184610816565b92915050565b600060208201905081810360008301526108cc8184610825565b905092915050565b60006020820190506108e9600083018461085e565b92915050565b6000602082019050610904600083018461086d565b92915050565b600081519050919050565b600082825260208201905092915050565b600061093182610944565b9050919050565b60008115159050919050565b600073ffffffffffffffffffffffffffffffffffffffff82169050919050565b6000819050919050565b600060ff82169050919050565b60005b8381101561099957808201518184015260208101905061097e565b838111156109a8576000848401525b50505050565b600060028204905060018216806109c657607f821691505b602082108114156109da576109d96109e0565b5b50919050565b7f4e487b7100000000000000000000000000000000000000000000000000000000600052602260045260246000fd5b6000601f19601f8301169050919050565b610a2981610926565b8114610a3457600080fd5b50565b610a4081610938565b8114610a4b57600080fd5b50565b610a5781610964565b8114610a6257600080fd5b5056fea264697066735822122029bc987ac5ebf9006867d8fb8ea397411f6ee724d868b4efb91e1081e4b2cdc364736f6c63430008010033",
	"immutableReferences": {},
	"source": "// SPDX-License-Identifier: MIT\npragma solidity >0.5.17;\n\nlibrary SafeMath {\n\tfunction add(uint256 a, uint256 b) internal pure returns (uint256 c) {\n\t\tc = a + b;\n\t\trequire(c >= a, 'SafeMath: addition overflow');\n\t}\n\n\tfunction sub(uint256 a, uint256 b) internal pure returns (uint256 c) {\n\t\trequire(b <= a, 'SafeMath: subtraction overflow');\n\t\tc = a - b;\n\t}\n\n\tfunction mul(uint256 a, uint256 b) internal pure returns (uint256 c) {\n\t\tc = a * b;\n\t\trequire(a == 0 || c / a == b, 'SafeMath: multiplication overflow');\n\t}\n\n\tfunction div(uint256 a, uint256 b) internal pure returns (uint256 c) {\n\t\trequire(b > 0, 'SafeMath: division by zero');\n\t\tc = a / b;\n\t}\n}\n\ncontract Variable {\n\tstring public name;\n\tstring public symbol;\n\tuint256 public decimals;\n\tuint256 public totalSupply;\n\taddress public owner;\n\n\tuint256 internal _decimals;\n\tbool internal transferLock;\n\n\tmapping(address => bool) public allowedAddress;\n\tmapping(address => bool) public blockedAddress;\n\n\tmapping(address => uint256) public balanceOf;\n\n\tmapping(address => bool) public lockTimeAddress;\n\tmapping(address => uint8) public lockCountMonth;\n\tmapping(address => uint256) public lockPermitBalance;\n\tmapping(address => uint256[]) public lockTime;\n\tmapping(address => uint8[]) public lockPercent;\n\tmapping(address => bool[]) public lockCheck;\n\tmapping(address => uint256[]) public lockBalance;\n\n\tmapping(address => mapping(address => uint256)) internal allowed;\n\n\tconstructor() public {\n\t\tname = 'Beyond Finance';\n\t\tsymbol = 'BYN';\n\t\tdecimals = 18;\n\t\t_decimals = 10**uint256(decimals);\n\t\ttotalSupply = _decimals * 100000000;\n\t\ttransferLock = false;\n\t\towner = msg.sender;\n\t\tbalanceOf[owner] = totalSupply;\n\t\tallowedAddress[owner] = true;\n\t}\n}\n\ncontract Modifiers is Variable {\n\tmodifier isOwner {\n\t\tassert(owner == msg.sender);\n\t\t_;\n\t}\n}\n\ncontract Event {\n\tevent Transfer(address indexed from, address indexed to, uint256 value);\n\tevent TokenBurn(address indexed from, uint256 value);\n\tevent Approval(address indexed owner, address indexed spender, uint256 value);\n}\n\ncontract manageAddress is Variable, Modifiers, Event {\n\tusing SafeMath for uint256;\n\n\tfunction add_allowedAddress(address _address) public isOwner {\n\t\tallowedAddress[_address] = true;\n\t}\n\n\tfunction delete_allowedAddress(address _address) public isOwner {\n\t\trequire(_address != owner, 'Not owner');\n\t\tallowedAddress[_address] = false;\n\t}\n\n\tfunction add_blockedAddress(address _address) public isOwner {\n\t\trequire(_address != owner, 'Not owner');\n\t\tblockedAddress[_address] = true;\n\t}\n\n\tfunction delete_blockedAddress(address _address) public isOwner {\n\t\tblockedAddress[_address] = false;\n\t}\n\n\tfunction add_timeAddress(address _address, uint8 total_month) public isOwner {\n\t\tif (lockTimeAddress[_address] == true) {\n\t\t\trevert('Already set address');\n\t\t}\n\t\tif (total_month < 2 && lockCountMonth[_address] > 0) {\n\t\t\trevert('Period want to set is short');\n\t\t}\n\t\tlockCountMonth[_address] = total_month;\n\t\tlockTime[_address] = new uint256[](total_month);\n\t\tlockPercent[_address] = new uint8[](total_month);\n\t\tlockCheck[_address] = new bool[](total_month);\n\t\tlockBalance[_address] = new uint256[](total_month);\n\t}\n\n\tfunction delete_timeAddress(address _address) public isOwner {\n\t\tlockTimeAddress[_address] = false;\n\t\tlockPermitBalance[_address] = 0;\n\t\tfor (uint8 i = 0; i < lockCountMonth[_address]; i++) {\n\t\t\tdelete lockTime[_address][i];\n\t\t\tdelete lockPercent[_address][i];\n\t\t\tdelete lockCheck[_address][i];\n\t\t\tdelete lockBalance[_address][i];\n\t\t}\n\t\tlockCountMonth[_address] = 0;\n\t}\n\n\tfunction add_timeAddressMonth(\n\t\taddress _address,\n\t\tuint256 _time,\n\t\tuint8 idx,\n\t\tuint8 _percent\n\t) public isOwner {\n\t\tif (block.timestamp > _time) {\n\t\t\trevert('Must greater than current time');\n\t\t}\n\t\tif (idx >= lockCountMonth[_address]) {\n\t\t\trevert('Invalid Setup Period');\n\t\t}\n\t\tif (idx != 0 && lockTime[_address][idx - 1] >= _time) {\n\t\t\trevert('Must greater than previous time');\n\t\t}\n\n\t\tlockPercent[_address][idx] = _percent;\n\t\tlockTime[_address][idx] = _time;\n\t}\n\n\tfunction add_timeAddressApply(address _address, uint256 lock_balance) public isOwner {\n\t\tif (balanceOf[_address] >= lock_balance && lock_balance > 0) {\n\t\t\tuint8 sum = lockPercent[_address][0];\n\n\t\t\tlockPermitBalance[_address] = 0;\n\t\t\tfor (uint8 i = 0; i < lockCountMonth[_address]; i++) {\n\t\t\t\tlockBalance[_address][i] = (lock_balance.mul(lockPercent[_address][i])).div(100);\n\t\t\t\tif (i > 0) {\n\t\t\t\t\tsum += lockPercent[_address][i];\n\t\t\t\t}\n\t\t\t}\n\n\t\t\tif (sum != 100) {\n\t\t\t\trevert('Invalid percentage');\n\t\t\t}\n\t\t\tlockTimeAddress[_address] = true;\n\t\t} else {\n\t\t\trevert('Invalid balance');\n\t\t}\n\t}\n\n\tfunction refresh_lockPermitBalance(address _address) public {\n\t\tif (lockTimeAddress[_address] == false) {\n\t\t\trevert('Address without Lock');\n\t\t}\n\t\tfor (uint8 i = 0; i < lockCountMonth[msg.sender]; i++) {\n\t\t\tif (block.timestamp >= lockTime[_address][i] && lockCheck[_address][i] == false) {\n\t\t\t\tlockPermitBalance[_address] += lockBalance[_address][i];\n\t\t\t\tlockCheck[_address][i] = true;\n\t\t\t\tif (lockCountMonth[_address] - 1 == i) {\n\t\t\t\t\tdelete_timeAddress(_address);\n\t\t\t\t}\n\t\t\t}\n\t\t}\n\t}\n}\n\ncontract Admin is Variable, Modifiers, Event {\n\tusing SafeMath for uint256;\n\n\tfunction admin_tokenBurn(uint256 _value) public isOwner returns (bool success) {\n\t\trequire(balanceOf[msg.sender] >= _value, 'Invalid balance');\n\t\tbalanceOf[msg.sender] = balanceOf[msg.sender].sub(_value);\n\t\ttotalSupply = totalSupply.sub(_value);\n\t\temit TokenBurn(msg.sender, _value);\n\t\treturn true;\n\t}\n}\n\ncontract Get is Variable, Modifiers {\n\tfunction get_transferLock() public view returns (bool) {\n\t\treturn transferLock;\n\t}\n}\n\ncontract Set is Variable, Modifiers, Event {\n\tfunction setTransferLock(bool _transferLock) public isOwner returns (bool success) {\n\t\ttransferLock = _transferLock;\n\t\treturn true;\n\t}\n}\n\ncontract BYN is Variable, Event, Get, Set, Admin, manageAddress {\n\tusing SafeMath for uint256;\n\tfunction allowance(address tokenOwner, address spender) public view returns (uint256 remaining) {\n\t\treturn allowed[tokenOwner][spender];\n\t}\n\n\tfunction increaseApproval(address _spender, uint256 _addedValue) public returns (bool) {\n\t\tallowed[msg.sender][_spender] = allowed[msg.sender][_spender] + (_addedValue);\n\t\temit Approval(msg.sender, _spender, allowed[msg.sender][_spender]);\n\t\treturn true;\n\t}\n\n\tfunction decreaseApproval(address _spender, uint256 _subtractedValue) public returns (bool) {\n\t\tuint256 oldValue = allowed[msg.sender][_spender];\n\t\tif (_subtractedValue > oldValue) {\n\t\t\tallowed[msg.sender][_spender] = 0;\n\t\t} else {\n\t\t\tallowed[msg.sender][_spender] = oldValue.sub(_subtractedValue);\n\t\t}\n\t\temit Approval(msg.sender, _spender, allowed[msg.sender][_spender]);\n\t\treturn true;\n\t}\n\n\tfunction approve(address _spender, uint256 _value) public returns (bool) {\n\t\tallowed[msg.sender][_spender] = _value;\n\t\temit Approval(msg.sender, _spender, _value);\n\t\treturn true;\n\t}\n\n\tfunction transferFrom(\n\t\taddress _from,\n\t\taddress _to,\n\t\tuint256 _value\n\t) public returns (bool) {\n\t\trequire(allowedAddress[_from] || transferLock == false, 'Transfer lock : true');\n\t\trequire(!blockedAddress[_from] && !blockedAddress[_to] && !blockedAddress[msg.sender], 'Blocked address');\n\t\trequire(balanceOf[_from] >= _value && (balanceOf[_to].add(_value)) >= balanceOf[_to], 'Invalid balance');\n\t\trequire(lockTimeAddress[_to] == false, 'Lock address : to');\n\t\trequire(_value <= allowed[_from][msg.sender], 'Invalid balance : allowed');\n\n\t\tif (lockTimeAddress[_from]) {\n\t\t\tlockPermitBalance[_from] = lockPermitBalance[_from].sub(_value);\n\t\t}\n\n\t\tbalanceOf[_from] = balanceOf[_from].sub(_value);\n\t\tbalanceOf[_to] = balanceOf[_to].add(_value);\n\t\tallowed[_from][msg.sender] = allowed[_from][msg.sender].sub(_value);\n\t\temit Transfer(_from, _to, _value);\n\n\t\treturn true;\n\t}\n\n\tfunction transfer(address _to, uint256 _value) public returns (bool) {\n\t\trequire(allowedAddress[msg.sender] || transferLock == false, 'Transfer lock : true');\n\t\trequire(!blockedAddress[msg.sender] && !blockedAddress[_to], 'Blocked address');\n\t\trequire(balanceOf[msg.sender] >= _value && (balanceOf[_to].add(_value)) >= balanceOf[_to], 'Invalid balance');\n\t\trequire(lockTimeAddress[_to] == false, 'Lock address : to');\n\n\t\tif (lockTimeAddress[msg.sender]) {\n\t\t\tlockPermitBalance[msg.sender] = lockPermitBalance[msg.sender].sub(_value);\n\t\t}\n\n\t\tbalanceOf[msg.sender] = balanceOf[msg.sender].sub(_value);\n\t\tbalanceOf[_to] = balanceOf[_to].add(_value);\n\t\temit Transfer(msg.sender, _to, _value);\n\n\t\treturn true;\n\t}\n}\n",
	"sourcePath": "/media/aniket/home/aniket/Work/nonceblox-work/BF_Staking/contracts/Tokens.sol",
	"compiler": {
		"name": "solc",
		"version": "0.8.1+commit.df193b15.Emscripten.clang"
	},
	"schemaVersion": "3.3.4",
	"updatedAt": "2021-04-15T14:00:22.016Z",
	"devdoc": {
		"kind": "dev",
		"methods": {},
		"version": 1
	},
	"userdoc": {
		"kind": "user",
		"methods": {},
		"version": 1
	}
}