{
	"contractName": "StakingFactory",
	"abi": [
		{
			"inputs": [
				{
					"internalType": "address",
					"name": "_rewardsToken",
					"type": "address"
				},
				{
					"internalType": "uint256",
					"name": "_startTime",
					"type": "uint256"
				}
			],
			"stateMutability": "nonpayable",
			"type": "constructor"
		},
		{
			"anonymous": false,
			"inputs": [
				{
					"indexed": true,
					"internalType": "address",
					"name": "previousOwner",
					"type": "address"
				},
				{
					"indexed": true,
					"internalType": "address",
					"name": "newOwner",
					"type": "address"
				}
			],
			"name": "OwnershipTransferred",
			"type": "event"
		},
		{
			"inputs": [],
			"name": "level",
			"outputs": [
				{
					"internalType": "uint256",
					"name": "",
					"type": "uint256"
				}
			],
			"stateMutability": "view",
			"type": "function",
			"constant": true
		},
		{
			"inputs": [
				{
					"internalType": "uint256",
					"name": "",
					"type": "uint256"
				}
			],
			"name": "levels",
			"outputs": [
				{
					"internalType": "uint256",
					"name": "allowedForXCoins",
					"type": "uint256"
				},
				{
					"internalType": "uint256",
					"name": "rewardPercentTimes100",
					"type": "uint256"
				},
				{
					"internalType": "uint256",
					"name": "lockedDuration",
					"type": "uint256"
				},
				{
					"internalType": "uint256",
					"name": "allowedReward",
					"type": "uint256"
				},
				{
					"internalType": "uint256",
					"name": "alloted",
					"type": "uint256"
				}
			],
			"stateMutability": "view",
			"type": "function",
			"constant": true
		},
		{
			"inputs": [],
			"name": "owner",
			"outputs": [
				{
					"internalType": "address",
					"name": "",
					"type": "address"
				}
			],
			"stateMutability": "view",
			"type": "function",
			"constant": true
		},
		{
			"inputs": [],
			"name": "renounceOwnership",
			"outputs": [],
			"stateMutability": "nonpayable",
			"type": "function"
		},
		{
			"inputs": [
				{
					"internalType": "address",
					"name": "",
					"type": "address"
				}
			],
			"name": "stakingRewardsInfoByStakingToken",
			"outputs": [
				{
					"internalType": "address",
					"name": "stakingRewards",
					"type": "address"
				},
				{
					"internalType": "uint256",
					"name": "rewardAmount",
					"type": "uint256"
				}
			],
			"stateMutability": "view",
			"type": "function",
			"constant": true
		},
		{
			"inputs": [
				{
					"internalType": "uint256",
					"name": "",
					"type": "uint256"
				}
			],
			"name": "stakingTokens",
			"outputs": [
				{
					"internalType": "address",
					"name": "",
					"type": "address"
				}
			],
			"stateMutability": "view",
			"type": "function",
			"constant": true
		},
		{
			"inputs": [],
			"name": "startTime",
			"outputs": [
				{
					"internalType": "uint256",
					"name": "",
					"type": "uint256"
				}
			],
			"stateMutability": "view",
			"type": "function",
			"constant": true
		},
		{
			"inputs": [
				{
					"internalType": "address",
					"name": "newOwner",
					"type": "address"
				}
			],
			"name": "transferOwnership",
			"outputs": [],
			"stateMutability": "nonpayable",
			"type": "function"
		},
		{
			"inputs": [
				{
					"internalType": "uint256",
					"name": "tokenValue",
					"type": "uint256"
				}
			],
			"name": "updateLevel",
			"outputs": [],
			"stateMutability": "nonpayable",
			"type": "function"
		},
		{
			"inputs": [
				{
					"internalType": "uint256",
					"name": "tokenValue",
					"type": "uint256"
				}
			],
			"name": "updateTokens",
			"outputs": [],
			"stateMutability": "nonpayable",
			"type": "function"
		},
		{
			"inputs": [],
			"name": "updateLevelCheck",
			"outputs": [],
			"stateMutability": "nonpayable",
			"type": "function"
		},
		{
			"inputs": [
				{
					"internalType": "address",
					"name": "stakingToken",
					"type": "address"
				},
				{
					"internalType": "uint256",
					"name": "rewardAmount",
					"type": "uint256"
				}
			],
			"name": "deploy",
			"outputs": [],
			"stateMutability": "nonpayable",
			"type": "function"
		}
	],
	"bytecode": "0x60806040523480156200001157600080fd5b5060405162003c7e38038062003c7e83398181016040528101906200003791906200033a565b6000620000496200014f60201b60201c565b9050806000806101000a81548173ffffffffffffffffffffffffffffffffffffffff021916908373ffffffffffffffffffffffffffffffffffffffff1602179055508073ffffffffffffffffffffffffffffffffffffffff16600073ffffffffffffffffffffffffffffffffffffffff167f8be0079c531659141344cd1fd0a4f28419497f9722a3daafe3b4186f6b6457e060405160405180910390a35081600160006101000a81548173ffffffffffffffffffffffffffffffffffffffff021916908373ffffffffffffffffffffffffffffffffffffffff160217905550806002819055506001600381905550620001476200015760201b60201c565b505062000470565b600033905090565b620001676200014f60201b60201c565b73ffffffffffffffffffffffffffffffffffffffff166200018d620002e360201b60201c565b73ffffffffffffffffffffffffffffffffffffffff1614620001e6576040517f08c379a0000000000000000000000000000000000000000000000000000000008152600401620001dd90620003a2565b60405180910390fd5b6040518060a00160405280620186a081526020016113248152602001600f815260200161c0a381526020016000815250600660006001815260200190815260200160002060008201518160000155602082015181600101556040820151816002015560608201518160030155608082015181600401559050506040518060a0016040528062061a8081526020016110048152602001601e81526020016201e19881526020016000815250600660006002815260200190815260200160002060008201518160000155602082015181600101556040820151816002015560608201518160030155608082015181600401559050506001600381905550565b60008060009054906101000a900473ffffffffffffffffffffffffffffffffffffffff16905090565b6000815190506200031d816200043c565b92915050565b600081519050620003348162000456565b92915050565b600080604083850312156200034e57600080fd5b60006200035e858286016200030c565b9250506020620003718582860162000323565b9150509250929050565b60006200038a602083620003c4565b9150620003978262000413565b602082019050919050565b60006020820190508181036000830152620003bd816200037b565b9050919050565b600082825260208201905092915050565b6000620003e282620003e9565b9050919050565b600073ffffffffffffffffffffffffffffffffffffffff82169050919050565b6000819050919050565b7f4f776e61626c653a2063616c6c6572206973206e6f7420746865206f776e6572600082015250565b6200044781620003d5565b81146200045357600080fd5b50565b620004618162000409565b81146200046d57600080fd5b50565b6137fe80620004806000396000f3fe60806040523480156200001157600080fd5b5060043610620000c45760003560e01c80637bdecea1116200007b5780637bdecea114620001a65780638da5cb5b14620001c657806392e0150b14620001e8578063b2596a671462000208578063f12ca6981462000242578063f2fde38b146200024e57620000c4565b8063344e5e3414620000c95780634956eaf014620000ff5780636cf8caf8146200011f5780636fd5ae151462000156578063715018a6146200017857806378e979251462000184575b600080fd5b620000e76004803603810190620000e1919062000ba1565b6200026e565b604051620000f6919062000c64565b60405180910390f35b6200011d600480360381019062000117919062000b60565b620002ae565b005b6200013d600480360381019062000137919062000b34565b6200068e565b6040516200014d92919062000cfb565b60405180910390f35b62000160620006d2565b6040516200016f919062000d8e565b60405180910390f35b62000182620006d8565b005b6200018e62000819565b6040516200019d919062000d8e565b60405180910390f35b620001c46004803603810190620001be919062000ba1565b6200081f565b005b620001d062000853565b604051620001df919062000c64565b60405180910390f35b62000206600480360381019062000200919062000ba1565b6200087c565b005b62000226600480360381019062000220919062000ba1565b620008e1565b6040516200023995949392919062000dab565b60405180910390f35b6200024c62000917565b005b6200026c600480360381019062000266919062000b34565b6200093d565b005b600481815481106200027f57600080fd5b906000526020600020016000915054906101000a900473ffffffffffffffffffffffffffffffffffffffff1681565b620002b862000af0565b73ffffffffffffffffffffffffffffffffffffffff16620002d862000853565b73ffffffffffffffffffffffffffffffffffffffff161462000331576040517f08c379a0000000000000000000000000000000000000000000000000000000008152600401620003289062000d6c565b60405180910390fd5b6000600560008473ffffffffffffffffffffffffffffffffffffffff1673ffffffffffffffffffffffffffffffffffffffff1681526020019081526020016000209050600073ffffffffffffffffffffffffffffffffffffffff168160000160009054906101000a900473ffffffffffffffffffffffffffffffffffffffff1673ffffffffffffffffffffffffffffffffffffffff16146200040a576040517f08c379a0000000000000000000000000000000000000000000000000000000008152600401620004019062000d4a565b60405180910390fd5b30600160009054906101000a900473ffffffffffffffffffffffffffffffffffffffff16846040516200043d9062000af8565b6200044b9392919062000c81565b604051809103906000f08015801562000468573d6000803e3d6000fd5b508160000160006101000a81548173ffffffffffffffffffffffffffffffffffffffff021916908373ffffffffffffffffffffffffffffffffffffffff160217905550600160009054906101000a900473ffffffffffffffffffffffffffffffffffffffff1673ffffffffffffffffffffffffffffffffffffffff166356189cb4338360000160009054906101000a900473ffffffffffffffffffffffffffffffffffffffff16856040518463ffffffff1660e01b8152600401620005309392919062000cbe565b600060405180830381600087803b1580156200054b57600080fd5b505af115801562000560573d6000803e3d6000fd5b50505050600160009054906101000a900473ffffffffffffffffffffffffffffffffffffffff1673ffffffffffffffffffffffffffffffffffffffff1663222f5be0338360000160009054906101000a900473ffffffffffffffffffffffffffffffffffffffff16856040518463ffffffff1660e01b8152600401620005e99392919062000cbe565b600060405180830381600087803b1580156200060457600080fd5b505af115801562000619573d6000803e3d6000fd5b505050508181600101819055506004839080600181540180825580915050600190039060005260206000200160009091909190916101000a81548173ffffffffffffffffffffffffffffffffffffffff021916908373ffffffffffffffffffffffffffffffffffffffff160217905550505050565b60056020528060005260406000206000915090508060000160009054906101000a900473ffffffffffffffffffffffffffffffffffffffff16908060010154905082565b60035481565b620006e262000af0565b73ffffffffffffffffffffffffffffffffffffffff166200070262000853565b73ffffffffffffffffffffffffffffffffffffffff16146200075b576040517f08c379a0000000000000000000000000000000000000000000000000000000008152600401620007529062000d6c565b60405180910390fd5b600073ffffffffffffffffffffffffffffffffffffffff1660008054906101000a900473ffffffffffffffffffffffffffffffffffffffff1673ffffffffffffffffffffffffffffffffffffffff167f8be0079c531659141344cd1fd0a4f28419497f9722a3daafe3b4186f6b6457e060405160405180910390a360008060006101000a81548173ffffffffffffffffffffffffffffffffffffffff021916908373ffffffffffffffffffffffffffffffffffffffff160217905550565b60025481565b80600660006003548152602001908152602001600020600401600082825462000849919062000e19565b9250508190555050565b60008060009054906101000a900473ffffffffffffffffffffffffffffffffffffffff16905090565b600660006003548152602001908152602001600020600001548160066000600354815260200190815260200160002060040154620008bb919062000e19565b10620008de57600160036000828254620008d6919062000e19565b925050819055505b50565b60066020528060005260406000206000915090508060000154908060010154908060020154908060030154908060040154905085565b620151806002546200092a919062000e19565b4211156200093b5760046003819055505b565b6200094762000af0565b73ffffffffffffffffffffffffffffffffffffffff166200096762000853565b73ffffffffffffffffffffffffffffffffffffffff1614620009c0576040517f08c379a0000000000000000000000000000000000000000000000000000000008152600401620009b79062000d6c565b60405180910390fd5b600073ffffffffffffffffffffffffffffffffffffffff168173ffffffffffffffffffffffffffffffffffffffff16141562000a33576040517f08c379a000000000000000000000000000000000000000000000000000000000815260040162000a2a9062000d28565b60405180910390fd5b8073ffffffffffffffffffffffffffffffffffffffff1660008054906101000a900473ffffffffffffffffffffffffffffffffffffffff1673ffffffffffffffffffffffffffffffffffffffff167f8be0079c531659141344cd1fd0a4f28419497f9722a3daafe3b4186f6b6457e060405160405180910390a3806000806101000a81548173ffffffffffffffffffffffffffffffffffffffff021916908373ffffffffffffffffffffffffffffffffffffffff16021790555050565b600033905090565b6127ea8062000fdf83390190565b60008135905062000b178162000faa565b92915050565b60008135905062000b2e8162000fc4565b92915050565b60006020828403121562000b4757600080fd5b600062000b578482850162000b06565b91505092915050565b6000806040838503121562000b7457600080fd5b600062000b848582860162000b06565b925050602062000b978582860162000b1d565b9150509250929050565b60006020828403121562000bb457600080fd5b600062000bc48482850162000b1d565b91505092915050565b62000bd88162000e76565b82525050565b600062000bed60268362000e08565b915062000bfa8262000ee3565b604082019050919050565b600062000c14602f8362000e08565b915062000c218262000f32565b604082019050919050565b600062000c3b60208362000e08565b915062000c488262000f81565b602082019050919050565b62000c5e8162000eaa565b82525050565b600060208201905062000c7b600083018462000bcd565b92915050565b600060608201905062000c98600083018662000bcd565b62000ca7602083018562000bcd565b62000cb6604083018462000bcd565b949350505050565b600060608201905062000cd5600083018662000bcd565b62000ce4602083018562000bcd565b62000cf3604083018462000c53565b949350505050565b600060408201905062000d12600083018562000bcd565b62000d21602083018462000c53565b9392505050565b6000602082019050818103600083015262000d438162000bde565b9050919050565b6000602082019050818103600083015262000d658162000c05565b9050919050565b6000602082019050818103600083015262000d878162000c2c565b9050919050565b600060208201905062000da5600083018462000c53565b92915050565b600060a08201905062000dc2600083018862000c53565b62000dd1602083018762000c53565b62000de0604083018662000c53565b62000def606083018562000c53565b62000dfe608083018462000c53565b9695505050505050565b600082825260208201905092915050565b600062000e268262000eaa565b915062000e338362000eaa565b9250827fffffffffffffffffffffffffffffffffffffffffffffffffffffffffffffffff0382111562000e6b5762000e6a62000eb4565b5b828201905092915050565b600062000e838262000e8a565b9050919050565b600073ffffffffffffffffffffffffffffffffffffffff82169050919050565b6000819050919050565b7f4e487b7100000000000000000000000000000000000000000000000000000000600052601160045260246000fd5b7f4f776e61626c653a206e6577206f776e657220697320746865207a65726f206160008201527f6464726573730000000000000000000000000000000000000000000000000000602082015250565b7f5374616b696e6752657761726473466163746f72793a3a6465706c6f793a206160008201527f6c7265616479206465706c6f7965640000000000000000000000000000000000602082015250565b7f4f776e61626c653a2063616c6c6572206973206e6f7420746865206f776e6572600082015250565b62000fb58162000e76565b811462000fc157600080fd5b50565b62000fcf8162000eaa565b811462000fdb57600080fd5b5056fe608060405260026001553480156200001657600080fd5b50604051620027ea380380620027ea83398181016040528101906200003c9190620001d7565b60006200004e620001b860201b60201c565b9050806000806101000a81548173ffffffffffffffffffffffffffffffffffffffff021916908373ffffffffffffffffffffffffffffffffffffffff1602179055508073ffffffffffffffffffffffffffffffffffffffff16600073ffffffffffffffffffffffffffffffffffffffff167f8be0079c531659141344cd1fd0a4f28419497f9722a3daafe3b4186f6b6457e060405160405180910390a35082600360006101000a81548173ffffffffffffffffffffffffffffffffffffffff021916908373ffffffffffffffffffffffffffffffffffffffff16021790555081600460006101000a81548173ffffffffffffffffffffffffffffffffffffffff021916908373ffffffffffffffffffffffffffffffffffffffff16021790555080600560006101000a81548173ffffffffffffffffffffffffffffffffffffffff021916908373ffffffffffffffffffffffffffffffffffffffff1602179055505050506200027b565b600033905090565b600081519050620001d18162000261565b92915050565b600080600060608486031215620001ed57600080fd5b6000620001fd86828701620001c0565b93505060206200021086828701620001c0565b92505060406200022386828701620001c0565b9150509250925092565b60006200023a8262000241565b9050919050565b600073ffffffffffffffffffffffffffffffffffffffff82169050919050565b6200026c816200022d565b81146200027857600080fd5b50565b61255f806200028b6000396000f3fe608060405234801561001057600080fd5b506004361061007d5760003560e01c80638da5cb5b1161005b5780638da5cb5b146100c6578063b6b55f25146100e4578063d95c046914610100578063f2fde38b146101315761007d565b80632e1a7d4d14610082578063715018a61461009e578063725cedd3146100a8575b600080fd5b61009c60048036038101906100979190611d46565b61014d565b005b6100a6610a1f565b005b6100b0610b59565b6040516100bd91906121b4565b60405180910390f35b6100ce61119c565b6040516100db91906120cc565b60405180910390f35b6100fe60048036038101906100f99190611d46565b6111c5565b005b61011a60048036038101906101159190611d98565b611975565b6040516101289291906121f1565b60405180910390f35b61014b60048036038101906101469190611cf4565b611a83565b005b6001811480156101a057506000600260003373ffffffffffffffffffffffffffffffffffffffff1673ffffffffffffffffffffffffffffffffffffffff1681526020019081526020016000206001015414155b15610595576000806000806000600360009054906101000a900473ffffffffffffffffffffffffffffffffffffffff1673ffffffffffffffffffffffffffffffffffffffff1663b2596a6760016040518263ffffffff1660e01b8152600401610209919061211e565b60a06040518083038186803b15801561022157600080fd5b505afa158015610235573d6000803e3d6000fd5b505050506040513d601f19601f820116820180604052508101906102599190611dd4565b945094509450945094506001548361027191906122eb565b600360009054906101000a900473ffffffffffffffffffffffffffffffffffffffff1673ffffffffffffffffffffffffffffffffffffffff166378e979256040518163ffffffff1660e01b815260040160206040518083038186803b1580156102d957600080fd5b505afa1580156102ed573d6000803e3d6000fd5b505050506040513d601f19601f820116820180604052508101906103119190611d6f565b61031b9190612264565b42111561058b576000612710600260003373ffffffffffffffffffffffffffffffffffffffff1673ffffffffffffffffffffffffffffffffffffffff168152602001908152602001600020600101548661037591906122eb565b61037f91906122ba565b600260003373ffffffffffffffffffffffffffffffffffffffff1673ffffffffffffffffffffffffffffffffffffffff168152602001908152602001600020600101546103cc9190612264565b9050600460009054906101000a900473ffffffffffffffffffffffffffffffffffffffff1673ffffffffffffffffffffffffffffffffffffffff166356189cb43033846040518463ffffffff1660e01b815260040161042d939291906120e7565b600060405180830381600087803b15801561044757600080fd5b505af115801561045b573d6000803e3d6000fd5b50505050600460009054906101000a900473ffffffffffffffffffffffffffffffffffffffff1673ffffffffffffffffffffffffffffffffffffffff1663222f5be03033846040518463ffffffff1660e01b81526004016104be939291906120e7565b600060405180830381600087803b1580156104d857600080fd5b505af11580156104ec573d6000803e3d6000fd5b505050506000600260003373ffffffffffffffffffffffffffffffffffffffff1673ffffffffffffffffffffffffffffffffffffffff168152602001908152602001600020600101819055506000600260003373ffffffffffffffffffffffffffffffffffffffff1673ffffffffffffffffffffffffffffffffffffffff16815260200190815260200160002060050181905550505050505050610a1c565b50505050506109da565b6002811480156105e857506000600260003373ffffffffffffffffffffffffffffffffffffffff1673ffffffffffffffffffffffffffffffffffffffff1681526020019081526020016000206002015414155b156109d9576000806000806000600360009054906101000a900473ffffffffffffffffffffffffffffffffffffffff1673ffffffffffffffffffffffffffffffffffffffff1663b2596a6760026040518263ffffffff1660e01b81526004016106519190612139565b60a06040518083038186803b15801561066957600080fd5b505afa15801561067d573d6000803e3d6000fd5b505050506040513d601f19601f820116820180604052508101906106a19190611dd4565b94509450945094509450600154836106b991906122eb565b600360009054906101000a900473ffffffffffffffffffffffffffffffffffffffff1673ffffffffffffffffffffffffffffffffffffffff166378e979256040518163ffffffff1660e01b815260040160206040518083038186803b15801561072157600080fd5b505afa158015610735573d6000803e3d6000fd5b505050506040513d601f19601f820116820180604052508101906107599190611d6f565b6107639190612264565b4211156109d3576000612710600260003373ffffffffffffffffffffffffffffffffffffffff1673ffffffffffffffffffffffffffffffffffffffff16815260200190815260200160002060020154866107bd91906122eb565b6107c791906122ba565b600260003373ffffffffffffffffffffffffffffffffffffffff1673ffffffffffffffffffffffffffffffffffffffff168152602001908152602001600020600201546108149190612264565b9050600460009054906101000a900473ffffffffffffffffffffffffffffffffffffffff1673ffffffffffffffffffffffffffffffffffffffff166356189cb43033846040518463ffffffff1660e01b8152600401610875939291906120e7565b600060405180830381600087803b15801561088f57600080fd5b505af11580156108a3573d6000803e3d6000fd5b50505050600460009054906101000a900473ffffffffffffffffffffffffffffffffffffffff1673ffffffffffffffffffffffffffffffffffffffff1663222f5be03033846040518463ffffffff1660e01b8152600401610906939291906120e7565b600060405180830381600087803b15801561092057600080fd5b505af1158015610934573d6000803e3d6000fd5b505050506000600260003373ffffffffffffffffffffffffffffffffffffffff1673ffffffffffffffffffffffffffffffffffffffff168152602001908152602001600020600201819055506000600260003373ffffffffffffffffffffffffffffffffffffffff1673ffffffffffffffffffffffffffffffffffffffff16815260200190815260200160002060060181905550505050505050610a1c565b50505050505b5b6000610a1b576040517f08c379a0000000000000000000000000000000000000000000000000000000008152600401610a1290612154565b60405180910390fd5b5b50565b610a27611c2c565b73ffffffffffffffffffffffffffffffffffffffff16610a4561119c565b73ffffffffffffffffffffffffffffffffffffffff1614610a9b576040517f08c379a0000000000000000000000000000000000000000000000000000000008152600401610a9290612194565b60405180910390fd5b600073ffffffffffffffffffffffffffffffffffffffff1660008054906101000a900473ffffffffffffffffffffffffffffffffffffffff1673ffffffffffffffffffffffffffffffffffffffff167f8be0079c531659141344cd1fd0a4f28419497f9722a3daafe3b4186f6b6457e060405160405180910390a360008060006101000a81548173ffffffffffffffffffffffffffffffffffffffff021916908373ffffffffffffffffffffffffffffffffffffffff160217905550565b610b61611c34565b6000600260003373ffffffffffffffffffffffffffffffffffffffff1673ffffffffffffffffffffffffffffffffffffffff1681526020019081526020016000206001015414610dd0576000806000806000600360009054906101000a900473ffffffffffffffffffffffffffffffffffffffff1673ffffffffffffffffffffffffffffffffffffffff1663b2596a6760016040518263ffffffff1660e01b8152600401610c0f919061211e565b60a06040518083038186803b158015610c2757600080fd5b505afa158015610c3b573d6000803e3d6000fd5b505050506040513d601f19601f82011682018060405250810190610c5f9190611dd4565b9450945094509450945060015483610c7791906122eb565b600360009054906101000a900473ffffffffffffffffffffffffffffffffffffffff1673ffffffffffffffffffffffffffffffffffffffff166378e979256040518163ffffffff1660e01b815260040160206040518083038186803b158015610cdf57600080fd5b505afa158015610cf3573d6000803e3d6000fd5b505050506040513d601f19601f82011682018060405250810190610d179190611d6f565b610d219190612264565b421115610dca57612710600260003373ffffffffffffffffffffffffffffffffffffffff1673ffffffffffffffffffffffffffffffffffffffff1681526020019081526020016000206001015485610d7991906122eb565b610d8391906122ba565b600260003373ffffffffffffffffffffffffffffffffffffffff1673ffffffffffffffffffffffffffffffffffffffff168152602001908152602001600020600501819055505b50505050505b6000600260003373ffffffffffffffffffffffffffffffffffffffff1673ffffffffffffffffffffffffffffffffffffffff168152602001908152602001600020600201541461103f576000806000806000600360009054906101000a900473ffffffffffffffffffffffffffffffffffffffff1673ffffffffffffffffffffffffffffffffffffffff1663b2596a6760026040518263ffffffff1660e01b8152600401610e7e9190612139565b60a06040518083038186803b158015610e9657600080fd5b505afa158015610eaa573d6000803e3d6000fd5b505050506040513d601f19601f82011682018060405250810190610ece9190611dd4565b9450945094509450945060015483610ee691906122eb565b600360009054906101000a900473ffffffffffffffffffffffffffffffffffffffff1673ffffffffffffffffffffffffffffffffffffffff166378e979256040518163ffffffff1660e01b815260040160206040518083038186803b158015610f4e57600080fd5b505afa158015610f62573d6000803e3d6000fd5b505050506040513d601f19601f82011682018060405250810190610f869190611d6f565b610f909190612264565b42111561103957612710600260003373ffffffffffffffffffffffffffffffffffffffff1673ffffffffffffffffffffffffffffffffffffffff1681526020019081526020016000206002015485610fe891906122eb565b610ff291906122ba565b600260003373ffffffffffffffffffffffffffffffffffffffff1673ffffffffffffffffffffffffffffffffffffffff168152602001908152602001600020600601819055505b50505050505b600260003373ffffffffffffffffffffffffffffffffffffffff1673ffffffffffffffffffffffffffffffffffffffff168152602001908152602001600020604051806101a00160405290816000820160009054906101000a900460ff161515151581526020016000820160019054906101000a900460ff16151515158152602001600182015481526020016002820154815260200160038201548152602001600482015481526020016005820154815260200160068201548152602001600782015481526020016008820154815260200160098201548152602001600a8201548152602001600b8201805480602002602001604051908101604052809291908181526020016000905b8282101561118f57838290600052602060002090600202016040518060400160405290816000820154815260200160018201548152505081526020019060010190611149565b5050505081525050905090565b60008060009054906101000a900473ffffffffffffffffffffffffffffffffffffffff16905090565b600360009054906101000a900473ffffffffffffffffffffffffffffffffffffffff1673ffffffffffffffffffffffffffffffffffffffff1663f12ca6986040518163ffffffff1660e01b8152600401600060405180830381600087803b15801561122f57600080fd5b505af1158015611243573d6000803e3d6000fd5b50505050600080600360009054906101000a900473ffffffffffffffffffffffffffffffffffffffff1673ffffffffffffffffffffffffffffffffffffffff16636fd5ae156040518163ffffffff1660e01b815260040160206040518083038186803b1580156112b257600080fd5b505afa1580156112c6573d6000803e3d6000fd5b505050506040513d601f19601f820116820180604052508101906112ea9190611d6f565b90506001811415611545576112ff8382611975565b809350819450505082600260003373ffffffffffffffffffffffffffffffffffffffff1673ffffffffffffffffffffffffffffffffffffffff16815260200190815260200160002060010160008282546113599190612264565b92505081905550600560009054906101000a900473ffffffffffffffffffffffffffffffffffffffff1673ffffffffffffffffffffffffffffffffffffffff166323b872dd3330866040518463ffffffff1660e01b81526004016113bf939291906120e7565b602060405180830381600087803b1580156113d957600080fd5b505af11580156113ed573d6000803e3d6000fd5b505050506040513d601f19601f820116820180604052508101906114119190611d1d565b50600360009054906101000a900473ffffffffffffffffffffffffffffffffffffffff1673ffffffffffffffffffffffffffffffffffffffff166392e0150b846040518263ffffffff1660e01b815260040161146d91906121d6565b600060405180830381600087803b15801561148757600080fd5b505af115801561149b573d6000803e3d6000fd5b50505050600360009054906101000a900473ffffffffffffffffffffffffffffffffffffffff1673ffffffffffffffffffffffffffffffffffffffff16636fd5ae156040518163ffffffff1660e01b815260040160206040518083038186803b15801561150757600080fd5b505afa15801561151b573d6000803e3d6000fd5b505050506040513d601f19601f8201168201806040525081019061153f9190611d6f565b90508192505b60028114156117a2576115588382611975565b809350819450505082600260003373ffffffffffffffffffffffffffffffffffffffff1673ffffffffffffffffffffffffffffffffffffffff16815260200190815260200160002060020160008282546115b29190612264565b92505081905550600560009054906101000a900473ffffffffffffffffffffffffffffffffffffffff1673ffffffffffffffffffffffffffffffffffffffff166323b872dd3330866040518463ffffffff1660e01b8152600401611618939291906120e7565b602060405180830381600087803b15801561163257600080fd5b505af1158015611646573d6000803e3d6000fd5b505050506040513d601f19601f8201168201806040525081019061166a9190611d1d565b50600360009054906101000a900473ffffffffffffffffffffffffffffffffffffffff1673ffffffffffffffffffffffffffffffffffffffff166392e0150b846040518263ffffffff1660e01b81526004016116c691906121d6565b600060405180830381600087803b1580156116e057600080fd5b505af11580156116f4573d6000803e3d6000fd5b50505050600360009054906101000a900473ffffffffffffffffffffffffffffffffffffffff1673ffffffffffffffffffffffffffffffffffffffff16636fd5ae156040518163ffffffff1660e01b815260040160206040518083038186803b15801561176057600080fd5b505afa158015611774573d6000803e3d6000fd5b505050506040513d601f19601f820116820180604052508101906117989190611d6f565b905081925061189c565b600083111561189b5782600260003373ffffffffffffffffffffffffffffffffffffffff1673ffffffffffffffffffffffffffffffffffffffff16815260200190815260200160002060090160008282546117fd9190612264565b92505081905550600260003373ffffffffffffffffffffffffffffffffffffffff1673ffffffffffffffffffffffffffffffffffffffff168152602001908152602001600020600b016040518060400160405280428152602001858152509080600181540180825580915050600190039060005260206000209060020201600090919091909150600082015181600001556020820151816001015550505b5b42600260003373ffffffffffffffffffffffffffffffffffffffff1673ffffffffffffffffffffffffffffffffffffffff168152602001908152602001600020600a0181905550600360009054906101000a900473ffffffffffffffffffffffffffffffffffffffff1673ffffffffffffffffffffffffffffffffffffffff16637bdecea1846040518263ffffffff1660e01b815260040161193e91906121d6565b600060405180830381600087803b15801561195857600080fd5b505af115801561196c573d6000803e3d6000fd5b50505050505050565b600080600080600080600080600360009054906101000a900473ffffffffffffffffffffffffffffffffffffffff1673ffffffffffffffffffffffffffffffffffffffff1663b2596a678a6040518263ffffffff1660e01b81526004016119dc91906121d6565b60a06040518083038186803b1580156119f457600080fd5b505afa158015611a08573d6000803e3d6000fd5b505050506040513d601f19601f82011682018060405250810190611a2c9190611dd4565b94509450945094509450848a82611a439190612264565b10611a70578085611a549190612345565b8a611a5f9190612345565b95508085611a6d9190612345565b99505b8986975097505050505050509250929050565b611a8b611c2c565b73ffffffffffffffffffffffffffffffffffffffff16611aa961119c565b73ffffffffffffffffffffffffffffffffffffffff1614611aff576040517f08c379a0000000000000000000000000000000000000000000000000000000008152600401611af690612194565b60405180910390fd5b600073ffffffffffffffffffffffffffffffffffffffff168173ffffffffffffffffffffffffffffffffffffffff161415611b6f576040517f08c379a0000000000000000000000000000000000000000000000000000000008152600401611b6690612174565b60405180910390fd5b8073ffffffffffffffffffffffffffffffffffffffff1660008054906101000a900473ffffffffffffffffffffffffffffffffffffffff1673ffffffffffffffffffffffffffffffffffffffff167f8be0079c531659141344cd1fd0a4f28419497f9722a3daafe3b4186f6b6457e060405160405180910390a3806000806101000a81548173ffffffffffffffffffffffffffffffffffffffff021916908373ffffffffffffffffffffffffffffffffffffffff16021790555050565b600033905090565b604051806101a0016040528060001515815260200160001515815260200160008152602001600081526020016000815260200160008152602001600081526020016000815260200160008152602001600081526020016000815260200160008152602001606081525090565b600081359050611caf816124e4565b92915050565b600081519050611cc4816124fb565b92915050565b600081359050611cd981612512565b92915050565b600081519050611cee81612512565b92915050565b600060208284031215611d0657600080fd5b6000611d1484828501611ca0565b91505092915050565b600060208284031215611d2f57600080fd5b6000611d3d84828501611cb5565b91505092915050565b600060208284031215611d5857600080fd5b6000611d6684828501611cca565b91505092915050565b600060208284031215611d8157600080fd5b6000611d8f84828501611cdf565b91505092915050565b60008060408385031215611dab57600080fd5b6000611db985828601611cca565b9250506020611dca85828601611cca565b9150509250929050565b600080600080600060a08688031215611dec57600080fd5b6000611dfa88828901611cdf565b9550506020611e0b88828901611cdf565b9450506040611e1c88828901611cdf565b9350506060611e2d88828901611cdf565b9250506080611e3e88828901611cdf565b9150509295509295909350565b6000611e578383611f66565b60408301905092915050565b611e6c81612379565b82525050565b6000611e7d8261222a565b611e878185612242565b9350611e928361221a565b8060005b83811015611ec3578151611eaa8882611e4b565b9750611eb583612235565b925050600181019050611e96565b5085935050505092915050565b611ed98161238b565b82525050565b611ee8816123c1565b82525050565b611ef7816123d3565b82525050565b6000611f0a600f83612253565b9150611f1582612443565b602082019050919050565b6000611f2d602683612253565b9150611f388261246c565b604082019050919050565b6000611f50602083612253565b9150611f5b826124bb565b602082019050919050565b604082016000820151611f7c60008501826120ae565b506020820151611f8f60208501826120ae565b50505050565b60006101a083016000830151611fae6000860182611ed0565b506020830151611fc16020860182611ed0565b506040830151611fd460408601826120ae565b506060830151611fe760608601826120ae565b506080830151611ffa60808601826120ae565b5060a083015161200d60a08601826120ae565b5060c083015161202060c08601826120ae565b5060e083015161203360e08601826120ae565b506101008301516120486101008601826120ae565b5061012083015161205d6101208601826120ae565b506101408301516120726101408601826120ae565b506101608301516120876101608601826120ae565b506101808301518482036101808601526120a18282611e72565b9150508091505092915050565b6120b7816123b7565b82525050565b6120c6816123b7565b82525050565b60006020820190506120e16000830184611e63565b92915050565b60006060820190506120fc6000830186611e63565b6121096020830185611e63565b61211660408301846120bd565b949350505050565b60006020820190506121336000830184611edf565b92915050565b600060208201905061214e6000830184611eee565b92915050565b6000602082019050818103600083015261216d81611efd565b9050919050565b6000602082019050818103600083015261218d81611f20565b9050919050565b600060208201905081810360008301526121ad81611f43565b9050919050565b600060208201905081810360008301526121ce8184611f95565b905092915050565b60006020820190506121eb60008301846120bd565b92915050565b600060408201905061220660008301856120bd565b61221360208301846120bd565b9392505050565b6000819050602082019050919050565b600081519050919050565b6000602082019050919050565b600082825260208201905092915050565b600082825260208201905092915050565b600061226f826123b7565b915061227a836123b7565b9250827fffffffffffffffffffffffffffffffffffffffffffffffffffffffffffffffff038211156122af576122ae6123e5565b5b828201905092915050565b60006122c5826123b7565b91506122d0836123b7565b9250826122e0576122df612414565b5b828204905092915050565b60006122f6826123b7565b9150612301836123b7565b9250817fffffffffffffffffffffffffffffffffffffffffffffffffffffffffffffffff048311821515161561233a576123396123e5565b5b828202905092915050565b6000612350826123b7565b915061235b836123b7565b92508282101561236e5761236d6123e5565b5b828203905092915050565b600061238482612397565b9050919050565b60008115159050919050565b600073ffffffffffffffffffffffffffffffffffffffff82169050919050565b6000819050919050565b60006123cc826123b7565b9050919050565b60006123de826123b7565b9050919050565b7f4e487b7100000000000000000000000000000000000000000000000000000000600052601160045260246000fd5b7f4e487b7100000000000000000000000000000000000000000000000000000000600052601260045260246000fd5b7f43616e6e6f742077697468647261770000000000000000000000000000000000600082015250565b7f4f776e61626c653a206e6577206f776e657220697320746865207a65726f206160008201527f6464726573730000000000000000000000000000000000000000000000000000602082015250565b7f4f776e61626c653a2063616c6c6572206973206e6f7420746865206f776e6572600082015250565b6124ed81612379565b81146124f857600080fd5b50565b6125048161238b565b811461250f57600080fd5b50565b61251b816123b7565b811461252657600080fd5b5056fea26469706673582212204574103011100cf5bddc029d5cf2bcfd32e0ce670d35b6ef5253b711479d2e9d64736f6c63430008010033a26469706673582212202a810062b88445fecf3984c7dcba942d1c3fed5276c7943c46e70f07f9adeb4b64736f6c63430008010033",
	"immutableReferences": {},
	"source": "// SPDX-License-Identifier: MIT\npragma solidity ^0.8.0;\n\nimport '@openzeppelin/contracts/token/ERC20/ERC20.sol';\nimport '@openzeppelin/contracts/access/Ownable.sol';\n\nimport './Tokens.sol';\n\n/**\nThis is a Staking contract created for every token.\n */\ncontract Staking is Ownable {\n\tuint256 oneDay = 2;\n\n\tstruct Transaction {\n\t\tuint256 addedOn;\n\t\tuint256 amount;\n\t}\n\t/**\n\tUser Data\n\t */\n\tstruct UserData {\n\t\tbool allowed;\n\t\tbool created;\n\t\t//\n\t\tuint256 level1Tokens;\n\t\tuint256 level2Tokens;\n\t\tuint256 level3Tokens;\n\t\tuint256 level4Tokens;\n\t\t//\n\t\tuint256 level1Reward;\n\t\tuint256 level2Reward;\n\t\tuint256 level3Reward;\n\t\tuint256 level4Reward;\n\t\t//\n\t\t//\n\t\tuint256 tokens;\n\t\tuint256 lastUpdateDate;\n\t\tTransaction[] transactions;\n\t}\n\n\tmapping(address => UserData) users;\n\n\tStakingFactory factory; // Contract which is creating this one.\n\n\tMock rewardsToken; // Reward Token\n\n\tIERC20 stakingToken; // Staking Token\n\n\t/**Level Data. TODO: move to library */\n\tstruct LevelData {\n\t\tuint256 allowedForXCoins;\n\t\tuint256 rewardPercentTimes100;\n\t\tuint256 lockedDuration;\n\t\tuint256 allowedReward;\n\t\tuint256 alloted;\n\t}\n\n\tfunction checkUpdateLevel(uint256 amount,uint256 level) public returns (uint256, uint256){\n\t\tuint256 remaining;\n\t\t(uint256 allowedForXCoins, uint256 _rewardPercentTimes100, uint256 _lockedDuration, uint256 _allowedReward, uint256 alloted) =\n\t\t\tfactory.levels(level);\n\n\t\tif (alloted + amount >= allowedForXCoins) {\n\t\t\tremaining = amount - (allowedForXCoins - alloted);\n\t\t\tamount = allowedForXCoins - alloted;\n\t\t}\n\t\treturn (amount,remaining);\n\t}\n\n\t/**deposit function */\n\tfunction deposit(uint256 amount) public {\n\t\t// Check if level has been updated due to time elapsed.\n\n\t\tfactory.updateLevelCheck();\n\t\t// Fetch the level.\n\t\tuint256 remaining;\n\t\tuint256 level = factory.level();\n\t\t// Check if the amount updates the level and only deposit the amount which just updates\n\t\t// and update the level. Return rest of the staking token to the user.\n\t\tif (level == 1) {\n\t\t\t(amount,remaining)=checkUpdateLevel(amount, level);\n\t\t\tusers[msg.sender].level1Tokens += amount;\n\t\t\tstakingToken.transferFrom(msg.sender, address(this), amount);\n\t\t\tfactory.updateLevel(amount);\n\t\t\tlevel = factory.level();\n\t\t\tamount = remaining;\n\t\t}\n\t\tif (level == 2) {\n\t\t\t(amount,remaining)=checkUpdateLevel(amount, level);\n\t\t\tusers[msg.sender].level2Tokens += amount;\n\t\t\tstakingToken.transferFrom(msg.sender, address(this), amount);\n\t\t\tfactory.updateLevel(amount);\n\t\t\tlevel = factory.level();\n\t\t\tamount = remaining;\n\t\t}\n\t\t\n\t\telse if (amount > 0) {\n\t\t\tusers[msg.sender].tokens += amount;\n\t\t\tusers[msg.sender].transactions.push(Transaction(block.timestamp, amount));\n\t\t}\n\t\tusers[msg.sender].lastUpdateDate = block.timestamp;\n\t\tfactory.updateTokens(amount);\n\t}\n\n\t// TODO: Make this dynamic.\n\tfunction calculateReward() public returns (UserData memory user) {\n\t\tif (users[msg.sender].level1Tokens != 0) {\n\t\t\t(uint256 allowedForXCoins, uint256 _rewardPercentTimes100, uint256 _lockedDuration, uint256 _allowedReward, uint256 alloted) =\n\t\t\t\tfactory.levels(1);\n\t\t\tif (block.timestamp > factory.startTime() + _lockedDuration * oneDay) {\n\t\t\t\tusers[msg.sender].level1Reward = ((_rewardPercentTimes100 * users[msg.sender].level1Tokens)) / 10000;\n\t\t\t}\n\t\t}\n\t\tif (users[msg.sender].level2Tokens != 0) {\n\t\t\t(uint256 allowedForXCoins, uint256 _rewardPercentTimes100, uint256 _lockedDuration, uint256 _allowedReward, uint256 alloted) =\n\t\t\t\tfactory.levels(2);\n\t\t\tif (block.timestamp > factory.startTime() + _lockedDuration * oneDay) {\n\t\t\t\tusers[msg.sender].level2Reward = ((_rewardPercentTimes100 * users[msg.sender].level2Tokens)) / 10000;\n\t\t\t}\n\t\t}\n\t\treturn users[msg.sender];\n\t}\n\n\t// Withdraw.\n\tfunction withdraw(uint256 level) public {\n\t\tif (level == 1 && users[msg.sender].level1Tokens != 0) {\n\t\t\t(uint256 allowedForXCoins, uint256 _rewardPercentTimes100, uint256 _lockedDuration, uint256 _allowedReward, uint256 alloted) =\n\t\t\t\tfactory.levels(1);\n\t\t\t\n\t\t\tif (block.timestamp > factory.startTime() + _lockedDuration * oneDay) {\n\t\t\t\tuint256 rewardValue = users[msg.sender].level1Tokens + (((_rewardPercentTimes100 * users[msg.sender].level1Tokens)) / 10000);\n\t\t\t\trewardsToken.approveInternal(address(this), msg.sender, rewardValue);\n\t\t\t\trewardsToken.transferInternal(address(this), msg.sender, rewardValue);\n\t\t\t\tusers[msg.sender].level1Tokens = 0;\n\t\t\t\tusers[msg.sender].level1Reward = 0;\n\t\t\t\treturn;\n\t\t\t}\n\t\t} else if (level == 2 && users[msg.sender].level2Tokens != 0) {\n\t\t\t(uint256 allowedForXCoins, uint256 _rewardPercentTimes100, uint256 _lockedDuration, uint256 _allowedReward, uint256 alloted) =\n\t\t\t\tfactory.levels(2);\n\t\t\tif (block.timestamp > factory.startTime() + _lockedDuration * oneDay) {\n\t\t\t\tuint256 rewardValue = users[msg.sender].level2Tokens + (((_rewardPercentTimes100 * users[msg.sender].level2Tokens)) / 10000);\n\t\t\t\trewardsToken.approveInternal(address(this), msg.sender, rewardValue);\n\t\t\t\trewardsToken.transferInternal(address(this), msg.sender, rewardValue);\n\t\t\t\tusers[msg.sender].level2Tokens = 0;\n\t\t\t\tusers[msg.sender].level2Reward = 0;\n\t\t\t\treturn;\n\t\t\t}\n\t\t} \n\t\trequire(false, 'Cannot withdraw');\n\t}\n\n\tconstructor(\n\t\taddress _factory,\n\t\taddress _rewardsToken,\n\t\taddress _stakingToken\n\t) {\n\t\tfactory = StakingFactory(_factory);\n\t\trewardsToken = Mock(_rewardsToken);\n\t\tstakingToken = IERC20(_stakingToken);\n\t}\n}\n\ncontract StakingFactory is Ownable {\n\tMock rewardsToken;\n\tuint256 public startTime;\n\tuint256 public level;\n\taddress[] public stakingTokens;\n\n\tstruct StakingRewardsInfo {\n\t\taddress stakingRewards;\n\t\tuint256 rewardAmount;\n\t}\n\n\t// rewards info by staking token\n\tmapping(address => StakingRewardsInfo) public stakingRewardsInfoByStakingToken;\n\n\t// LevelData\n\tstruct LevelData {\n\t\tuint256 allowedForXCoins;\n\t\tuint256 rewardPercentTimes100;\n\t\tuint256 lockedDuration;\n\t\tuint256 allowedReward;\n\t\tuint256 alloted;\n\t}\n\n\tmapping(uint256 => LevelData) public levels;\n\n\t// Create Levels\n\t// TODO: init in constructor?\n\t// Or create an array and provide user access to create them.\n\tfunction createLevels() internal onlyOwner {\n\t\tlevels[1] = LevelData(100000, 4900, 15, 49315, 0);\n\t\tlevels[2] = LevelData(400000, 4100, 30, 123288, 0);\n\n\t\tlevel = 1;\n\t}\n\n\tfunction updateLevel(uint256 tokenValue) public {\n\t\tif (levels[level].alloted + tokenValue >= levels[level].allowedForXCoins) {\n\t\t\tlevel += 1;\n\t\t}\n\t}\n\n\tfunction updateTokens(uint256 tokenValue) public {\n\t\tlevels[level].alloted += tokenValue;\n\t}\n\n\tfunction updateLevelCheck() public {\n\t\tif (block.timestamp > startTime + 60 * 24 * 60) {\n\t\t\tlevel = 4;\n\t\t}\n\t}\n\n\tconstructor(address _rewardsToken, uint256 _startTime) {\n\t\trewardsToken = Mock(_rewardsToken);\n\t\tstartTime = _startTime;\n\t\tlevel = 1;\n\t\tcreateLevels();\n\t}\n\n\t// THis fucntion creates the Staking reward.\n\tfunction deploy(address stakingToken, uint256 rewardAmount) public onlyOwner {\n\t\tStakingRewardsInfo storage info = stakingRewardsInfoByStakingToken[stakingToken];\n\t\trequire(info.stakingRewards == address(0), 'StakingRewardsFactory::deploy: already deployed');\n\t\tinfo.stakingRewards = address(new Staking(address(this), address(rewardsToken), stakingToken));\n\n\t\trewardsToken.approveInternal(msg.sender, info.stakingRewards, rewardAmount);\n\t\trewardsToken.transferInternal(msg.sender, info.stakingRewards, rewardAmount);\n\t\tinfo.rewardAmount = rewardAmount;\n\t\tstakingTokens.push(stakingToken);\n\t}\n}\n",
	"sourcePath": "/media/aniket/home/aniket/Work/nonceblox-work/BF_Staking/contracts/BYN_LP.sol",
	"compiler": {
		"name": "solc",
		"version": "0.8.1+commit.df193b15.Emscripten.clang"
	},
	"schemaVersion": "3.3.4",
	"updatedAt": "2021-04-01T12:00:37.124Z",
	"networkType": "ethereum",
	"devdoc": {
		"kind": "dev",
		"methods": {
			"owner()": {
				"details": "Returns the address of the current owner."
			},
			"renounceOwnership()": {
				"details": "Leaves the contract without owner. It will not be possible to call `onlyOwner` functions anymore. Can only be called by the current owner. NOTE: Renouncing ownership will leave the contract without an owner, thereby removing any functionality that is only available to the owner."
			},
			"transferOwnership(address)": {
				"details": "Transfers ownership of the contract to a new account (`newOwner`). Can only be called by the current owner."
			}
		},
		"version": 1
	},
	"userdoc": {
		"kind": "user",
		"methods": {},
		"version": 1
	}
}