{
	"contractName": "Staking",
	"abi": [
		{
			"inputs": [
				{
					"internalType": "address",
					"name": "_factory",
					"type": "address"
				},
				{
					"internalType": "address",
					"name": "_rewardsToken",
					"type": "address"
				},
				{
					"internalType": "address",
					"name": "_stakingToken",
					"type": "address"
				}
			],
			"stateMutability": "nonpayable",
			"type": "constructor"
		},
		{
			"anonymous": false,
			"inputs": [
				{
					"indexed": true,
					"internalType": "address",
					"name": "previousOwner",
					"type": "address"
				},
				{
					"indexed": true,
					"internalType": "address",
					"name": "newOwner",
					"type": "address"
				}
			],
			"name": "OwnershipTransferred",
			"type": "event"
		},
		{
			"inputs": [],
			"name": "owner",
			"outputs": [
				{
					"internalType": "address",
					"name": "",
					"type": "address"
				}
			],
			"stateMutability": "view",
			"type": "function"
		},
		{
			"inputs": [],
			"name": "renounceOwnership",
			"outputs": [],
			"stateMutability": "nonpayable",
			"type": "function"
		},
		{
			"inputs": [
				{
					"internalType": "address",
					"name": "newOwner",
					"type": "address"
				}
			],
			"name": "transferOwnership",
			"outputs": [],
			"stateMutability": "nonpayable",
			"type": "function"
		},
		{
			"inputs": [
				{
					"internalType": "uint256",
					"name": "amount",
					"type": "uint256"
				}
			],
			"name": "deposit",
			"outputs": [],
			"stateMutability": "nonpayable",
			"type": "function"
		},
		{
			"inputs": [],
			"name": "calculateReward",
			"outputs": [
				{
					"components": [
						{
							"internalType": "bool",
							"name": "allowed",
							"type": "bool"
						},
						{
							"internalType": "bool",
							"name": "created",
							"type": "bool"
						},
						{
							"internalType": "uint256",
							"name": "level1Tokens",
							"type": "uint256"
						},
						{
							"internalType": "uint256",
							"name": "level2Tokens",
							"type": "uint256"
						},
						{
							"internalType": "uint256",
							"name": "level3Tokens",
							"type": "uint256"
						},
						{
							"internalType": "uint256",
							"name": "level4Tokens",
							"type": "uint256"
						},
						{
							"internalType": "uint256",
							"name": "level1Reward",
							"type": "uint256"
						},
						{
							"internalType": "uint256",
							"name": "level2Reward",
							"type": "uint256"
						},
						{
							"internalType": "uint256",
							"name": "level3Reward",
							"type": "uint256"
						},
						{
							"internalType": "uint256",
							"name": "level4Reward",
							"type": "uint256"
						},
						{
							"internalType": "uint256",
							"name": "withdrawable",
							"type": "uint256"
						},
						{
							"internalType": "uint256",
							"name": "tokens",
							"type": "uint256"
						},
						{
							"internalType": "uint256",
							"name": "lastUpdateDate",
							"type": "uint256"
						}
					],
					"internalType": "struct Staking.UserData",
					"name": "user",
					"type": "tuple"
				}
			],
			"stateMutability": "view",
			"type": "function"
		},
		{
			"inputs": [
				{
					"internalType": "uint256",
					"name": "level",
					"type": "uint256"
				}
			],
			"name": "withdraw",
			"outputs": [],
			"stateMutability": "nonpayable",
			"type": "function"
		},
		{
			"inputs": [
				{
					"internalType": "uint256",
					"name": "amount",
					"type": "uint256"
				}
			],
			"name": "withdrawByAmount",
			"outputs": [],
			"stateMutability": "nonpayable",
			"type": "function"
		}
	],
	"bytecode": "0x608060405260026001553480156200001657600080fd5b50604051620037cc380380620037cc83398181016040528101906200003c9190620001d7565b60006200004e620001b860201b60201c565b9050806000806101000a81548173ffffffffffffffffffffffffffffffffffffffff021916908373ffffffffffffffffffffffffffffffffffffffff1602179055508073ffffffffffffffffffffffffffffffffffffffff16600073ffffffffffffffffffffffffffffffffffffffff167f8be0079c531659141344cd1fd0a4f28419497f9722a3daafe3b4186f6b6457e060405160405180910390a35082600260006101000a81548173ffffffffffffffffffffffffffffffffffffffff021916908373ffffffffffffffffffffffffffffffffffffffff16021790555081600360006101000a81548173ffffffffffffffffffffffffffffffffffffffff021916908373ffffffffffffffffffffffffffffffffffffffff16021790555080600460006101000a81548173ffffffffffffffffffffffffffffffffffffffff021916908373ffffffffffffffffffffffffffffffffffffffff1602179055505050506200027b565b600033905090565b600081519050620001d18162000261565b92915050565b600080600060608486031215620001ed57600080fd5b6000620001fd86828701620001c0565b93505060206200021086828701620001c0565b92505060406200022386828701620001c0565b9150509250925092565b60006200023a8262000241565b9050919050565b600073ffffffffffffffffffffffffffffffffffffffff82169050919050565b6200026c816200022d565b81146200027857600080fd5b50565b613541806200028b6000396000f3fe608060405234801561001057600080fd5b506004361061007d5760003560e01c8063725cedd31161005b578063725cedd3146100c45780638da5cb5b146100e2578063b6b55f2514610100578063f2fde38b1461011c5761007d565b80632e1a7d4d146100825780635521e9bf1461009e578063715018a6146100ba575b600080fd5b61009c60048036038101906100979190612db1565b610138565b005b6100b860048036038101906100b39190612db1565b610df6565b005b6100c26119da565b005b6100cc611b14565b6040516100d9919061319d565b60405180910390f35b6100ea612139565b6040516100f7919061307a565b60405180910390f35b61011a60048036038101906101159190612db1565b612162565b005b61013660048036038101906101319190612d5f565b6129e0565b005b60018114801561018b57506000600560003373ffffffffffffffffffffffffffffffffffffffff1673ffffffffffffffffffffffffffffffffffffffff1681526020019081526020016000206001015414155b15610580576000806000806000600260009054906101000a900473ffffffffffffffffffffffffffffffffffffffff1673ffffffffffffffffffffffffffffffffffffffff1663b2596a6760016040518263ffffffff1660e01b81526004016101f491906130cc565b60a06040518083038186803b15801561020c57600080fd5b505afa158015610220573d6000803e3d6000fd5b505050506040513d601f19601f820116820180604052508101906102449190612e03565b945094509450945094506001548361025c919061326c565b600260009054906101000a900473ffffffffffffffffffffffffffffffffffffffff1673ffffffffffffffffffffffffffffffffffffffff166378e979256040518163ffffffff1660e01b815260040160206040518083038186803b1580156102c457600080fd5b505afa1580156102d8573d6000803e3d6000fd5b505050506040513d601f19601f820116820180604052508101906102fc9190612dda565b61030691906131e5565b421115610576576000612710600560003373ffffffffffffffffffffffffffffffffffffffff1673ffffffffffffffffffffffffffffffffffffffff1681526020019081526020016000206001015486610360919061326c565b61036a919061323b565b600560003373ffffffffffffffffffffffffffffffffffffffff1673ffffffffffffffffffffffffffffffffffffffff168152602001908152602001600020600101546103b791906131e5565b9050600360009054906101000a900473ffffffffffffffffffffffffffffffffffffffff1673ffffffffffffffffffffffffffffffffffffffff166356189cb43033846040518463ffffffff1660e01b815260040161041893929190613095565b600060405180830381600087803b15801561043257600080fd5b505af1158015610446573d6000803e3d6000fd5b50505050600360009054906101000a900473ffffffffffffffffffffffffffffffffffffffff1673ffffffffffffffffffffffffffffffffffffffff1663222f5be03033846040518463ffffffff1660e01b81526004016104a993929190613095565b600060405180830381600087803b1580156104c357600080fd5b505af11580156104d7573d6000803e3d6000fd5b505050506000600560003373ffffffffffffffffffffffffffffffffffffffff1673ffffffffffffffffffffffffffffffffffffffff168152602001908152602001600020600101819055506000600560003373ffffffffffffffffffffffffffffffffffffffff1673ffffffffffffffffffffffffffffffffffffffff16815260200190815260200160002060050181905550505050505050610df3565b5050505050610db1565b6002811480156105d357506000600560003373ffffffffffffffffffffffffffffffffffffffff1673ffffffffffffffffffffffffffffffffffffffff1681526020019081526020016000206002015414155b156109c8576000806000806000600260009054906101000a900473ffffffffffffffffffffffffffffffffffffffff1673ffffffffffffffffffffffffffffffffffffffff1663b2596a6760026040518263ffffffff1660e01b815260040161063c91906130e7565b60a06040518083038186803b15801561065457600080fd5b505afa158015610668573d6000803e3d6000fd5b505050506040513d601f19601f8201168201806040525081019061068c9190612e03565b94509450945094509450600154836106a4919061326c565b600260009054906101000a900473ffffffffffffffffffffffffffffffffffffffff1673ffffffffffffffffffffffffffffffffffffffff166378e979256040518163ffffffff1660e01b815260040160206040518083038186803b15801561070c57600080fd5b505afa158015610720573d6000803e3d6000fd5b505050506040513d601f19601f820116820180604052508101906107449190612dda565b61074e91906131e5565b4211156109be576000612710600560003373ffffffffffffffffffffffffffffffffffffffff1673ffffffffffffffffffffffffffffffffffffffff16815260200190815260200160002060020154866107a8919061326c565b6107b2919061323b565b600560003373ffffffffffffffffffffffffffffffffffffffff1673ffffffffffffffffffffffffffffffffffffffff168152602001908152602001600020600201546107ff91906131e5565b9050600360009054906101000a900473ffffffffffffffffffffffffffffffffffffffff1673ffffffffffffffffffffffffffffffffffffffff166356189cb43033846040518463ffffffff1660e01b815260040161086093929190613095565b600060405180830381600087803b15801561087a57600080fd5b505af115801561088e573d6000803e3d6000fd5b50505050600360009054906101000a900473ffffffffffffffffffffffffffffffffffffffff1673ffffffffffffffffffffffffffffffffffffffff1663222f5be03033846040518463ffffffff1660e01b81526004016108f193929190613095565b600060405180830381600087803b15801561090b57600080fd5b505af115801561091f573d6000803e3d6000fd5b505050506000600560003373ffffffffffffffffffffffffffffffffffffffff1673ffffffffffffffffffffffffffffffffffffffff168152602001908152602001600020600201819055506000600560003373ffffffffffffffffffffffffffffffffffffffff1673ffffffffffffffffffffffffffffffffffffffff16815260200190815260200160002060060181905550505050505050610df3565b5050505050610db0565b600381148015610a1b57506000600560003373ffffffffffffffffffffffffffffffffffffffff1673ffffffffffffffffffffffffffffffffffffffff1681526020019081526020016000206003015414155b15610daf576000806000806000600260009054906101000a900473ffffffffffffffffffffffffffffffffffffffff1673ffffffffffffffffffffffffffffffffffffffff1663b2596a6760036040518263ffffffff1660e01b8152600401610a849190613102565b60a06040518083038186803b158015610a9c57600080fd5b505afa158015610ab0573d6000803e3d6000fd5b505050506040513d601f19601f82011682018060405250810190610ad49190612e03565b9450945094509450945060015483610aec919061326c565b600560003373ffffffffffffffffffffffffffffffffffffffff1673ffffffffffffffffffffffffffffffffffffffff168152602001908152602001600020600b0154610b3991906131e5565b421115610da9576000612710600560003373ffffffffffffffffffffffffffffffffffffffff1673ffffffffffffffffffffffffffffffffffffffff1681526020019081526020016000206003015486610b93919061326c565b610b9d919061323b565b600560003373ffffffffffffffffffffffffffffffffffffffff1673ffffffffffffffffffffffffffffffffffffffff16815260200190815260200160002060030154610bea91906131e5565b9050600360009054906101000a900473ffffffffffffffffffffffffffffffffffffffff1673ffffffffffffffffffffffffffffffffffffffff166356189cb43033846040518463ffffffff1660e01b8152600401610c4b93929190613095565b600060405180830381600087803b158015610c6557600080fd5b505af1158015610c79573d6000803e3d6000fd5b50505050600360009054906101000a900473ffffffffffffffffffffffffffffffffffffffff1673ffffffffffffffffffffffffffffffffffffffff1663222f5be03033846040518463ffffffff1660e01b8152600401610cdc93929190613095565b600060405180830381600087803b158015610cf657600080fd5b505af1158015610d0a573d6000803e3d6000fd5b505050506000600560003373ffffffffffffffffffffffffffffffffffffffff1673ffffffffffffffffffffffffffffffffffffffff168152602001908152602001600020600301819055506000600560003373ffffffffffffffffffffffffffffffffffffffff1673ffffffffffffffffffffffffffffffffffffffff16815260200190815260200160002060070181905550505050505050610df3565b50505050505b5b5b6000610df2576040517f08c379a0000000000000000000000000000000000000000000000000000000008152600401610de99061311d565b60405180910390fd5b5b50565b6000811415610e0457600080fd5b6000600560003373ffffffffffffffffffffffffffffffffffffffff1673ffffffffffffffffffffffffffffffffffffffff1681526020019081526020016000206001015414611168576000806000806000600260009054906101000a900473ffffffffffffffffffffffffffffffffffffffff1673ffffffffffffffffffffffffffffffffffffffff1663b2596a6760016040518263ffffffff1660e01b8152600401610eb291906130cc565b60a06040518083038186803b158015610eca57600080fd5b505afa158015610ede573d6000803e3d6000fd5b505050506040513d601f19601f82011682018060405250810190610f029190612e03565b9450945094509450945060015483610f1a919061326c565b600260009054906101000a900473ffffffffffffffffffffffffffffffffffffffff1673ffffffffffffffffffffffffffffffffffffffff166378e979256040518163ffffffff1660e01b815260040160206040518083038186803b158015610f8257600080fd5b505afa158015610f96573d6000803e3d6000fd5b505050506040513d601f19601f82011682018060405250810190610fba9190612dda565b610fc491906131e5565b421115611162576000612710600560003373ffffffffffffffffffffffffffffffffffffffff1673ffffffffffffffffffffffffffffffffffffffff168152602001908152602001600020600101548661101e919061326c565b611028919061323b565b600560003373ffffffffffffffffffffffffffffffffffffffff1673ffffffffffffffffffffffffffffffffffffffff1681526020019081526020016000206001015461107591906131e5565b905080600560003373ffffffffffffffffffffffffffffffffffffffff1673ffffffffffffffffffffffffffffffffffffffff16815260200190815260200160002060090160008282546110c991906131e5565b925050819055506000600560003373ffffffffffffffffffffffffffffffffffffffff1673ffffffffffffffffffffffffffffffffffffffff168152602001908152602001600020600101819055506000600560003373ffffffffffffffffffffffffffffffffffffffff1673ffffffffffffffffffffffffffffffffffffffff16815260200190815260200160002060050181905550505b50505050505b6000600560003373ffffffffffffffffffffffffffffffffffffffff1673ffffffffffffffffffffffffffffffffffffffff16815260200190815260200160002060020154146114cc576000806000806000600260009054906101000a900473ffffffffffffffffffffffffffffffffffffffff1673ffffffffffffffffffffffffffffffffffffffff1663b2596a6760026040518263ffffffff1660e01b815260040161121691906130e7565b60a06040518083038186803b15801561122e57600080fd5b505afa158015611242573d6000803e3d6000fd5b505050506040513d601f19601f820116820180604052508101906112669190612e03565b945094509450945094506001548361127e919061326c565b600260009054906101000a900473ffffffffffffffffffffffffffffffffffffffff1673ffffffffffffffffffffffffffffffffffffffff166378e979256040518163ffffffff1660e01b815260040160206040518083038186803b1580156112e657600080fd5b505afa1580156112fa573d6000803e3d6000fd5b505050506040513d601f19601f8201168201806040525081019061131e9190612dda565b61132891906131e5565b4211156114c6576000612710600560003373ffffffffffffffffffffffffffffffffffffffff1673ffffffffffffffffffffffffffffffffffffffff1681526020019081526020016000206002015486611382919061326c565b61138c919061323b565b600560003373ffffffffffffffffffffffffffffffffffffffff1673ffffffffffffffffffffffffffffffffffffffff168152602001908152602001600020600201546113d991906131e5565b905080600560003373ffffffffffffffffffffffffffffffffffffffff1673ffffffffffffffffffffffffffffffffffffffff168152602001908152602001600020600901600082825461142d91906131e5565b925050819055506000600560003373ffffffffffffffffffffffffffffffffffffffff1673ffffffffffffffffffffffffffffffffffffffff168152602001908152602001600020600201819055506000600560003373ffffffffffffffffffffffffffffffffffffffff1673ffffffffffffffffffffffffffffffffffffffff16815260200190815260200160002060060181905550505b50505050505b6000600560003373ffffffffffffffffffffffffffffffffffffffff1673ffffffffffffffffffffffffffffffffffffffff1681526020019081526020016000206003015414611830576000806000806000600260009054906101000a900473ffffffffffffffffffffffffffffffffffffffff1673ffffffffffffffffffffffffffffffffffffffff1663b2596a6760036040518263ffffffff1660e01b815260040161157a9190613102565b60a06040518083038186803b15801561159257600080fd5b505afa1580156115a6573d6000803e3d6000fd5b505050506040513d601f19601f820116820180604052508101906115ca9190612e03565b94509450945094509450600154836115e2919061326c565b600260009054906101000a900473ffffffffffffffffffffffffffffffffffffffff1673ffffffffffffffffffffffffffffffffffffffff166378e979256040518163ffffffff1660e01b815260040160206040518083038186803b15801561164a57600080fd5b505afa15801561165e573d6000803e3d6000fd5b505050506040513d601f19601f820116820180604052508101906116829190612dda565b61168c91906131e5565b42111561182a576000612710600560003373ffffffffffffffffffffffffffffffffffffffff1673ffffffffffffffffffffffffffffffffffffffff16815260200190815260200160002060030154866116e6919061326c565b6116f0919061323b565b600560003373ffffffffffffffffffffffffffffffffffffffff1673ffffffffffffffffffffffffffffffffffffffff1681526020019081526020016000206003015461173d91906131e5565b905080600560003373ffffffffffffffffffffffffffffffffffffffff1673ffffffffffffffffffffffffffffffffffffffff168152602001908152602001600020600901600082825461179191906131e5565b925050819055506000600560003373ffffffffffffffffffffffffffffffffffffffff1673ffffffffffffffffffffffffffffffffffffffff168152602001908152602001600020600301819055506000600560003373ffffffffffffffffffffffffffffffffffffffff1673ffffffffffffffffffffffffffffffffffffffff16815260200190815260200160002060070181905550505b50505050505b600560003373ffffffffffffffffffffffffffffffffffffffff1673ffffffffffffffffffffffffffffffffffffffff168152602001908152602001600020600901548111156118b5576040517f08c379a00000000000000000000000000000000000000000000000000000000081526004016118ac9061315d565b60405180910390fd5b600360009054906101000a900473ffffffffffffffffffffffffffffffffffffffff1673ffffffffffffffffffffffffffffffffffffffff166356189cb43033846040518463ffffffff1660e01b815260040161191493929190613095565b600060405180830381600087803b15801561192e57600080fd5b505af1158015611942573d6000803e3d6000fd5b50505050600360009054906101000a900473ffffffffffffffffffffffffffffffffffffffff1673ffffffffffffffffffffffffffffffffffffffff1663222f5be03033846040518463ffffffff1660e01b81526004016119a593929190613095565b600060405180830381600087803b1580156119bf57600080fd5b505af11580156119d3573d6000803e3d6000fd5b5050505050565b6119e2612b89565b73ffffffffffffffffffffffffffffffffffffffff16611a00612139565b73ffffffffffffffffffffffffffffffffffffffff1614611a56576040517f08c379a0000000000000000000000000000000000000000000000000000000008152600401611a4d9061317d565b60405180910390fd5b600073ffffffffffffffffffffffffffffffffffffffff1660008054906101000a900473ffffffffffffffffffffffffffffffffffffffff1673ffffffffffffffffffffffffffffffffffffffff167f8be0079c531659141344cd1fd0a4f28419497f9722a3daafe3b4186f6b6457e060405160405180910390a360008060006101000a81548173ffffffffffffffffffffffffffffffffffffffff021916908373ffffffffffffffffffffffffffffffffffffffff160217905550565b611b1c612c9f565b6000600560003373ffffffffffffffffffffffffffffffffffffffff1673ffffffffffffffffffffffffffffffffffffffff168152602001908152602001600020604051806101a00160405290816000820160009054906101000a900460ff161515151581526020016000820160019054906101000a900460ff16151515158152602001600182015481526020016002820154815260200160038201548152602001600482015481526020016005820154815260200160068201548152602001600782015481526020016008820154815260200160098201548152602001600a8201548152602001600b8201548152505090506000816040015114611dc5576000806000806000600260009054906101000a900473ffffffffffffffffffffffffffffffffffffffff1673ffffffffffffffffffffffffffffffffffffffff1663b2596a6760016040518263ffffffff1660e01b8152600401611c7f91906130cc565b60a06040518083038186803b158015611c9757600080fd5b505afa158015611cab573d6000803e3d6000fd5b505050506040513d601f19601f82011682018060405250810190611ccf9190612e03565b9450945094509450945060015483611ce7919061326c565b600260009054906101000a900473ffffffffffffffffffffffffffffffffffffffff1673ffffffffffffffffffffffffffffffffffffffff166378e979256040518163ffffffff1660e01b815260040160206040518083038186803b158015611d4f57600080fd5b505afa158015611d63573d6000803e3d6000fd5b505050506040513d601f19601f82011682018060405250810190611d879190612dda565b611d9191906131e5565b421115611dbf57612710866040015185611dab919061326c565b611db5919061323b565b8660c00181815250505b50505050505b6000816060015114611f7b576000806000806000600260009054906101000a900473ffffffffffffffffffffffffffffffffffffffff1673ffffffffffffffffffffffffffffffffffffffff1663b2596a6760026040518263ffffffff1660e01b8152600401611e3591906130e7565b60a06040518083038186803b158015611e4d57600080fd5b505afa158015611e61573d6000803e3d6000fd5b505050506040513d601f19601f82011682018060405250810190611e859190612e03565b9450945094509450945060015483611e9d919061326c565b600260009054906101000a900473ffffffffffffffffffffffffffffffffffffffff1673ffffffffffffffffffffffffffffffffffffffff166378e979256040518163ffffffff1660e01b815260040160206040518083038186803b158015611f0557600080fd5b505afa158015611f19573d6000803e3d6000fd5b505050506040513d601f19601f82011682018060405250810190611f3d9190612dda565b611f4791906131e5565b421115611f7557612710866060015185611f61919061326c565b611f6b919061323b565b8660e00181815250505b50505050505b6000816080015114612132576000806000806000600260009054906101000a900473ffffffffffffffffffffffffffffffffffffffff1673ffffffffffffffffffffffffffffffffffffffff1663b2596a6760036040518263ffffffff1660e01b8152600401611feb9190613102565b60a06040518083038186803b15801561200357600080fd5b505afa158015612017573d6000803e3d6000fd5b505050506040513d601f19601f8201168201806040525081019061203b9190612e03565b9450945094509450945060015483612053919061326c565b600260009054906101000a900473ffffffffffffffffffffffffffffffffffffffff1673ffffffffffffffffffffffffffffffffffffffff166378e979256040518163ffffffff1660e01b815260040160206040518083038186803b1580156120bb57600080fd5b505afa1580156120cf573d6000803e3d6000fd5b505050506040513d601f19601f820116820180604052508101906120f39190612dda565b6120fd91906131e5565b42111561212c57612710866080015185612117919061326c565b612121919061323b565b866101000181815250505b50505050505b8091505090565b60008060009054906101000a900473ffffffffffffffffffffffffffffffffffffffff16905090565b600260009054906101000a900473ffffffffffffffffffffffffffffffffffffffff1673ffffffffffffffffffffffffffffffffffffffff1663f12ca6986040518163ffffffff1660e01b8152600401600060405180830381600087803b1580156121cc57600080fd5b505af11580156121e0573d6000803e3d6000fd5b50505050600080600260009054906101000a900473ffffffffffffffffffffffffffffffffffffffff1673ffffffffffffffffffffffffffffffffffffffff16636fd5ae156040518163ffffffff1660e01b815260040160206040518083038186803b15801561224f57600080fd5b505afa158015612263573d6000803e3d6000fd5b505050506040513d601f19601f820116820180604052508101906122879190612dda565b905060018114156124e25761229c8382612b91565b809350819450505082600560003373ffffffffffffffffffffffffffffffffffffffff1673ffffffffffffffffffffffffffffffffffffffff16815260200190815260200160002060010160008282546122f691906131e5565b92505081905550600460009054906101000a900473ffffffffffffffffffffffffffffffffffffffff1673ffffffffffffffffffffffffffffffffffffffff166323b872dd3330866040518463ffffffff1660e01b815260040161235c93929190613095565b602060405180830381600087803b15801561237657600080fd5b505af115801561238a573d6000803e3d6000fd5b505050506040513d601f19601f820116820180604052508101906123ae9190612d88565b50600260009054906101000a900473ffffffffffffffffffffffffffffffffffffffff1673ffffffffffffffffffffffffffffffffffffffff16637bdecea1846040518263ffffffff1660e01b815260040161240a91906131b9565b600060405180830381600087803b15801561242457600080fd5b505af1158015612438573d6000803e3d6000fd5b50505050600260009054906101000a900473ffffffffffffffffffffffffffffffffffffffff1673ffffffffffffffffffffffffffffffffffffffff16636fd5ae156040518163ffffffff1660e01b815260040160206040518083038186803b1580156124a457600080fd5b505afa1580156124b8573d6000803e3d6000fd5b505050506040513d601f19601f820116820180604052508101906124dc9190612dda565b90508192505b600281141561273b576124f58382612b91565b809350819450505082600560003373ffffffffffffffffffffffffffffffffffffffff1673ffffffffffffffffffffffffffffffffffffffff168152602001908152602001600020600201600082825461254f91906131e5565b92505081905550600460009054906101000a900473ffffffffffffffffffffffffffffffffffffffff1673ffffffffffffffffffffffffffffffffffffffff166323b872dd3330866040518463ffffffff1660e01b81526004016125b593929190613095565b602060405180830381600087803b1580156125cf57600080fd5b505af11580156125e3573d6000803e3d6000fd5b505050506040513d601f19601f820116820180604052508101906126079190612d88565b50600260009054906101000a900473ffffffffffffffffffffffffffffffffffffffff1673ffffffffffffffffffffffffffffffffffffffff16637bdecea1846040518263ffffffff1660e01b815260040161266391906131b9565b600060405180830381600087803b15801561267d57600080fd5b505af1158015612691573d6000803e3d6000fd5b50505050600260009054906101000a900473ffffffffffffffffffffffffffffffffffffffff1673ffffffffffffffffffffffffffffffffffffffff16636fd5ae156040518163ffffffff1660e01b815260040160206040518083038186803b1580156126fd57600080fd5b505afa158015612711573d6000803e3d6000fd5b505050506040513d601f19601f820116820180604052508101906127359190612dda565b90508192505b60038114156129945761274e8382612b91565b809350819450505082600560003373ffffffffffffffffffffffffffffffffffffffff1673ffffffffffffffffffffffffffffffffffffffff16815260200190815260200160002060030160008282546127a891906131e5565b92505081905550600460009054906101000a900473ffffffffffffffffffffffffffffffffffffffff1673ffffffffffffffffffffffffffffffffffffffff166323b872dd3330866040518463ffffffff1660e01b815260040161280e93929190613095565b602060405180830381600087803b15801561282857600080fd5b505af115801561283c573d6000803e3d6000fd5b505050506040513d601f19601f820116820180604052508101906128609190612d88565b50600260009054906101000a900473ffffffffffffffffffffffffffffffffffffffff1673ffffffffffffffffffffffffffffffffffffffff16637bdecea1846040518263ffffffff1660e01b81526004016128bc91906131b9565b600060405180830381600087803b1580156128d657600080fd5b505af11580156128ea573d6000803e3d6000fd5b50505050600260009054906101000a900473ffffffffffffffffffffffffffffffffffffffff1673ffffffffffffffffffffffffffffffffffffffff16636fd5ae156040518163ffffffff1660e01b815260040160206040518083038186803b15801561295657600080fd5b505afa15801561296a573d6000803e3d6000fd5b505050506040513d601f19601f8201168201806040525081019061298e9190612dda565b90508192505b42600560003373ffffffffffffffffffffffffffffffffffffffff1673ffffffffffffffffffffffffffffffffffffffff168152602001908152602001600020600b0181905550505050565b6129e8612b89565b73ffffffffffffffffffffffffffffffffffffffff16612a06612139565b73ffffffffffffffffffffffffffffffffffffffff1614612a5c576040517f08c379a0000000000000000000000000000000000000000000000000000000008152600401612a539061317d565b60405180910390fd5b600073ffffffffffffffffffffffffffffffffffffffff168173ffffffffffffffffffffffffffffffffffffffff161415612acc576040517f08c379a0000000000000000000000000000000000000000000000000000000008152600401612ac39061313d565b60405180910390fd5b8073ffffffffffffffffffffffffffffffffffffffff1660008054906101000a900473ffffffffffffffffffffffffffffffffffffffff1673ffffffffffffffffffffffffffffffffffffffff167f8be0079c531659141344cd1fd0a4f28419497f9722a3daafe3b4186f6b6457e060405160405180910390a3806000806101000a81548173ffffffffffffffffffffffffffffffffffffffff021916908373ffffffffffffffffffffffffffffffffffffffff16021790555050565b600033905090565b600080600080600080600080600260009054906101000a900473ffffffffffffffffffffffffffffffffffffffff1673ffffffffffffffffffffffffffffffffffffffff1663b2596a678a6040518263ffffffff1660e01b8152600401612bf891906131b9565b60a06040518083038186803b158015612c1057600080fd5b505afa158015612c24573d6000803e3d6000fd5b505050506040513d601f19601f82011682018060405250810190612c489190612e03565b94509450945094509450848a82612c5f91906131e5565b10612c8c578085612c7091906132c6565b8a612c7b91906132c6565b95508085612c8991906132c6565b99505b8986975097505050505050509250929050565b604051806101a0016040528060001515815260200160001515815260200160008152602001600081526020016000815260200160008152602001600081526020016000815260200160008152602001600081526020016000815260200160008152602001600081525090565b600081359050612d1a816134c6565b92915050565b600081519050612d2f816134dd565b92915050565b600081359050612d44816134f4565b92915050565b600081519050612d59816134f4565b92915050565b600060208284031215612d7157600080fd5b6000612d7f84828501612d0b565b91505092915050565b600060208284031215612d9a57600080fd5b6000612da884828501612d20565b91505092915050565b600060208284031215612dc357600080fd5b6000612dd184828501612d35565b91505092915050565b600060208284031215612dec57600080fd5b6000612dfa84828501612d4a565b91505092915050565b600080600080600060a08688031215612e1b57600080fd5b6000612e2988828901612d4a565b9550506020612e3a88828901612d4a565b9450506040612e4b88828901612d4a565b9350506060612e5c88828901612d4a565b9250506080612e6d88828901612d4a565b9150509295509295909350565b612e83816132fa565b82525050565b612e928161330c565b82525050565b612ea181613342565b82525050565b612eb081613354565b82525050565b612ebf81613366565b82525050565b6000612ed2600f836131d4565b9150612edd826133d6565b602082019050919050565b6000612ef56026836131d4565b9150612f00826133ff565b604082019050919050565b6000612f186022836131d4565b9150612f238261344e565b604082019050919050565b6000612f3b6020836131d4565b9150612f468261349d565b602082019050919050565b6101a082016000820151612f686000850182612e89565b506020820151612f7b6020850182612e89565b506040820151612f8e604085018261305c565b506060820151612fa1606085018261305c565b506080820151612fb4608085018261305c565b5060a0820151612fc760a085018261305c565b5060c0820151612fda60c085018261305c565b5060e0820151612fed60e085018261305c565b5061010082015161300261010085018261305c565b5061012082015161301761012085018261305c565b5061014082015161302c61014085018261305c565b5061016082015161304161016085018261305c565b5061018082015161305661018085018261305c565b50505050565b61306581613338565b82525050565b61307481613338565b82525050565b600060208201905061308f6000830184612e7a565b92915050565b60006060820190506130aa6000830186612e7a565b6130b76020830185612e7a565b6130c4604083018461306b565b949350505050565b60006020820190506130e16000830184612e98565b92915050565b60006020820190506130fc6000830184612ea7565b92915050565b60006020820190506131176000830184612eb6565b92915050565b6000602082019050818103600083015261313681612ec5565b9050919050565b6000602082019050818103600083015261315681612ee8565b9050919050565b6000602082019050818103600083015261317681612f0b565b9050919050565b6000602082019050818103600083015261319681612f2e565b9050919050565b60006101a0820190506131b36000830184612f51565b92915050565b60006020820190506131ce600083018461306b565b92915050565b600082825260208201905092915050565b60006131f082613338565b91506131fb83613338565b9250827fffffffffffffffffffffffffffffffffffffffffffffffffffffffffffffffff038211156132305761322f613378565b5b828201905092915050565b600061324682613338565b915061325183613338565b925082613261576132606133a7565b5b828204905092915050565b600061327782613338565b915061328283613338565b9250817fffffffffffffffffffffffffffffffffffffffffffffffffffffffffffffffff04831182151516156132bb576132ba613378565b5b828202905092915050565b60006132d182613338565b91506132dc83613338565b9250828210156132ef576132ee613378565b5b828203905092915050565b600061330582613318565b9050919050565b60008115159050919050565b600073ffffffffffffffffffffffffffffffffffffffff82169050919050565b6000819050919050565b600061334d82613338565b9050919050565b600061335f82613338565b9050919050565b600061337182613338565b9050919050565b7f4e487b7100000000000000000000000000000000000000000000000000000000600052601160045260246000fd5b7f4e487b7100000000000000000000000000000000000000000000000000000000600052601260045260246000fd5b7f43616e6e6f742077697468647261770000000000000000000000000000000000600082015250565b7f4f776e61626c653a206e6577206f776e657220697320746865207a65726f206160008201527f6464726573730000000000000000000000000000000000000000000000000000602082015250565b7f52657175657374656420616d6f756e74206d6f7265207468616e20726577617260008201527f642e000000000000000000000000000000000000000000000000000000000000602082015250565b7f4f776e61626c653a2063616c6c6572206973206e6f7420746865206f776e6572600082015250565b6134cf816132fa565b81146134da57600080fd5b50565b6134e68161330c565b81146134f157600080fd5b50565b6134fd81613338565b811461350857600080fd5b5056fea2646970667358221220413a23fe9cebd20faabef30e86984bf2f1970613725b1fc701076e8f4d24ef8464736f6c63430008010033",
	"immutableReferences": {},
	"source": "// SPDX-License-Identifier: MIT\npragma solidity ^0.8.0;\n\nimport '@openzeppelin/contracts/token/ERC20/ERC20.sol';\nimport '@openzeppelin/contracts/access/Ownable.sol';\n\nimport './Tokens.sol';\n\n/**\nThis is a Staking contract created for every token.\n */\ncontract Staking is Ownable {\n\tuint256 oneDay = 2;\n\n\tStakingFactory factory; // Contract which is creating this one.\n\n\tMock rewardsToken; // Reward Token\n\n\tIERC20 stakingToken; // Staking Token\n\n\t/**\n\tUser Data\n\t */\n\tstruct UserData {\n\t\tbool allowed;\n\t\tbool created;\n\t\t//\n\t\tuint256 level1Tokens;\n\t\tuint256 level2Tokens;\n\t\tuint256 level3Tokens;\n\t\tuint256 level4Tokens;\n\t\t//\n\t\tuint256 level1Reward;\n\t\tuint256 level2Reward;\n\t\tuint256 level3Reward;\n\t\tuint256 level4Reward;\n\t\t//\n\t\tuint256 withdrawable;\n\t\t//\n\t\tuint256 tokens;\n\t\tuint256 lastUpdateDate;\n\t}\n\n\t/**Level Data. TODO: move to library */\n\tstruct LevelData {\n\t\tuint256 allowedForXCoins;\n\t\tuint256 rewardPercentTimes100;\n\t\tuint256 lockedDuration;\n\t\tuint256 allowedReward;\n\t\tuint256 alloted;\n\t}\n\n\tmapping(address => UserData) users;\n\n\tconstructor(\n\t\taddress _factory,\n\t\taddress _rewardsToken,\n\t\taddress _stakingToken\n\t) {\n\t\tfactory = StakingFactory(_factory);\n\t\trewardsToken = Mock(_rewardsToken);\n\t\tstakingToken = IERC20(_stakingToken);\n\t}\n\n\tfunction checkUpdateLevel(uint256 amount, uint256 level) internal view returns (uint256, uint256) {\n\t\tuint256 remaining;\n\t\t(uint256 allowedForXCoins, uint256 _rewardPercentTimes100, uint256 _lockedDuration, uint256 _allowedReward, uint256 alloted) =\n\t\t\tfactory.levels(level);\n\n\t\tif (alloted + amount >= allowedForXCoins) {\n\t\t\tremaining = amount - (allowedForXCoins - alloted);\n\t\t\tamount = allowedForXCoins - alloted;\n\t\t}\n\t\treturn (amount, remaining);\n\t}\n\n\t/**deposit function */\n\tfunction deposit(uint256 amount) external {\n\t\t// Check if level has been updated due to time elapsed.\n\n\t\tfactory.updateLevelCheck();\n\t\t// Fetch the level.\n\t\tuint256 remaining;\n\t\tuint256 level = factory.level();\n\t\t// Check if the amount updates the level and only deposit the amount which just updates\n\t\t// and update the level. Return rest of the staking token to the user.\n\t\tif (level == 1) {\n\t\t\t(amount, remaining) = checkUpdateLevel(amount, level);\n\t\t\tusers[msg.sender].level1Tokens += amount;\n\t\t\tstakingToken.transferFrom(msg.sender, address(this), amount);\n\t\t\tfactory.updateTokens(amount);\n\n\t\t\tlevel = factory.level();\n\t\t\tamount = remaining;\n\t\t}\n\t\tif (level == 2) {\n\t\t\t(amount, remaining) = checkUpdateLevel(amount, level);\n\t\t\tusers[msg.sender].level2Tokens += amount;\n\t\t\tstakingToken.transferFrom(msg.sender, address(this), amount);\n\t\t\tfactory.updateTokens(amount);\n\n\t\t\tlevel = factory.level();\n\t\t\tamount = remaining;\n\t\t}\n\t\tif (level == 3) {\n\t\t\t(amount, remaining) = checkUpdateLevel(amount, level);\n\t\t\tusers[msg.sender].level3Tokens += amount;\n\t\t\tstakingToken.transferFrom(msg.sender, address(this), amount);\n\t\t\tfactory.updateTokens(amount);\n\n\t\t\tlevel = factory.level();\n\t\t\tamount = remaining;\n\t\t}\n\t\t// if (level == 4) {\n\t\t// \t(amount, remaining) = checkUpdateLevel(amount, level);\n\t\t// \tusers[msg.sender].level4Tokens += amount;\n\t\t// \tstakingToken.transferFrom(msg.sender, address(this), amount);\n\t\t// \tfactory.updateTokens(amount);\n\n\t\t// \tlevel = factory.level();\n\t\t// \tamount = remaining;\n\t\t// }\n\n\t\tusers[msg.sender].lastUpdateDate = block.timestamp;\n\t}\n\n\tfunction calculateReward() public view returns (UserData memory user) {\n\t\tUserData memory userDetails = users[msg.sender];\n\t\t//\n\t\tif (userDetails.level1Tokens != 0) {\n\t\t\t(uint256 allowedForXCoins, uint256 _rewardPercentTimes100, uint256 _lockedDuration, uint256 _allowedReward, uint256 alloted) =\n\t\t\t\tfactory.levels(1);\n\t\t\tif (block.timestamp > factory.startTime() + _lockedDuration * oneDay) {\n\t\t\t\tuserDetails.level1Reward = ((_rewardPercentTimes100 * userDetails.level1Tokens)) / 10000;\n\t\t\t}\n\t\t}\n\t\tif (userDetails.level2Tokens != 0) {\n\t\t\t(uint256 allowedForXCoins, uint256 _rewardPercentTimes100, uint256 _lockedDuration, uint256 _allowedReward, uint256 alloted) =\n\t\t\t\tfactory.levels(2);\n\t\t\tif (block.timestamp > factory.startTime() + _lockedDuration * oneDay) {\n\t\t\t\tuserDetails.level2Reward = ((_rewardPercentTimes100 * userDetails.level2Tokens)) / 10000;\n\t\t\t}\n\t\t}\n\t\tif (userDetails.level3Tokens != 0) {\n\t\t\t(uint256 allowedForXCoins, uint256 _rewardPercentTimes100, uint256 _lockedDuration, uint256 _allowedReward, uint256 alloted) =\n\t\t\t\tfactory.levels(3);\n\t\t\tif (block.timestamp > factory.startTime() + _lockedDuration * oneDay) {\n\t\t\t\tuserDetails.level3Reward = ((_rewardPercentTimes100 * userDetails.level3Tokens)) / 10000;\n\t\t\t}\n\t\t}\n\t\t// if (userDetails.level4Tokens != 0) {\n\t\t// \t(uint256 allowedForXCoins, uint256 _rewardPercentTimes100, uint256 _lockedDuration, uint256 _allowedReward, uint256 alloted) =\n\t\t// \t\tfactory.levels(4);\n\t\t// \tif (block.timestamp > users[msg.sender].lastUpdateDate + _lockedDuration * oneDay) {\n\t\t// \t\tuserDetails.level4Reward = ((_rewardPercentTimes100 * userDetails.level4Tokens)) / 10000;\n\t\t// \t}\n\t\t// }\n\t\treturn userDetails;\n\t}\n\n\t// Withdraw.\n\tfunction withdraw(uint256 level) external {\n\t\tif (level == 1 && users[msg.sender].level1Tokens != 0) {\n\t\t\t(uint256 allowedForXCoins, uint256 _rewardPercentTimes100, uint256 _lockedDuration, uint256 _allowedReward, uint256 alloted) =\n\t\t\t\tfactory.levels(1);\n\n\t\t\tif (block.timestamp > factory.startTime() + _lockedDuration * oneDay) {\n\t\t\t\tuint256 rewardValue = users[msg.sender].level1Tokens + (((_rewardPercentTimes100 * users[msg.sender].level1Tokens)) / 10000);\n\t\t\t\trewardsToken.approveInternal(address(this), msg.sender, rewardValue);\n\t\t\t\trewardsToken.transferInternal(address(this), msg.sender, rewardValue);\n\t\t\t\tusers[msg.sender].level1Tokens = 0;\n\t\t\t\tusers[msg.sender].level1Reward = 0;\n\t\t\t\treturn;\n\t\t\t}\n\t\t} else if (level == 2 && users[msg.sender].level2Tokens != 0) {\n\t\t\t(uint256 allowedForXCoins, uint256 _rewardPercentTimes100, uint256 _lockedDuration, uint256 _allowedReward, uint256 alloted) =\n\t\t\t\tfactory.levels(2);\n\t\t\tif (block.timestamp > factory.startTime() + _lockedDuration * oneDay) {\n\t\t\t\tuint256 rewardValue = users[msg.sender].level2Tokens + (((_rewardPercentTimes100 * users[msg.sender].level2Tokens)) / 10000);\n\t\t\t\trewardsToken.approveInternal(address(this), msg.sender, rewardValue);\n\t\t\t\trewardsToken.transferInternal(address(this), msg.sender, rewardValue);\n\t\t\t\tusers[msg.sender].level2Tokens = 0;\n\t\t\t\tusers[msg.sender].level2Reward = 0;\n\t\t\t\treturn;\n\t\t\t}\n\t\t} else if (level == 3 && users[msg.sender].level3Tokens != 0) {\n\t\t\t(uint256 allowedForXCoins, uint256 _rewardPercentTimes100, uint256 _lockedDuration, uint256 _allowedReward, uint256 alloted) =\n\t\t\t\tfactory.levels(3);\n\t\t\tif (block.timestamp > users[msg.sender].lastUpdateDate + _lockedDuration * oneDay) {\n\t\t\t\tuint256 rewardValue = users[msg.sender].level3Tokens + (((_rewardPercentTimes100 * users[msg.sender].level3Tokens)) / 10000);\n\t\t\t\trewardsToken.approveInternal(address(this), msg.sender, rewardValue);\n\t\t\t\trewardsToken.transferInternal(address(this), msg.sender, rewardValue);\n\t\t\t\tusers[msg.sender].level3Tokens = 0;\n\t\t\t\tusers[msg.sender].level3Reward = 0;\n\t\t\t\treturn;\n\t\t\t}\n\t\t}\n\t\t//  else if (level == 4 && users[msg.sender].level4Tokens != 0) {\n\t\t// \t(uint256 allowedForXCoins, uint256 _rewardPercentTimes100, uint256 _lockedDuration, uint256 _allowedReward, uint256 alloted) =\n\t\t// \t\tfactory.levels(4);\n\t\t// \tif (block.timestamp > users[msg.sender].lastUpdateDate + _lockedDuration * oneDay) {\n\t\t// \t\tuint256 rewardValue = users[msg.sender].level4Tokens + (((_rewardPercentTimes100 * users[msg.sender].level4Tokens)) / 10000);\n\t\t// \t\trewardsToken.approveInternal(address(this), msg.sender, rewardValue);\n\t\t// \t\trewardsToken.transferInternal(address(this), msg.sender, rewardValue);\n\t\t// \t\tusers[msg.sender].level4Tokens = 0;\n\t\t// \t\tusers[msg.sender].level4Reward = 0;\n\t\t// \t\treturn;\n\t\t// \t}\n\t\t// }\n\t\trequire(false, 'Cannot withdraw');\n\t}\n\n\tfunction withdrawByAmount(uint256 amount) external {\n\t\trequire(amount != 0);\n\n\t\tif (users[msg.sender].level1Tokens != 0) {\n\t\t\t(uint256 allowedForXCoins, uint256 _rewardPercentTimes100, uint256 _lockedDuration, uint256 _allowedReward, uint256 alloted) =\n\t\t\t\tfactory.levels(1);\n\n\t\t\tif (block.timestamp > factory.startTime() + _lockedDuration * oneDay) {\n\t\t\t\tuint256 rewardValue = users[msg.sender].level1Tokens + (((_rewardPercentTimes100 * users[msg.sender].level1Tokens)) / 10000);\n\t\t\t\tusers[msg.sender].withdrawable += rewardValue;\n\t\t\t\tusers[msg.sender].level1Tokens = 0;\n\t\t\t\tusers[msg.sender].level1Reward = 0;\n\t\t\t}\n\t\t}\n\t\tif (users[msg.sender].level2Tokens != 0) {\n\t\t\t(uint256 allowedForXCoins, uint256 _rewardPercentTimes100, uint256 _lockedDuration, uint256 _allowedReward, uint256 alloted) =\n\t\t\t\tfactory.levels(2);\n\t\t\tif (block.timestamp > factory.startTime() + _lockedDuration * oneDay) {\n\t\t\t\tuint256 rewardValue = users[msg.sender].level2Tokens + (((_rewardPercentTimes100 * users[msg.sender].level2Tokens)) / 10000);\n\t\t\t\tusers[msg.sender].withdrawable += rewardValue;\n\t\t\t\tusers[msg.sender].level2Tokens = 0;\n\t\t\t\tusers[msg.sender].level2Reward = 0;\n\t\t\t}\n\t\t}\n\t\tif (users[msg.sender].level3Tokens != 0) {\n\t\t\t(uint256 allowedForXCoins, uint256 _rewardPercentTimes100, uint256 _lockedDuration, uint256 _allowedReward, uint256 alloted) =\n\t\t\t\tfactory.levels(3);\n\t\t\tif (block.timestamp > factory.startTime() + _lockedDuration * oneDay) {\n\t\t\t\tuint256 rewardValue = users[msg.sender].level3Tokens + (((_rewardPercentTimes100 * users[msg.sender].level3Tokens)) / 10000);\n\t\t\t\tusers[msg.sender].withdrawable += rewardValue;\n\t\t\t\tusers[msg.sender].level3Tokens = 0;\n\t\t\t\tusers[msg.sender].level3Reward = 0;\n\t\t\t}\n\t\t}\n\t\t// if (users[msg.sender].level4Tokens != 0) {\n\t\t// \t(uint256 allowedForXCoins, uint256 _rewardPercentTimes100, uint256 _lockedDuration, uint256 _allowedReward, uint256 alloted) =\n\t\t// \t\tfactory.levels(4);\n\t\t// \tif (block.timestamp > users[msg.sender].lastUpdateDate + _lockedDuration * oneDay) {\n\t\t// \t\tuint256 rewardValue = users[msg.sender].level4Tokens + (((_rewardPercentTimes100 * users[msg.sender].level4Tokens)) / 10000);\n\t\t// \t\tusers[msg.sender].withdrawable += rewardValue;\n\t\t// \t\tusers[msg.sender].level4Tokens = 0;\n\t\t// \t\tusers[msg.sender].level4Reward = 0;\n\t\t// \t}\n\t\t// }\n\n\t\trequire(amount <= users[msg.sender].withdrawable, 'Requested amount more than reward.');\n\t\trewardsToken.approveInternal(address(this), msg.sender, amount);\n\t\trewardsToken.transferInternal(address(this), msg.sender, amount);\n\t}\n}\n\ncontract StakingFactory is Ownable {\n\tMock rewardsToken;\n\tuint256 public startTime;\n\tuint256 public level;\n\taddress[] public stakingTokens;\n\n\tstruct StakingRewardsInfo {\n\t\taddress stakingRewards;\n\t\tuint256 rewardAmount;\n\t}\n\n\t// LevelData\n\tstruct LevelData {\n\t\tuint256 allowedForXCoins;\n\t\tuint256 rewardPercentTimes100;\n\t\tuint256 lockedDuration;\n\t\tuint256 allowedReward;\n\t\tuint256 alloted;\n\t}\n\n\taddress public stakingContractAddress;\n\t// rewards info by staking token\n\tmapping(address => StakingRewardsInfo) public stakingRewardsInfoByStakingToken;\n\n\tmapping(uint256 => LevelData) public levels;\n\n\tconstructor(address _rewardsToken, uint256 _startTime) {\n\t\trewardsToken = Mock(_rewardsToken);\n\t\tstartTime = _startTime;\n\t\tlevel = 1;\n\t\tcreateLevels();\n\t}\n\n\t// THis fucntion creates the Staking reward.\n\tfunction deploy(address stakingToken, uint256 rewardAmount) public onlyOwner {\n\t\tStakingRewardsInfo storage info = stakingRewardsInfoByStakingToken[stakingToken];\n\t\trequire(info.stakingRewards == address(0), 'StakingRewardsFactory::deploy: already deployed');\n\n\t\tinfo.stakingRewards = address(new Staking(address(this), address(rewardsToken), stakingToken));\n\n\t\tstakingContractAddress = info.stakingRewards;\n\n\t\trewardsToken.approveInternal(msg.sender, info.stakingRewards, rewardAmount);\n\t\trewardsToken.transferInternal(msg.sender, info.stakingRewards, rewardAmount);\n\t\tinfo.rewardAmount = rewardAmount;\n\t\tstakingTokens.push(stakingToken);\n\t}\n\n\t// Create Levels\n\t// Or create an array and provide user access to create them.\n\tfunction createLevels() internal {\n\t\tlevels[1] = LevelData(100000, 4900, 15, 49315, 0);\n\t\tlevels[2] = LevelData(400000, 4100, 30, 123288, 0);\n\t\tlevels[3] = LevelData(800000, 4300, 45, 172603, 0);\n\t\t// levels[4] = LevelData(1500000, 3300, 60, 230137, 0);\n\n\t\tlevel = 1;\n\t}\n\n\tmodifier restricted() {\n\t\trequire(msg.sender == stakingContractAddress, 'Sender has to be a staking contract.');\n\t\t_;\n\t}\n\n\tfunction updateTokens(uint256 tokenValue) external restricted {\n\t\tlevels[level].alloted += tokenValue;\n\t\t// if (level == 4) {\n\t\tif (level == 3) {\n\t\t\treturn;\n\t\t}\n\t\tif (levels[level].alloted >= levels[level].allowedForXCoins) {\n\t\t\tlevel += 1;\n\t\t}\n\t}\n\n\tfunction updateLevelCheck() external {\n\t\tif (block.timestamp > startTime + 60 * 24 * 60) {\n\t\t\t// level = 4;\n\t\t\tlevel = 3;\n\t\t}\n\t}\n}\n",
	"sourcePath": "/media/aniket/home/aniket/Work/nonceblox-work/BF_Staking/contracts/StakingContract.sol",
	"compiler": {
		"name": "solc",
		"version": "0.8.1+commit.df193b15.Emscripten.clang"
	},
	"schemaVersion": "3.3.4",
	"updatedAt": "2021-04-06T04:15:30.668Z",
	"devdoc": {
		"kind": "dev",
		"methods": {
			"owner()": {
				"details": "Returns the address of the current owner."
			},
			"renounceOwnership()": {
				"details": "Leaves the contract without owner. It will not be possible to call `onlyOwner` functions anymore. Can only be called by the current owner. NOTE: Renouncing ownership will leave the contract without an owner, thereby removing any functionality that is only available to the owner."
			},
			"transferOwnership(address)": {
				"details": "Transfers ownership of the contract to a new account (`newOwner`). Can only be called by the current owner."
			}
		},
		"version": 1
	},
	"userdoc": {
		"kind": "user",
		"methods": {
			"deposit(uint256)": {
				"notice": "deposit function "
			}
		},
		"notice": "This is a Staking contract created for every token.",
		"version": 1
	}
}