{
	"contractName": "StakingFactory",
	"abi": [
		{
			"inputs": [
				{
					"internalType": "address",
					"name": "_rewardsToken",
					"type": "address"
				},
				{
					"internalType": "uint256",
					"name": "_startTime",
					"type": "uint256"
				}
			],
			"stateMutability": "nonpayable",
			"type": "constructor"
		},
		{
			"anonymous": false,
			"inputs": [
				{
					"indexed": true,
					"internalType": "address",
					"name": "previousOwner",
					"type": "address"
				},
				{
					"indexed": true,
					"internalType": "address",
					"name": "newOwner",
					"type": "address"
				}
			],
			"name": "OwnershipTransferred",
			"type": "event"
		},
		{
			"inputs": [],
			"name": "level",
			"outputs": [
				{
					"internalType": "uint256",
					"name": "",
					"type": "uint256"
				}
			],
			"stateMutability": "view",
			"type": "function"
		},
		{
			"inputs": [
				{
					"internalType": "uint256",
					"name": "",
					"type": "uint256"
				}
			],
			"name": "levels",
			"outputs": [
				{
					"internalType": "uint256",
					"name": "allowedForXCoins",
					"type": "uint256"
				},
				{
					"internalType": "uint256",
					"name": "rewardPercentTimes100",
					"type": "uint256"
				},
				{
					"internalType": "uint256",
					"name": "lockedDuration",
					"type": "uint256"
				},
				{
					"internalType": "uint256",
					"name": "allowedReward",
					"type": "uint256"
				},
				{
					"internalType": "uint256",
					"name": "alloted",
					"type": "uint256"
				}
			],
			"stateMutability": "view",
			"type": "function"
		},
		{
			"inputs": [],
			"name": "owner",
			"outputs": [
				{
					"internalType": "address",
					"name": "",
					"type": "address"
				}
			],
			"stateMutability": "view",
			"type": "function"
		},
		{
			"inputs": [],
			"name": "renounceOwnership",
			"outputs": [],
			"stateMutability": "nonpayable",
			"type": "function"
		},
		{
			"inputs": [
				{
					"internalType": "address",
					"name": "",
					"type": "address"
				}
			],
			"name": "stakingRewardsInfoByStakingToken",
			"outputs": [
				{
					"internalType": "address",
					"name": "stakingRewards",
					"type": "address"
				},
				{
					"internalType": "uint256",
					"name": "rewardAmount",
					"type": "uint256"
				}
			],
			"stateMutability": "view",
			"type": "function"
		},
		{
			"inputs": [
				{
					"internalType": "uint256",
					"name": "",
					"type": "uint256"
				}
			],
			"name": "stakingTokens",
			"outputs": [
				{
					"internalType": "address",
					"name": "",
					"type": "address"
				}
			],
			"stateMutability": "view",
			"type": "function"
		},
		{
			"inputs": [],
			"name": "startTime",
			"outputs": [
				{
					"internalType": "uint256",
					"name": "",
					"type": "uint256"
				}
			],
			"stateMutability": "view",
			"type": "function"
		},
		{
			"inputs": [
				{
					"internalType": "address",
					"name": "newOwner",
					"type": "address"
				}
			],
			"name": "transferOwnership",
			"outputs": [],
			"stateMutability": "nonpayable",
			"type": "function"
		},
		{
			"inputs": [
				{
					"internalType": "uint256",
					"name": "tokenValue",
					"type": "uint256"
				}
			],
			"name": "updateLevel",
			"outputs": [],
			"stateMutability": "nonpayable",
			"type": "function"
		},
		{
			"inputs": [
				{
					"internalType": "uint256",
					"name": "tokenValue",
					"type": "uint256"
				}
			],
			"name": "updateTokens",
			"outputs": [],
			"stateMutability": "nonpayable",
			"type": "function"
		},
		{
			"inputs": [],
			"name": "updateLevelCheck",
			"outputs": [],
			"stateMutability": "nonpayable",
			"type": "function"
		},
		{
			"inputs": [
				{
					"internalType": "address",
					"name": "stakingToken",
					"type": "address"
				},
				{
					"internalType": "uint256",
					"name": "rewardAmount",
					"type": "uint256"
				}
			],
			"name": "deploy",
			"outputs": [],
			"stateMutability": "nonpayable",
			"type": "function"
		}
	],
	"bytecode": "0x60806040523480156200001157600080fd5b50604051620046bd380380620046bd83398181016040528101906200003791906200042e565b6000620000496200014f60201b60201c565b9050806000806101000a81548173ffffffffffffffffffffffffffffffffffffffff021916908373ffffffffffffffffffffffffffffffffffffffff1602179055508073ffffffffffffffffffffffffffffffffffffffff16600073ffffffffffffffffffffffffffffffffffffffff167f8be0079c531659141344cd1fd0a4f28419497f9722a3daafe3b4186f6b6457e060405160405180910390a35081600160006101000a81548173ffffffffffffffffffffffffffffffffffffffff021916908373ffffffffffffffffffffffffffffffffffffffff160217905550806002819055506001600381905550620001476200015760201b60201c565b505062000564565b600033905090565b620001676200014f60201b60201c565b73ffffffffffffffffffffffffffffffffffffffff166200018d620003d760201b60201c565b73ffffffffffffffffffffffffffffffffffffffff1614620001e6576040517f08c379a0000000000000000000000000000000000000000000000000000000008152600401620001dd9062000496565b60405180910390fd5b6040518060a00160405280620493e0815260200161201b8152602001601e81526020016203c32f81526020016000815250600660006001815260200190815260200160002060008201518160000155602082015181600101556040820151816002015560608201518160030155608082015181600401559050506040518060a00160405280620dbba08152602001610c0a8152602001602d81526020016202d26481526020016000815250600660006002815260200190815260200160002060008201518160000155602082015181600101556040820151816002015560608201518160030155608082015181600401559050506040518060a00160405280621cfde08152602001610a468152602001603c81526020016204036681526020016000815250600660006003815260200190815260200160002060008201518160000155602082015181600101556040820151816002015560608201518160030155608082015181600401559050506040518060a00160405280622c402081526020016101a08152602001603c815260200161a02881526020016000815250600660006004815260200190815260200160002060008201518160000155602082015181600101556040820151816002015560608201518160030155608082015181600401559050506001600381905550565b60008060009054906101000a900473ffffffffffffffffffffffffffffffffffffffff16905090565b600081519050620004118162000530565b92915050565b60008151905062000428816200054a565b92915050565b600080604083850312156200044257600080fd5b6000620004528582860162000400565b9250506020620004658582860162000417565b9150509250929050565b60006200047e602083620004b8565b91506200048b8262000507565b602082019050919050565b60006020820190508181036000830152620004b1816200046f565b9050919050565b600082825260208201905092915050565b6000620004d682620004dd565b9050919050565b600073ffffffffffffffffffffffffffffffffffffffff82169050919050565b6000819050919050565b7f4f776e61626c653a2063616c6c6572206973206e6f7420746865206f776e6572600082015250565b6200053b81620004c9565b81146200054757600080fd5b50565b6200055581620004fd565b81146200056157600080fd5b50565b61414980620005746000396000f3fe60806040523480156200001157600080fd5b5060043610620000c45760003560e01c80637bdecea1116200007b5780637bdecea114620001a65780638da5cb5b14620001c657806392e0150b14620001e8578063b2596a671462000208578063f12ca6981462000242578063f2fde38b146200024e57620000c4565b8063344e5e3414620000c95780634956eaf014620000ff5780636cf8caf8146200011f5780636fd5ae151462000156578063715018a6146200017857806378e979251462000184575b600080fd5b620000e76004803603810190620000e1919062000ba1565b6200026e565b604051620000f6919062000c64565b60405180910390f35b6200011d600480360381019062000117919062000b60565b620002ae565b005b6200013d600480360381019062000137919062000b34565b6200068e565b6040516200014d92919062000cfb565b60405180910390f35b62000160620006d2565b6040516200016f919062000d8e565b60405180910390f35b62000182620006d8565b005b6200018e62000819565b6040516200019d919062000d8e565b60405180910390f35b620001c46004803603810190620001be919062000ba1565b6200081f565b005b620001d062000853565b604051620001df919062000c64565b60405180910390f35b62000206600480360381019062000200919062000ba1565b6200087c565b005b62000226600480360381019062000220919062000ba1565b620008e1565b6040516200023995949392919062000dab565b60405180910390f35b6200024c62000917565b005b6200026c600480360381019062000266919062000b34565b6200093d565b005b600481815481106200027f57600080fd5b906000526020600020016000915054906101000a900473ffffffffffffffffffffffffffffffffffffffff1681565b620002b862000af0565b73ffffffffffffffffffffffffffffffffffffffff16620002d862000853565b73ffffffffffffffffffffffffffffffffffffffff161462000331576040517f08c379a0000000000000000000000000000000000000000000000000000000008152600401620003289062000d6c565b60405180910390fd5b6000600560008473ffffffffffffffffffffffffffffffffffffffff1673ffffffffffffffffffffffffffffffffffffffff1681526020019081526020016000209050600073ffffffffffffffffffffffffffffffffffffffff168160000160009054906101000a900473ffffffffffffffffffffffffffffffffffffffff1673ffffffffffffffffffffffffffffffffffffffff16146200040a576040517f08c379a0000000000000000000000000000000000000000000000000000000008152600401620004019062000d4a565b60405180910390fd5b30600160009054906101000a900473ffffffffffffffffffffffffffffffffffffffff16846040516200043d9062000af8565b6200044b9392919062000c81565b604051809103906000f08015801562000468573d6000803e3d6000fd5b508160000160006101000a81548173ffffffffffffffffffffffffffffffffffffffff021916908373ffffffffffffffffffffffffffffffffffffffff160217905550600160009054906101000a900473ffffffffffffffffffffffffffffffffffffffff1673ffffffffffffffffffffffffffffffffffffffff166356189cb4338360000160009054906101000a900473ffffffffffffffffffffffffffffffffffffffff16856040518463ffffffff1660e01b8152600401620005309392919062000cbe565b600060405180830381600087803b1580156200054b57600080fd5b505af115801562000560573d6000803e3d6000fd5b50505050600160009054906101000a900473ffffffffffffffffffffffffffffffffffffffff1673ffffffffffffffffffffffffffffffffffffffff1663222f5be0338360000160009054906101000a900473ffffffffffffffffffffffffffffffffffffffff16856040518463ffffffff1660e01b8152600401620005e99392919062000cbe565b600060405180830381600087803b1580156200060457600080fd5b505af115801562000619573d6000803e3d6000fd5b505050508181600101819055506004839080600181540180825580915050600190039060005260206000200160009091909190916101000a81548173ffffffffffffffffffffffffffffffffffffffff021916908373ffffffffffffffffffffffffffffffffffffffff160217905550505050565b60056020528060005260406000206000915090508060000160009054906101000a900473ffffffffffffffffffffffffffffffffffffffff16908060010154905082565b60035481565b620006e262000af0565b73ffffffffffffffffffffffffffffffffffffffff166200070262000853565b73ffffffffffffffffffffffffffffffffffffffff16146200075b576040517f08c379a0000000000000000000000000000000000000000000000000000000008152600401620007529062000d6c565b60405180910390fd5b600073ffffffffffffffffffffffffffffffffffffffff1660008054906101000a900473ffffffffffffffffffffffffffffffffffffffff1673ffffffffffffffffffffffffffffffffffffffff167f8be0079c531659141344cd1fd0a4f28419497f9722a3daafe3b4186f6b6457e060405160405180910390a360008060006101000a81548173ffffffffffffffffffffffffffffffffffffffff021916908373ffffffffffffffffffffffffffffffffffffffff160217905550565b60025481565b80600660006003548152602001908152602001600020600401600082825462000849919062000e19565b9250508190555050565b60008060009054906101000a900473ffffffffffffffffffffffffffffffffffffffff16905090565b600660006003548152602001908152602001600020600001548160066000600354815260200190815260200160002060040154620008bb919062000e19565b10620008de57600160036000828254620008d6919062000e19565b925050819055505b50565b60066020528060005260406000206000915090508060000154908060010154908060020154908060030154908060040154905085565b620151806002546200092a919062000e19565b4211156200093b5760046003819055505b565b6200094762000af0565b73ffffffffffffffffffffffffffffffffffffffff166200096762000853565b73ffffffffffffffffffffffffffffffffffffffff1614620009c0576040517f08c379a0000000000000000000000000000000000000000000000000000000008152600401620009b79062000d6c565b60405180910390fd5b600073ffffffffffffffffffffffffffffffffffffffff168173ffffffffffffffffffffffffffffffffffffffff16141562000a33576040517f08c379a000000000000000000000000000000000000000000000000000000000815260040162000a2a9062000d28565b60405180910390fd5b8073ffffffffffffffffffffffffffffffffffffffff1660008054906101000a900473ffffffffffffffffffffffffffffffffffffffff1673ffffffffffffffffffffffffffffffffffffffff167f8be0079c531659141344cd1fd0a4f28419497f9722a3daafe3b4186f6b6457e060405160405180910390a3806000806101000a81548173ffffffffffffffffffffffffffffffffffffffff021916908373ffffffffffffffffffffffffffffffffffffffff16021790555050565b600033905090565b6131358062000fdf83390190565b60008135905062000b178162000faa565b92915050565b60008135905062000b2e8162000fc4565b92915050565b60006020828403121562000b4757600080fd5b600062000b578482850162000b06565b91505092915050565b6000806040838503121562000b7457600080fd5b600062000b848582860162000b06565b925050602062000b978582860162000b1d565b9150509250929050565b60006020828403121562000bb457600080fd5b600062000bc48482850162000b1d565b91505092915050565b62000bd88162000e76565b82525050565b600062000bed60268362000e08565b915062000bfa8262000ee3565b604082019050919050565b600062000c14602f8362000e08565b915062000c218262000f32565b604082019050919050565b600062000c3b60208362000e08565b915062000c488262000f81565b602082019050919050565b62000c5e8162000eaa565b82525050565b600060208201905062000c7b600083018462000bcd565b92915050565b600060608201905062000c98600083018662000bcd565b62000ca7602083018562000bcd565b62000cb6604083018462000bcd565b949350505050565b600060608201905062000cd5600083018662000bcd565b62000ce4602083018562000bcd565b62000cf3604083018462000c53565b949350505050565b600060408201905062000d12600083018562000bcd565b62000d21602083018462000c53565b9392505050565b6000602082019050818103600083015262000d438162000bde565b9050919050565b6000602082019050818103600083015262000d658162000c05565b9050919050565b6000602082019050818103600083015262000d878162000c2c565b9050919050565b600060208201905062000da5600083018462000c53565b92915050565b600060a08201905062000dc2600083018862000c53565b62000dd1602083018762000c53565b62000de0604083018662000c53565b62000def606083018562000c53565b62000dfe608083018462000c53565b9695505050505050565b600082825260208201905092915050565b600062000e268262000eaa565b915062000e338362000eaa565b9250827fffffffffffffffffffffffffffffffffffffffffffffffffffffffffffffffff0382111562000e6b5762000e6a62000eb4565b5b828201905092915050565b600062000e838262000e8a565b9050919050565b600073ffffffffffffffffffffffffffffffffffffffff82169050919050565b6000819050919050565b7f4e487b7100000000000000000000000000000000000000000000000000000000600052601160045260246000fd5b7f4f776e61626c653a206e6577206f776e657220697320746865207a65726f206160008201527f6464726573730000000000000000000000000000000000000000000000000000602082015250565b7f5374616b696e6752657761726473466163746f72793a3a6465706c6f793a206160008201527f6c7265616479206465706c6f7965640000000000000000000000000000000000602082015250565b7f4f776e61626c653a2063616c6c6572206973206e6f7420746865206f776e6572600082015250565b62000fb58162000e76565b811462000fc157600080fd5b50565b62000fcf8162000eaa565b811462000fdb57600080fd5b5056fe608060405260026001553480156200001657600080fd5b50604051620031353803806200313583398181016040528101906200003c9190620001d7565b60006200004e620001b860201b60201c565b9050806000806101000a81548173ffffffffffffffffffffffffffffffffffffffff021916908373ffffffffffffffffffffffffffffffffffffffff1602179055508073ffffffffffffffffffffffffffffffffffffffff16600073ffffffffffffffffffffffffffffffffffffffff167f8be0079c531659141344cd1fd0a4f28419497f9722a3daafe3b4186f6b6457e060405160405180910390a35082600360006101000a81548173ffffffffffffffffffffffffffffffffffffffff021916908373ffffffffffffffffffffffffffffffffffffffff16021790555081600460006101000a81548173ffffffffffffffffffffffffffffffffffffffff021916908373ffffffffffffffffffffffffffffffffffffffff16021790555080600560006101000a81548173ffffffffffffffffffffffffffffffffffffffff021916908373ffffffffffffffffffffffffffffffffffffffff1602179055505050506200027b565b600033905090565b600081519050620001d18162000261565b92915050565b600080600060608486031215620001ed57600080fd5b6000620001fd86828701620001c0565b93505060206200021086828701620001c0565b92505060406200022386828701620001c0565b9150509250925092565b60006200023a8262000241565b9050919050565b600073ffffffffffffffffffffffffffffffffffffffff82169050919050565b6200026c816200022d565b81146200027857600080fd5b50565b612eaa806200028b6000396000f3fe608060405234801561001057600080fd5b50600436106100625760003560e01c80632e1a7d4d14610067578063715018a614610083578063725cedd31461008d5780638da5cb5b146100ab578063b6b55f25146100c9578063f2fde38b146100e5575b600080fd5b610081600480360381019061007c919061267e565b610101565b005b61008b610bcd565b005b610095610d07565b6040516100a29190612b04565b60405180910390f35b6100b3611828565b6040516100c091906129e6565b60405180910390f35b6100e360048036038101906100de919061267e565b611851565b005b6100ff60048036038101906100fa919061262c565b6123bb565b005b60018114801561015457506000600260003373ffffffffffffffffffffffffffffffffffffffff1673ffffffffffffffffffffffffffffffffffffffff1681526020019081526020016000206001015414155b1561048457600154601e6101689190612c12565b600360009054906101000a900473ffffffffffffffffffffffffffffffffffffffff1673ffffffffffffffffffffffffffffffffffffffff166378e979256040518163ffffffff1660e01b815260040160206040518083038186803b1580156101d057600080fd5b505afa1580156101e4573d6000803e3d6000fd5b505050506040513d601f19601f8201168201806040525081019061020891906126a7565b6102129190612b8b565b42111561047f576000612710600260003373ffffffffffffffffffffffffffffffffffffffff1673ffffffffffffffffffffffffffffffffffffffff1681526020019081526020016000206001015461201b61026e9190612c12565b6102789190612be1565b600260003373ffffffffffffffffffffffffffffffffffffffff1673ffffffffffffffffffffffffffffffffffffffff168152602001908152602001600020600101546102c59190612b8b565b9050600460009054906101000a900473ffffffffffffffffffffffffffffffffffffffff1673ffffffffffffffffffffffffffffffffffffffff166356189cb43033846040518463ffffffff1660e01b815260040161032693929190612a01565b600060405180830381600087803b15801561034057600080fd5b505af1158015610354573d6000803e3d6000fd5b50505050600460009054906101000a900473ffffffffffffffffffffffffffffffffffffffff1673ffffffffffffffffffffffffffffffffffffffff1663222f5be03033846040518463ffffffff1660e01b81526004016103b793929190612a01565b600060405180830381600087803b1580156103d157600080fd5b505af11580156103e5573d6000803e3d6000fd5b505050506000600260003373ffffffffffffffffffffffffffffffffffffffff1673ffffffffffffffffffffffffffffffffffffffff168152602001908152602001600020600101819055506000600260003373ffffffffffffffffffffffffffffffffffffffff1673ffffffffffffffffffffffffffffffffffffffff1681526020019081526020016000206005018190555050610bca565b610b88565b6002811480156104d757506000600260003373ffffffffffffffffffffffffffffffffffffffff1673ffffffffffffffffffffffffffffffffffffffff1681526020019081526020016000206002015414155b1561080757600154601e6104eb9190612c12565b600360009054906101000a900473ffffffffffffffffffffffffffffffffffffffff1673ffffffffffffffffffffffffffffffffffffffff166378e979256040518163ffffffff1660e01b815260040160206040518083038186803b15801561055357600080fd5b505afa158015610567573d6000803e3d6000fd5b505050506040513d601f19601f8201168201806040525081019061058b91906126a7565b6105959190612b8b565b421115610802576000612710600260003373ffffffffffffffffffffffffffffffffffffffff1673ffffffffffffffffffffffffffffffffffffffff16815260200190815260200160002060020154610c0a6105f19190612c12565b6105fb9190612be1565b600260003373ffffffffffffffffffffffffffffffffffffffff1673ffffffffffffffffffffffffffffffffffffffff168152602001908152602001600020600201546106489190612b8b565b9050600460009054906101000a900473ffffffffffffffffffffffffffffffffffffffff1673ffffffffffffffffffffffffffffffffffffffff166356189cb43033846040518463ffffffff1660e01b81526004016106a993929190612a01565b600060405180830381600087803b1580156106c357600080fd5b505af11580156106d7573d6000803e3d6000fd5b50505050600460009054906101000a900473ffffffffffffffffffffffffffffffffffffffff1673ffffffffffffffffffffffffffffffffffffffff1663222f5be03033846040518463ffffffff1660e01b815260040161073a93929190612a01565b600060405180830381600087803b15801561075457600080fd5b505af1158015610768573d6000803e3d6000fd5b505050506000600260003373ffffffffffffffffffffffffffffffffffffffff1673ffffffffffffffffffffffffffffffffffffffff168152602001908152602001600020600201819055506000600260003373ffffffffffffffffffffffffffffffffffffffff1673ffffffffffffffffffffffffffffffffffffffff1681526020019081526020016000206006018190555050610bca565b610b87565b60038114801561085a57506000600260003373ffffffffffffffffffffffffffffffffffffffff1673ffffffffffffffffffffffffffffffffffffffff1681526020019081526020016000206003015414155b15610b8657600154601e61086e9190612c12565b600360009054906101000a900473ffffffffffffffffffffffffffffffffffffffff1673ffffffffffffffffffffffffffffffffffffffff166378e979256040518163ffffffff1660e01b815260040160206040518083038186803b1580156108d657600080fd5b505afa1580156108ea573d6000803e3d6000fd5b505050506040513d601f19601f8201168201806040525081019061090e91906126a7565b6109189190612b8b565b421115610b85576000612710600260003373ffffffffffffffffffffffffffffffffffffffff1673ffffffffffffffffffffffffffffffffffffffff16815260200190815260200160002060030154610a356109749190612c12565b61097e9190612be1565b600260003373ffffffffffffffffffffffffffffffffffffffff1673ffffffffffffffffffffffffffffffffffffffff168152602001908152602001600020600301546109cb9190612b8b565b9050600460009054906101000a900473ffffffffffffffffffffffffffffffffffffffff1673ffffffffffffffffffffffffffffffffffffffff166356189cb43033846040518463ffffffff1660e01b8152600401610a2c93929190612a01565b600060405180830381600087803b158015610a4657600080fd5b505af1158015610a5a573d6000803e3d6000fd5b50505050600460009054906101000a900473ffffffffffffffffffffffffffffffffffffffff1673ffffffffffffffffffffffffffffffffffffffff1663222f5be03033846040518463ffffffff1660e01b8152600401610abd93929190612a01565b600060405180830381600087803b158015610ad757600080fd5b505af1158015610aeb573d6000803e3d6000fd5b505050506000600260003373ffffffffffffffffffffffffffffffffffffffff1673ffffffffffffffffffffffffffffffffffffffff168152602001908152602001600020600301819055506000600260003373ffffffffffffffffffffffffffffffffffffffff1673ffffffffffffffffffffffffffffffffffffffff1681526020019081526020016000206007018190555050610bca565b5b5b5b6000610bc9576040517f08c379a0000000000000000000000000000000000000000000000000000000008152600401610bc090612aa4565b60405180910390fd5b5b50565b610bd5612564565b73ffffffffffffffffffffffffffffffffffffffff16610bf3611828565b73ffffffffffffffffffffffffffffffffffffffff1614610c49576040517f08c379a0000000000000000000000000000000000000000000000000000000008152600401610c4090612ae4565b60405180910390fd5b600073ffffffffffffffffffffffffffffffffffffffff1660008054906101000a900473ffffffffffffffffffffffffffffffffffffffff1673ffffffffffffffffffffffffffffffffffffffff167f8be0079c531659141344cd1fd0a4f28419497f9722a3daafe3b4186f6b6457e060405160405180910390a360008060006101000a81548173ffffffffffffffffffffffffffffffffffffffff021916908373ffffffffffffffffffffffffffffffffffffffff160217905550565b610d0f61256c565b6000600260003373ffffffffffffffffffffffffffffffffffffffff1673ffffffffffffffffffffffffffffffffffffffff1681526020019081526020016000206001015414610f7e576000806000806000600360009054906101000a900473ffffffffffffffffffffffffffffffffffffffff1673ffffffffffffffffffffffffffffffffffffffff1663b2596a6760016040518263ffffffff1660e01b8152600401610dbd9190612a38565b60a06040518083038186803b158015610dd557600080fd5b505afa158015610de9573d6000803e3d6000fd5b505050506040513d601f19601f82011682018060405250810190610e0d91906126d0565b9450945094509450945060015483610e259190612c12565b600360009054906101000a900473ffffffffffffffffffffffffffffffffffffffff1673ffffffffffffffffffffffffffffffffffffffff166378e979256040518163ffffffff1660e01b815260040160206040518083038186803b158015610e8d57600080fd5b505afa158015610ea1573d6000803e3d6000fd5b505050506040513d601f19601f82011682018060405250810190610ec591906126a7565b610ecf9190612b8b565b421115610f7857612710600260003373ffffffffffffffffffffffffffffffffffffffff1673ffffffffffffffffffffffffffffffffffffffff1681526020019081526020016000206001015485610f279190612c12565b610f319190612be1565b600260003373ffffffffffffffffffffffffffffffffffffffff1673ffffffffffffffffffffffffffffffffffffffff168152602001908152602001600020600501819055505b50505050505b6000600260003373ffffffffffffffffffffffffffffffffffffffff1673ffffffffffffffffffffffffffffffffffffffff16815260200190815260200160002060020154146111ed576000806000806000600360009054906101000a900473ffffffffffffffffffffffffffffffffffffffff1673ffffffffffffffffffffffffffffffffffffffff1663b2596a6760026040518263ffffffff1660e01b815260040161102c9190612a53565b60a06040518083038186803b15801561104457600080fd5b505afa158015611058573d6000803e3d6000fd5b505050506040513d601f19601f8201168201806040525081019061107c91906126d0565b94509450945094509450600154836110949190612c12565b600360009054906101000a900473ffffffffffffffffffffffffffffffffffffffff1673ffffffffffffffffffffffffffffffffffffffff166378e979256040518163ffffffff1660e01b815260040160206040518083038186803b1580156110fc57600080fd5b505afa158015611110573d6000803e3d6000fd5b505050506040513d601f19601f8201168201806040525081019061113491906126a7565b61113e9190612b8b565b4211156111e757612710600260003373ffffffffffffffffffffffffffffffffffffffff1673ffffffffffffffffffffffffffffffffffffffff16815260200190815260200160002060020154856111969190612c12565b6111a09190612be1565b600260003373ffffffffffffffffffffffffffffffffffffffff1673ffffffffffffffffffffffffffffffffffffffff168152602001908152602001600020600601819055505b50505050505b6000600260003373ffffffffffffffffffffffffffffffffffffffff1673ffffffffffffffffffffffffffffffffffffffff168152602001908152602001600020600301541461145c576000806000806000600360009054906101000a900473ffffffffffffffffffffffffffffffffffffffff1673ffffffffffffffffffffffffffffffffffffffff1663b2596a6760036040518263ffffffff1660e01b815260040161129b9190612a6e565b60a06040518083038186803b1580156112b357600080fd5b505afa1580156112c7573d6000803e3d6000fd5b505050506040513d601f19601f820116820180604052508101906112eb91906126d0565b94509450945094509450600154836113039190612c12565b600360009054906101000a900473ffffffffffffffffffffffffffffffffffffffff1673ffffffffffffffffffffffffffffffffffffffff166378e979256040518163ffffffff1660e01b815260040160206040518083038186803b15801561136b57600080fd5b505afa15801561137f573d6000803e3d6000fd5b505050506040513d601f19601f820116820180604052508101906113a391906126a7565b6113ad9190612b8b565b42111561145657612710600260003373ffffffffffffffffffffffffffffffffffffffff1673ffffffffffffffffffffffffffffffffffffffff16815260200190815260200160002060030154856114059190612c12565b61140f9190612be1565b600260003373ffffffffffffffffffffffffffffffffffffffff1673ffffffffffffffffffffffffffffffffffffffff168152602001908152602001600020600701819055505b50505050505b6000600260003373ffffffffffffffffffffffffffffffffffffffff1673ffffffffffffffffffffffffffffffffffffffff16815260200190815260200160002060040154146116cb576000806000806000600360009054906101000a900473ffffffffffffffffffffffffffffffffffffffff1673ffffffffffffffffffffffffffffffffffffffff1663b2596a6760046040518263ffffffff1660e01b815260040161150a9190612a89565b60a06040518083038186803b15801561152257600080fd5b505afa158015611536573d6000803e3d6000fd5b505050506040513d601f19601f8201168201806040525081019061155a91906126d0565b94509450945094509450600154836115729190612c12565b600360009054906101000a900473ffffffffffffffffffffffffffffffffffffffff1673ffffffffffffffffffffffffffffffffffffffff166378e979256040518163ffffffff1660e01b815260040160206040518083038186803b1580156115da57600080fd5b505afa1580156115ee573d6000803e3d6000fd5b505050506040513d601f19601f8201168201806040525081019061161291906126a7565b61161c9190612b8b565b4211156116c557612710600260003373ffffffffffffffffffffffffffffffffffffffff1673ffffffffffffffffffffffffffffffffffffffff16815260200190815260200160002060040154856116749190612c12565b61167e9190612be1565b600260003373ffffffffffffffffffffffffffffffffffffffff1673ffffffffffffffffffffffffffffffffffffffff168152602001908152602001600020600801819055505b50505050505b600260003373ffffffffffffffffffffffffffffffffffffffff1673ffffffffffffffffffffffffffffffffffffffff168152602001908152602001600020604051806101a00160405290816000820160009054906101000a900460ff161515151581526020016000820160019054906101000a900460ff16151515158152602001600182015481526020016002820154815260200160038201548152602001600482015481526020016005820154815260200160068201548152602001600782015481526020016008820154815260200160098201548152602001600a8201548152602001600b8201805480602002602001604051908101604052809291908181526020016000905b8282101561181b578382906000526020600020906002020160405180604001604052908160008201548152602001600182015481525050815260200190600101906117d5565b5050505081525050905090565b60008060009054906101000a900473ffffffffffffffffffffffffffffffffffffffff16905090565b600360009054906101000a900473ffffffffffffffffffffffffffffffffffffffff1673ffffffffffffffffffffffffffffffffffffffff1663f12ca6986040518163ffffffff1660e01b8152600401600060405180830381600087803b1580156118bb57600080fd5b505af11580156118cf573d6000803e3d6000fd5b50505050600080600360009054906101000a900473ffffffffffffffffffffffffffffffffffffffff1673ffffffffffffffffffffffffffffffffffffffff16636fd5ae156040518163ffffffff1660e01b815260040160206040518083038186803b15801561193e57600080fd5b505afa158015611952573d6000803e3d6000fd5b505050506040513d601f19601f8201168201806040525081019061197691906126a7565b90506000806000806000600360009054906101000a900473ffffffffffffffffffffffffffffffffffffffff1673ffffffffffffffffffffffffffffffffffffffff1663b2596a67876040518263ffffffff1660e01b81526004016119db9190612b26565b60a06040518083038186803b1580156119f357600080fd5b505afa158015611a07573d6000803e3d6000fd5b505050506040513d601f19601f82011682018060405250810190611a2b91906126d0565b94509450945094509450848882611a429190612b8b565b10611afc57600360009054906101000a900473ffffffffffffffffffffffffffffffffffffffff1673ffffffffffffffffffffffffffffffffffffffff166392e0150b896040518263ffffffff1660e01b8152600401611aa29190612b26565b600060405180830381600087803b158015611abc57600080fd5b505af1158015611ad0573d6000803e3d6000fd5b505050508085611ae09190612c6c565b88611aeb9190612c6c565b96508085611af99190612c6c565b97505b6001861415611cb65787600260003373ffffffffffffffffffffffffffffffffffffffff1673ffffffffffffffffffffffffffffffffffffffff1681526020019081526020016000206001016000828254611b579190612b8b565b92505081905550600560009054906101000a900473ffffffffffffffffffffffffffffffffffffffff1673ffffffffffffffffffffffffffffffffffffffff166323b872dd33308b6040518463ffffffff1660e01b8152600401611bbd93929190612a01565b602060405180830381600087803b158015611bd757600080fd5b505af1158015611beb573d6000803e3d6000fd5b505050506040513d601f19601f82011682018060405250810190611c0f9190612655565b50600360009054906101000a900473ffffffffffffffffffffffffffffffffffffffff1673ffffffffffffffffffffffffffffffffffffffff16636fd5ae156040518163ffffffff1660e01b815260040160206040518083038186803b158015611c7857600080fd5b505afa158015611c8c573d6000803e3d6000fd5b505050506040513d601f19601f82011682018060405250810190611cb091906126a7565b95508697505b6002861415611e705787600260003373ffffffffffffffffffffffffffffffffffffffff1673ffffffffffffffffffffffffffffffffffffffff1681526020019081526020016000206002016000828254611d119190612b8b565b92505081905550600560009054906101000a900473ffffffffffffffffffffffffffffffffffffffff1673ffffffffffffffffffffffffffffffffffffffff166323b872dd33308b6040518463ffffffff1660e01b8152600401611d7793929190612a01565b602060405180830381600087803b158015611d9157600080fd5b505af1158015611da5573d6000803e3d6000fd5b505050506040513d601f19601f82011682018060405250810190611dc99190612655565b50600360009054906101000a900473ffffffffffffffffffffffffffffffffffffffff1673ffffffffffffffffffffffffffffffffffffffff16636fd5ae156040518163ffffffff1660e01b815260040160206040518083038186803b158015611e3257600080fd5b505afa158015611e46573d6000803e3d6000fd5b505050506040513d601f19601f82011682018060405250810190611e6a91906126a7565b95508697505b600386141561202a5787600260003373ffffffffffffffffffffffffffffffffffffffff1673ffffffffffffffffffffffffffffffffffffffff1681526020019081526020016000206003016000828254611ecb9190612b8b565b92505081905550600560009054906101000a900473ffffffffffffffffffffffffffffffffffffffff1673ffffffffffffffffffffffffffffffffffffffff166323b872dd33308b6040518463ffffffff1660e01b8152600401611f3193929190612a01565b602060405180830381600087803b158015611f4b57600080fd5b505af1158015611f5f573d6000803e3d6000fd5b505050506040513d601f19601f82011682018060405250810190611f839190612655565b50600360009054906101000a900473ffffffffffffffffffffffffffffffffffffffff1673ffffffffffffffffffffffffffffffffffffffff16636fd5ae156040518163ffffffff1660e01b815260040160206040518083038186803b158015611fec57600080fd5b505afa158015612000573d6000803e3d6000fd5b505050506040513d601f19601f8201168201806040525081019061202491906126a7565b95508697505b60048614156121e45787600260003373ffffffffffffffffffffffffffffffffffffffff1673ffffffffffffffffffffffffffffffffffffffff16815260200190815260200160002060040160008282546120859190612b8b565b92505081905550600560009054906101000a900473ffffffffffffffffffffffffffffffffffffffff1673ffffffffffffffffffffffffffffffffffffffff166323b872dd33308b6040518463ffffffff1660e01b81526004016120eb93929190612a01565b602060405180830381600087803b15801561210557600080fd5b505af1158015612119573d6000803e3d6000fd5b505050506040513d601f19601f8201168201806040525081019061213d9190612655565b50600360009054906101000a900473ffffffffffffffffffffffffffffffffffffffff1673ffffffffffffffffffffffffffffffffffffffff16636fd5ae156040518163ffffffff1660e01b815260040160206040518083038186803b1580156121a657600080fd5b505afa1580156121ba573d6000803e3d6000fd5b505050506040513d601f19601f820116820180604052508101906121de91906126a7565b95508697505b60008811156122dd5787600260003373ffffffffffffffffffffffffffffffffffffffff1673ffffffffffffffffffffffffffffffffffffffff168152602001908152602001600020600901600082825461223f9190612b8b565b92505081905550600260003373ffffffffffffffffffffffffffffffffffffffff1673ffffffffffffffffffffffffffffffffffffffff168152602001908152602001600020600b0160405180604001604052804281526020018a8152509080600181540180825580915050600190039060005260206000209060020201600090919091909150600082015181600001556020820151816001015550505b42600260003373ffffffffffffffffffffffffffffffffffffffff1673ffffffffffffffffffffffffffffffffffffffff168152602001908152602001600020600a0181905550600360009054906101000a900473ffffffffffffffffffffffffffffffffffffffff1673ffffffffffffffffffffffffffffffffffffffff16637bdecea1896040518263ffffffff1660e01b815260040161237f9190612b26565b600060405180830381600087803b15801561239957600080fd5b505af11580156123ad573d6000803e3d6000fd5b505050505050505050505050565b6123c3612564565b73ffffffffffffffffffffffffffffffffffffffff166123e1611828565b73ffffffffffffffffffffffffffffffffffffffff1614612437576040517f08c379a000000000000000000000000000000000000000000000000000000000815260040161242e90612ae4565b60405180910390fd5b600073ffffffffffffffffffffffffffffffffffffffff168173ffffffffffffffffffffffffffffffffffffffff1614156124a7576040517f08c379a000000000000000000000000000000000000000000000000000000000815260040161249e90612ac4565b60405180910390fd5b8073ffffffffffffffffffffffffffffffffffffffff1660008054906101000a900473ffffffffffffffffffffffffffffffffffffffff1673ffffffffffffffffffffffffffffffffffffffff167f8be0079c531659141344cd1fd0a4f28419497f9722a3daafe3b4186f6b6457e060405160405180910390a3806000806101000a81548173ffffffffffffffffffffffffffffffffffffffff021916908373ffffffffffffffffffffffffffffffffffffffff16021790555050565b600033905090565b604051806101a0016040528060001515815260200160001515815260200160008152602001600081526020016000815260200160008152602001600081526020016000815260200160008152602001600081526020016000815260200160008152602001606081525090565b6000813590506125e781612e2f565b92915050565b6000815190506125fc81612e46565b92915050565b60008135905061261181612e5d565b92915050565b60008151905061262681612e5d565b92915050565b60006020828403121561263e57600080fd5b600061264c848285016125d8565b91505092915050565b60006020828403121561266757600080fd5b6000612675848285016125ed565b91505092915050565b60006020828403121561269057600080fd5b600061269e84828501612602565b91505092915050565b6000602082840312156126b957600080fd5b60006126c784828501612617565b91505092915050565b600080600080600060a086880312156126e857600080fd5b60006126f688828901612617565b955050602061270788828901612617565b945050604061271888828901612617565b935050606061272988828901612617565b925050608061273a88828901612617565b9150509295509295909350565b60006127538383612880565b60408301905092915050565b61276881612ca0565b82525050565b600061277982612b51565b6127838185612b69565b935061278e83612b41565b8060005b838110156127bf5781516127a68882612747565b97506127b183612b5c565b925050600181019050612792565b5085935050505092915050565b6127d581612cb2565b82525050565b6127e481612ce8565b82525050565b6127f381612cfa565b82525050565b61280281612d0c565b82525050565b61281181612d1e565b82525050565b6000612824600f83612b7a565b915061282f82612d8e565b602082019050919050565b6000612847602683612b7a565b915061285282612db7565b604082019050919050565b600061286a602083612b7a565b915061287582612e06565b602082019050919050565b60408201600082015161289660008501826129c8565b5060208201516128a960208501826129c8565b50505050565b60006101a0830160008301516128c860008601826127cc565b5060208301516128db60208601826127cc565b5060408301516128ee60408601826129c8565b50606083015161290160608601826129c8565b50608083015161291460808601826129c8565b5060a083015161292760a08601826129c8565b5060c083015161293a60c08601826129c8565b5060e083015161294d60e08601826129c8565b506101008301516129626101008601826129c8565b506101208301516129776101208601826129c8565b5061014083015161298c6101408601826129c8565b506101608301516129a16101608601826129c8565b506101808301518482036101808601526129bb828261276e565b9150508091505092915050565b6129d181612cde565b82525050565b6129e081612cde565b82525050565b60006020820190506129fb600083018461275f565b92915050565b6000606082019050612a16600083018661275f565b612a23602083018561275f565b612a3060408301846129d7565b949350505050565b6000602082019050612a4d60008301846127db565b92915050565b6000602082019050612a6860008301846127ea565b92915050565b6000602082019050612a8360008301846127f9565b92915050565b6000602082019050612a9e6000830184612808565b92915050565b60006020820190508181036000830152612abd81612817565b9050919050565b60006020820190508181036000830152612add8161283a565b9050919050565b60006020820190508181036000830152612afd8161285d565b9050919050565b60006020820190508181036000830152612b1e81846128af565b905092915050565b6000602082019050612b3b60008301846129d7565b92915050565b6000819050602082019050919050565b600081519050919050565b6000602082019050919050565b600082825260208201905092915050565b600082825260208201905092915050565b6000612b9682612cde565b9150612ba183612cde565b9250827fffffffffffffffffffffffffffffffffffffffffffffffffffffffffffffffff03821115612bd657612bd5612d30565b5b828201905092915050565b6000612bec82612cde565b9150612bf783612cde565b925082612c0757612c06612d5f565b5b828204905092915050565b6000612c1d82612cde565b9150612c2883612cde565b9250817fffffffffffffffffffffffffffffffffffffffffffffffffffffffffffffffff0483118215151615612c6157612c60612d30565b5b828202905092915050565b6000612c7782612cde565b9150612c8283612cde565b925082821015612c9557612c94612d30565b5b828203905092915050565b6000612cab82612cbe565b9050919050565b60008115159050919050565b600073ffffffffffffffffffffffffffffffffffffffff82169050919050565b6000819050919050565b6000612cf382612cde565b9050919050565b6000612d0582612cde565b9050919050565b6000612d1782612cde565b9050919050565b6000612d2982612cde565b9050919050565b7f4e487b7100000000000000000000000000000000000000000000000000000000600052601160045260246000fd5b7f4e487b7100000000000000000000000000000000000000000000000000000000600052601260045260246000fd5b7f43616e6e6f742077697468647261770000000000000000000000000000000000600082015250565b7f4f776e61626c653a206e6577206f776e657220697320746865207a65726f206160008201527f6464726573730000000000000000000000000000000000000000000000000000602082015250565b7f4f776e61626c653a2063616c6c6572206973206e6f7420746865206f776e6572600082015250565b612e3881612ca0565b8114612e4357600080fd5b50565b612e4f81612cb2565b8114612e5a57600080fd5b50565b612e6681612cde565b8114612e7157600080fd5b5056fea2646970667358221220108f5b3a0df8fa73f5d5a9c59a8cbd77179df4d788f3d8ebdd4d9ba9e7fdf66664736f6c63430008010033a26469706673582212206704f3a6829def2086543c16828fcbb40ca4e98f46c8d3ba2235bb827f0b4adb64736f6c63430008010033",
	"immutableReferences": {},
	"source": "// SPDX-License-Identifier: MIT\npragma solidity ^0.8.0;\n\nimport '@openzeppelin/contracts/token/ERC20/ERC20.sol';\nimport '@openzeppelin/contracts/access/Ownable.sol';\n\nimport './Tokens.sol';\n\n/**\nThis is a Staking contract created for every token.\n */\ncontract Staking is Ownable {\n\tuint256 oneDay = 2;\n\n\tstruct Transaction {\n\t\tuint256 addedOn;\n\t\tuint256 amount;\n\t}\n\t/**\n\tUser Data\n\t */\n\tstruct UserData {\n\t\tbool allowed;\n\t\tbool created;\n\t\t//\n\t\tuint256 level1Tokens;\n\t\tuint256 level2Tokens;\n\t\tuint256 level3Tokens;\n\t\tuint256 level4Tokens;\n\t\t//\n\t\tuint256 level1Reward;\n\t\tuint256 level2Reward;\n\t\tuint256 level3Reward;\n\t\tuint256 level4Reward;\n\t\t//\n\t\t//\n\t\tuint256 tokens;\n\t\tuint256 lastUpdateDate;\n\t\tTransaction[] transactions;\n\t}\n\n\tmapping(address => UserData) users;\n\n\tStakingFactory factory; // Contract which is creating this one.\n\n\tMock rewardsToken; // Reward Token\n\n\tIERC20 stakingToken; // Staking Token\n\n\t/**Level Data. TODO: move to library */\n\tstruct LevelData {\n\t\tuint256 allowedForXCoins;\n\t\tuint256 rewardPercentTimes100;\n\t\tuint256 lockedDuration;\n\t\tuint256 allowedReward;\n\t\tuint256 alloted;\n\t}\n\n\t/**deposit function */\n\tfunction deposit(uint256 amount) public {\n\t\t// Check if level has been updated due to time elapsed.\n\n\t\tfactory.updateLevelCheck();\n\t\t// Fetch the level.\n\t\tuint256 remaining;\n\t\tuint256 level = factory.level();\n\t\t// Check if the amount updates the level and only deposit the amount which just updates\n\t\t// and update the level. Return rest of the staking token to the user.\n\t\t(uint256 allowedForXCoins, uint256 _rewardPercentTimes100, uint256 _lockedDuration, uint256 _allowedReward, uint256 alloted) =\n\t\t\tfactory.levels(level);\n\t\tif (alloted + amount >= allowedForXCoins) {\n\t\t\tfactory.updateLevel(amount);\n\t\t\tremaining = amount - (allowedForXCoins - alloted);\n\t\t\tamount = allowedForXCoins - alloted;\n\t\t}\n\t\tif (level == 1) {\n\t\t\tusers[msg.sender].level1Tokens += amount;\n\t\t\tstakingToken.transferFrom(msg.sender, address(this), amount);\n\t\t\tlevel = factory.level();\n\t\t\tamount = remaining;\n\t\t}\n\t\tif (level == 2) {\n\t\t\tusers[msg.sender].level2Tokens += amount;\n\t\t\tstakingToken.transferFrom(msg.sender, address(this), amount);\n\t\t\tlevel = factory.level();\n\t\t\tamount = remaining;\n\t\t}\n\t\tif (level == 3) {\n\t\t\tusers[msg.sender].level3Tokens += amount;\n\t\t\tstakingToken.transferFrom(msg.sender, address(this), amount);\n\t\t\tlevel = factory.level();\n\t\t\tamount = remaining;\n\t\t}\n\t\tif (level == 4) {\n\t\t\tusers[msg.sender].level4Tokens += amount;\n\t\t\tstakingToken.transferFrom(msg.sender, address(this), amount);\n\t\t\tlevel = factory.level();\n\t\t\tamount = remaining;\n\t\t}\n\t\tif (amount > 0) {\n\t\t\tusers[msg.sender].tokens += amount;\n\t\t\tusers[msg.sender].transactions.push(Transaction(block.timestamp, amount));\n\t\t}\n\t\tusers[msg.sender].lastUpdateDate = block.timestamp;\n\t\tfactory.updateTokens(amount);\n\t}\n\n\t// TODO: Make this dynamic.\n\tfunction calculateReward() public returns (UserData memory user) {\n\t\tif (users[msg.sender].level1Tokens != 0) {\n\t\t\t(uint256 allowedForXCoins, uint256 _rewardPercentTimes100, uint256 _lockedDuration, uint256 _allowedReward, uint256 alloted) =\n\t\t\t\tfactory.levels(1);\n\t\t\tif (block.timestamp > factory.startTime() + _lockedDuration * oneDay) {\n\t\t\t\tusers[msg.sender].level1Reward = ((_rewardPercentTimes100 * users[msg.sender].level1Tokens)) / 10000;\n\t\t\t}\n\t\t}\n\t\tif (users[msg.sender].level2Tokens != 0) {\n\t\t\t(uint256 allowedForXCoins, uint256 _rewardPercentTimes100, uint256 _lockedDuration, uint256 _allowedReward, uint256 alloted) =\n\t\t\t\tfactory.levels(2);\n\t\t\tif (block.timestamp > factory.startTime() + _lockedDuration * oneDay) {\n\t\t\t\tusers[msg.sender].level2Reward = ((_rewardPercentTimes100 * users[msg.sender].level2Tokens)) / 10000;\n\t\t\t}\n\t\t}\n\t\tif (users[msg.sender].level3Tokens != 0) {\n\t\t\t(uint256 allowedForXCoins, uint256 _rewardPercentTimes100, uint256 _lockedDuration, uint256 _allowedReward, uint256 alloted) =\n\t\t\t\tfactory.levels(3);\n\t\t\tif (block.timestamp > factory.startTime() + _lockedDuration * oneDay) {\n\t\t\t\tusers[msg.sender].level3Reward = ((_rewardPercentTimes100 * users[msg.sender].level3Tokens)) / 10000;\n\t\t\t}\n\t\t}\n\t\tif (users[msg.sender].level4Tokens != 0) {\n\t\t\t(uint256 allowedForXCoins, uint256 _rewardPercentTimes100, uint256 _lockedDuration, uint256 _allowedReward, uint256 alloted) =\n\t\t\t\tfactory.levels(4);\n\t\t\tif (block.timestamp > factory.startTime() + _lockedDuration * oneDay) {\n\t\t\t\tusers[msg.sender].level4Reward = ((_rewardPercentTimes100 * users[msg.sender].level4Tokens)) / 10000;\n\t\t\t}\n\t\t}\n\t\treturn users[msg.sender];\n\t}\n\n\t// Withdraw.\n\tfunction withdraw(uint256 level) public {\n\t\tif (level == 1 && users[msg.sender].level1Tokens != 0) {\n\t\t\tif (block.timestamp > factory.startTime() + 30 * oneDay) {\n\t\t\t\tuint256 rewardValue = users[msg.sender].level1Tokens + (((8219 * users[msg.sender].level1Tokens)) / 10000);\n\t\t\t\trewardsToken.approveInternal(address(this), msg.sender, rewardValue);\n\t\t\t\trewardsToken.transferInternal(address(this), msg.sender, rewardValue);\n\t\t\t\tusers[msg.sender].level1Tokens = 0;\n\t\t\t\tusers[msg.sender].level1Reward = 0;\n\t\t\t\treturn;\n\t\t\t}\n\t\t} else if (level == 2 && users[msg.sender].level2Tokens != 0) {\n\t\t\tif (block.timestamp > factory.startTime() + 30 * oneDay) {\n\t\t\t\tuint256 rewardValue = users[msg.sender].level2Tokens + (((3082 * users[msg.sender].level2Tokens)) / 10000);\n\t\t\t\trewardsToken.approveInternal(address(this), msg.sender, rewardValue);\n\t\t\t\trewardsToken.transferInternal(address(this), msg.sender, rewardValue);\n\t\t\t\tusers[msg.sender].level2Tokens = 0;\n\t\t\t\tusers[msg.sender].level2Reward = 0;\n\t\t\t\treturn;\n\t\t\t}\n\t\t} else if (level == 3 && users[msg.sender].level3Tokens != 0) {\n\t\t\tif (block.timestamp > factory.startTime() + 30 * oneDay) {\n\t\t\t\tuint256 rewardValue = users[msg.sender].level3Tokens + (((2613 * users[msg.sender].level3Tokens)) / 10000);\n\t\t\t\trewardsToken.approveInternal(address(this), msg.sender, rewardValue);\n\t\t\t\trewardsToken.transferInternal(address(this), msg.sender, rewardValue);\n\t\t\t\tusers[msg.sender].level3Tokens = 0;\n\t\t\t\tusers[msg.sender].level3Reward = 0;\n\t\t\t\treturn;\n\t\t\t}\n\t\t}\n\t\trequire(false, 'Cannot withdraw');\n\t}\n\n\tconstructor(\n\t\taddress _factory,\n\t\taddress _rewardsToken,\n\t\taddress _stakingToken\n\t) {\n\t\tfactory = StakingFactory(_factory);\n\t\trewardsToken = Mock(_rewardsToken);\n\t\tstakingToken = IERC20(_stakingToken);\n\t}\n}\n\ncontract StakingFactory is Ownable {\n\tMock rewardsToken;\n\tuint256 public startTime;\n\tuint256 public level;\n\taddress[] public stakingTokens;\n\n\tstruct StakingRewardsInfo {\n\t\taddress stakingRewards;\n\t\tuint256 rewardAmount;\n\t}\n\n\t// rewards info by staking token\n\tmapping(address => StakingRewardsInfo) public stakingRewardsInfoByStakingToken;\n\n\t// LevelData\n\tstruct LevelData {\n\t\tuint256 allowedForXCoins;\n\t\tuint256 rewardPercentTimes100;\n\t\tuint256 lockedDuration;\n\t\tuint256 allowedReward;\n\t\tuint256 alloted;\n\t}\n\n\tmapping(uint256 => LevelData) public levels;\n\n\t// Create Levels\n\t// TODO: init in constructor?\n\t// Or create an array and provide user access to create them.\n\tfunction createLevels() internal onlyOwner {\n\t\tlevels[1] = LevelData(300000, 8219, 30, 246575, 0);\n\t\tlevels[2] = LevelData(900000, 3082, 45, 184932, 0);\n\t\tlevels[3] = LevelData(1900000, 2630, 60, 263014, 0);\n\t\tlevels[4] = LevelData(2900000, 416, 60, 41000, 0);\n\n\t\tlevel = 1;\n\t}\n\n\tfunction updateLevel(uint256 tokenValue) public {\n\t\tif (levels[level].alloted + tokenValue >= levels[level].allowedForXCoins) {\n\t\t\tlevel += 1;\n\t\t}\n\t}\n\n\tfunction updateTokens(uint256 tokenValue) public {\n\t\tlevels[level].alloted += tokenValue;\n\t}\n\n\tfunction updateLevelCheck() public {\n\t\tif (block.timestamp > startTime + 60 * 24 * 60) {\n\t\t\tlevel = 4;\n\t\t}\n\t}\n\n\tconstructor(address _rewardsToken, uint256 _startTime) {\n\t\trewardsToken = Mock(_rewardsToken);\n\t\tstartTime = _startTime;\n\t\tlevel = 1;\n\t\tcreateLevels();\n\t}\n\n\t// THis fucntion creates the Staking reward.\n\tfunction deploy(address stakingToken, uint256 rewardAmount) public onlyOwner {\n\t\tStakingRewardsInfo storage info = stakingRewardsInfoByStakingToken[stakingToken];\n\t\trequire(info.stakingRewards == address(0), 'StakingRewardsFactory::deploy: already deployed');\n\t\tinfo.stakingRewards = address(new Staking(address(this), address(rewardsToken), stakingToken));\n\n\t\trewardsToken.approveInternal(msg.sender, info.stakingRewards, rewardAmount);\n\t\trewardsToken.transferInternal(msg.sender, info.stakingRewards, rewardAmount);\n\t\tinfo.rewardAmount = rewardAmount;\n\t\tstakingTokens.push(stakingToken);\n\t}\n}\n",
	"sourcePath": "/media/aniket/home/aniket/Work/nonceblox-work/BF_Staking/contracts/BYN.sol",
	"compiler": {
		"name": "solc",
		"version": "0.8.1+commit.df193b15.Emscripten.clang"
	},
	"schemaVersion": "3.3.4",
	"updatedAt": "2021-04-01T11:10:18.729Z",
	"devdoc": {
		"kind": "dev",
		"methods": {
			"owner()": {
				"details": "Returns the address of the current owner."
			},
			"renounceOwnership()": {
				"details": "Leaves the contract without owner. It will not be possible to call `onlyOwner` functions anymore. Can only be called by the current owner. NOTE: Renouncing ownership will leave the contract without an owner, thereby removing any functionality that is only available to the owner."
			},
			"transferOwnership(address)": {
				"details": "Transfers ownership of the contract to a new account (`newOwner`). Can only be called by the current owner."
			}
		},
		"version": 1
	},
	"userdoc": {
		"kind": "user",
		"methods": {},
		"version": 1
	}
}