{
	"contractName": "StakingFactory",
	"abi": [
		{
			"inputs": [
				{
					"internalType": "address",
					"name": "_rewardsToken",
					"type": "address"
				},
				{
					"internalType": "uint256",
					"name": "_startTime",
					"type": "uint256"
				}
			],
			"stateMutability": "nonpayable",
			"type": "constructor"
		},
		{
			"anonymous": false,
			"inputs": [
				{
					"indexed": true,
					"internalType": "address",
					"name": "previousOwner",
					"type": "address"
				},
				{
					"indexed": true,
					"internalType": "address",
					"name": "newOwner",
					"type": "address"
				}
			],
			"name": "OwnershipTransferred",
			"type": "event"
		},
		{
			"inputs": [],
			"name": "level",
			"outputs": [
				{
					"internalType": "uint256",
					"name": "",
					"type": "uint256"
				}
			],
			"stateMutability": "view",
			"type": "function",
			"constant": true
		},
		{
			"inputs": [
				{
					"internalType": "uint256",
					"name": "",
					"type": "uint256"
				}
			],
			"name": "levels",
			"outputs": [
				{
					"internalType": "uint256",
					"name": "allowedForXCoins",
					"type": "uint256"
				},
				{
					"internalType": "uint256",
					"name": "rewardPercentTimes100",
					"type": "uint256"
				},
				{
					"internalType": "uint256",
					"name": "lockedDuration",
					"type": "uint256"
				},
				{
					"internalType": "uint256",
					"name": "allowedReward",
					"type": "uint256"
				},
				{
					"internalType": "uint256",
					"name": "alloted",
					"type": "uint256"
				}
			],
			"stateMutability": "view",
			"type": "function",
			"constant": true
		},
		{
			"inputs": [],
			"name": "owner",
			"outputs": [
				{
					"internalType": "address",
					"name": "",
					"type": "address"
				}
			],
			"stateMutability": "view",
			"type": "function",
			"constant": true
		},
		{
			"inputs": [],
			"name": "renounceOwnership",
			"outputs": [],
			"stateMutability": "nonpayable",
			"type": "function"
		},
		{
			"inputs": [
				{
					"internalType": "address",
					"name": "",
					"type": "address"
				}
			],
			"name": "stakingRewardsInfoByStakingToken",
			"outputs": [
				{
					"internalType": "address",
					"name": "stakingRewards",
					"type": "address"
				},
				{
					"internalType": "uint256",
					"name": "rewardAmount",
					"type": "uint256"
				}
			],
			"stateMutability": "view",
			"type": "function",
			"constant": true
		},
		{
			"inputs": [
				{
					"internalType": "uint256",
					"name": "",
					"type": "uint256"
				}
			],
			"name": "stakingTokens",
			"outputs": [
				{
					"internalType": "address",
					"name": "",
					"type": "address"
				}
			],
			"stateMutability": "view",
			"type": "function",
			"constant": true
		},
		{
			"inputs": [],
			"name": "startTime",
			"outputs": [
				{
					"internalType": "uint256",
					"name": "",
					"type": "uint256"
				}
			],
			"stateMutability": "view",
			"type": "function",
			"constant": true
		},
		{
			"inputs": [
				{
					"internalType": "address",
					"name": "newOwner",
					"type": "address"
				}
			],
			"name": "transferOwnership",
			"outputs": [],
			"stateMutability": "nonpayable",
			"type": "function"
		},
		{
			"inputs": [
				{
					"internalType": "uint256",
					"name": "tokenValue",
					"type": "uint256"
				}
			],
			"name": "updateLevel",
			"outputs": [],
			"stateMutability": "nonpayable",
			"type": "function"
		},
		{
			"inputs": [
				{
					"internalType": "uint256",
					"name": "tokenValue",
					"type": "uint256"
				}
			],
			"name": "updateTokens",
			"outputs": [],
			"stateMutability": "nonpayable",
			"type": "function"
		},
		{
			"inputs": [
				{
					"internalType": "address",
					"name": "stakingToken",
					"type": "address"
				},
				{
					"internalType": "uint256",
					"name": "rewardAmount",
					"type": "uint256"
				}
			],
			"name": "deploy",
			"outputs": [],
			"stateMutability": "nonpayable",
			"type": "function"
		}
	],
	"bytecode": "0x60806040523480156200001157600080fd5b5060405162003a7a38038062003a7a83398181016040528101906200003791906200042e565b6000620000496200014f60201b60201c565b9050806000806101000a81548173ffffffffffffffffffffffffffffffffffffffff021916908373ffffffffffffffffffffffffffffffffffffffff1602179055508073ffffffffffffffffffffffffffffffffffffffff16600073ffffffffffffffffffffffffffffffffffffffff167f8be0079c531659141344cd1fd0a4f28419497f9722a3daafe3b4186f6b6457e060405160405180910390a35081600160006101000a81548173ffffffffffffffffffffffffffffffffffffffff021916908373ffffffffffffffffffffffffffffffffffffffff160217905550806002819055506001600381905550620001476200015760201b60201c565b505062000564565b600033905090565b620001676200014f60201b60201c565b73ffffffffffffffffffffffffffffffffffffffff166200018d620003d760201b60201c565b73ffffffffffffffffffffffffffffffffffffffff1614620001e6576040517f08c379a0000000000000000000000000000000000000000000000000000000008152600401620001dd9062000496565b60405180910390fd5b6040518060a00160405280620493e0815260200161201b8152602001601e81526020016203c32f81526020016000815250600660006001815260200190815260200160002060008201518160000155602082015181600101556040820151816002015560608201518160030155608082015181600401559050506040518060a00160405280620dbba08152602001610c0a8152602001602d81526020016202d26481526020016000815250600660006002815260200190815260200160002060008201518160000155602082015181600101556040820151816002015560608201518160030155608082015181600401559050506040518060a00160405280621cfde08152602001610a468152602001603c81526020016204036681526020016000815250600660006003815260200190815260200160002060008201518160000155602082015181600101556040820151816002015560608201518160030155608082015181600401559050506040518060a00160405280622c402081526020016101a08152602001603c815260200161a02881526020016000815250600660006004815260200190815260200160002060008201518160000155602082015181600101556040820151816002015560608201518160030155608082015181600401559050506001600381905550565b60008060009054906101000a900473ffffffffffffffffffffffffffffffffffffffff16905090565b600081519050620004118162000530565b92915050565b60008151905062000428816200054a565b92915050565b600080604083850312156200044257600080fd5b6000620004528582860162000400565b9250506020620004658582860162000417565b9150509250929050565b60006200047e602083620004b8565b91506200048b8262000507565b602082019050919050565b60006020820190508181036000830152620004b1816200046f565b9050919050565b600082825260208201905092915050565b6000620004d682620004dd565b9050919050565b600073ffffffffffffffffffffffffffffffffffffffff82169050919050565b6000819050919050565b7f4f776e61626c653a2063616c6c6572206973206e6f7420746865206f776e6572600082015250565b6200053b81620004c9565b81146200054757600080fd5b50565b6200055581620004fd565b81146200056157600080fd5b50565b61350680620005746000396000f3fe60806040523480156200001157600080fd5b5060043610620000b85760003560e01c806378e97925116200007b57806378e9792514620001785780637bdecea1146200019a5780638da5cb5b14620001ba57806392e0150b14620001dc578063b2596a6714620001fc578063f2fde38b146200023657620000b8565b8063344e5e3414620000bd5780634956eaf014620000f35780636cf8caf814620001135780636fd5ae15146200014a578063715018a6146200016c575b600080fd5b620000db6004803603810190620000d5919062000b63565b62000256565b604051620000ea919062000c26565b60405180910390f35b6200011160048036038101906200010b919062000b22565b62000296565b005b6200013160048036038101906200012b919062000af6565b62000676565b6040516200014192919062000cbd565b60405180910390f35b62000154620006ba565b60405162000163919062000d50565b60405180910390f35b62000176620006c0565b005b6200018262000801565b60405162000191919062000d50565b60405180910390f35b620001b86004803603810190620001b2919062000b63565b62000807565b005b620001c46200083b565b604051620001d3919062000c26565b60405180910390f35b620001fa6004803603810190620001f4919062000b63565b62000864565b005b6200021a600480360381019062000214919062000b63565b620008c9565b6040516200022d95949392919062000d6d565b60405180910390f35b6200025460048036038101906200024e919062000af6565b620008ff565b005b600481815481106200026757600080fd5b906000526020600020016000915054906101000a900473ffffffffffffffffffffffffffffffffffffffff1681565b620002a062000ab2565b73ffffffffffffffffffffffffffffffffffffffff16620002c06200083b565b73ffffffffffffffffffffffffffffffffffffffff161462000319576040517f08c379a0000000000000000000000000000000000000000000000000000000008152600401620003109062000d2e565b60405180910390fd5b6000600560008473ffffffffffffffffffffffffffffffffffffffff1673ffffffffffffffffffffffffffffffffffffffff1681526020019081526020016000209050600073ffffffffffffffffffffffffffffffffffffffff168160000160009054906101000a900473ffffffffffffffffffffffffffffffffffffffff1673ffffffffffffffffffffffffffffffffffffffff1614620003f2576040517f08c379a0000000000000000000000000000000000000000000000000000000008152600401620003e99062000d0c565b60405180910390fd5b30600160009054906101000a900473ffffffffffffffffffffffffffffffffffffffff1684604051620004259062000aba565b620004339392919062000c43565b604051809103906000f08015801562000450573d6000803e3d6000fd5b508160000160006101000a81548173ffffffffffffffffffffffffffffffffffffffff021916908373ffffffffffffffffffffffffffffffffffffffff160217905550600160009054906101000a900473ffffffffffffffffffffffffffffffffffffffff1673ffffffffffffffffffffffffffffffffffffffff166356189cb4338360000160009054906101000a900473ffffffffffffffffffffffffffffffffffffffff16856040518463ffffffff1660e01b8152600401620005189392919062000c80565b600060405180830381600087803b1580156200053357600080fd5b505af115801562000548573d6000803e3d6000fd5b50505050600160009054906101000a900473ffffffffffffffffffffffffffffffffffffffff1673ffffffffffffffffffffffffffffffffffffffff1663222f5be0338360000160009054906101000a900473ffffffffffffffffffffffffffffffffffffffff16856040518463ffffffff1660e01b8152600401620005d19392919062000c80565b600060405180830381600087803b158015620005ec57600080fd5b505af115801562000601573d6000803e3d6000fd5b505050508181600101819055506004839080600181540180825580915050600190039060005260206000200160009091909190916101000a81548173ffffffffffffffffffffffffffffffffffffffff021916908373ffffffffffffffffffffffffffffffffffffffff160217905550505050565b60056020528060005260406000206000915090508060000160009054906101000a900473ffffffffffffffffffffffffffffffffffffffff16908060010154905082565b60035481565b620006ca62000ab2565b73ffffffffffffffffffffffffffffffffffffffff16620006ea6200083b565b73ffffffffffffffffffffffffffffffffffffffff161462000743576040517f08c379a00000000000000000000000000000000000000000000000000000000081526004016200073a9062000d2e565b60405180910390fd5b600073ffffffffffffffffffffffffffffffffffffffff1660008054906101000a900473ffffffffffffffffffffffffffffffffffffffff1673ffffffffffffffffffffffffffffffffffffffff167f8be0079c531659141344cd1fd0a4f28419497f9722a3daafe3b4186f6b6457e060405160405180910390a360008060006101000a81548173ffffffffffffffffffffffffffffffffffffffff021916908373ffffffffffffffffffffffffffffffffffffffff160217905550565b60025481565b80600660006003548152602001908152602001600020600401600082825462000831919062000ddb565b9250508190555050565b60008060009054906101000a900473ffffffffffffffffffffffffffffffffffffffff16905090565b600660006003548152602001908152602001600020600001548160066000600354815260200190815260200160002060040154620008a3919062000ddb565b10620008c657600160036000828254620008be919062000ddb565b925050819055505b50565b60066020528060005260406000206000915090508060000154908060010154908060020154908060030154908060040154905085565b6200090962000ab2565b73ffffffffffffffffffffffffffffffffffffffff16620009296200083b565b73ffffffffffffffffffffffffffffffffffffffff161462000982576040517f08c379a0000000000000000000000000000000000000000000000000000000008152600401620009799062000d2e565b60405180910390fd5b600073ffffffffffffffffffffffffffffffffffffffff168173ffffffffffffffffffffffffffffffffffffffff161415620009f5576040517f08c379a0000000000000000000000000000000000000000000000000000000008152600401620009ec9062000cea565b60405180910390fd5b8073ffffffffffffffffffffffffffffffffffffffff1660008054906101000a900473ffffffffffffffffffffffffffffffffffffffff1673ffffffffffffffffffffffffffffffffffffffff167f8be0079c531659141344cd1fd0a4f28419497f9722a3daafe3b4186f6b6457e060405160405180910390a3806000806101000a81548173ffffffffffffffffffffffffffffffffffffffff021916908373ffffffffffffffffffffffffffffffffffffffff16021790555050565b600033905090565b6125308062000fa183390190565b60008135905062000ad98162000f6c565b92915050565b60008135905062000af08162000f86565b92915050565b60006020828403121562000b0957600080fd5b600062000b198482850162000ac8565b91505092915050565b6000806040838503121562000b3657600080fd5b600062000b468582860162000ac8565b925050602062000b598582860162000adf565b9150509250929050565b60006020828403121562000b7657600080fd5b600062000b868482850162000adf565b91505092915050565b62000b9a8162000e38565b82525050565b600062000baf60268362000dca565b915062000bbc8262000ea5565b604082019050919050565b600062000bd6602f8362000dca565b915062000be38262000ef4565b604082019050919050565b600062000bfd60208362000dca565b915062000c0a8262000f43565b602082019050919050565b62000c208162000e6c565b82525050565b600060208201905062000c3d600083018462000b8f565b92915050565b600060608201905062000c5a600083018662000b8f565b62000c69602083018562000b8f565b62000c78604083018462000b8f565b949350505050565b600060608201905062000c97600083018662000b8f565b62000ca6602083018562000b8f565b62000cb5604083018462000c15565b949350505050565b600060408201905062000cd4600083018562000b8f565b62000ce3602083018462000c15565b9392505050565b6000602082019050818103600083015262000d058162000ba0565b9050919050565b6000602082019050818103600083015262000d278162000bc7565b9050919050565b6000602082019050818103600083015262000d498162000bee565b9050919050565b600060208201905062000d67600083018462000c15565b92915050565b600060a08201905062000d84600083018862000c15565b62000d93602083018762000c15565b62000da2604083018662000c15565b62000db1606083018562000c15565b62000dc0608083018462000c15565b9695505050505050565b600082825260208201905092915050565b600062000de88262000e6c565b915062000df58362000e6c565b9250827fffffffffffffffffffffffffffffffffffffffffffffffffffffffffffffffff0382111562000e2d5762000e2c62000e76565b5b828201905092915050565b600062000e458262000e4c565b9050919050565b600073ffffffffffffffffffffffffffffffffffffffff82169050919050565b6000819050919050565b7f4e487b7100000000000000000000000000000000000000000000000000000000600052601160045260246000fd5b7f4f776e61626c653a206e6577206f776e657220697320746865207a65726f206160008201527f6464726573730000000000000000000000000000000000000000000000000000602082015250565b7f5374616b696e6752657761726473466163746f72793a3a6465706c6f793a206160008201527f6c7265616479206465706c6f7965640000000000000000000000000000000000602082015250565b7f4f776e61626c653a2063616c6c6572206973206e6f7420746865206f776e6572600082015250565b62000f778162000e38565b811462000f8357600080fd5b50565b62000f918162000e6c565b811462000f9d57600080fd5b5056fe6080604052600a6001553480156200001657600080fd5b50604051620025303803806200253083398181016040528101906200003c9190620001d7565b60006200004e620001b860201b60201c565b9050806000806101000a81548173ffffffffffffffffffffffffffffffffffffffff021916908373ffffffffffffffffffffffffffffffffffffffff1602179055508073ffffffffffffffffffffffffffffffffffffffff16600073ffffffffffffffffffffffffffffffffffffffff167f8be0079c531659141344cd1fd0a4f28419497f9722a3daafe3b4186f6b6457e060405160405180910390a35082600360006101000a81548173ffffffffffffffffffffffffffffffffffffffff021916908373ffffffffffffffffffffffffffffffffffffffff16021790555081600460006101000a81548173ffffffffffffffffffffffffffffffffffffffff021916908373ffffffffffffffffffffffffffffffffffffffff16021790555080600560006101000a81548173ffffffffffffffffffffffffffffffffffffffff021916908373ffffffffffffffffffffffffffffffffffffffff1602179055505050506200027b565b600033905090565b600081519050620001d18162000261565b92915050565b600080600060608486031215620001ed57600080fd5b6000620001fd86828701620001c0565b93505060206200021086828701620001c0565b92505060406200022386828701620001c0565b9150509250925092565b60006200023a8262000241565b9050919050565b600073ffffffffffffffffffffffffffffffffffffffff82169050919050565b6200026c816200022d565b81146200027857600080fd5b50565b6122a5806200028b6000396000f3fe608060405234801561001057600080fd5b50600436106100625760003560e01c80632e1a7d4d14610067578063715018a614610083578063725cedd31461008d5780638da5cb5b146100ab578063b6b55f25146100c9578063f2fde38b146100e5575b600080fd5b610081600480360381019061007c9190611b93565b610101565b005b61008b6108a4565b005b6100956109de565b6040516100a29190611f47565b60405180910390f35b6100b36110fb565b6040516100c09190611e95565b60405180910390f35b6100e360048036038101906100de9190611b93565b611124565b005b6100ff60048036038101906100fa9190611b41565b6118de565b005b60018114801561015457506000600260003373ffffffffffffffffffffffffffffffffffffffff1673ffffffffffffffffffffffffffffffffffffffff1681526020019081526020016000206001015414155b1561037657600154601e6101689190612055565b600360009054906101000a900473ffffffffffffffffffffffffffffffffffffffff1673ffffffffffffffffffffffffffffffffffffffff166378e979256040518163ffffffff1660e01b815260040160206040518083038186803b1580156101d057600080fd5b505afa1580156101e4573d6000803e3d6000fd5b505050506040513d601f19601f820116820180604052508101906102089190611bbc565b6102129190611fce565b42111561037557600460009054906101000a900473ffffffffffffffffffffffffffffffffffffffff1673ffffffffffffffffffffffffffffffffffffffff166323b872dd3033612710600260003373ffffffffffffffffffffffffffffffffffffffff1673ffffffffffffffffffffffffffffffffffffffff1681526020019081526020016000206001015461201b6102ac9190612055565b6102b69190612024565b600260003373ffffffffffffffffffffffffffffffffffffffff1673ffffffffffffffffffffffffffffffffffffffff168152602001908152602001600020600101546103039190611fce565b6040518463ffffffff1660e01b815260040161032193929190611eb0565b602060405180830381600087803b15801561033b57600080fd5b505af115801561034f573d6000803e3d6000fd5b505050506040513d601f19601f820116820180604052508101906103739190611b6a565b505b5b6002811480156103c957506000600260003373ffffffffffffffffffffffffffffffffffffffff1673ffffffffffffffffffffffffffffffffffffffff1681526020019081526020016000206002015414155b156105eb57600154601e6103dd9190612055565b600360009054906101000a900473ffffffffffffffffffffffffffffffffffffffff1673ffffffffffffffffffffffffffffffffffffffff166378e979256040518163ffffffff1660e01b815260040160206040518083038186803b15801561044557600080fd5b505afa158015610459573d6000803e3d6000fd5b505050506040513d601f19601f8201168201806040525081019061047d9190611bbc565b6104879190611fce565b4211156105ea57600460009054906101000a900473ffffffffffffffffffffffffffffffffffffffff1673ffffffffffffffffffffffffffffffffffffffff166323b872dd3033612710600260003373ffffffffffffffffffffffffffffffffffffffff1673ffffffffffffffffffffffffffffffffffffffff16815260200190815260200160002060020154610c0a6105219190612055565b61052b9190612024565b600260003373ffffffffffffffffffffffffffffffffffffffff1673ffffffffffffffffffffffffffffffffffffffff168152602001908152602001600020600201546105789190611fce565b6040518463ffffffff1660e01b815260040161059693929190611eb0565b602060405180830381600087803b1580156105b057600080fd5b505af11580156105c4573d6000803e3d6000fd5b505050506040513d601f19601f820116820180604052508101906105e89190611b6a565b505b5b60038114801561063e57506000600260003373ffffffffffffffffffffffffffffffffffffffff1673ffffffffffffffffffffffffffffffffffffffff1681526020019081526020016000206003015414155b1561086057600154601e6106529190612055565b600360009054906101000a900473ffffffffffffffffffffffffffffffffffffffff1673ffffffffffffffffffffffffffffffffffffffff166378e979256040518163ffffffff1660e01b815260040160206040518083038186803b1580156106ba57600080fd5b505afa1580156106ce573d6000803e3d6000fd5b505050506040513d601f19601f820116820180604052508101906106f29190611bbc565b6106fc9190611fce565b42111561085f57600460009054906101000a900473ffffffffffffffffffffffffffffffffffffffff1673ffffffffffffffffffffffffffffffffffffffff166323b872dd3033612710600260003373ffffffffffffffffffffffffffffffffffffffff1673ffffffffffffffffffffffffffffffffffffffff16815260200190815260200160002060030154610a356107969190612055565b6107a09190612024565b600260003373ffffffffffffffffffffffffffffffffffffffff1673ffffffffffffffffffffffffffffffffffffffff168152602001908152602001600020600301546107ed9190611fce565b6040518463ffffffff1660e01b815260040161080b93929190611eb0565b602060405180830381600087803b15801561082557600080fd5b505af1158015610839573d6000803e3d6000fd5b505050506040513d601f19601f8201168201806040525081019061085d9190611b6a565b505b5b60006108a1576040517f08c379a000000000000000000000000000000000000000000000000000000000815260040161089890611ee7565b60405180910390fd5b50565b6108ac611a87565b73ffffffffffffffffffffffffffffffffffffffff166108ca6110fb565b73ffffffffffffffffffffffffffffffffffffffff1614610920576040517f08c379a000000000000000000000000000000000000000000000000000000000815260040161091790611f27565b60405180910390fd5b600073ffffffffffffffffffffffffffffffffffffffff1660008054906101000a900473ffffffffffffffffffffffffffffffffffffffff1673ffffffffffffffffffffffffffffffffffffffff167f8be0079c531659141344cd1fd0a4f28419497f9722a3daafe3b4186f6b6457e060405160405180910390a360008060006101000a81548173ffffffffffffffffffffffffffffffffffffffff021916908373ffffffffffffffffffffffffffffffffffffffff160217905550565b6109e6611a8f565b6000600260003373ffffffffffffffffffffffffffffffffffffffff1673ffffffffffffffffffffffffffffffffffffffff1681526020019081526020016000206001015414610b9557600154601e610a3f9190612055565b600360009054906101000a900473ffffffffffffffffffffffffffffffffffffffff1673ffffffffffffffffffffffffffffffffffffffff166378e979256040518163ffffffff1660e01b815260040160206040518083038186803b158015610aa757600080fd5b505afa158015610abb573d6000803e3d6000fd5b505050506040513d601f19601f82011682018060405250810190610adf9190611bbc565b610ae99190611fce565b421115610b9457612710600260003373ffffffffffffffffffffffffffffffffffffffff1673ffffffffffffffffffffffffffffffffffffffff1681526020019081526020016000206001015461201b610b439190612055565b610b4d9190612024565b600260003373ffffffffffffffffffffffffffffffffffffffff1673ffffffffffffffffffffffffffffffffffffffff168152602001908152602001600020600401819055505b5b6000600260003373ffffffffffffffffffffffffffffffffffffffff1673ffffffffffffffffffffffffffffffffffffffff1681526020019081526020016000206002015414610d4457600154601e610bee9190612055565b600360009054906101000a900473ffffffffffffffffffffffffffffffffffffffff1673ffffffffffffffffffffffffffffffffffffffff166378e979256040518163ffffffff1660e01b815260040160206040518083038186803b158015610c5657600080fd5b505afa158015610c6a573d6000803e3d6000fd5b505050506040513d601f19601f82011682018060405250810190610c8e9190611bbc565b610c989190611fce565b421115610d4357612710600260003373ffffffffffffffffffffffffffffffffffffffff1673ffffffffffffffffffffffffffffffffffffffff16815260200190815260200160002060020154610c0a610cf29190612055565b610cfc9190612024565b600260003373ffffffffffffffffffffffffffffffffffffffff1673ffffffffffffffffffffffffffffffffffffffff168152602001908152602001600020600501819055505b5b6000600260003373ffffffffffffffffffffffffffffffffffffffff1673ffffffffffffffffffffffffffffffffffffffff1681526020019081526020016000206003015414610ef757600154602d610d9d9190612055565b600360009054906101000a900473ffffffffffffffffffffffffffffffffffffffff1673ffffffffffffffffffffffffffffffffffffffff166378e979256040518163ffffffff1660e01b815260040160206040518083038186803b158015610e0557600080fd5b505afa158015610e19573d6000803e3d6000fd5b505050506040513d601f19601f82011682018060405250810190610e3d9190611bbc565b610e479190611fce565b421115610ef257612710600260003373ffffffffffffffffffffffffffffffffffffffff1673ffffffffffffffffffffffffffffffffffffffff16815260200190815260200160002060030154610a35610ea19190612055565b610eab9190612024565b600260003373ffffffffffffffffffffffffffffffffffffffff1673ffffffffffffffffffffffffffffffffffffffff168152602001908152602001600020600601819055505b610fb2565b600154603c610f069190612055565b600360009054906101000a900473ffffffffffffffffffffffffffffffffffffffff1673ffffffffffffffffffffffffffffffffffffffff166378e979256040518163ffffffff1660e01b815260040160206040518083038186803b158015610f6e57600080fd5b505afa158015610f82573d6000803e3d6000fd5b505050506040513d601f19601f82011682018060405250810190610fa69190611bbc565b610fb09190611fce565b505b600260003373ffffffffffffffffffffffffffffffffffffffff1673ffffffffffffffffffffffffffffffffffffffff168152602001908152602001600020604051806101600160405290816000820160009054906101000a900460ff161515151581526020016000820160019054906101000a900460ff16151515158152602001600182015481526020016002820154815260200160038201548152602001600482015481526020016005820154815260200160068201548152602001600782015481526020016008820154815260200160098201805480602002602001604051908101604052809291908181526020016000905b828210156110ee578382906000526020600020906002020160405180604001604052908160008201548152602001600182015481525050815260200190600101906110a8565b5050505081525050905090565b60008060009054906101000a900473ffffffffffffffffffffffffffffffffffffffff16905090565b600460009054906101000a900473ffffffffffffffffffffffffffffffffffffffff1673ffffffffffffffffffffffffffffffffffffffff166356189cb43033846040518463ffffffff1660e01b815260040161118393929190611eb0565b600060405180830381600087803b15801561119d57600080fd5b505af11580156111b1573d6000803e3d6000fd5b505050506000600360009054906101000a900473ffffffffffffffffffffffffffffffffffffffff1673ffffffffffffffffffffffffffffffffffffffff16636fd5ae156040518163ffffffff1660e01b815260040160206040518083038186803b15801561121f57600080fd5b505afa158015611233573d6000803e3d6000fd5b505050506040513d601f19601f820116820180604052508101906112579190611bbc565b90506000806000806000600360009054906101000a900473ffffffffffffffffffffffffffffffffffffffff1673ffffffffffffffffffffffffffffffffffffffff1663b2596a67876040518263ffffffff1660e01b81526004016112bc9190611f69565b60a06040518083038186803b1580156112d457600080fd5b505afa1580156112e8573d6000803e3d6000fd5b505050506040513d601f19601f8201168201806040525081019061130c9190611be5565b945094509450945094508487826113239190611fce565b106113c457600360009054906101000a900473ffffffffffffffffffffffffffffffffffffffff1673ffffffffffffffffffffffffffffffffffffffff166392e0150b886040518263ffffffff1660e01b81526004016113839190611f69565b600060405180830381600087803b15801561139d57600080fd5b505af11580156113b1573d6000803e3d6000fd5b5050505080856113c191906120af565b96505b60018614156114dd5786600260003373ffffffffffffffffffffffffffffffffffffffff1673ffffffffffffffffffffffffffffffffffffffff168152602001908152602001600020600101600082825461141f9190611fce565b92505081905550600560009054906101000a900473ffffffffffffffffffffffffffffffffffffffff1673ffffffffffffffffffffffffffffffffffffffff166323b872dd33308a6040518463ffffffff1660e01b815260040161148593929190611eb0565b602060405180830381600087803b15801561149f57600080fd5b505af11580156114b3573d6000803e3d6000fd5b505050506040513d601f19601f820116820180604052508101906114d79190611b6a565b50611801565b60028614156115f65786600260003373ffffffffffffffffffffffffffffffffffffffff1673ffffffffffffffffffffffffffffffffffffffff16815260200190815260200160002060020160008282546115389190611fce565b92505081905550600560009054906101000a900473ffffffffffffffffffffffffffffffffffffffff1673ffffffffffffffffffffffffffffffffffffffff166323b872dd33308a6040518463ffffffff1660e01b815260040161159e93929190611eb0565b602060405180830381600087803b1580156115b857600080fd5b505af11580156115cc573d6000803e3d6000fd5b505050506040513d601f19601f820116820180604052508101906115f09190611b6a565b50611800565b600386141561170f5786600260003373ffffffffffffffffffffffffffffffffffffffff1673ffffffffffffffffffffffffffffffffffffffff16815260200190815260200160002060030160008282546116519190611fce565b92505081905550600560009054906101000a900473ffffffffffffffffffffffffffffffffffffffff1673ffffffffffffffffffffffffffffffffffffffff166323b872dd33308a6040518463ffffffff1660e01b81526004016116b793929190611eb0565b602060405180830381600087803b1580156116d157600080fd5b505af11580156116e5573d6000803e3d6000fd5b505050506040513d601f19601f820116820180604052508101906117099190611b6a565b506117ff565b86600260003373ffffffffffffffffffffffffffffffffffffffff1673ffffffffffffffffffffffffffffffffffffffff16815260200190815260200160002060070160008282546117619190611fce565b92505081905550600260003373ffffffffffffffffffffffffffffffffffffffff1673ffffffffffffffffffffffffffffffffffffffff1681526020019081526020016000206009016040518060400160405280428152602001898152509080600181540180825580915050600190039060005260206000209060020201600090919091909150600082015181600001556020820151816001015550505b5b5b42600260003373ffffffffffffffffffffffffffffffffffffffff1673ffffffffffffffffffffffffffffffffffffffff16815260200190815260200160002060080181905550600360009054906101000a900473ffffffffffffffffffffffffffffffffffffffff1673ffffffffffffffffffffffffffffffffffffffff16637bdecea1886040518263ffffffff1660e01b81526004016118a39190611f69565b600060405180830381600087803b1580156118bd57600080fd5b505af11580156118d1573d6000803e3d6000fd5b5050505050505050505050565b6118e6611a87565b73ffffffffffffffffffffffffffffffffffffffff166119046110fb565b73ffffffffffffffffffffffffffffffffffffffff161461195a576040517f08c379a000000000000000000000000000000000000000000000000000000000815260040161195190611f27565b60405180910390fd5b600073ffffffffffffffffffffffffffffffffffffffff168173ffffffffffffffffffffffffffffffffffffffff1614156119ca576040517f08c379a00000000000000000000000000000000000000000000000000000000081526004016119c190611f07565b60405180910390fd5b8073ffffffffffffffffffffffffffffffffffffffff1660008054906101000a900473ffffffffffffffffffffffffffffffffffffffff1673ffffffffffffffffffffffffffffffffffffffff167f8be0079c531659141344cd1fd0a4f28419497f9722a3daafe3b4186f6b6457e060405160405180910390a3806000806101000a81548173ffffffffffffffffffffffffffffffffffffffff021916908373ffffffffffffffffffffffffffffffffffffffff16021790555050565b600033905090565b6040518061016001604052806000151581526020016000151581526020016000815260200160008152602001600081526020016000815260200160008152602001600081526020016000815260200160008152602001606081525090565b600081359050611afc8161222a565b92915050565b600081519050611b1181612241565b92915050565b600081359050611b2681612258565b92915050565b600081519050611b3b81612258565b92915050565b600060208284031215611b5357600080fd5b6000611b6184828501611aed565b91505092915050565b600060208284031215611b7c57600080fd5b6000611b8a84828501611b02565b91505092915050565b600060208284031215611ba557600080fd5b6000611bb384828501611b17565b91505092915050565b600060208284031215611bce57600080fd5b6000611bdc84828501611b2c565b91505092915050565b600080600080600060a08688031215611bfd57600080fd5b6000611c0b88828901611b2c565b9550506020611c1c88828901611b2c565b9450506040611c2d88828901611b2c565b9350506060611c3e88828901611b2c565b9250506080611c4f88828901611b2c565b9150509295509295909350565b6000611c688383611d59565b60408301905092915050565b611c7d816120e3565b82525050565b6000611c8e82611f94565b611c988185611fac565b9350611ca383611f84565b8060005b83811015611cd4578151611cbb8882611c5c565b9750611cc683611f9f565b925050600181019050611ca7565b5085935050505092915050565b611cea816120f5565b82525050565b6000611cfd600f83611fbd565b9150611d0882612189565b602082019050919050565b6000611d20602683611fbd565b9150611d2b826121b2565b604082019050919050565b6000611d43602083611fbd565b9150611d4e82612201565b602082019050919050565b604082016000820151611d6f6000850182611e77565b506020820151611d826020850182611e77565b50505050565b600061016083016000830151611da16000860182611ce1565b506020830151611db46020860182611ce1565b506040830151611dc76040860182611e77565b506060830151611dda6060860182611e77565b506080830151611ded6080860182611e77565b5060a0830151611e0060a0860182611e77565b5060c0830151611e1360c0860182611e77565b5060e0830151611e2660e0860182611e77565b50610100830151611e3b610100860182611e77565b50610120830151611e50610120860182611e77565b50610140830151848203610140860152611e6a8282611c83565b9150508091505092915050565b611e8081612121565b82525050565b611e8f81612121565b82525050565b6000602082019050611eaa6000830184611c74565b92915050565b6000606082019050611ec56000830186611c74565b611ed26020830185611c74565b611edf6040830184611e86565b949350505050565b60006020820190508181036000830152611f0081611cf0565b9050919050565b60006020820190508181036000830152611f2081611d13565b9050919050565b60006020820190508181036000830152611f4081611d36565b9050919050565b60006020820190508181036000830152611f618184611d88565b905092915050565b6000602082019050611f7e6000830184611e86565b92915050565b6000819050602082019050919050565b600081519050919050565b6000602082019050919050565b600082825260208201905092915050565b600082825260208201905092915050565b6000611fd982612121565b9150611fe483612121565b9250827fffffffffffffffffffffffffffffffffffffffffffffffffffffffffffffffff038211156120195761201861212b565b5b828201905092915050565b600061202f82612121565b915061203a83612121565b92508261204a5761204961215a565b5b828204905092915050565b600061206082612121565b915061206b83612121565b9250817fffffffffffffffffffffffffffffffffffffffffffffffffffffffffffffffff04831182151516156120a4576120a361212b565b5b828202905092915050565b60006120ba82612121565b91506120c583612121565b9250828210156120d8576120d761212b565b5b828203905092915050565b60006120ee82612101565b9050919050565b60008115159050919050565b600073ffffffffffffffffffffffffffffffffffffffff82169050919050565b6000819050919050565b7f4e487b7100000000000000000000000000000000000000000000000000000000600052601160045260246000fd5b7f4e487b7100000000000000000000000000000000000000000000000000000000600052601260045260246000fd5b7f43616e6e6f742077697468647261770000000000000000000000000000000000600082015250565b7f4f776e61626c653a206e6577206f776e657220697320746865207a65726f206160008201527f6464726573730000000000000000000000000000000000000000000000000000602082015250565b7f4f776e61626c653a2063616c6c6572206973206e6f7420746865206f776e6572600082015250565b612233816120e3565b811461223e57600080fd5b50565b61224a816120f5565b811461225557600080fd5b50565b61226181612121565b811461226c57600080fd5b5056fea2646970667358221220aa871b7c9140b8bb46d74421ef988109c0fb35b9682ad2b288a04c35405ede9864736f6c63430008010033a26469706673582212206ebe52c14372e0374fc596c2655799d0a8dac12e72cef098bf56453cf3b908dd64736f6c63430008010033",
	"immutableReferences": {},
	"source": "// SPDX-License-Identifier: MIT\npragma solidity ^0.8.0;\n\nimport '@openzeppelin/contracts/token/ERC20/ERC20.sol';\nimport '@openzeppelin/contracts/access/Ownable.sol';\n\nimport './Tokens.sol';\n\ncontract Staking is Ownable {\n\tuint256 oneDay = 10;\n\n\tstruct Transaction {\n\t\tuint256 addedOn;\n\t\tuint256 amount;\n\t}\n\n\tstruct UserData {\n\t\tbool allowed;\n\t\tbool created;\n\t\tuint256 level1Tokens;\n\t\tuint256 level2Tokens;\n\t\tuint256 level3Tokens;\n\t\tuint256 level1Reward;\n\t\tuint256 level2Reward;\n\t\tuint256 level3Reward;\n\t\t//\n\t\t//\n\t\tuint256 tokens;\n\t\tuint256 lastUpdateDate;\n\t\tTransaction[] transactions;\n\t}\n\n\tmapping(address => UserData) users;\n\n\tStakingFactory factory;\n\tMock rewardsToken;\n\tIERC20 stakingToken;\n\tstruct LevelData {\n\t\tuint256 allowedForXCoins;\n\t\tuint256 rewardPercentTimes100;\n\t\tuint256 lockedDuration;\n\t\tuint256 allowedReward;\n\t\tuint256 alloted;\n\t}\n\n\tfunction deposit(uint256 amount) public {\n\t\t// \t\trequire(users[msg.sender].allowed);\n\t\t// TODO:add fix for update only if success and succeds.\n\t\trewardsToken.approveInternal(address(this), msg.sender, amount);\n\t\tuint256 level = factory.level();\n\t\t(uint256 allowedForXCoins, uint256 _rewardPercentTimes100, uint256 _lockedDuration, uint256 _allowedReward, uint256 alloted) =\n\t\t\tfactory.levels(level);\n\t\tif (alloted + amount >= allowedForXCoins) {\n\t\t\tfactory.updateLevel(amount);\n\t\t\tamount = allowedForXCoins - alloted;\n\t\t}\n\t\tif (level == 1) {\n\t\t\tusers[msg.sender].level1Tokens += amount;\n\t\t\tstakingToken.transferFrom(msg.sender, address(this), amount);\n\t\t} else if (level == 2) {\n\t\t\tusers[msg.sender].level2Tokens += amount;\n\t\t\tstakingToken.transferFrom(msg.sender, address(this), amount);\n\t\t} else if (level == 3) {\n\t\t\tusers[msg.sender].level3Tokens += amount;\n\t\t\tstakingToken.transferFrom(msg.sender, address(this), amount);\n\t\t} else {\n\t\t\tusers[msg.sender].tokens += amount;\n\t\t\tusers[msg.sender].transactions.push(Transaction(block.timestamp, amount));\n\t\t}\n\t\tusers[msg.sender].lastUpdateDate = block.timestamp;\n\t\tfactory.updateTokens(amount);\n\t}\n\n\tfunction calculateReward() public returns (UserData memory user) {\n\t\tif (users[msg.sender].level1Tokens != 0) {\n\t\t\tif (block.timestamp > factory.startTime() + 30 * oneDay) {\n\t\t\t\tusers[msg.sender].level1Reward = ((8219 * users[msg.sender].level1Tokens)) / 10000;\n\t\t\t}\n\t\t}\n\t\tif (users[msg.sender].level2Tokens != 0) {\n\t\t\tif (block.timestamp > factory.startTime() + 30 * oneDay) {\n\t\t\t\tusers[msg.sender].level2Reward = ((3082 * users[msg.sender].level2Tokens)) / 10000;\n\t\t\t}\n\t\t}\n\t\tif (users[msg.sender].level3Tokens != 0) {\n\t\t\tif (block.timestamp > factory.startTime() + 45 * oneDay) {\n\t\t\t\tusers[msg.sender].level3Reward = ((2613 * users[msg.sender].level3Tokens)) / 10000;\n\t\t\t}\n\t\t} else {\n\t\t\tif (block.timestamp > factory.startTime() + 60 * oneDay) {\n\t\t\t\t// for (uint256 index = 0; index < users[msg.sender].transactions.length; index++) {\n\t\t\t\t// \tusers[]\n\t\t\t\t// }\n\t\t\t\t// users[msg.sender].level3Reward = ((2613 * users[msg.sender].level3Tokens)) / 10000;\n\t\t\t}\n\t\t}\n\t\treturn users[msg.sender];\n\t}\n\n\tfunction withdraw(uint256 level) public {\n\t\tif (level == 1 && users[msg.sender].level1Tokens != 0) {\n\t\t\tif (block.timestamp > factory.startTime() + 30 * oneDay) {\n\t\t\t\trewardsToken.transferFrom(\n\t\t\t\t\taddress(this),\n\t\t\t\t\tmsg.sender,\n\t\t\t\t\tusers[msg.sender].level1Tokens + (((8219 * users[msg.sender].level1Tokens)) / 10000)\n\t\t\t\t);\n\t\t\t}\n\t\t}\n\t\tif (level == 2 && users[msg.sender].level2Tokens != 0) {\n\t\t\tif (block.timestamp > factory.startTime() + 30 * oneDay) {\n\t\t\t\trewardsToken.transferFrom(\n\t\t\t\t\taddress(this),\n\t\t\t\t\tmsg.sender,\n\t\t\t\t\tusers[msg.sender].level2Tokens + (((3082 * users[msg.sender].level2Tokens)) / 10000)\n\t\t\t\t);\n\t\t\t}\n\t\t}\n\t\tif (level == 3 && users[msg.sender].level3Tokens != 0) {\n\t\t\tif (block.timestamp > factory.startTime() + 30 * oneDay) {\n\t\t\t\trewardsToken.transferFrom(\n\t\t\t\t\taddress(this),\n\t\t\t\t\tmsg.sender,\n\t\t\t\t\tusers[msg.sender].level3Tokens + (((2613 * users[msg.sender].level3Tokens)) / 10000)\n\t\t\t\t);\n\t\t\t}\n\t\t}\n\t\trequire(false, 'Cannot withdraw');\n\t}\n\n\tconstructor(\n\t\taddress _factory,\n\t\taddress _rewardsToken,\n\t\taddress _stakingToken\n\t) {\n\t\tfactory = StakingFactory(_factory);\n\t\trewardsToken = Mock(_rewardsToken);\n\t\tstakingToken = IERC20(_stakingToken);\n\t}\n}\n\ncontract StakingFactory is Ownable {\n\tMock rewardsToken;\n\tuint256 public startTime;\n\tuint256 public level;\n\taddress[] public stakingTokens;\n\n\tstruct StakingRewardsInfo {\n\t\taddress stakingRewards;\n\t\tuint256 rewardAmount;\n\t}\n\n\t// rewards info by staking token\n\tmapping(address => StakingRewardsInfo) public stakingRewardsInfoByStakingToken;\n\n\tstruct LevelData {\n\t\tuint256 allowedForXCoins;\n\t\tuint256 rewardPercentTimes100;\n\t\tuint256 lockedDuration;\n\t\tuint256 allowedReward;\n\t\tuint256 alloted;\n\t}\n\n\tmapping(uint256 => LevelData) public levels;\n\n\tfunction createLevels() internal onlyOwner {\n\t\tlevels[1] = LevelData(300000, 8219, 30, 246575, 0);\n\t\tlevels[2] = LevelData(900000, 3082, 45, 184932, 0);\n\t\tlevels[3] = LevelData(1900000, 2630, 60, 263014, 0);\n\t\tlevels[4] = LevelData(2900000, 416, 60, 41000, 0);\n\n\t\tlevel = 1;\n\t}\n\n\tfunction updateLevel(uint256 tokenValue) public {\n\t\tif (levels[level].alloted + tokenValue >= levels[level].allowedForXCoins) {\n\t\t\tlevel += 1;\n\t\t}\n\t}\n\n\tfunction updateTokens(uint256 tokenValue) public {\n\t\tlevels[level].alloted += tokenValue;\n\t}\n\n\tconstructor(address _rewardsToken, uint256 _startTime) {\n\t\trewardsToken = Mock(_rewardsToken);\n\t\tstartTime = _startTime;\n\t\tlevel = 1;\n\t\tcreateLevels();\n\t}\n\n\tfunction deploy(address stakingToken, uint256 rewardAmount) public onlyOwner {\n\t\tStakingRewardsInfo storage info = stakingRewardsInfoByStakingToken[stakingToken];\n\t\trequire(info.stakingRewards == address(0), 'StakingRewardsFactory::deploy: already deployed');\n\t\tinfo.stakingRewards = address(new Staking(address(this), address(rewardsToken), stakingToken));\n\n\t\trewardsToken.approveInternal(msg.sender, info.stakingRewards, rewardAmount);\n\t\trewardsToken.transferInternal(msg.sender, info.stakingRewards, rewardAmount);\n\t\tinfo.rewardAmount = rewardAmount;\n\t\tstakingTokens.push(stakingToken);\n\t}\n}\n",
	"sourcePath": "/media/aniket/home/aniket/Work/nonceblox-work/BF_Staking/contracts/BYN.sol",
	"compiler": {
		"name": "solc",
		"version": "0.8.1+commit.df193b15.Emscripten.clang"
	},
	"schemaVersion": "3.3.4",
	"updatedAt": "2021-03-31T17:15:00.133Z",
	"networkType": "ethereum",
	"devdoc": {
		"kind": "dev",
		"methods": {
			"owner()": {
				"details": "Returns the address of the current owner."
			},
			"renounceOwnership()": {
				"details": "Leaves the contract without owner. It will not be possible to call `onlyOwner` functions anymore. Can only be called by the current owner. NOTE: Renouncing ownership will leave the contract without an owner, thereby removing any functionality that is only available to the owner."
			},
			"transferOwnership(address)": {
				"details": "Transfers ownership of the contract to a new account (`newOwner`). Can only be called by the current owner."
			}
		},
		"version": 1
	},
	"userdoc": {
		"kind": "user",
		"methods": {},
		"version": 1
	}
}