{
	"contractName": "Staking",
	"abi": [
		{
			"inputs": [
				{
					"internalType": "address",
					"name": "_factory",
					"type": "address"
				},
				{
					"internalType": "address",
					"name": "_rewardsToken",
					"type": "address"
				},
				{
					"internalType": "address",
					"name": "_stakingToken",
					"type": "address"
				}
			],
			"stateMutability": "nonpayable",
			"type": "constructor"
		},
		{
			"inputs": [
				{
					"internalType": "uint256",
					"name": "amount",
					"type": "uint256"
				}
			],
			"name": "deposit",
			"outputs": [],
			"stateMutability": "nonpayable",
			"type": "function"
		},
		{
			"inputs": [],
			"name": "calculateReward",
			"outputs": [
				{
					"components": [
						{
							"internalType": "bool",
							"name": "allowed",
							"type": "bool"
						},
						{
							"internalType": "bool",
							"name": "created",
							"type": "bool"
						},
						{
							"internalType": "uint256",
							"name": "level1Tokens",
							"type": "uint256"
						},
						{
							"internalType": "uint256",
							"name": "level2Tokens",
							"type": "uint256"
						},
						{
							"internalType": "uint256",
							"name": "level3Tokens",
							"type": "uint256"
						},
						{
							"internalType": "uint256",
							"name": "level1Reward",
							"type": "uint256"
						},
						{
							"internalType": "uint256",
							"name": "level2Reward",
							"type": "uint256"
						},
						{
							"internalType": "uint256",
							"name": "level3Reward",
							"type": "uint256"
						},
						{
							"internalType": "uint256",
							"name": "tokens",
							"type": "uint256"
						},
						{
							"internalType": "uint256",
							"name": "lastUpdateDate",
							"type": "uint256"
						},
						{
							"components": [
								{
									"internalType": "uint256",
									"name": "addedOn",
									"type": "uint256"
								},
								{
									"internalType": "uint256",
									"name": "amount",
									"type": "uint256"
								}
							],
							"internalType": "struct Staking.Transaction[]",
							"name": "transactions",
							"type": "tuple[]"
						}
					],
					"internalType": "struct Staking.UserData",
					"name": "user",
					"type": "tuple"
				}
			],
			"stateMutability": "nonpayable",
			"type": "function"
		},
		{
			"inputs": [
				{
					"internalType": "uint256",
					"name": "level",
					"type": "uint256"
				}
			],
			"name": "withdraw",
			"outputs": [],
			"stateMutability": "nonpayable",
			"type": "function"
		}
	],
	"bytecode": "0x6080604052620151806000553480156200001857600080fd5b5060405162001d7438038062001d7483398181016040528101906200003e919062000121565b82600260006101000a81548173ffffffffffffffffffffffffffffffffffffffff021916908373ffffffffffffffffffffffffffffffffffffffff16021790555081600360006101000a81548173ffffffffffffffffffffffffffffffffffffffff021916908373ffffffffffffffffffffffffffffffffffffffff16021790555080600460006101000a81548173ffffffffffffffffffffffffffffffffffffffff021916908373ffffffffffffffffffffffffffffffffffffffff160217905550505050620001c5565b6000815190506200011b81620001ab565b92915050565b6000806000606084860312156200013757600080fd5b600062000147868287016200010a565b93505060206200015a868287016200010a565b92505060406200016d868287016200010a565b9150509250925092565b600062000184826200018b565b9050919050565b600073ffffffffffffffffffffffffffffffffffffffff82169050919050565b620001b68162000177565b8114620001c257600080fd5b50565b611b9f80620001d56000396000f3fe608060405234801561001057600080fd5b50600436106100415760003560e01c80632e1a7d4d14610046578063725cedd314610062578063b6b55f2514610080575b600080fd5b610060600480360381019061005b9190611668565b61009c565b005b61006a61083f565b6040516100779190611904565b60405180910390f35b61009a60048036038101906100959190611668565b610f5c565b005b6001811480156100ef57506000600160003373ffffffffffffffffffffffffffffffffffffffff1673ffffffffffffffffffffffffffffffffffffffff1681526020019081526020016000206001015414155b1561031157600054601e6101039190611a12565b600260009054906101000a900473ffffffffffffffffffffffffffffffffffffffff1673ffffffffffffffffffffffffffffffffffffffff166378e979256040518163ffffffff1660e01b815260040160206040518083038186803b15801561016b57600080fd5b505afa15801561017f573d6000803e3d6000fd5b505050506040513d601f19601f820116820180604052508101906101a39190611691565b6101ad919061198b565b42111561031057600360009054906101000a900473ffffffffffffffffffffffffffffffffffffffff1673ffffffffffffffffffffffffffffffffffffffff166323b872dd3033612710600160003373ffffffffffffffffffffffffffffffffffffffff1673ffffffffffffffffffffffffffffffffffffffff1681526020019081526020016000206001015461201b6102479190611a12565b61025191906119e1565b600160003373ffffffffffffffffffffffffffffffffffffffff1673ffffffffffffffffffffffffffffffffffffffff1681526020019081526020016000206001015461029e919061198b565b6040518463ffffffff1660e01b81526004016102bc939291906118ad565b602060405180830381600087803b1580156102d657600080fd5b505af11580156102ea573d6000803e3d6000fd5b505050506040513d601f19601f8201168201806040525081019061030e919061163f565b505b5b60028114801561036457506000600160003373ffffffffffffffffffffffffffffffffffffffff1673ffffffffffffffffffffffffffffffffffffffff1681526020019081526020016000206002015414155b1561058657600054601e6103789190611a12565b600260009054906101000a900473ffffffffffffffffffffffffffffffffffffffff1673ffffffffffffffffffffffffffffffffffffffff166378e979256040518163ffffffff1660e01b815260040160206040518083038186803b1580156103e057600080fd5b505afa1580156103f4573d6000803e3d6000fd5b505050506040513d601f19601f820116820180604052508101906104189190611691565b610422919061198b565b42111561058557600360009054906101000a900473ffffffffffffffffffffffffffffffffffffffff1673ffffffffffffffffffffffffffffffffffffffff166323b872dd3033612710600160003373ffffffffffffffffffffffffffffffffffffffff1673ffffffffffffffffffffffffffffffffffffffff16815260200190815260200160002060020154610c0a6104bc9190611a12565b6104c691906119e1565b600160003373ffffffffffffffffffffffffffffffffffffffff1673ffffffffffffffffffffffffffffffffffffffff16815260200190815260200160002060020154610513919061198b565b6040518463ffffffff1660e01b8152600401610531939291906118ad565b602060405180830381600087803b15801561054b57600080fd5b505af115801561055f573d6000803e3d6000fd5b505050506040513d601f19601f82011682018060405250810190610583919061163f565b505b5b6003811480156105d957506000600160003373ffffffffffffffffffffffffffffffffffffffff1673ffffffffffffffffffffffffffffffffffffffff1681526020019081526020016000206003015414155b156107fb57600054601e6105ed9190611a12565b600260009054906101000a900473ffffffffffffffffffffffffffffffffffffffff1673ffffffffffffffffffffffffffffffffffffffff166378e979256040518163ffffffff1660e01b815260040160206040518083038186803b15801561065557600080fd5b505afa158015610669573d6000803e3d6000fd5b505050506040513d601f19601f8201168201806040525081019061068d9190611691565b610697919061198b565b4211156107fa57600360009054906101000a900473ffffffffffffffffffffffffffffffffffffffff1673ffffffffffffffffffffffffffffffffffffffff166323b872dd3033612710600160003373ffffffffffffffffffffffffffffffffffffffff1673ffffffffffffffffffffffffffffffffffffffff16815260200190815260200160002060030154610a356107319190611a12565b61073b91906119e1565b600160003373ffffffffffffffffffffffffffffffffffffffff1673ffffffffffffffffffffffffffffffffffffffff16815260200190815260200160002060030154610788919061198b565b6040518463ffffffff1660e01b81526004016107a6939291906118ad565b602060405180830381600087803b1580156107c057600080fd5b505af11580156107d4573d6000803e3d6000fd5b505050506040513d601f19601f820116820180604052508101906107f8919061163f565b505b5b600061083c576040517f08c379a0000000000000000000000000000000000000000000000000000000008152600401610833906118e4565b60405180910390fd5b50565b6108476115a2565b6000600160003373ffffffffffffffffffffffffffffffffffffffff1673ffffffffffffffffffffffffffffffffffffffff16815260200190815260200160002060010154146109f657600054601e6108a09190611a12565b600260009054906101000a900473ffffffffffffffffffffffffffffffffffffffff1673ffffffffffffffffffffffffffffffffffffffff166378e979256040518163ffffffff1660e01b815260040160206040518083038186803b15801561090857600080fd5b505afa15801561091c573d6000803e3d6000fd5b505050506040513d601f19601f820116820180604052508101906109409190611691565b61094a919061198b565b4211156109f557612710600160003373ffffffffffffffffffffffffffffffffffffffff1673ffffffffffffffffffffffffffffffffffffffff1681526020019081526020016000206001015461201b6109a49190611a12565b6109ae91906119e1565b600160003373ffffffffffffffffffffffffffffffffffffffff1673ffffffffffffffffffffffffffffffffffffffff168152602001908152602001600020600401819055505b5b6000600160003373ffffffffffffffffffffffffffffffffffffffff1673ffffffffffffffffffffffffffffffffffffffff1681526020019081526020016000206002015414610ba557600054601e610a4f9190611a12565b600260009054906101000a900473ffffffffffffffffffffffffffffffffffffffff1673ffffffffffffffffffffffffffffffffffffffff166378e979256040518163ffffffff1660e01b815260040160206040518083038186803b158015610ab757600080fd5b505afa158015610acb573d6000803e3d6000fd5b505050506040513d601f19601f82011682018060405250810190610aef9190611691565b610af9919061198b565b421115610ba457612710600160003373ffffffffffffffffffffffffffffffffffffffff1673ffffffffffffffffffffffffffffffffffffffff16815260200190815260200160002060020154610c0a610b539190611a12565b610b5d91906119e1565b600160003373ffffffffffffffffffffffffffffffffffffffff1673ffffffffffffffffffffffffffffffffffffffff168152602001908152602001600020600501819055505b5b6000600160003373ffffffffffffffffffffffffffffffffffffffff1673ffffffffffffffffffffffffffffffffffffffff1681526020019081526020016000206003015414610d5857600054602d610bfe9190611a12565b600260009054906101000a900473ffffffffffffffffffffffffffffffffffffffff1673ffffffffffffffffffffffffffffffffffffffff166378e979256040518163ffffffff1660e01b815260040160206040518083038186803b158015610c6657600080fd5b505afa158015610c7a573d6000803e3d6000fd5b505050506040513d601f19601f82011682018060405250810190610c9e9190611691565b610ca8919061198b565b421115610d5357612710600160003373ffffffffffffffffffffffffffffffffffffffff1673ffffffffffffffffffffffffffffffffffffffff16815260200190815260200160002060030154610a35610d029190611a12565b610d0c91906119e1565b600160003373ffffffffffffffffffffffffffffffffffffffff1673ffffffffffffffffffffffffffffffffffffffff168152602001908152602001600020600601819055505b610e13565b600054603c610d679190611a12565b600260009054906101000a900473ffffffffffffffffffffffffffffffffffffffff1673ffffffffffffffffffffffffffffffffffffffff166378e979256040518163ffffffff1660e01b815260040160206040518083038186803b158015610dcf57600080fd5b505afa158015610de3573d6000803e3d6000fd5b505050506040513d601f19601f82011682018060405250810190610e079190611691565b610e11919061198b565b505b600160003373ffffffffffffffffffffffffffffffffffffffff1673ffffffffffffffffffffffffffffffffffffffff168152602001908152602001600020604051806101600160405290816000820160009054906101000a900460ff161515151581526020016000820160019054906101000a900460ff16151515158152602001600182015481526020016002820154815260200160038201548152602001600482015481526020016005820154815260200160068201548152602001600782015481526020016008820154815260200160098201805480602002602001604051908101604052809291908181526020016000905b82821015610f4f57838290600052602060002090600202016040518060400160405290816000820154815260200160018201548152505081526020019060010190610f09565b5050505081525050905090565b600260009054906101000a900473ffffffffffffffffffffffffffffffffffffffff1673ffffffffffffffffffffffffffffffffffffffff166392e0150b826040518263ffffffff1660e01b8152600401610fb79190611926565b600060405180830381600087803b158015610fd157600080fd5b505af1158015610fe5573d6000803e3d6000fd5b505050506000600260009054906101000a900473ffffffffffffffffffffffffffffffffffffffff1673ffffffffffffffffffffffffffffffffffffffff16636fd5ae156040518163ffffffff1660e01b815260040160206040518083038186803b15801561105357600080fd5b505afa158015611067573d6000803e3d6000fd5b505050506040513d601f19601f8201168201806040525081019061108b9190611691565b905060018114156111a65781600160003373ffffffffffffffffffffffffffffffffffffffff1673ffffffffffffffffffffffffffffffffffffffff16815260200190815260200160002060010160008282546110e8919061198b565b92505081905550600460009054906101000a900473ffffffffffffffffffffffffffffffffffffffff1673ffffffffffffffffffffffffffffffffffffffff166323b872dd3330856040518463ffffffff1660e01b815260040161114e939291906118ad565b602060405180830381600087803b15801561116857600080fd5b505af115801561117c573d6000803e3d6000fd5b505050506040513d601f19601f820116820180604052508101906111a0919061163f565b506114ca565b60028114156112bf5781600160003373ffffffffffffffffffffffffffffffffffffffff1673ffffffffffffffffffffffffffffffffffffffff1681526020019081526020016000206002016000828254611201919061198b565b92505081905550600460009054906101000a900473ffffffffffffffffffffffffffffffffffffffff1673ffffffffffffffffffffffffffffffffffffffff166323b872dd3330856040518463ffffffff1660e01b8152600401611267939291906118ad565b602060405180830381600087803b15801561128157600080fd5b505af1158015611295573d6000803e3d6000fd5b505050506040513d601f19601f820116820180604052508101906112b9919061163f565b506114c9565b60038114156113d85781600160003373ffffffffffffffffffffffffffffffffffffffff1673ffffffffffffffffffffffffffffffffffffffff168152602001908152602001600020600301600082825461131a919061198b565b92505081905550600460009054906101000a900473ffffffffffffffffffffffffffffffffffffffff1673ffffffffffffffffffffffffffffffffffffffff166323b872dd3330856040518463ffffffff1660e01b8152600401611380939291906118ad565b602060405180830381600087803b15801561139a57600080fd5b505af11580156113ae573d6000803e3d6000fd5b505050506040513d601f19601f820116820180604052508101906113d2919061163f565b506114c8565b81600160003373ffffffffffffffffffffffffffffffffffffffff1673ffffffffffffffffffffffffffffffffffffffff168152602001908152602001600020600701600082825461142a919061198b565b92505081905550600160003373ffffffffffffffffffffffffffffffffffffffff1673ffffffffffffffffffffffffffffffffffffffff1681526020019081526020016000206009016040518060400160405280428152602001848152509080600181540180825580915050600190039060005260206000209060020201600090919091909150600082015181600001556020820151816001015550505b5b5b42600160003373ffffffffffffffffffffffffffffffffffffffff1673ffffffffffffffffffffffffffffffffffffffff16815260200190815260200160002060080181905550600260009054906101000a900473ffffffffffffffffffffffffffffffffffffffff1673ffffffffffffffffffffffffffffffffffffffff16637bdecea1836040518263ffffffff1660e01b815260040161156c9190611926565b600060405180830381600087803b15801561158657600080fd5b505af115801561159a573d6000803e3d6000fd5b505050505050565b6040518061016001604052806000151581526020016000151581526020016000815260200160008152602001600081526020016000815260200160008152602001600081526020016000815260200160008152602001606081525090565b60008151905061160f81611b3b565b92915050565b60008135905061162481611b52565b92915050565b60008151905061163981611b52565b92915050565b60006020828403121561165157600080fd5b600061165f84828501611600565b91505092915050565b60006020828403121561167a57600080fd5b600061168884828501611615565b91505092915050565b6000602082840312156116a357600080fd5b60006116b18482850161162a565b91505092915050565b60006116c68383611771565b60408301905092915050565b6116db81611a6c565b82525050565b60006116ec82611951565b6116f68185611969565b935061170183611941565b8060005b8381101561173257815161171988826116ba565b97506117248361195c565b925050600181019050611705565b5085935050505092915050565b61174881611a7e565b82525050565b600061175b600f8361197a565b915061176682611b12565b602082019050919050565b604082016000820151611787600085018261188f565b50602082015161179a602085018261188f565b50505050565b6000610160830160008301516117b9600086018261173f565b5060208301516117cc602086018261173f565b5060408301516117df604086018261188f565b5060608301516117f2606086018261188f565b506080830151611805608086018261188f565b5060a083015161181860a086018261188f565b5060c083015161182b60c086018261188f565b5060e083015161183e60e086018261188f565b5061010083015161185361010086018261188f565b5061012083015161186861012086018261188f565b5061014083015184820361014086015261188282826116e1565b9150508091505092915050565b61189881611aaa565b82525050565b6118a781611aaa565b82525050565b60006060820190506118c260008301866116d2565b6118cf60208301856116d2565b6118dc604083018461189e565b949350505050565b600060208201905081810360008301526118fd8161174e565b9050919050565b6000602082019050818103600083015261191e81846117a0565b905092915050565b600060208201905061193b600083018461189e565b92915050565b6000819050602082019050919050565b600081519050919050565b6000602082019050919050565b600082825260208201905092915050565b600082825260208201905092915050565b600061199682611aaa565b91506119a183611aaa565b9250827fffffffffffffffffffffffffffffffffffffffffffffffffffffffffffffffff038211156119d6576119d5611ab4565b5b828201905092915050565b60006119ec82611aaa565b91506119f783611aaa565b925082611a0757611a06611ae3565b5b828204905092915050565b6000611a1d82611aaa565b9150611a2883611aaa565b9250817fffffffffffffffffffffffffffffffffffffffffffffffffffffffffffffffff0483118215151615611a6157611a60611ab4565b5b828202905092915050565b6000611a7782611a8a565b9050919050565b60008115159050919050565b600073ffffffffffffffffffffffffffffffffffffffff82169050919050565b6000819050919050565b7f4e487b7100000000000000000000000000000000000000000000000000000000600052601160045260246000fd5b7f4e487b7100000000000000000000000000000000000000000000000000000000600052601260045260246000fd5b7f43616e6e6f742077697468647261770000000000000000000000000000000000600082015250565b611b4481611a7e565b8114611b4f57600080fd5b50565b611b5b81611aaa565b8114611b6657600080fd5b5056fea26469706673582212200fecf67eab00a215486f596dc17a795f4e014a31ec4f7e5ce5c01ecac6b9cb7b64736f6c63430008010033",
	"immutableReferences": {},
	"source": "// SPDX-License-Identifier: MIT\npragma solidity ^0.8.0;\n\nimport '@openzeppelin/contracts/token/ERC20/ERC20.sol';\nimport '@openzeppelin/contracts/access/Ownable.sol';\n\ncontract Staking {\n\tuint256 oneDay = 24 * 60 * 60;\n\n\tstruct Transaction {\n\t\tuint256 addedOn;\n\t\tuint256 amount;\n\t}\n\n\tstruct UserData {\n\t\tbool allowed;\n\t\tbool created;\n\t\tuint256 level1Tokens;\n\t\tuint256 level2Tokens;\n\t\tuint256 level3Tokens;\n\t\tuint256 level1Reward;\n\t\tuint256 level2Reward;\n\t\tuint256 level3Reward;\n\t\t//\n\t\t//\n\t\tuint256 tokens;\n\t\tuint256 lastUpdateDate;\n\t\tTransaction[] transactions;\n\t}\n\n\tmapping(address => UserData) users;\n\n\tStakingFactory factory;\n\tIERC20 rewardsToken;\n\tIERC20 stakingToken;\n\n\tfunction deposit(uint256 amount) public {\n\t\t// \t\trequire(users[msg.sender].allowed);\n\t\t// TODO:add fix for update only if success and succeds.\n\t\tfactory.updateLevel(amount);\n\t\tuint256 level = factory.level();\n\t\tif (level == 1) {\n\t\t\tusers[msg.sender].level1Tokens += amount;\n\t\t\tstakingToken.transferFrom(msg.sender, address(this), amount);\n\t\t} else if (level == 2) {\n\t\t\tusers[msg.sender].level2Tokens += amount;\n\t\t\tstakingToken.transferFrom(msg.sender, address(this), amount);\n\t\t} else if (level == 3) {\n\t\t\tusers[msg.sender].level3Tokens += amount;\n\t\t\tstakingToken.transferFrom(msg.sender, address(this), amount);\n\t\t} else {\n\t\t\tusers[msg.sender].tokens += amount;\n\t\t\tusers[msg.sender].transactions.push(Transaction(block.timestamp, amount));\n\t\t}\n\t\tusers[msg.sender].lastUpdateDate = block.timestamp;\n\t\tfactory.updateTokens(amount);\n\t}\n\n\tfunction calculateReward() public returns (UserData memory user) {\n\t\tif (users[msg.sender].level1Tokens != 0) {\n\t\t\tif (block.timestamp > factory.startTime() + 30 * oneDay) {\n\t\t\t\tusers[msg.sender].level1Reward = ((8219 * users[msg.sender].level1Tokens)) / 10000;\n\t\t\t}\n\t\t}\n\t\tif (users[msg.sender].level2Tokens != 0) {\n\t\t\tif (block.timestamp > factory.startTime() + 30 * oneDay) {\n\t\t\t\tusers[msg.sender].level2Reward = ((3082 * users[msg.sender].level2Tokens)) / 10000;\n\t\t\t}\n\t\t}\n\t\tif (users[msg.sender].level3Tokens != 0) {\n\t\t\tif (block.timestamp > factory.startTime() + 45 * oneDay) {\n\t\t\t\tusers[msg.sender].level3Reward = ((2613 * users[msg.sender].level3Tokens)) / 10000;\n\t\t\t}\n\t\t} else {\n\t\t\tif (block.timestamp > factory.startTime() + 60 * oneDay) {\n\t\t\t\t// for (uint256 index = 0; index < users[msg.sender].transactions.length; index++) {\n\t\t\t\t// \tusers[]\n\t\t\t\t// }\n\t\t\t\t// users[msg.sender].level3Reward = ((2613 * users[msg.sender].level3Tokens)) / 10000;\n\t\t\t}\n\t\t}\n\t\treturn users[msg.sender];\n\t}\n\n\tfunction withdraw(uint256 level) public {\n\t\tif (level == 1 && users[msg.sender].level1Tokens != 0) {\n\t\t\tif (block.timestamp > factory.startTime() + 30 * oneDay) {\n\t\t\t\trewardsToken.transferFrom(\n\t\t\t\t\taddress(this),\n\t\t\t\t\tmsg.sender,\n\t\t\t\t\tusers[msg.sender].level1Tokens + ((8219 * users[msg.sender].level1Tokens)) / 10000\n\t\t\t\t);\n\t\t\t}\n\t\t}\n\t\tif (level == 2 && users[msg.sender].level2Tokens != 0) {\n\t\t\tif (block.timestamp > factory.startTime() + 30 * oneDay) {\n\t\t\t\trewardsToken.transferFrom(\n\t\t\t\t\taddress(this),\n\t\t\t\t\tmsg.sender,\n\t\t\t\t\tusers[msg.sender].level2Tokens + ((3082 * users[msg.sender].level2Tokens)) / 10000\n\t\t\t\t);\n\t\t\t}\n\t\t}\n\t\tif (level == 3 && users[msg.sender].level3Tokens != 0) {\n\t\t\tif (block.timestamp > factory.startTime() + 30 * oneDay) {\n\t\t\t\trewardsToken.transferFrom(\n\t\t\t\t\taddress(this),\n\t\t\t\t\tmsg.sender,\n\t\t\t\t\tusers[msg.sender].level3Tokens + ((2613 * users[msg.sender].level3Tokens)) / 10000\n\t\t\t\t);\n\t\t\t}\n\t\t}\n\t\trequire(false, 'Cannot withdraw');\n\t}\n\n\tconstructor(\n\t\taddress _factory,\n\t\taddress _rewardsToken,\n\t\taddress _stakingToken\n\t) {\n\t\tfactory = StakingFactory(_factory);\n\t\trewardsToken = IERC20(_rewardsToken);\n\t\tstakingToken = IERC20(_stakingToken);\n\t}\n}\n\ncontract StakingFactory is Ownable {\n\tIERC20 rewardsToken;\n\tuint256 public startTime;\n\tuint256 public level;\n\taddress[] public stakingTokens;\n\n\tstruct StakingRewardsInfo {\n\t\taddress stakingRewards;\n\t\tuint256 rewardAmount;\n\t}\n\n\t// rewards info by staking token\n\tmapping(address => StakingRewardsInfo) public stakingRewardsInfoByStakingToken;\n\n\tstruct LevelData {\n\t\tuint256 allowedForXCoins;\n\t\tuint256 rewardPercentTimes100;\n\t\tuint256 lockedDuration;\n\t\tuint256 allowedReward;\n\t\tuint256 alloted;\n\t}\n\n\tmapping(uint256 => LevelData) public levels;\n\n\tfunction createLevels() internal onlyOwner {\n\t\tlevels[1] = LevelData(300000, 8219, 30, 246575, 0);\n\t\tlevels[2] = LevelData(900000, 3082, 45, 184932, 0);\n\t\tlevels[3] = LevelData(1900000, 2630, 60, 263014, 0);\n\t\tlevels[4] = LevelData(2900000, 416, 60, 41000, 0);\n\n\t\tlevel = 1;\n\t}\n\n\tfunction updateLevel(uint256 tokenValue) public {\n\t\tif (levels[level].alloted + tokenValue >= levels[level].allowedForXCoins) {\n\t\t\tlevel += 1;\n\t\t}\n\t}\n\n\tfunction updateTokens(uint256 tokenValue) public {\n\t\tlevels[level].alloted += tokenValue;\n\t}\n\n\tconstructor(address _rewardsToken, uint256 _startTime) {\n\t\trewardsToken = IERC20(_rewardsToken);\n\t\tstartTime = _startTime;\n\t\tlevel = 1;\n\t\tcreateLevels();\n\t}\n\n\tfunction deploy(address stakingToken, uint256 rewardAmount) public onlyOwner {\n\t\tStakingRewardsInfo storage info = stakingRewardsInfoByStakingToken[stakingToken];\n\t\trequire(info.stakingRewards == address(0), 'StakingRewardsFactory::deploy: already deployed');\n\n\t\tinfo.stakingRewards = address(new Staking(address(this), address(rewardsToken), stakingToken));\n\t\tinfo.rewardAmount = rewardAmount;\n\t\tstakingTokens.push(stakingToken);\n\t}\n}\n",
	"sourcePath": "/media/aniket/home/aniket/Work/nonceblox-work/BF_Staking/contracts/BYN.sol",
	"compiler": {
		"name": "solc",
		"version": "0.8.1+commit.df193b15.Emscripten.clang"
	},
	"schemaVersion": "3.3.4",
	"updatedAt": "2021-03-31T15:37:56.457Z",
	"devdoc": {
		"kind": "dev",
		"methods": {},
		"version": 1
	},
	"userdoc": {
		"kind": "user",
		"methods": {},
		"version": 1
	}
}