{
	"contractName": "StakingFactory",
	"abi": [
		{
			"inputs": [
				{
					"internalType": "address",
					"name": "_rewardsToken",
					"type": "address"
				},
				{
					"internalType": "uint256",
					"name": "_startTime",
					"type": "uint256"
				}
			],
			"stateMutability": "nonpayable",
			"type": "constructor"
		},
		{
			"anonymous": false,
			"inputs": [
				{
					"indexed": true,
					"internalType": "address",
					"name": "previousOwner",
					"type": "address"
				},
				{
					"indexed": true,
					"internalType": "address",
					"name": "newOwner",
					"type": "address"
				}
			],
			"name": "OwnershipTransferred",
			"type": "event"
		},
		{
			"inputs": [],
			"name": "level",
			"outputs": [
				{
					"internalType": "uint256",
					"name": "",
					"type": "uint256"
				}
			],
			"stateMutability": "view",
			"type": "function",
			"constant": true
		},
		{
			"inputs": [
				{
					"internalType": "uint256",
					"name": "",
					"type": "uint256"
				}
			],
			"name": "levels",
			"outputs": [
				{
					"internalType": "uint256",
					"name": "allowedForXCoins",
					"type": "uint256"
				},
				{
					"internalType": "uint256",
					"name": "rewardPercentTimes100",
					"type": "uint256"
				},
				{
					"internalType": "uint256",
					"name": "lockedDuration",
					"type": "uint256"
				},
				{
					"internalType": "uint256",
					"name": "allowedReward",
					"type": "uint256"
				},
				{
					"internalType": "uint256",
					"name": "alloted",
					"type": "uint256"
				}
			],
			"stateMutability": "view",
			"type": "function",
			"constant": true
		},
		{
			"inputs": [],
			"name": "owner",
			"outputs": [
				{
					"internalType": "address",
					"name": "",
					"type": "address"
				}
			],
			"stateMutability": "view",
			"type": "function",
			"constant": true
		},
		{
			"inputs": [],
			"name": "renounceOwnership",
			"outputs": [],
			"stateMutability": "nonpayable",
			"type": "function"
		},
		{
			"inputs": [],
			"name": "stakingContractAddress",
			"outputs": [
				{
					"internalType": "address",
					"name": "",
					"type": "address"
				}
			],
			"stateMutability": "view",
			"type": "function",
			"constant": true
		},
		{
			"inputs": [
				{
					"internalType": "address",
					"name": "",
					"type": "address"
				}
			],
			"name": "stakingRewardsInfoByStakingToken",
			"outputs": [
				{
					"internalType": "address",
					"name": "stakingRewards",
					"type": "address"
				},
				{
					"internalType": "uint256",
					"name": "rewardAmount",
					"type": "uint256"
				}
			],
			"stateMutability": "view",
			"type": "function",
			"constant": true
		},
		{
			"inputs": [
				{
					"internalType": "uint256",
					"name": "",
					"type": "uint256"
				}
			],
			"name": "stakingTokens",
			"outputs": [
				{
					"internalType": "address",
					"name": "",
					"type": "address"
				}
			],
			"stateMutability": "view",
			"type": "function",
			"constant": true
		},
		{
			"inputs": [],
			"name": "startTime",
			"outputs": [
				{
					"internalType": "uint256",
					"name": "",
					"type": "uint256"
				}
			],
			"stateMutability": "view",
			"type": "function",
			"constant": true
		},
		{
			"inputs": [
				{
					"internalType": "address",
					"name": "newOwner",
					"type": "address"
				}
			],
			"name": "transferOwnership",
			"outputs": [],
			"stateMutability": "nonpayable",
			"type": "function"
		},
		{
			"inputs": [
				{
					"internalType": "address",
					"name": "stakingToken",
					"type": "address"
				},
				{
					"internalType": "uint256",
					"name": "rewardAmount",
					"type": "uint256"
				}
			],
			"name": "deploy",
			"outputs": [],
			"stateMutability": "nonpayable",
			"type": "function"
		},
		{
			"inputs": [
				{
					"internalType": "uint256",
					"name": "tokenValue",
					"type": "uint256"
				}
			],
			"name": "updateLevel",
			"outputs": [],
			"stateMutability": "nonpayable",
			"type": "function"
		},
		{
			"inputs": [
				{
					"internalType": "uint256",
					"name": "tokenValue",
					"type": "uint256"
				}
			],
			"name": "updateTokens",
			"outputs": [],
			"stateMutability": "nonpayable",
			"type": "function"
		},
		{
			"inputs": [],
			"name": "updateLevelCheck",
			"outputs": [],
			"stateMutability": "nonpayable",
			"type": "function"
		}
	],
	"bytecode": "0x60806040523480156200001157600080fd5b5060405162004ac138038062004ac1833981810160405281019062000037919062000376565b6000620000496200014f60201b60201c565b9050806000806101000a81548173ffffffffffffffffffffffffffffffffffffffff021916908373ffffffffffffffffffffffffffffffffffffffff1602179055508073ffffffffffffffffffffffffffffffffffffffff16600073ffffffffffffffffffffffffffffffffffffffff167f8be0079c531659141344cd1fd0a4f28419497f9722a3daafe3b4186f6b6457e060405160405180910390a35081600160006101000a81548173ffffffffffffffffffffffffffffffffffffffff021916908373ffffffffffffffffffffffffffffffffffffffff160217905550806002819055506001600381905550620001476200015760201b60201c565b505062000429565b600033905090565b6040518060a00160405280620186a081526020016113248152602001600f815260200161c0a381526020016000815250600760006001815260200190815260200160002060008201518160000155602082015181600101556040820151816002015560608201518160030155608082015181600401559050506040518060a0016040528062061a8081526020016110048152602001601e81526020016201e19881526020016000815250600760006002815260200190815260200160002060008201518160000155602082015181600101556040820151816002015560608201518160030155608082015181600401559050506040518060a00160405280620c350081526020016110cc8152602001602d81526020016202a23b81526020016000815250600760006003815260200190815260200160002060008201518160000155602082015181600101556040820151816002015560608201518160030155608082015181600401559050506040518060a001604052806216e3608152602001610ce48152602001603c8152602001620382f981526020016000815250600760006004815260200190815260200160002060008201518160000155602082015181600101556040820151816002015560608201518160030155608082015181600401559050506001600381905550565b6000815190506200035981620003f5565b92915050565b60008151905062000370816200040f565b92915050565b600080604083850312156200038a57600080fd5b60006200039a8582860162000348565b9250506020620003ad858286016200035f565b9150509250929050565b6000620003c482620003cb565b9050919050565b600073ffffffffffffffffffffffffffffffffffffffff82169050919050565b6000819050919050565b6200040081620003b7565b81146200040c57600080fd5b50565b6200041a81620003eb565b81146200042657600080fd5b50565b61468880620004396000396000f3fe60806040523480156200001157600080fd5b5060043610620000e25760003560e01c806378e97925116200009957806392e0150b116200006f57806392e0150b1462000228578063b2596a671462000248578063f12ca6981462000282578063f2fde38b146200028e57620000e2565b806378e9792514620001c45780637bdecea114620001e65780638da5cb5b146200020657620000e2565b8063344e5e3414620000e75780633535f48b146200011d5780634956eaf0146200013f5780636cf8caf8146200015f5780636fd5ae151462000196578063715018a614620001b8575b600080fd5b620001056004803603810190620000ff919062000d92565b620002ae565b60405162000114919062000e7c565b60405180910390f35b62000127620002ee565b60405162000136919062000e7c565b60405180910390f35b6200015d600480360381019062000157919062000d51565b62000314565b005b6200017d600480360381019062000177919062000d25565b62000759565b6040516200018d92919062000f13565b60405180910390f35b620001a06200079d565b604051620001af919062000fc8565b60405180910390f35b620001c2620007a3565b005b620001ce620008e4565b604051620001dd919062000fc8565b60405180910390f35b620002046004803603810190620001fe919062000d92565b620008ea565b005b62000210620009b1565b6040516200021f919062000e7c565b60405180910390f35b62000246600480360381019062000240919062000d92565b620009da565b005b62000266600480360381019062000260919062000d92565b62000ad2565b6040516200027995949392919062000fe5565b60405180910390f35b6200028c62000b08565b005b620002ac6004803603810190620002a6919062000d25565b62000b2e565b005b60048181548110620002bf57600080fd5b906000526020600020016000915054906101000a900473ffffffffffffffffffffffffffffffffffffffff1681565b600560009054906101000a900473ffffffffffffffffffffffffffffffffffffffff1681565b6200031e62000ce1565b73ffffffffffffffffffffffffffffffffffffffff166200033e620009b1565b73ffffffffffffffffffffffffffffffffffffffff161462000397576040517f08c379a00000000000000000000000000000000000000000000000000000000081526004016200038e9062000fa6565b60405180910390fd5b6000600660008473ffffffffffffffffffffffffffffffffffffffff1673ffffffffffffffffffffffffffffffffffffffff1681526020019081526020016000209050600073ffffffffffffffffffffffffffffffffffffffff168160000160009054906101000a900473ffffffffffffffffffffffffffffffffffffffff1673ffffffffffffffffffffffffffffffffffffffff161462000470576040517f08c379a0000000000000000000000000000000000000000000000000000000008152600401620004679062000f84565b60405180910390fd5b30600160009054906101000a900473ffffffffffffffffffffffffffffffffffffffff1684604051620004a39062000ce9565b620004b19392919062000e99565b604051809103906000f080158015620004ce573d6000803e3d6000fd5b508160000160006101000a81548173ffffffffffffffffffffffffffffffffffffffff021916908373ffffffffffffffffffffffffffffffffffffffff1602179055508060000160009054906101000a900473ffffffffffffffffffffffffffffffffffffffff16600560006101000a81548173ffffffffffffffffffffffffffffffffffffffff021916908373ffffffffffffffffffffffffffffffffffffffff160217905550600160009054906101000a900473ffffffffffffffffffffffffffffffffffffffff1673ffffffffffffffffffffffffffffffffffffffff166356189cb4338360000160009054906101000a900473ffffffffffffffffffffffffffffffffffffffff16856040518463ffffffff1660e01b8152600401620005fb9392919062000ed6565b600060405180830381600087803b1580156200061657600080fd5b505af11580156200062b573d6000803e3d6000fd5b50505050600160009054906101000a900473ffffffffffffffffffffffffffffffffffffffff1673ffffffffffffffffffffffffffffffffffffffff1663222f5be0338360000160009054906101000a900473ffffffffffffffffffffffffffffffffffffffff16856040518463ffffffff1660e01b8152600401620006b49392919062000ed6565b600060405180830381600087803b158015620006cf57600080fd5b505af1158015620006e4573d6000803e3d6000fd5b505050508181600101819055506004839080600181540180825580915050600190039060005260206000200160009091909190916101000a81548173ffffffffffffffffffffffffffffffffffffffff021916908373ffffffffffffffffffffffffffffffffffffffff160217905550505050565b60066020528060005260406000206000915090508060000160009054906101000a900473ffffffffffffffffffffffffffffffffffffffff16908060010154905082565b60035481565b620007ad62000ce1565b73ffffffffffffffffffffffffffffffffffffffff16620007cd620009b1565b73ffffffffffffffffffffffffffffffffffffffff161462000826576040517f08c379a00000000000000000000000000000000000000000000000000000000081526004016200081d9062000fa6565b60405180910390fd5b600073ffffffffffffffffffffffffffffffffffffffff1660008054906101000a900473ffffffffffffffffffffffffffffffffffffffff1673ffffffffffffffffffffffffffffffffffffffff167f8be0079c531659141344cd1fd0a4f28419497f9722a3daafe3b4186f6b6457e060405160405180910390a360008060006101000a81548173ffffffffffffffffffffffffffffffffffffffff021916908373ffffffffffffffffffffffffffffffffffffffff160217905550565b60025481565b600560009054906101000a900473ffffffffffffffffffffffffffffffffffffffff1673ffffffffffffffffffffffffffffffffffffffff163373ffffffffffffffffffffffffffffffffffffffff16146200097d576040517f08c379a0000000000000000000000000000000000000000000000000000000008152600401620009749062000f62565b60405180910390fd5b806007600060035481526020019081526020016000206004016000828254620009a7919062001053565b9250508190555050565b60008060009054906101000a900473ffffffffffffffffffffffffffffffffffffffff16905090565b600560009054906101000a900473ffffffffffffffffffffffffffffffffffffffff1673ffffffffffffffffffffffffffffffffffffffff163373ffffffffffffffffffffffffffffffffffffffff161462000a6d576040517f08c379a000000000000000000000000000000000000000000000000000000000815260040162000a649062000f62565b60405180910390fd5b60076000600354815260200190815260200160002060000154816007600060035481526020019081526020016000206004015462000aac919062001053565b1062000acf5760016003600082825462000ac7919062001053565b925050819055505b50565b60076020528060005260406000206000915090508060000154908060010154908060020154908060030154908060040154905085565b6201518060025462000b1b919062001053565b42111562000b2c5760046003819055505b565b62000b3862000ce1565b73ffffffffffffffffffffffffffffffffffffffff1662000b58620009b1565b73ffffffffffffffffffffffffffffffffffffffff161462000bb1576040517f08c379a000000000000000000000000000000000000000000000000000000000815260040162000ba89062000fa6565b60405180910390fd5b600073ffffffffffffffffffffffffffffffffffffffff168173ffffffffffffffffffffffffffffffffffffffff16141562000c24576040517f08c379a000000000000000000000000000000000000000000000000000000000815260040162000c1b9062000f40565b60405180910390fd5b8073ffffffffffffffffffffffffffffffffffffffff1660008054906101000a900473ffffffffffffffffffffffffffffffffffffffff1673ffffffffffffffffffffffffffffffffffffffff167f8be0079c531659141344cd1fd0a4f28419497f9722a3daafe3b4186f6b6457e060405160405180910390a3806000806101000a81548173ffffffffffffffffffffffffffffffffffffffff021916908373ffffffffffffffffffffffffffffffffffffffff16021790555050565b600033905090565b6133eb806200126883390190565b60008135905062000d088162001233565b92915050565b60008135905062000d1f816200124d565b92915050565b60006020828403121562000d3857600080fd5b600062000d488482850162000cf7565b91505092915050565b6000806040838503121562000d6557600080fd5b600062000d758582860162000cf7565b925050602062000d888582860162000d0e565b9150509250929050565b60006020828403121562000da557600080fd5b600062000db58482850162000d0e565b91505092915050565b62000dc981620010b0565b82525050565b600062000dde60268362001042565b915062000deb826200111d565b604082019050919050565b600062000e0560248362001042565b915062000e12826200116c565b604082019050919050565b600062000e2c602f8362001042565b915062000e3982620011bb565b604082019050919050565b600062000e5360208362001042565b915062000e60826200120a565b602082019050919050565b62000e7681620010e4565b82525050565b600060208201905062000e93600083018462000dbe565b92915050565b600060608201905062000eb0600083018662000dbe565b62000ebf602083018562000dbe565b62000ece604083018462000dbe565b949350505050565b600060608201905062000eed600083018662000dbe565b62000efc602083018562000dbe565b62000f0b604083018462000e6b565b949350505050565b600060408201905062000f2a600083018562000dbe565b62000f39602083018462000e6b565b9392505050565b6000602082019050818103600083015262000f5b8162000dcf565b9050919050565b6000602082019050818103600083015262000f7d8162000df6565b9050919050565b6000602082019050818103600083015262000f9f8162000e1d565b9050919050565b6000602082019050818103600083015262000fc18162000e44565b9050919050565b600060208201905062000fdf600083018462000e6b565b92915050565b600060a08201905062000ffc600083018862000e6b565b6200100b602083018762000e6b565b6200101a604083018662000e6b565b62001029606083018562000e6b565b62001038608083018462000e6b565b9695505050505050565b600082825260208201905092915050565b60006200106082620010e4565b91506200106d83620010e4565b9250827fffffffffffffffffffffffffffffffffffffffffffffffffffffffffffffffff03821115620010a557620010a4620010ee565b5b828201905092915050565b6000620010bd82620010c4565b9050919050565b600073ffffffffffffffffffffffffffffffffffffffff82169050919050565b6000819050919050565b7f4e487b7100000000000000000000000000000000000000000000000000000000600052601160045260246000fd5b7f4f776e61626c653a206e6577206f776e657220697320746865207a65726f206160008201527f6464726573730000000000000000000000000000000000000000000000000000602082015250565b7f53656e6465722068617320746f2062652061207374616b696e6720636f6e747260008201527f6163742e00000000000000000000000000000000000000000000000000000000602082015250565b7f5374616b696e6752657761726473466163746f72793a3a6465706c6f793a206160008201527f6c7265616479206465706c6f7965640000000000000000000000000000000000602082015250565b7f4f776e61626c653a2063616c6c6572206973206e6f7420746865206f776e6572600082015250565b6200123e81620010b0565b81146200124a57600080fd5b50565b6200125881620010e4565b81146200126457600080fd5b5056fe608060405260026001553480156200001657600080fd5b50604051620033eb380380620033eb83398181016040528101906200003c9190620001d7565b60006200004e620001b860201b60201c565b9050806000806101000a81548173ffffffffffffffffffffffffffffffffffffffff021916908373ffffffffffffffffffffffffffffffffffffffff1602179055508073ffffffffffffffffffffffffffffffffffffffff16600073ffffffffffffffffffffffffffffffffffffffff167f8be0079c531659141344cd1fd0a4f28419497f9722a3daafe3b4186f6b6457e060405160405180910390a35082600260006101000a81548173ffffffffffffffffffffffffffffffffffffffff021916908373ffffffffffffffffffffffffffffffffffffffff16021790555081600360006101000a81548173ffffffffffffffffffffffffffffffffffffffff021916908373ffffffffffffffffffffffffffffffffffffffff16021790555080600460006101000a81548173ffffffffffffffffffffffffffffffffffffffff021916908373ffffffffffffffffffffffffffffffffffffffff1602179055505050506200027b565b600033905090565b600081519050620001d18162000261565b92915050565b600080600060608486031215620001ed57600080fd5b6000620001fd86828701620001c0565b93505060206200021086828701620001c0565b92505060406200022386828701620001c0565b9150509250925092565b60006200023a8262000241565b9050919050565b600073ffffffffffffffffffffffffffffffffffffffff82169050919050565b6200026c816200022d565b81146200027857600080fd5b50565b613160806200028b6000396000f3fe608060405234801561001057600080fd5b50600436106100625760003560e01c80632e1a7d4d14610067578063715018a614610083578063725cedd31461008d5780638da5cb5b146100ab578063b6b55f25146100c9578063f2fde38b146100e5575b600080fd5b610081600480360381019061007c9190612a3b565b610101565b005b61008b611265565b005b61009561139f565b6040516100a29190612df9565b60405180910390f35b6100b3611b71565b6040516100c09190612cdb565b60405180910390f35b6100e360048036038101906100de9190612a3b565b611b9a565b005b6100ff60048036038101906100fa91906129e9565b612671565b005b60018114801561015457506000600560003373ffffffffffffffffffffffffffffffffffffffff1673ffffffffffffffffffffffffffffffffffffffff1681526020019081526020016000206001015414155b15610549576000806000806000600260009054906101000a900473ffffffffffffffffffffffffffffffffffffffff1673ffffffffffffffffffffffffffffffffffffffff1663b2596a6760016040518263ffffffff1660e01b81526004016101bd9190612d2d565b60a06040518083038186803b1580156101d557600080fd5b505afa1580156101e9573d6000803e3d6000fd5b505050506040513d601f19601f8201168201806040525081019061020d9190612a8d565b94509450945094509450600154836102259190612ec8565b600260009054906101000a900473ffffffffffffffffffffffffffffffffffffffff1673ffffffffffffffffffffffffffffffffffffffff166378e979256040518163ffffffff1660e01b815260040160206040518083038186803b15801561028d57600080fd5b505afa1580156102a1573d6000803e3d6000fd5b505050506040513d601f19601f820116820180604052508101906102c59190612a64565b6102cf9190612e41565b42111561053f576000612710600560003373ffffffffffffffffffffffffffffffffffffffff1673ffffffffffffffffffffffffffffffffffffffff16815260200190815260200160002060010154866103299190612ec8565b6103339190612e97565b600560003373ffffffffffffffffffffffffffffffffffffffff1673ffffffffffffffffffffffffffffffffffffffff168152602001908152602001600020600101546103809190612e41565b9050600360009054906101000a900473ffffffffffffffffffffffffffffffffffffffff1673ffffffffffffffffffffffffffffffffffffffff166356189cb43033846040518463ffffffff1660e01b81526004016103e193929190612cf6565b600060405180830381600087803b1580156103fb57600080fd5b505af115801561040f573d6000803e3d6000fd5b50505050600360009054906101000a900473ffffffffffffffffffffffffffffffffffffffff1673ffffffffffffffffffffffffffffffffffffffff1663222f5be03033846040518463ffffffff1660e01b815260040161047293929190612cf6565b600060405180830381600087803b15801561048c57600080fd5b505af11580156104a0573d6000803e3d6000fd5b505050506000600560003373ffffffffffffffffffffffffffffffffffffffff1673ffffffffffffffffffffffffffffffffffffffff168152602001908152602001600020600101819055506000600560003373ffffffffffffffffffffffffffffffffffffffff1673ffffffffffffffffffffffffffffffffffffffff16815260200190815260200160002060050181905550505050505050611262565b5050505050611220565b60028114801561059c57506000600560003373ffffffffffffffffffffffffffffffffffffffff1673ffffffffffffffffffffffffffffffffffffffff1681526020019081526020016000206002015414155b15610991576000806000806000600260009054906101000a900473ffffffffffffffffffffffffffffffffffffffff1673ffffffffffffffffffffffffffffffffffffffff1663b2596a6760026040518263ffffffff1660e01b81526004016106059190612d48565b60a06040518083038186803b15801561061d57600080fd5b505afa158015610631573d6000803e3d6000fd5b505050506040513d601f19601f820116820180604052508101906106559190612a8d565b945094509450945094506001548361066d9190612ec8565b600260009054906101000a900473ffffffffffffffffffffffffffffffffffffffff1673ffffffffffffffffffffffffffffffffffffffff166378e979256040518163ffffffff1660e01b815260040160206040518083038186803b1580156106d557600080fd5b505afa1580156106e9573d6000803e3d6000fd5b505050506040513d601f19601f8201168201806040525081019061070d9190612a64565b6107179190612e41565b421115610987576000612710600560003373ffffffffffffffffffffffffffffffffffffffff1673ffffffffffffffffffffffffffffffffffffffff16815260200190815260200160002060020154866107719190612ec8565b61077b9190612e97565b600560003373ffffffffffffffffffffffffffffffffffffffff1673ffffffffffffffffffffffffffffffffffffffff168152602001908152602001600020600201546107c89190612e41565b9050600360009054906101000a900473ffffffffffffffffffffffffffffffffffffffff1673ffffffffffffffffffffffffffffffffffffffff166356189cb43033846040518463ffffffff1660e01b815260040161082993929190612cf6565b600060405180830381600087803b15801561084357600080fd5b505af1158015610857573d6000803e3d6000fd5b50505050600360009054906101000a900473ffffffffffffffffffffffffffffffffffffffff1673ffffffffffffffffffffffffffffffffffffffff1663222f5be03033846040518463ffffffff1660e01b81526004016108ba93929190612cf6565b600060405180830381600087803b1580156108d457600080fd5b505af11580156108e8573d6000803e3d6000fd5b505050506000600560003373ffffffffffffffffffffffffffffffffffffffff1673ffffffffffffffffffffffffffffffffffffffff168152602001908152602001600020600201819055506000600560003373ffffffffffffffffffffffffffffffffffffffff1673ffffffffffffffffffffffffffffffffffffffff16815260200190815260200160002060060181905550505050505050611262565b505050505061121f565b6003811480156109e457506000600560003373ffffffffffffffffffffffffffffffffffffffff1673ffffffffffffffffffffffffffffffffffffffff1681526020019081526020016000206003015414155b15610dd9576000806000806000600260009054906101000a900473ffffffffffffffffffffffffffffffffffffffff1673ffffffffffffffffffffffffffffffffffffffff1663b2596a6760036040518263ffffffff1660e01b8152600401610a4d9190612d63565b60a06040518083038186803b158015610a6557600080fd5b505afa158015610a79573d6000803e3d6000fd5b505050506040513d601f19601f82011682018060405250810190610a9d9190612a8d565b9450945094509450945060015483610ab59190612ec8565b600260009054906101000a900473ffffffffffffffffffffffffffffffffffffffff1673ffffffffffffffffffffffffffffffffffffffff166378e979256040518163ffffffff1660e01b815260040160206040518083038186803b158015610b1d57600080fd5b505afa158015610b31573d6000803e3d6000fd5b505050506040513d601f19601f82011682018060405250810190610b559190612a64565b610b5f9190612e41565b421115610dcf576000612710600560003373ffffffffffffffffffffffffffffffffffffffff1673ffffffffffffffffffffffffffffffffffffffff1681526020019081526020016000206003015486610bb99190612ec8565b610bc39190612e97565b600560003373ffffffffffffffffffffffffffffffffffffffff1673ffffffffffffffffffffffffffffffffffffffff16815260200190815260200160002060030154610c109190612e41565b9050600360009054906101000a900473ffffffffffffffffffffffffffffffffffffffff1673ffffffffffffffffffffffffffffffffffffffff166356189cb43033846040518463ffffffff1660e01b8152600401610c7193929190612cf6565b600060405180830381600087803b158015610c8b57600080fd5b505af1158015610c9f573d6000803e3d6000fd5b50505050600360009054906101000a900473ffffffffffffffffffffffffffffffffffffffff1673ffffffffffffffffffffffffffffffffffffffff1663222f5be03033846040518463ffffffff1660e01b8152600401610d0293929190612cf6565b600060405180830381600087803b158015610d1c57600080fd5b505af1158015610d30573d6000803e3d6000fd5b505050506000600560003373ffffffffffffffffffffffffffffffffffffffff1673ffffffffffffffffffffffffffffffffffffffff168152602001908152602001600020600301819055506000600560003373ffffffffffffffffffffffffffffffffffffffff1673ffffffffffffffffffffffffffffffffffffffff16815260200190815260200160002060070181905550505050505050611262565b505050505061121e565b600481148015610e2c57506000600560003373ffffffffffffffffffffffffffffffffffffffff1673ffffffffffffffffffffffffffffffffffffffff1681526020019081526020016000206004015414155b1561121d576000806000806000600260009054906101000a900473ffffffffffffffffffffffffffffffffffffffff1673ffffffffffffffffffffffffffffffffffffffff1663b2596a6760046040518263ffffffff1660e01b8152600401610e959190612d7e565b60a06040518083038186803b158015610ead57600080fd5b505afa158015610ec1573d6000803e3d6000fd5b505050506040513d601f19601f82011682018060405250810190610ee59190612a8d565b9450945094509450945060015483610efd9190612ec8565b600260009054906101000a900473ffffffffffffffffffffffffffffffffffffffff1673ffffffffffffffffffffffffffffffffffffffff166378e979256040518163ffffffff1660e01b815260040160206040518083038186803b158015610f6557600080fd5b505afa158015610f79573d6000803e3d6000fd5b505050506040513d601f19601f82011682018060405250810190610f9d9190612a64565b610fa79190612e41565b421115611217576000612710600560003373ffffffffffffffffffffffffffffffffffffffff1673ffffffffffffffffffffffffffffffffffffffff16815260200190815260200160002060040154866110019190612ec8565b61100b9190612e97565b600560003373ffffffffffffffffffffffffffffffffffffffff1673ffffffffffffffffffffffffffffffffffffffff168152602001908152602001600020600401546110589190612e41565b9050600360009054906101000a900473ffffffffffffffffffffffffffffffffffffffff1673ffffffffffffffffffffffffffffffffffffffff166356189cb43033846040518463ffffffff1660e01b81526004016110b993929190612cf6565b600060405180830381600087803b1580156110d357600080fd5b505af11580156110e7573d6000803e3d6000fd5b50505050600360009054906101000a900473ffffffffffffffffffffffffffffffffffffffff1673ffffffffffffffffffffffffffffffffffffffff1663222f5be03033846040518463ffffffff1660e01b815260040161114a93929190612cf6565b600060405180830381600087803b15801561116457600080fd5b505af1158015611178573d6000803e3d6000fd5b505050506000600560003373ffffffffffffffffffffffffffffffffffffffff1673ffffffffffffffffffffffffffffffffffffffff168152602001908152602001600020600401819055506000600560003373ffffffffffffffffffffffffffffffffffffffff1673ffffffffffffffffffffffffffffffffffffffff16815260200190815260200160002060080181905550505050505050611262565b50505050505b5b5b5b6000611261576040517f08c379a000000000000000000000000000000000000000000000000000000000815260040161125890612d99565b60405180910390fd5b5b50565b61126d61281a565b73ffffffffffffffffffffffffffffffffffffffff1661128b611b71565b73ffffffffffffffffffffffffffffffffffffffff16146112e1576040517f08c379a00000000000000000000000000000000000000000000000000000000081526004016112d890612dd9565b60405180910390fd5b600073ffffffffffffffffffffffffffffffffffffffff1660008054906101000a900473ffffffffffffffffffffffffffffffffffffffff1673ffffffffffffffffffffffffffffffffffffffff167f8be0079c531659141344cd1fd0a4f28419497f9722a3daafe3b4186f6b6457e060405160405180910390a360008060006101000a81548173ffffffffffffffffffffffffffffffffffffffff021916908373ffffffffffffffffffffffffffffffffffffffff160217905550565b6113a7612930565b6000600560003373ffffffffffffffffffffffffffffffffffffffff1673ffffffffffffffffffffffffffffffffffffffff168152602001908152602001600020604051806101800160405290816000820160009054906101000a900460ff161515151581526020016000820160019054906101000a900460ff16151515158152602001600182015481526020016002820154815260200160038201548152602001600482015481526020016005820154815260200160068201548152602001600782015481526020016008820154815260200160098201548152602001600a8201548152505090506000816040015114611646576000806000806000600260009054906101000a900473ffffffffffffffffffffffffffffffffffffffff1673ffffffffffffffffffffffffffffffffffffffff1663b2596a6760016040518263ffffffff1660e01b81526004016115009190612d2d565b60a06040518083038186803b15801561151857600080fd5b505afa15801561152c573d6000803e3d6000fd5b505050506040513d601f19601f820116820180604052508101906115509190612a8d565b94509450945094509450600154836115689190612ec8565b600260009054906101000a900473ffffffffffffffffffffffffffffffffffffffff1673ffffffffffffffffffffffffffffffffffffffff166378e979256040518163ffffffff1660e01b815260040160206040518083038186803b1580156115d057600080fd5b505afa1580156115e4573d6000803e3d6000fd5b505050506040513d601f19601f820116820180604052508101906116089190612a64565b6116129190612e41565b4211156116405761271086604001518561162c9190612ec8565b6116369190612e97565b8660c00181815250505b50505050505b60008160600151146117fc576000806000806000600260009054906101000a900473ffffffffffffffffffffffffffffffffffffffff1673ffffffffffffffffffffffffffffffffffffffff1663b2596a6760026040518263ffffffff1660e01b81526004016116b69190612d48565b60a06040518083038186803b1580156116ce57600080fd5b505afa1580156116e2573d6000803e3d6000fd5b505050506040513d601f19601f820116820180604052508101906117069190612a8d565b945094509450945094506001548361171e9190612ec8565b600260009054906101000a900473ffffffffffffffffffffffffffffffffffffffff1673ffffffffffffffffffffffffffffffffffffffff166378e979256040518163ffffffff1660e01b815260040160206040518083038186803b15801561178657600080fd5b505afa15801561179a573d6000803e3d6000fd5b505050506040513d601f19601f820116820180604052508101906117be9190612a64565b6117c89190612e41565b4211156117f6576127108660600151856117e29190612ec8565b6117ec9190612e97565b8660e00181815250505b50505050505b60008160800151146119b3576000806000806000600260009054906101000a900473ffffffffffffffffffffffffffffffffffffffff1673ffffffffffffffffffffffffffffffffffffffff1663b2596a6760036040518263ffffffff1660e01b815260040161186c9190612d63565b60a06040518083038186803b15801561188457600080fd5b505afa158015611898573d6000803e3d6000fd5b505050506040513d601f19601f820116820180604052508101906118bc9190612a8d565b94509450945094509450600154836118d49190612ec8565b600260009054906101000a900473ffffffffffffffffffffffffffffffffffffffff1673ffffffffffffffffffffffffffffffffffffffff166378e979256040518163ffffffff1660e01b815260040160206040518083038186803b15801561193c57600080fd5b505afa158015611950573d6000803e3d6000fd5b505050506040513d601f19601f820116820180604052508101906119749190612a64565b61197e9190612e41565b4211156119ad576127108660800151856119989190612ec8565b6119a29190612e97565b866101000181815250505b50505050505b60008160a0015114611b6a576000806000806000600260009054906101000a900473ffffffffffffffffffffffffffffffffffffffff1673ffffffffffffffffffffffffffffffffffffffff1663b2596a6760046040518263ffffffff1660e01b8152600401611a239190612d7e565b60a06040518083038186803b158015611a3b57600080fd5b505afa158015611a4f573d6000803e3d6000fd5b505050506040513d601f19601f82011682018060405250810190611a739190612a8d565b9450945094509450945060015483611a8b9190612ec8565b600260009054906101000a900473ffffffffffffffffffffffffffffffffffffffff1673ffffffffffffffffffffffffffffffffffffffff166378e979256040518163ffffffff1660e01b815260040160206040518083038186803b158015611af357600080fd5b505afa158015611b07573d6000803e3d6000fd5b505050506040513d601f19601f82011682018060405250810190611b2b9190612a64565b611b359190612e41565b421115611b64576127108660a0015185611b4f9190612ec8565b611b599190612e97565b866101200181815250505b50505050505b8091505090565b60008060009054906101000a900473ffffffffffffffffffffffffffffffffffffffff16905090565b600260009054906101000a900473ffffffffffffffffffffffffffffffffffffffff1673ffffffffffffffffffffffffffffffffffffffff1663f12ca6986040518163ffffffff1660e01b8152600401600060405180830381600087803b158015611c0457600080fd5b505af1158015611c18573d6000803e3d6000fd5b50505050600080600260009054906101000a900473ffffffffffffffffffffffffffffffffffffffff1673ffffffffffffffffffffffffffffffffffffffff16636fd5ae156040518163ffffffff1660e01b815260040160206040518083038186803b158015611c8757600080fd5b505afa158015611c9b573d6000803e3d6000fd5b505050506040513d601f19601f82011682018060405250810190611cbf9190612a64565b90506001811415611f1a57611cd48382612822565b809350819450505082600560003373ffffffffffffffffffffffffffffffffffffffff1673ffffffffffffffffffffffffffffffffffffffff1681526020019081526020016000206001016000828254611d2e9190612e41565b92505081905550600460009054906101000a900473ffffffffffffffffffffffffffffffffffffffff1673ffffffffffffffffffffffffffffffffffffffff166323b872dd3330866040518463ffffffff1660e01b8152600401611d9493929190612cf6565b602060405180830381600087803b158015611dae57600080fd5b505af1158015611dc2573d6000803e3d6000fd5b505050506040513d601f19601f82011682018060405250810190611de69190612a12565b50600260009054906101000a900473ffffffffffffffffffffffffffffffffffffffff1673ffffffffffffffffffffffffffffffffffffffff166392e0150b846040518263ffffffff1660e01b8152600401611e429190612e15565b600060405180830381600087803b158015611e5c57600080fd5b505af1158015611e70573d6000803e3d6000fd5b50505050600260009054906101000a900473ffffffffffffffffffffffffffffffffffffffff1673ffffffffffffffffffffffffffffffffffffffff16636fd5ae156040518163ffffffff1660e01b815260040160206040518083038186803b158015611edc57600080fd5b505afa158015611ef0573d6000803e3d6000fd5b505050506040513d601f19601f82011682018060405250810190611f149190612a64565b90508192505b600281141561217357611f2d8382612822565b809350819450505082600560003373ffffffffffffffffffffffffffffffffffffffff1673ffffffffffffffffffffffffffffffffffffffff1681526020019081526020016000206002016000828254611f879190612e41565b92505081905550600460009054906101000a900473ffffffffffffffffffffffffffffffffffffffff1673ffffffffffffffffffffffffffffffffffffffff166323b872dd3330866040518463ffffffff1660e01b8152600401611fed93929190612cf6565b602060405180830381600087803b15801561200757600080fd5b505af115801561201b573d6000803e3d6000fd5b505050506040513d601f19601f8201168201806040525081019061203f9190612a12565b50600260009054906101000a900473ffffffffffffffffffffffffffffffffffffffff1673ffffffffffffffffffffffffffffffffffffffff166392e0150b846040518263ffffffff1660e01b815260040161209b9190612e15565b600060405180830381600087803b1580156120b557600080fd5b505af11580156120c9573d6000803e3d6000fd5b50505050600260009054906101000a900473ffffffffffffffffffffffffffffffffffffffff1673ffffffffffffffffffffffffffffffffffffffff16636fd5ae156040518163ffffffff1660e01b815260040160206040518083038186803b15801561213557600080fd5b505afa158015612149573d6000803e3d6000fd5b505050506040513d601f19601f8201168201806040525081019061216d9190612a64565b90508192505b60038114156123cc576121868382612822565b809350819450505082600560003373ffffffffffffffffffffffffffffffffffffffff1673ffffffffffffffffffffffffffffffffffffffff16815260200190815260200160002060030160008282546121e09190612e41565b92505081905550600460009054906101000a900473ffffffffffffffffffffffffffffffffffffffff1673ffffffffffffffffffffffffffffffffffffffff166323b872dd3330866040518463ffffffff1660e01b815260040161224693929190612cf6565b602060405180830381600087803b15801561226057600080fd5b505af1158015612274573d6000803e3d6000fd5b505050506040513d601f19601f820116820180604052508101906122989190612a12565b50600260009054906101000a900473ffffffffffffffffffffffffffffffffffffffff1673ffffffffffffffffffffffffffffffffffffffff166392e0150b846040518263ffffffff1660e01b81526004016122f49190612e15565b600060405180830381600087803b15801561230e57600080fd5b505af1158015612322573d6000803e3d6000fd5b50505050600260009054906101000a900473ffffffffffffffffffffffffffffffffffffffff1673ffffffffffffffffffffffffffffffffffffffff16636fd5ae156040518163ffffffff1660e01b815260040160206040518083038186803b15801561238e57600080fd5b505afa1580156123a2573d6000803e3d6000fd5b505050506040513d601f19601f820116820180604052508101906123c69190612a64565b90508192505b6004811415612598576123df8382612822565b809350819450505082600560003373ffffffffffffffffffffffffffffffffffffffff1673ffffffffffffffffffffffffffffffffffffffff16815260200190815260200160002060040160008282546124399190612e41565b92505081905550600460009054906101000a900473ffffffffffffffffffffffffffffffffffffffff1673ffffffffffffffffffffffffffffffffffffffff166323b872dd3330866040518463ffffffff1660e01b815260040161249f93929190612cf6565b602060405180830381600087803b1580156124b957600080fd5b505af11580156124cd573d6000803e3d6000fd5b505050506040513d601f19601f820116820180604052508101906124f19190612a12565b50600260009054906101000a900473ffffffffffffffffffffffffffffffffffffffff1673ffffffffffffffffffffffffffffffffffffffff16636fd5ae156040518163ffffffff1660e01b815260040160206040518083038186803b15801561255a57600080fd5b505afa15801561256e573d6000803e3d6000fd5b505050506040513d601f19601f820116820180604052508101906125929190612a64565b90508192505b42600560003373ffffffffffffffffffffffffffffffffffffffff1673ffffffffffffffffffffffffffffffffffffffff168152602001908152602001600020600a0181905550600260009054906101000a900473ffffffffffffffffffffffffffffffffffffffff1673ffffffffffffffffffffffffffffffffffffffff16637bdecea1846040518263ffffffff1660e01b815260040161263a9190612e15565b600060405180830381600087803b15801561265457600080fd5b505af1158015612668573d6000803e3d6000fd5b50505050505050565b61267961281a565b73ffffffffffffffffffffffffffffffffffffffff16612697611b71565b73ffffffffffffffffffffffffffffffffffffffff16146126ed576040517f08c379a00000000000000000000000000000000000000000000000000000000081526004016126e490612dd9565b60405180910390fd5b600073ffffffffffffffffffffffffffffffffffffffff168173ffffffffffffffffffffffffffffffffffffffff16141561275d576040517f08c379a000000000000000000000000000000000000000000000000000000000815260040161275490612db9565b60405180910390fd5b8073ffffffffffffffffffffffffffffffffffffffff1660008054906101000a900473ffffffffffffffffffffffffffffffffffffffff1673ffffffffffffffffffffffffffffffffffffffff167f8be0079c531659141344cd1fd0a4f28419497f9722a3daafe3b4186f6b6457e060405160405180910390a3806000806101000a81548173ffffffffffffffffffffffffffffffffffffffff021916908373ffffffffffffffffffffffffffffffffffffffff16021790555050565b600033905090565b600080600080600080600080600260009054906101000a900473ffffffffffffffffffffffffffffffffffffffff1673ffffffffffffffffffffffffffffffffffffffff1663b2596a678a6040518263ffffffff1660e01b81526004016128899190612e15565b60a06040518083038186803b1580156128a157600080fd5b505afa1580156128b5573d6000803e3d6000fd5b505050506040513d601f19601f820116820180604052508101906128d99190612a8d565b94509450945094509450848a826128f09190612e41565b1061291d5780856129019190612f22565b8a61290c9190612f22565b9550808561291a9190612f22565b99505b8986975097505050505050509250929050565b604051806101800160405280600015158152602001600015158152602001600081526020016000815260200160008152602001600081526020016000815260200160008152602001600081526020016000815260200160008152602001600081525090565b6000813590506129a4816130e5565b92915050565b6000815190506129b9816130fc565b92915050565b6000813590506129ce81613113565b92915050565b6000815190506129e381613113565b92915050565b6000602082840312156129fb57600080fd5b6000612a0984828501612995565b91505092915050565b600060208284031215612a2457600080fd5b6000612a32848285016129aa565b91505092915050565b600060208284031215612a4d57600080fd5b6000612a5b848285016129bf565b91505092915050565b600060208284031215612a7657600080fd5b6000612a84848285016129d4565b91505092915050565b600080600080600060a08688031215612aa557600080fd5b6000612ab3888289016129d4565b9550506020612ac4888289016129d4565b9450506040612ad5888289016129d4565b9350506060612ae6888289016129d4565b9250506080612af7888289016129d4565b9150509295509295909350565b612b0d81612f56565b82525050565b612b1c81612f68565b82525050565b612b2b81612f9e565b82525050565b612b3a81612fb0565b82525050565b612b4981612fc2565b82525050565b612b5881612fd4565b82525050565b6000612b6b600f83612e30565b9150612b7682613044565b602082019050919050565b6000612b8e602683612e30565b9150612b998261306d565b604082019050919050565b6000612bb1602083612e30565b9150612bbc826130bc565b602082019050919050565b61018082016000820151612bde6000850182612b13565b506020820151612bf16020850182612b13565b506040820151612c046040850182612cbd565b506060820151612c176060850182612cbd565b506080820151612c2a6080850182612cbd565b5060a0820151612c3d60a0850182612cbd565b5060c0820151612c5060c0850182612cbd565b5060e0820151612c6360e0850182612cbd565b50610100820151612c78610100850182612cbd565b50610120820151612c8d610120850182612cbd565b50610140820151612ca2610140850182612cbd565b50610160820151612cb7610160850182612cbd565b50505050565b612cc681612f94565b82525050565b612cd581612f94565b82525050565b6000602082019050612cf06000830184612b04565b92915050565b6000606082019050612d0b6000830186612b04565b612d186020830185612b04565b612d256040830184612ccc565b949350505050565b6000602082019050612d426000830184612b22565b92915050565b6000602082019050612d5d6000830184612b31565b92915050565b6000602082019050612d786000830184612b40565b92915050565b6000602082019050612d936000830184612b4f565b92915050565b60006020820190508181036000830152612db281612b5e565b9050919050565b60006020820190508181036000830152612dd281612b81565b9050919050565b60006020820190508181036000830152612df281612ba4565b9050919050565b600061018082019050612e0f6000830184612bc7565b92915050565b6000602082019050612e2a6000830184612ccc565b92915050565b600082825260208201905092915050565b6000612e4c82612f94565b9150612e5783612f94565b9250827fffffffffffffffffffffffffffffffffffffffffffffffffffffffffffffffff03821115612e8c57612e8b612fe6565b5b828201905092915050565b6000612ea282612f94565b9150612ead83612f94565b925082612ebd57612ebc613015565b5b828204905092915050565b6000612ed382612f94565b9150612ede83612f94565b9250817fffffffffffffffffffffffffffffffffffffffffffffffffffffffffffffffff0483118215151615612f1757612f16612fe6565b5b828202905092915050565b6000612f2d82612f94565b9150612f3883612f94565b925082821015612f4b57612f4a612fe6565b5b828203905092915050565b6000612f6182612f74565b9050919050565b60008115159050919050565b600073ffffffffffffffffffffffffffffffffffffffff82169050919050565b6000819050919050565b6000612fa982612f94565b9050919050565b6000612fbb82612f94565b9050919050565b6000612fcd82612f94565b9050919050565b6000612fdf82612f94565b9050919050565b7f4e487b7100000000000000000000000000000000000000000000000000000000600052601160045260246000fd5b7f4e487b7100000000000000000000000000000000000000000000000000000000600052601260045260246000fd5b7f43616e6e6f742077697468647261770000000000000000000000000000000000600082015250565b7f4f776e61626c653a206e6577206f776e657220697320746865207a65726f206160008201527f6464726573730000000000000000000000000000000000000000000000000000602082015250565b7f4f776e61626c653a2063616c6c6572206973206e6f7420746865206f776e6572600082015250565b6130ee81612f56565b81146130f957600080fd5b50565b61310581612f68565b811461311057600080fd5b50565b61311c81612f94565b811461312757600080fd5b5056fea2646970667358221220be8c9cb1586de51f18761d3b17797f6b03064144bb11b509b9dd417dde854db864736f6c63430008010033a2646970667358221220d339f5a89a90b0cce878b1faedbb61abb91061514f604148755a60e6b158cf1964736f6c63430008010033",
	"immutableReferences": {},
	"source": "// SPDX-License-Identifier: MIT\npragma solidity ^0.8.0;\n\nimport '@openzeppelin/contracts/token/ERC20/ERC20.sol';\nimport '@openzeppelin/contracts/access/Ownable.sol';\n\nimport './Tokens.sol';\n\n/**\nThis is a Staking contract created for every token.\n */\ncontract Staking is Ownable {\n\tuint256 oneDay = 2;\n\n\tStakingFactory factory; // Contract which is creating this one.\n\n\tMock rewardsToken; // Reward Token\n\n\tIERC20 stakingToken; // Staking Token\n\n\t/**\n\tUser Data\n\t */\n\tstruct UserData {\n\t\tbool allowed;\n\t\tbool created;\n\t\t//\n\t\tuint256 level1Tokens;\n\t\tuint256 level2Tokens;\n\t\tuint256 level3Tokens;\n\t\tuint256 level4Tokens;\n\t\t//\n\t\tuint256 level1Reward;\n\t\tuint256 level2Reward;\n\t\tuint256 level3Reward;\n\t\tuint256 level4Reward;\n\t\t//\n\t\t//\n\t\tuint256 tokens;\n\t\tuint256 lastUpdateDate;\n\t}\n\n\t/**Level Data. TODO: move to library */\n\tstruct LevelData {\n\t\tuint256 allowedForXCoins;\n\t\tuint256 rewardPercentTimes100;\n\t\tuint256 lockedDuration;\n\t\tuint256 allowedReward;\n\t\tuint256 alloted;\n\t}\n\n\tmapping(address => UserData) users;\n\n\tconstructor(\n\t\taddress _factory,\n\t\taddress _rewardsToken,\n\t\taddress _stakingToken\n\t) {\n\t\tfactory = StakingFactory(_factory);\n\t\trewardsToken = Mock(_rewardsToken);\n\t\tstakingToken = IERC20(_stakingToken);\n\t}\n\n\tfunction checkUpdateLevel(uint256 amount, uint256 level) internal view returns (uint256, uint256) {\n\t\tuint256 remaining;\n\t\t(uint256 allowedForXCoins, uint256 _rewardPercentTimes100, uint256 _lockedDuration, uint256 _allowedReward, uint256 alloted) =\n\t\t\tfactory.levels(level);\n\n\t\tif (alloted + amount >= allowedForXCoins) {\n\t\t\tremaining = amount - (allowedForXCoins - alloted);\n\t\t\tamount = allowedForXCoins - alloted;\n\t\t}\n\t\treturn (amount, remaining);\n\t}\n\n\t/**deposit function */\n\tfunction deposit(uint256 amount) external {\n\t\t// Check if level has been updated due to time elapsed.\n\n\t\tfactory.updateLevelCheck();\n\t\t// Fetch the level.\n\t\tuint256 remaining;\n\t\tuint256 level = factory.level();\n\t\t// Check if the amount updates the level and only deposit the amount which just updates\n\t\t// and update the level. Return rest of the staking token to the user.\n\t\tif (level == 1) {\n\t\t\t(amount, remaining) = checkUpdateLevel(amount, level);\n\t\t\tusers[msg.sender].level1Tokens += amount;\n\t\t\tstakingToken.transferFrom(msg.sender, address(this), amount);\n\t\t\tfactory.updateLevel(amount);\n\t\t\tlevel = factory.level();\n\t\t\tamount = remaining;\n\t\t}\n\t\tif (level == 2) {\n\t\t\t(amount, remaining) = checkUpdateLevel(amount, level);\n\t\t\tusers[msg.sender].level2Tokens += amount;\n\t\t\tstakingToken.transferFrom(msg.sender, address(this), amount);\n\t\t\tfactory.updateLevel(amount);\n\t\t\tlevel = factory.level();\n\t\t\tamount = remaining;\n\t\t}\n\t\tif (level == 3) {\n\t\t\t(amount, remaining) = checkUpdateLevel(amount, level);\n\t\t\tusers[msg.sender].level3Tokens += amount;\n\t\t\tstakingToken.transferFrom(msg.sender, address(this), amount);\n\t\t\tfactory.updateLevel(amount);\n\t\t\tlevel = factory.level();\n\t\t\tamount = remaining;\n\t\t}\n\t\tif (level == 4) {\n\t\t\t(amount, remaining) = checkUpdateLevel(amount, level);\n\t\t\tusers[msg.sender].level4Tokens += amount;\n\t\t\tstakingToken.transferFrom(msg.sender, address(this), amount);\n\t\t\tlevel = factory.level();\n\t\t\tamount = remaining;\n\t\t}\n\n\t\tusers[msg.sender].lastUpdateDate = block.timestamp;\n\t\tfactory.updateTokens(amount);\n\t}\n\n\tfunction calculateReward() public view returns (UserData memory user) {\n\t\tUserData memory userDetails = users[msg.sender];\n\t\t//\n\t\tif (userDetails.level1Tokens != 0) {\n\t\t\t(uint256 allowedForXCoins, uint256 _rewardPercentTimes100, uint256 _lockedDuration, uint256 _allowedReward, uint256 alloted) =\n\t\t\t\tfactory.levels(1);\n\t\t\tif (block.timestamp > factory.startTime() + _lockedDuration * oneDay) {\n\t\t\t\tuserDetails.level1Reward = ((_rewardPercentTimes100 * userDetails.level1Tokens)) / 10000;\n\t\t\t}\n\t\t}\n\t\tif (userDetails.level2Tokens != 0) {\n\t\t\t(uint256 allowedForXCoins, uint256 _rewardPercentTimes100, uint256 _lockedDuration, uint256 _allowedReward, uint256 alloted) =\n\t\t\t\tfactory.levels(2);\n\t\t\tif (block.timestamp > factory.startTime() + _lockedDuration * oneDay) {\n\t\t\t\tuserDetails.level2Reward = ((_rewardPercentTimes100 * userDetails.level2Tokens)) / 10000;\n\t\t\t}\n\t\t}\n\t\tif (userDetails.level3Tokens != 0) {\n\t\t\t(uint256 allowedForXCoins, uint256 _rewardPercentTimes100, uint256 _lockedDuration, uint256 _allowedReward, uint256 alloted) =\n\t\t\t\tfactory.levels(3);\n\t\t\tif (block.timestamp > factory.startTime() + _lockedDuration * oneDay) {\n\t\t\t\tuserDetails.level3Reward = ((_rewardPercentTimes100 * userDetails.level3Tokens)) / 10000;\n\t\t\t}\n\t\t}\n\t\tif (userDetails.level4Tokens != 0) {\n\t\t\t(uint256 allowedForXCoins, uint256 _rewardPercentTimes100, uint256 _lockedDuration, uint256 _allowedReward, uint256 alloted) =\n\t\t\t\tfactory.levels(4);\n\t\t\tif (block.timestamp > factory.startTime() + _lockedDuration * oneDay) {\n\t\t\t\tuserDetails.level4Reward = ((_rewardPercentTimes100 * userDetails.level4Tokens)) / 10000;\n\t\t\t}\n\t\t}\n\t\treturn userDetails;\n\t}\n\n\t// Withdraw.\n\tfunction withdraw(uint256 level) external {\n\t\tif (level == 1 && users[msg.sender].level1Tokens != 0) {\n\t\t\t(uint256 allowedForXCoins, uint256 _rewardPercentTimes100, uint256 _lockedDuration, uint256 _allowedReward, uint256 alloted) =\n\t\t\t\tfactory.levels(1);\n\n\t\t\tif (block.timestamp > factory.startTime() + _lockedDuration * oneDay) {\n\t\t\t\tuint256 rewardValue = users[msg.sender].level1Tokens + (((_rewardPercentTimes100 * users[msg.sender].level1Tokens)) / 10000);\n\t\t\t\trewardsToken.approveInternal(address(this), msg.sender, rewardValue);\n\t\t\t\trewardsToken.transferInternal(address(this), msg.sender, rewardValue);\n\t\t\t\tusers[msg.sender].level1Tokens = 0;\n\t\t\t\tusers[msg.sender].level1Reward = 0;\n\t\t\t\treturn;\n\t\t\t}\n\t\t} else if (level == 2 && users[msg.sender].level2Tokens != 0) {\n\t\t\t(uint256 allowedForXCoins, uint256 _rewardPercentTimes100, uint256 _lockedDuration, uint256 _allowedReward, uint256 alloted) =\n\t\t\t\tfactory.levels(2);\n\t\t\tif (block.timestamp > factory.startTime() + _lockedDuration * oneDay) {\n\t\t\t\tuint256 rewardValue = users[msg.sender].level2Tokens + (((_rewardPercentTimes100 * users[msg.sender].level2Tokens)) / 10000);\n\t\t\t\trewardsToken.approveInternal(address(this), msg.sender, rewardValue);\n\t\t\t\trewardsToken.transferInternal(address(this), msg.sender, rewardValue);\n\t\t\t\tusers[msg.sender].level2Tokens = 0;\n\t\t\t\tusers[msg.sender].level2Reward = 0;\n\t\t\t\treturn;\n\t\t\t}\n\t\t} else if (level == 3 && users[msg.sender].level3Tokens != 0) {\n\t\t\t(uint256 allowedForXCoins, uint256 _rewardPercentTimes100, uint256 _lockedDuration, uint256 _allowedReward, uint256 alloted) =\n\t\t\t\tfactory.levels(3);\n\t\t\tif (block.timestamp > factory.startTime() + _lockedDuration * oneDay) {\n\t\t\t\tuint256 rewardValue = users[msg.sender].level3Tokens + (((_rewardPercentTimes100 * users[msg.sender].level3Tokens)) / 10000);\n\t\t\t\trewardsToken.approveInternal(address(this), msg.sender, rewardValue);\n\t\t\t\trewardsToken.transferInternal(address(this), msg.sender, rewardValue);\n\t\t\t\tusers[msg.sender].level3Tokens = 0;\n\t\t\t\tusers[msg.sender].level3Reward = 0;\n\t\t\t\treturn;\n\t\t\t}\n\t\t} else if (level == 4 && users[msg.sender].level4Tokens != 0) {\n\t\t\t(uint256 allowedForXCoins, uint256 _rewardPercentTimes100, uint256 _lockedDuration, uint256 _allowedReward, uint256 alloted) =\n\t\t\t\tfactory.levels(4);\n\t\t\tif (block.timestamp > factory.startTime() + _lockedDuration * oneDay) {\n\t\t\t\tuint256 rewardValue = users[msg.sender].level4Tokens + (((_rewardPercentTimes100 * users[msg.sender].level4Tokens)) / 10000);\n\t\t\t\trewardsToken.approveInternal(address(this), msg.sender, rewardValue);\n\t\t\t\trewardsToken.transferInternal(address(this), msg.sender, rewardValue);\n\t\t\t\tusers[msg.sender].level4Tokens = 0;\n\t\t\t\tusers[msg.sender].level4Reward = 0;\n\t\t\t\treturn;\n\t\t\t}\n\t\t}\n\t\trequire(false, 'Cannot withdraw');\n\t}\n}\n\ncontract StakingFactory is Ownable {\n\tMock rewardsToken;\n\tuint256 public startTime;\n\tuint256 public level;\n\taddress[] public stakingTokens;\n\n\tstruct StakingRewardsInfo {\n\t\taddress stakingRewards;\n\t\tuint256 rewardAmount;\n\t}\n\n\t// LevelData\n\tstruct LevelData {\n\t\tuint256 allowedForXCoins;\n\t\tuint256 rewardPercentTimes100;\n\t\tuint256 lockedDuration;\n\t\tuint256 allowedReward;\n\t\tuint256 alloted;\n\t}\n\n\n\taddress public stakingContractAddress;\n\t// rewards info by staking token\n\tmapping(address => StakingRewardsInfo) public stakingRewardsInfoByStakingToken;\n\n\tmapping(uint256 => LevelData) public levels;\n\n\tconstructor(address _rewardsToken, uint256 _startTime) {\n\t\trewardsToken = Mock(_rewardsToken);\n\t\tstartTime = _startTime;\n\t\tlevel = 1;\n\t\tcreateLevels();\n\t}\n\n\t// THis fucntion creates the Staking reward.\n\tfunction deploy(address stakingToken, uint256 rewardAmount) public onlyOwner {\n\t\tStakingRewardsInfo storage info = stakingRewardsInfoByStakingToken[stakingToken];\n\t\trequire(info.stakingRewards == address(0), 'StakingRewardsFactory::deploy: already deployed');\n\t\t\n\t\tinfo.stakingRewards = address(new Staking(address(this), address(rewardsToken), stakingToken));\n\n\t\tstakingContractAddress=info.stakingRewards ;\n\n\t\trewardsToken.approveInternal(msg.sender, info.stakingRewards, rewardAmount);\n\t\trewardsToken.transferInternal(msg.sender, info.stakingRewards, rewardAmount);\n\t\tinfo.rewardAmount = rewardAmount;\n\t\tstakingTokens.push(stakingToken);\n\t}\n\n\t// Create Levels\n\t// Or create an array and provide user access to create them.\n\tfunction createLevels() internal {\n\t\tlevels[1] = LevelData(100000, 4900, 15, 49315, 0);\n\t\tlevels[2] = LevelData(400000, 4100, 30, 123288, 0);\n\t\tlevels[3] = LevelData(800000, 4300, 45, 172603, 0);\n\t\tlevels[4] = LevelData(1500000, 3300, 60, 230137, 0);\n\n\t\tlevel = 1;\n\t}\n\n\tmodifier restricted(){\n\t\trequire(msg.sender == stakingContractAddress, \"Sender has to be a staking contract.\");\n\t\t_;\n\t}\n\n\tfunction updateLevel(uint256 tokenValue) external restricted {\n\t\tif (levels[level].alloted + tokenValue >= levels[level].allowedForXCoins) {\n\t\t\tlevel += 1;\n\t\t}\n\t}\n\n\tfunction updateTokens(uint256 tokenValue) external restricted {\n\t\tlevels[level].alloted += tokenValue;\n\t}\n\n\tfunction updateLevelCheck() external  {\n\t\tif (block.timestamp > startTime + 60 * 24 * 60) {\n\t\t\tlevel = 4;\n\t\t}\n\t}\n\n\t\n}\n",
	"sourcePath": "/media/aniket/home/aniket/Work/nonceblox-work/BF_Staking/contracts/StakingContract.sol",
	"compiler": {
		"name": "solc",
		"version": "0.8.1+commit.df193b15.Emscripten.clang"
	},
	"schemaVersion": "3.3.4",
	"updatedAt": "2021-04-01T15:04:14.911Z",
	"networkType": "ethereum",
	"devdoc": {
		"kind": "dev",
		"methods": {
			"owner()": {
				"details": "Returns the address of the current owner."
			},
			"renounceOwnership()": {
				"details": "Leaves the contract without owner. It will not be possible to call `onlyOwner` functions anymore. Can only be called by the current owner. NOTE: Renouncing ownership will leave the contract without an owner, thereby removing any functionality that is only available to the owner."
			},
			"transferOwnership(address)": {
				"details": "Transfers ownership of the contract to a new account (`newOwner`). Can only be called by the current owner."
			}
		},
		"version": 1
	},
	"userdoc": {
		"kind": "user",
		"methods": {},
		"version": 1
	}
}