{
	"contractName": "StakingFactory",
	"abi": [
		{
			"inputs": [
				{
					"internalType": "address",
					"name": "_rewardsToken",
					"type": "address"
				},
				{
					"internalType": "uint256",
					"name": "_startTime",
					"type": "uint256"
				}
			],
			"stateMutability": "nonpayable",
			"type": "constructor"
		},
		{
			"anonymous": false,
			"inputs": [
				{
					"indexed": true,
					"internalType": "address",
					"name": "previousOwner",
					"type": "address"
				},
				{
					"indexed": true,
					"internalType": "address",
					"name": "newOwner",
					"type": "address"
				}
			],
			"name": "OwnershipTransferred",
			"type": "event"
		},
		{
			"inputs": [],
			"name": "level",
			"outputs": [
				{
					"internalType": "uint256",
					"name": "",
					"type": "uint256"
				}
			],
			"stateMutability": "view",
			"type": "function",
			"constant": true
		},
		{
			"inputs": [
				{
					"internalType": "uint256",
					"name": "",
					"type": "uint256"
				}
			],
			"name": "levels",
			"outputs": [
				{
					"internalType": "uint256",
					"name": "allowedForXCoins",
					"type": "uint256"
				},
				{
					"internalType": "uint256",
					"name": "rewardPercentTimes100",
					"type": "uint256"
				},
				{
					"internalType": "uint256",
					"name": "lockedDuration",
					"type": "uint256"
				},
				{
					"internalType": "uint256",
					"name": "allowedReward",
					"type": "uint256"
				},
				{
					"internalType": "uint256",
					"name": "alloted",
					"type": "uint256"
				}
			],
			"stateMutability": "view",
			"type": "function",
			"constant": true
		},
		{
			"inputs": [],
			"name": "owner",
			"outputs": [
				{
					"internalType": "address",
					"name": "",
					"type": "address"
				}
			],
			"stateMutability": "view",
			"type": "function",
			"constant": true
		},
		{
			"inputs": [],
			"name": "renounceOwnership",
			"outputs": [],
			"stateMutability": "nonpayable",
			"type": "function"
		},
		{
			"inputs": [],
			"name": "stakingContractAddress",
			"outputs": [
				{
					"internalType": "address",
					"name": "",
					"type": "address"
				}
			],
			"stateMutability": "view",
			"type": "function",
			"constant": true
		},
		{
			"inputs": [
				{
					"internalType": "address",
					"name": "",
					"type": "address"
				}
			],
			"name": "stakingRewardsInfoByStakingToken",
			"outputs": [
				{
					"internalType": "address",
					"name": "stakingRewards",
					"type": "address"
				},
				{
					"internalType": "uint256",
					"name": "rewardAmount",
					"type": "uint256"
				}
			],
			"stateMutability": "view",
			"type": "function",
			"constant": true
		},
		{
			"inputs": [
				{
					"internalType": "uint256",
					"name": "",
					"type": "uint256"
				}
			],
			"name": "stakingTokens",
			"outputs": [
				{
					"internalType": "address",
					"name": "",
					"type": "address"
				}
			],
			"stateMutability": "view",
			"type": "function",
			"constant": true
		},
		{
			"inputs": [],
			"name": "startTime",
			"outputs": [
				{
					"internalType": "uint256",
					"name": "",
					"type": "uint256"
				}
			],
			"stateMutability": "view",
			"type": "function",
			"constant": true
		},
		{
			"inputs": [
				{
					"internalType": "address",
					"name": "newOwner",
					"type": "address"
				}
			],
			"name": "transferOwnership",
			"outputs": [],
			"stateMutability": "nonpayable",
			"type": "function"
		},
		{
			"inputs": [
				{
					"internalType": "address",
					"name": "stakingToken",
					"type": "address"
				},
				{
					"internalType": "uint256",
					"name": "rewardAmount",
					"type": "uint256"
				}
			],
			"name": "deploy",
			"outputs": [],
			"stateMutability": "nonpayable",
			"type": "function"
		},
		{
			"inputs": [
				{
					"internalType": "uint256",
					"name": "tokenValue",
					"type": "uint256"
				}
			],
			"name": "updateTokens",
			"outputs": [],
			"stateMutability": "nonpayable",
			"type": "function"
		},
		{
			"inputs": [],
			"name": "updateLevelCheck",
			"outputs": [],
			"stateMutability": "nonpayable",
			"type": "function"
		}
	],
	"bytecode": "0x60806040523480156200001157600080fd5b506040516200591338038062005913833981810160405281019062000037919062000376565b6000620000496200014f60201b60201c565b9050806000806101000a81548173ffffffffffffffffffffffffffffffffffffffff021916908373ffffffffffffffffffffffffffffffffffffffff1602179055508073ffffffffffffffffffffffffffffffffffffffff16600073ffffffffffffffffffffffffffffffffffffffff167f8be0079c531659141344cd1fd0a4f28419497f9722a3daafe3b4186f6b6457e060405160405180910390a35081600160006101000a81548173ffffffffffffffffffffffffffffffffffffffff021916908373ffffffffffffffffffffffffffffffffffffffff160217905550806002819055506001600381905550620001476200015760201b60201c565b505062000429565b600033905090565b6040518060a00160405280620186a081526020016113248152602001600f815260200161c0a381526020016000815250600760006001815260200190815260200160002060008201518160000155602082015181600101556040820151816002015560608201518160030155608082015181600401559050506040518060a0016040528062061a8081526020016110048152602001601e81526020016201e19881526020016000815250600760006002815260200190815260200160002060008201518160000155602082015181600101556040820151816002015560608201518160030155608082015181600401559050506040518060a00160405280620c350081526020016110cc8152602001602d81526020016202a23b81526020016000815250600760006003815260200190815260200160002060008201518160000155602082015181600101556040820151816002015560608201518160030155608082015181600401559050506040518060a001604052806216e3608152602001610ce48152602001603c8152602001620382f981526020016000815250600760006004815260200190815260200160002060008201518160000155602082015181600101556040820151816002015560608201518160030155608082015181600401559050506001600381905550565b6000815190506200035981620003f5565b92915050565b60008151905062000370816200040f565b92915050565b600080604083850312156200038a57600080fd5b60006200039a8582860162000348565b9250506020620003ad858286016200035f565b9150509250929050565b6000620003c482620003cb565b9050919050565b600073ffffffffffffffffffffffffffffffffffffffff82169050919050565b6000819050919050565b6200040081620003b7565b81146200040c57600080fd5b50565b6200041a81620003eb565b81146200042657600080fd5b50565b6154da80620004396000396000f3fe60806040523480156200001157600080fd5b5060043610620000c45760003560e01c806378e97925116200007b57806378e9792514620001a65780637bdecea114620001c85780638da5cb5b14620001e8578063b2596a67146200020a578063f12ca6981462000244578063f2fde38b146200025057620000c4565b8063344e5e3414620000c95780633535f48b14620000ff5780634956eaf014620001215780636cf8caf814620001415780636fd5ae151462000178578063715018a6146200019a575b600080fd5b620000e76004803603810190620000e1919062000cc4565b62000270565b604051620000f6919062000dae565b60405180910390f35b62000109620002b0565b60405162000118919062000dae565b60405180910390f35b6200013f600480360381019062000139919062000c83565b620002d6565b005b6200015f600480360381019062000159919062000c57565b6200071b565b6040516200016f92919062000e45565b60405180910390f35b620001826200075f565b60405162000191919062000efa565b60405180910390f35b620001a462000765565b005b620001b0620008a6565b604051620001bf919062000efa565b60405180910390f35b620001e66004803603810190620001e0919062000cc4565b620008ac565b005b620001f2620009db565b60405162000201919062000dae565b60405180910390f35b62000228600480360381019062000222919062000cc4565b62000a04565b6040516200023b95949392919062000f17565b60405180910390f35b6200024e62000a3a565b005b6200026e600480360381019062000268919062000c57565b62000a60565b005b600481815481106200028157600080fd5b906000526020600020016000915054906101000a900473ffffffffffffffffffffffffffffffffffffffff1681565b600560009054906101000a900473ffffffffffffffffffffffffffffffffffffffff1681565b620002e062000c13565b73ffffffffffffffffffffffffffffffffffffffff1662000300620009db565b73ffffffffffffffffffffffffffffffffffffffff161462000359576040517f08c379a0000000000000000000000000000000000000000000000000000000008152600401620003509062000ed8565b60405180910390fd5b6000600660008473ffffffffffffffffffffffffffffffffffffffff1673ffffffffffffffffffffffffffffffffffffffff1681526020019081526020016000209050600073ffffffffffffffffffffffffffffffffffffffff168160000160009054906101000a900473ffffffffffffffffffffffffffffffffffffffff1673ffffffffffffffffffffffffffffffffffffffff161462000432576040517f08c379a0000000000000000000000000000000000000000000000000000000008152600401620004299062000eb6565b60405180910390fd5b30600160009054906101000a900473ffffffffffffffffffffffffffffffffffffffff1684604051620004659062000c1b565b620004739392919062000dcb565b604051809103906000f08015801562000490573d6000803e3d6000fd5b508160000160006101000a81548173ffffffffffffffffffffffffffffffffffffffff021916908373ffffffffffffffffffffffffffffffffffffffff1602179055508060000160009054906101000a900473ffffffffffffffffffffffffffffffffffffffff16600560006101000a81548173ffffffffffffffffffffffffffffffffffffffff021916908373ffffffffffffffffffffffffffffffffffffffff160217905550600160009054906101000a900473ffffffffffffffffffffffffffffffffffffffff1673ffffffffffffffffffffffffffffffffffffffff166356189cb4338360000160009054906101000a900473ffffffffffffffffffffffffffffffffffffffff16856040518463ffffffff1660e01b8152600401620005bd9392919062000e08565b600060405180830381600087803b158015620005d857600080fd5b505af1158015620005ed573d6000803e3d6000fd5b50505050600160009054906101000a900473ffffffffffffffffffffffffffffffffffffffff1673ffffffffffffffffffffffffffffffffffffffff1663222f5be0338360000160009054906101000a900473ffffffffffffffffffffffffffffffffffffffff16856040518463ffffffff1660e01b8152600401620006769392919062000e08565b600060405180830381600087803b1580156200069157600080fd5b505af1158015620006a6573d6000803e3d6000fd5b505050508181600101819055506004839080600181540180825580915050600190039060005260206000200160009091909190916101000a81548173ffffffffffffffffffffffffffffffffffffffff021916908373ffffffffffffffffffffffffffffffffffffffff160217905550505050565b60066020528060005260406000206000915090508060000160009054906101000a900473ffffffffffffffffffffffffffffffffffffffff16908060010154905082565b60035481565b6200076f62000c13565b73ffffffffffffffffffffffffffffffffffffffff166200078f620009db565b73ffffffffffffffffffffffffffffffffffffffff1614620007e8576040517f08c379a0000000000000000000000000000000000000000000000000000000008152600401620007df9062000ed8565b60405180910390fd5b600073ffffffffffffffffffffffffffffffffffffffff1660008054906101000a900473ffffffffffffffffffffffffffffffffffffffff1673ffffffffffffffffffffffffffffffffffffffff167f8be0079c531659141344cd1fd0a4f28419497f9722a3daafe3b4186f6b6457e060405160405180910390a360008060006101000a81548173ffffffffffffffffffffffffffffffffffffffff021916908373ffffffffffffffffffffffffffffffffffffffff160217905550565b60025481565b600560009054906101000a900473ffffffffffffffffffffffffffffffffffffffff1673ffffffffffffffffffffffffffffffffffffffff163373ffffffffffffffffffffffffffffffffffffffff16146200093f576040517f08c379a0000000000000000000000000000000000000000000000000000000008152600401620009369062000e94565b60405180910390fd5b80600760006003548152602001908152602001600020600401600082825462000969919062000f85565b92505081905550600460035414156200098257620009d8565b600760006003548152602001908152602001600020600001546007600060035481526020019081526020016000206004015410620009d757600160036000828254620009cf919062000f85565b925050819055505b5b50565b60008060009054906101000a900473ffffffffffffffffffffffffffffffffffffffff16905090565b60076020528060005260406000206000915090508060000154908060010154908060020154908060030154908060040154905085565b6201518060025462000a4d919062000f85565b42111562000a5e5760046003819055505b565b62000a6a62000c13565b73ffffffffffffffffffffffffffffffffffffffff1662000a8a620009db565b73ffffffffffffffffffffffffffffffffffffffff161462000ae3576040517f08c379a000000000000000000000000000000000000000000000000000000000815260040162000ada9062000ed8565b60405180910390fd5b600073ffffffffffffffffffffffffffffffffffffffff168173ffffffffffffffffffffffffffffffffffffffff16141562000b56576040517f08c379a000000000000000000000000000000000000000000000000000000000815260040162000b4d9062000e72565b60405180910390fd5b8073ffffffffffffffffffffffffffffffffffffffff1660008054906101000a900473ffffffffffffffffffffffffffffffffffffffff1673ffffffffffffffffffffffffffffffffffffffff167f8be0079c531659141344cd1fd0a4f28419497f9722a3daafe3b4186f6b6457e060405160405180910390a3806000806101000a81548173ffffffffffffffffffffffffffffffffffffffff021916908373ffffffffffffffffffffffffffffffffffffffff16021790555050565b600033905090565b61430b806200119a83390190565b60008135905062000c3a8162001165565b92915050565b60008135905062000c51816200117f565b92915050565b60006020828403121562000c6a57600080fd5b600062000c7a8482850162000c29565b91505092915050565b6000806040838503121562000c9757600080fd5b600062000ca78582860162000c29565b925050602062000cba8582860162000c40565b9150509250929050565b60006020828403121562000cd757600080fd5b600062000ce78482850162000c40565b91505092915050565b62000cfb8162000fe2565b82525050565b600062000d1060268362000f74565b915062000d1d826200104f565b604082019050919050565b600062000d3760248362000f74565b915062000d44826200109e565b604082019050919050565b600062000d5e602f8362000f74565b915062000d6b82620010ed565b604082019050919050565b600062000d8560208362000f74565b915062000d92826200113c565b602082019050919050565b62000da88162001016565b82525050565b600060208201905062000dc5600083018462000cf0565b92915050565b600060608201905062000de2600083018662000cf0565b62000df1602083018562000cf0565b62000e00604083018462000cf0565b949350505050565b600060608201905062000e1f600083018662000cf0565b62000e2e602083018562000cf0565b62000e3d604083018462000d9d565b949350505050565b600060408201905062000e5c600083018562000cf0565b62000e6b602083018462000d9d565b9392505050565b6000602082019050818103600083015262000e8d8162000d01565b9050919050565b6000602082019050818103600083015262000eaf8162000d28565b9050919050565b6000602082019050818103600083015262000ed18162000d4f565b9050919050565b6000602082019050818103600083015262000ef38162000d76565b9050919050565b600060208201905062000f11600083018462000d9d565b92915050565b600060a08201905062000f2e600083018862000d9d565b62000f3d602083018762000d9d565b62000f4c604083018662000d9d565b62000f5b606083018562000d9d565b62000f6a608083018462000d9d565b9695505050505050565b600082825260208201905092915050565b600062000f928262001016565b915062000f9f8362001016565b9250827fffffffffffffffffffffffffffffffffffffffffffffffffffffffffffffffff0382111562000fd75762000fd662001020565b5b828201905092915050565b600062000fef8262000ff6565b9050919050565b600073ffffffffffffffffffffffffffffffffffffffff82169050919050565b6000819050919050565b7f4e487b7100000000000000000000000000000000000000000000000000000000600052601160045260246000fd5b7f4f776e61626c653a206e6577206f776e657220697320746865207a65726f206160008201527f6464726573730000000000000000000000000000000000000000000000000000602082015250565b7f53656e6465722068617320746f2062652061207374616b696e6720636f6e747260008201527f6163742e00000000000000000000000000000000000000000000000000000000602082015250565b7f5374616b696e6752657761726473466163746f72793a3a6465706c6f793a206160008201527f6c7265616479206465706c6f7965640000000000000000000000000000000000602082015250565b7f4f776e61626c653a2063616c6c6572206973206e6f7420746865206f776e6572600082015250565b620011708162000fe2565b81146200117c57600080fd5b50565b6200118a8162001016565b81146200119657600080fd5b5056fe608060405260026001553480156200001657600080fd5b506040516200430b3803806200430b83398181016040528101906200003c9190620001d7565b60006200004e620001b860201b60201c565b9050806000806101000a81548173ffffffffffffffffffffffffffffffffffffffff021916908373ffffffffffffffffffffffffffffffffffffffff1602179055508073ffffffffffffffffffffffffffffffffffffffff16600073ffffffffffffffffffffffffffffffffffffffff167f8be0079c531659141344cd1fd0a4f28419497f9722a3daafe3b4186f6b6457e060405160405180910390a35082600260006101000a81548173ffffffffffffffffffffffffffffffffffffffff021916908373ffffffffffffffffffffffffffffffffffffffff16021790555081600360006101000a81548173ffffffffffffffffffffffffffffffffffffffff021916908373ffffffffffffffffffffffffffffffffffffffff16021790555080600460006101000a81548173ffffffffffffffffffffffffffffffffffffffff021916908373ffffffffffffffffffffffffffffffffffffffff1602179055505050506200027b565b600033905090565b600081519050620001d18162000261565b92915050565b600080600060608486031215620001ed57600080fd5b6000620001fd86828701620001c0565b93505060206200021086828701620001c0565b92505060406200022386828701620001c0565b9150509250925092565b60006200023a8262000241565b9050919050565b600073ffffffffffffffffffffffffffffffffffffffff82169050919050565b6200026c816200022d565b81146200027857600080fd5b50565b614080806200028b6000396000f3fe608060405234801561001057600080fd5b506004361061007d5760003560e01c8063725cedd31161005b578063725cedd3146100c45780638da5cb5b146100e2578063b6b55f2514610100578063f2fde38b1461011c5761007d565b80632e1a7d4d146100825780635521e9bf1461009e578063715018a6146100ba575b600080fd5b61009c600480360381019061009791906138b4565b610138565b005b6100b860048036038101906100b391906138b4565b61123f565b005b6100c261212a565b005b6100cc612264565b6040516100d99190613cca565b60405180910390f35b6100ea6129e3565b6040516100f79190613b8c565b60405180910390f35b61011a600480360381019061011591906138b4565b612a0c565b005b61013660048036038101906101319190613862565b6134e3565b005b60018114801561018b57506000600560003373ffffffffffffffffffffffffffffffffffffffff1673ffffffffffffffffffffffffffffffffffffffff1681526020019081526020016000206001015414155b15610580576000806000806000600260009054906101000a900473ffffffffffffffffffffffffffffffffffffffff1673ffffffffffffffffffffffffffffffffffffffff1663b2596a6760016040518263ffffffff1660e01b81526004016101f49190613bde565b60a06040518083038186803b15801561020c57600080fd5b505afa158015610220573d6000803e3d6000fd5b505050506040513d601f19601f820116820180604052508101906102449190613906565b945094509450945094506001548361025c9190613d99565b600260009054906101000a900473ffffffffffffffffffffffffffffffffffffffff1673ffffffffffffffffffffffffffffffffffffffff166378e979256040518163ffffffff1660e01b815260040160206040518083038186803b1580156102c457600080fd5b505afa1580156102d8573d6000803e3d6000fd5b505050506040513d601f19601f820116820180604052508101906102fc91906138dd565b6103069190613d12565b421115610576576000612710600560003373ffffffffffffffffffffffffffffffffffffffff1673ffffffffffffffffffffffffffffffffffffffff16815260200190815260200160002060010154866103609190613d99565b61036a9190613d68565b600560003373ffffffffffffffffffffffffffffffffffffffff1673ffffffffffffffffffffffffffffffffffffffff168152602001908152602001600020600101546103b79190613d12565b9050600360009054906101000a900473ffffffffffffffffffffffffffffffffffffffff1673ffffffffffffffffffffffffffffffffffffffff166356189cb43033846040518463ffffffff1660e01b815260040161041893929190613ba7565b600060405180830381600087803b15801561043257600080fd5b505af1158015610446573d6000803e3d6000fd5b50505050600360009054906101000a900473ffffffffffffffffffffffffffffffffffffffff1673ffffffffffffffffffffffffffffffffffffffff1663222f5be03033846040518463ffffffff1660e01b81526004016104a993929190613ba7565b600060405180830381600087803b1580156104c357600080fd5b505af11580156104d7573d6000803e3d6000fd5b505050506000600560003373ffffffffffffffffffffffffffffffffffffffff1673ffffffffffffffffffffffffffffffffffffffff168152602001908152602001600020600101819055506000600560003373ffffffffffffffffffffffffffffffffffffffff1673ffffffffffffffffffffffffffffffffffffffff1681526020019081526020016000206005018190555050505050505061123c565b50505050506111fa565b6002811480156105d357506000600560003373ffffffffffffffffffffffffffffffffffffffff1673ffffffffffffffffffffffffffffffffffffffff1681526020019081526020016000206002015414155b156109c8576000806000806000600260009054906101000a900473ffffffffffffffffffffffffffffffffffffffff1673ffffffffffffffffffffffffffffffffffffffff1663b2596a6760026040518263ffffffff1660e01b815260040161063c9190613bf9565b60a06040518083038186803b15801561065457600080fd5b505afa158015610668573d6000803e3d6000fd5b505050506040513d601f19601f8201168201806040525081019061068c9190613906565b94509450945094509450600154836106a49190613d99565b600260009054906101000a900473ffffffffffffffffffffffffffffffffffffffff1673ffffffffffffffffffffffffffffffffffffffff166378e979256040518163ffffffff1660e01b815260040160206040518083038186803b15801561070c57600080fd5b505afa158015610720573d6000803e3d6000fd5b505050506040513d601f19601f8201168201806040525081019061074491906138dd565b61074e9190613d12565b4211156109be576000612710600560003373ffffffffffffffffffffffffffffffffffffffff1673ffffffffffffffffffffffffffffffffffffffff16815260200190815260200160002060020154866107a89190613d99565b6107b29190613d68565b600560003373ffffffffffffffffffffffffffffffffffffffff1673ffffffffffffffffffffffffffffffffffffffff168152602001908152602001600020600201546107ff9190613d12565b9050600360009054906101000a900473ffffffffffffffffffffffffffffffffffffffff1673ffffffffffffffffffffffffffffffffffffffff166356189cb43033846040518463ffffffff1660e01b815260040161086093929190613ba7565b600060405180830381600087803b15801561087a57600080fd5b505af115801561088e573d6000803e3d6000fd5b50505050600360009054906101000a900473ffffffffffffffffffffffffffffffffffffffff1673ffffffffffffffffffffffffffffffffffffffff1663222f5be03033846040518463ffffffff1660e01b81526004016108f193929190613ba7565b600060405180830381600087803b15801561090b57600080fd5b505af115801561091f573d6000803e3d6000fd5b505050506000600560003373ffffffffffffffffffffffffffffffffffffffff1673ffffffffffffffffffffffffffffffffffffffff168152602001908152602001600020600201819055506000600560003373ffffffffffffffffffffffffffffffffffffffff1673ffffffffffffffffffffffffffffffffffffffff1681526020019081526020016000206006018190555050505050505061123c565b50505050506111f9565b600381148015610a1b57506000600560003373ffffffffffffffffffffffffffffffffffffffff1673ffffffffffffffffffffffffffffffffffffffff1681526020019081526020016000206003015414155b15610e10576000806000806000600260009054906101000a900473ffffffffffffffffffffffffffffffffffffffff1673ffffffffffffffffffffffffffffffffffffffff1663b2596a6760036040518263ffffffff1660e01b8152600401610a849190613c14565b60a06040518083038186803b158015610a9c57600080fd5b505afa158015610ab0573d6000803e3d6000fd5b505050506040513d601f19601f82011682018060405250810190610ad49190613906565b9450945094509450945060015483610aec9190613d99565b600260009054906101000a900473ffffffffffffffffffffffffffffffffffffffff1673ffffffffffffffffffffffffffffffffffffffff166378e979256040518163ffffffff1660e01b815260040160206040518083038186803b158015610b5457600080fd5b505afa158015610b68573d6000803e3d6000fd5b505050506040513d601f19601f82011682018060405250810190610b8c91906138dd565b610b969190613d12565b421115610e06576000612710600560003373ffffffffffffffffffffffffffffffffffffffff1673ffffffffffffffffffffffffffffffffffffffff1681526020019081526020016000206003015486610bf09190613d99565b610bfa9190613d68565b600560003373ffffffffffffffffffffffffffffffffffffffff1673ffffffffffffffffffffffffffffffffffffffff16815260200190815260200160002060030154610c479190613d12565b9050600360009054906101000a900473ffffffffffffffffffffffffffffffffffffffff1673ffffffffffffffffffffffffffffffffffffffff166356189cb43033846040518463ffffffff1660e01b8152600401610ca893929190613ba7565b600060405180830381600087803b158015610cc257600080fd5b505af1158015610cd6573d6000803e3d6000fd5b50505050600360009054906101000a900473ffffffffffffffffffffffffffffffffffffffff1673ffffffffffffffffffffffffffffffffffffffff1663222f5be03033846040518463ffffffff1660e01b8152600401610d3993929190613ba7565b600060405180830381600087803b158015610d5357600080fd5b505af1158015610d67573d6000803e3d6000fd5b505050506000600560003373ffffffffffffffffffffffffffffffffffffffff1673ffffffffffffffffffffffffffffffffffffffff168152602001908152602001600020600301819055506000600560003373ffffffffffffffffffffffffffffffffffffffff1673ffffffffffffffffffffffffffffffffffffffff1681526020019081526020016000206007018190555050505050505061123c565b50505050506111f8565b600481148015610e6357506000600560003373ffffffffffffffffffffffffffffffffffffffff1673ffffffffffffffffffffffffffffffffffffffff1681526020019081526020016000206004015414155b156111f7576000806000806000600260009054906101000a900473ffffffffffffffffffffffffffffffffffffffff1673ffffffffffffffffffffffffffffffffffffffff1663b2596a6760046040518263ffffffff1660e01b8152600401610ecc9190613c2f565b60a06040518083038186803b158015610ee457600080fd5b505afa158015610ef8573d6000803e3d6000fd5b505050506040513d601f19601f82011682018060405250810190610f1c9190613906565b9450945094509450945060015483610f349190613d99565b600560003373ffffffffffffffffffffffffffffffffffffffff1673ffffffffffffffffffffffffffffffffffffffff168152602001908152602001600020600b0154610f819190613d12565b4211156111f1576000612710600560003373ffffffffffffffffffffffffffffffffffffffff1673ffffffffffffffffffffffffffffffffffffffff1681526020019081526020016000206004015486610fdb9190613d99565b610fe59190613d68565b600560003373ffffffffffffffffffffffffffffffffffffffff1673ffffffffffffffffffffffffffffffffffffffff168152602001908152602001600020600401546110329190613d12565b9050600360009054906101000a900473ffffffffffffffffffffffffffffffffffffffff1673ffffffffffffffffffffffffffffffffffffffff166356189cb43033846040518463ffffffff1660e01b815260040161109393929190613ba7565b600060405180830381600087803b1580156110ad57600080fd5b505af11580156110c1573d6000803e3d6000fd5b50505050600360009054906101000a900473ffffffffffffffffffffffffffffffffffffffff1673ffffffffffffffffffffffffffffffffffffffff1663222f5be03033846040518463ffffffff1660e01b815260040161112493929190613ba7565b600060405180830381600087803b15801561113e57600080fd5b505af1158015611152573d6000803e3d6000fd5b505050506000600560003373ffffffffffffffffffffffffffffffffffffffff1673ffffffffffffffffffffffffffffffffffffffff168152602001908152602001600020600401819055506000600560003373ffffffffffffffffffffffffffffffffffffffff1673ffffffffffffffffffffffffffffffffffffffff1681526020019081526020016000206008018190555050505050505061123c565b50505050505b5b5b5b600061123b576040517f08c379a000000000000000000000000000000000000000000000000000000000815260040161123290613c4a565b60405180910390fd5b5b50565b600081141561124d57600080fd5b6000600560003373ffffffffffffffffffffffffffffffffffffffff1673ffffffffffffffffffffffffffffffffffffffff16815260200190815260200160002060010154146115b1576000806000806000600260009054906101000a900473ffffffffffffffffffffffffffffffffffffffff1673ffffffffffffffffffffffffffffffffffffffff1663b2596a6760016040518263ffffffff1660e01b81526004016112fb9190613bde565b60a06040518083038186803b15801561131357600080fd5b505afa158015611327573d6000803e3d6000fd5b505050506040513d601f19601f8201168201806040525081019061134b9190613906565b94509450945094509450600154836113639190613d99565b600260009054906101000a900473ffffffffffffffffffffffffffffffffffffffff1673ffffffffffffffffffffffffffffffffffffffff166378e979256040518163ffffffff1660e01b815260040160206040518083038186803b1580156113cb57600080fd5b505afa1580156113df573d6000803e3d6000fd5b505050506040513d601f19601f8201168201806040525081019061140391906138dd565b61140d9190613d12565b4211156115ab576000612710600560003373ffffffffffffffffffffffffffffffffffffffff1673ffffffffffffffffffffffffffffffffffffffff16815260200190815260200160002060010154866114679190613d99565b6114719190613d68565b600560003373ffffffffffffffffffffffffffffffffffffffff1673ffffffffffffffffffffffffffffffffffffffff168152602001908152602001600020600101546114be9190613d12565b905080600560003373ffffffffffffffffffffffffffffffffffffffff1673ffffffffffffffffffffffffffffffffffffffff16815260200190815260200160002060090160008282546115129190613d12565b925050819055506000600560003373ffffffffffffffffffffffffffffffffffffffff1673ffffffffffffffffffffffffffffffffffffffff168152602001908152602001600020600101819055506000600560003373ffffffffffffffffffffffffffffffffffffffff1673ffffffffffffffffffffffffffffffffffffffff16815260200190815260200160002060050181905550505b50505050505b6000600560003373ffffffffffffffffffffffffffffffffffffffff1673ffffffffffffffffffffffffffffffffffffffff1681526020019081526020016000206002015414611915576000806000806000600260009054906101000a900473ffffffffffffffffffffffffffffffffffffffff1673ffffffffffffffffffffffffffffffffffffffff1663b2596a6760026040518263ffffffff1660e01b815260040161165f9190613bf9565b60a06040518083038186803b15801561167757600080fd5b505afa15801561168b573d6000803e3d6000fd5b505050506040513d601f19601f820116820180604052508101906116af9190613906565b94509450945094509450600154836116c79190613d99565b600260009054906101000a900473ffffffffffffffffffffffffffffffffffffffff1673ffffffffffffffffffffffffffffffffffffffff166378e979256040518163ffffffff1660e01b815260040160206040518083038186803b15801561172f57600080fd5b505afa158015611743573d6000803e3d6000fd5b505050506040513d601f19601f8201168201806040525081019061176791906138dd565b6117719190613d12565b42111561190f576000612710600560003373ffffffffffffffffffffffffffffffffffffffff1673ffffffffffffffffffffffffffffffffffffffff16815260200190815260200160002060020154866117cb9190613d99565b6117d59190613d68565b600560003373ffffffffffffffffffffffffffffffffffffffff1673ffffffffffffffffffffffffffffffffffffffff168152602001908152602001600020600201546118229190613d12565b905080600560003373ffffffffffffffffffffffffffffffffffffffff1673ffffffffffffffffffffffffffffffffffffffff16815260200190815260200160002060090160008282546118769190613d12565b925050819055506000600560003373ffffffffffffffffffffffffffffffffffffffff1673ffffffffffffffffffffffffffffffffffffffff168152602001908152602001600020600201819055506000600560003373ffffffffffffffffffffffffffffffffffffffff1673ffffffffffffffffffffffffffffffffffffffff16815260200190815260200160002060060181905550505b50505050505b6000600560003373ffffffffffffffffffffffffffffffffffffffff1673ffffffffffffffffffffffffffffffffffffffff1681526020019081526020016000206003015414611c79576000806000806000600260009054906101000a900473ffffffffffffffffffffffffffffffffffffffff1673ffffffffffffffffffffffffffffffffffffffff1663b2596a6760036040518263ffffffff1660e01b81526004016119c39190613c14565b60a06040518083038186803b1580156119db57600080fd5b505afa1580156119ef573d6000803e3d6000fd5b505050506040513d601f19601f82011682018060405250810190611a139190613906565b9450945094509450945060015483611a2b9190613d99565b600260009054906101000a900473ffffffffffffffffffffffffffffffffffffffff1673ffffffffffffffffffffffffffffffffffffffff166378e979256040518163ffffffff1660e01b815260040160206040518083038186803b158015611a9357600080fd5b505afa158015611aa7573d6000803e3d6000fd5b505050506040513d601f19601f82011682018060405250810190611acb91906138dd565b611ad59190613d12565b421115611c73576000612710600560003373ffffffffffffffffffffffffffffffffffffffff1673ffffffffffffffffffffffffffffffffffffffff1681526020019081526020016000206003015486611b2f9190613d99565b611b399190613d68565b600560003373ffffffffffffffffffffffffffffffffffffffff1673ffffffffffffffffffffffffffffffffffffffff16815260200190815260200160002060030154611b869190613d12565b905080600560003373ffffffffffffffffffffffffffffffffffffffff1673ffffffffffffffffffffffffffffffffffffffff1681526020019081526020016000206009016000828254611bda9190613d12565b925050819055506000600560003373ffffffffffffffffffffffffffffffffffffffff1673ffffffffffffffffffffffffffffffffffffffff168152602001908152602001600020600301819055506000600560003373ffffffffffffffffffffffffffffffffffffffff1673ffffffffffffffffffffffffffffffffffffffff16815260200190815260200160002060070181905550505b50505050505b6000600560003373ffffffffffffffffffffffffffffffffffffffff1673ffffffffffffffffffffffffffffffffffffffff1681526020019081526020016000206004015414611f80576000806000806000600260009054906101000a900473ffffffffffffffffffffffffffffffffffffffff1673ffffffffffffffffffffffffffffffffffffffff1663b2596a6760046040518263ffffffff1660e01b8152600401611d279190613c2f565b60a06040518083038186803b158015611d3f57600080fd5b505afa158015611d53573d6000803e3d6000fd5b505050506040513d601f19601f82011682018060405250810190611d779190613906565b9450945094509450945060015483611d8f9190613d99565b600560003373ffffffffffffffffffffffffffffffffffffffff1673ffffffffffffffffffffffffffffffffffffffff168152602001908152602001600020600b0154611ddc9190613d12565b421115611f7a576000612710600560003373ffffffffffffffffffffffffffffffffffffffff1673ffffffffffffffffffffffffffffffffffffffff1681526020019081526020016000206004015486611e369190613d99565b611e409190613d68565b600560003373ffffffffffffffffffffffffffffffffffffffff1673ffffffffffffffffffffffffffffffffffffffff16815260200190815260200160002060040154611e8d9190613d12565b905080600560003373ffffffffffffffffffffffffffffffffffffffff1673ffffffffffffffffffffffffffffffffffffffff1681526020019081526020016000206009016000828254611ee19190613d12565b925050819055506000600560003373ffffffffffffffffffffffffffffffffffffffff1673ffffffffffffffffffffffffffffffffffffffff168152602001908152602001600020600401819055506000600560003373ffffffffffffffffffffffffffffffffffffffff1673ffffffffffffffffffffffffffffffffffffffff16815260200190815260200160002060080181905550505b50505050505b600560003373ffffffffffffffffffffffffffffffffffffffff1673ffffffffffffffffffffffffffffffffffffffff16815260200190815260200160002060090154811115612005576040517f08c379a0000000000000000000000000000000000000000000000000000000008152600401611ffc90613c8a565b60405180910390fd5b600360009054906101000a900473ffffffffffffffffffffffffffffffffffffffff1673ffffffffffffffffffffffffffffffffffffffff166356189cb43033846040518463ffffffff1660e01b815260040161206493929190613ba7565b600060405180830381600087803b15801561207e57600080fd5b505af1158015612092573d6000803e3d6000fd5b50505050600360009054906101000a900473ffffffffffffffffffffffffffffffffffffffff1673ffffffffffffffffffffffffffffffffffffffff1663222f5be03033846040518463ffffffff1660e01b81526004016120f593929190613ba7565b600060405180830381600087803b15801561210f57600080fd5b505af1158015612123573d6000803e3d6000fd5b5050505050565b61213261368c565b73ffffffffffffffffffffffffffffffffffffffff166121506129e3565b73ffffffffffffffffffffffffffffffffffffffff16146121a6576040517f08c379a000000000000000000000000000000000000000000000000000000000815260040161219d90613caa565b60405180910390fd5b600073ffffffffffffffffffffffffffffffffffffffff1660008054906101000a900473ffffffffffffffffffffffffffffffffffffffff1673ffffffffffffffffffffffffffffffffffffffff167f8be0079c531659141344cd1fd0a4f28419497f9722a3daafe3b4186f6b6457e060405160405180910390a360008060006101000a81548173ffffffffffffffffffffffffffffffffffffffff021916908373ffffffffffffffffffffffffffffffffffffffff160217905550565b61226c6137a2565b6000600560003373ffffffffffffffffffffffffffffffffffffffff1673ffffffffffffffffffffffffffffffffffffffff168152602001908152602001600020604051806101a00160405290816000820160009054906101000a900460ff161515151581526020016000820160019054906101000a900460ff16151515158152602001600182015481526020016002820154815260200160038201548152602001600482015481526020016005820154815260200160068201548152602001600782015481526020016008820154815260200160098201548152602001600a8201548152602001600b8201548152505090506000816040015114612515576000806000806000600260009054906101000a900473ffffffffffffffffffffffffffffffffffffffff1673ffffffffffffffffffffffffffffffffffffffff1663b2596a6760016040518263ffffffff1660e01b81526004016123cf9190613bde565b60a06040518083038186803b1580156123e757600080fd5b505afa1580156123fb573d6000803e3d6000fd5b505050506040513d601f19601f8201168201806040525081019061241f9190613906565b94509450945094509450600154836124379190613d99565b600260009054906101000a900473ffffffffffffffffffffffffffffffffffffffff1673ffffffffffffffffffffffffffffffffffffffff166378e979256040518163ffffffff1660e01b815260040160206040518083038186803b15801561249f57600080fd5b505afa1580156124b3573d6000803e3d6000fd5b505050506040513d601f19601f820116820180604052508101906124d791906138dd565b6124e19190613d12565b42111561250f576127108660400151856124fb9190613d99565b6125059190613d68565b8660c00181815250505b50505050505b60008160600151146126cb576000806000806000600260009054906101000a900473ffffffffffffffffffffffffffffffffffffffff1673ffffffffffffffffffffffffffffffffffffffff1663b2596a6760026040518263ffffffff1660e01b81526004016125859190613bf9565b60a06040518083038186803b15801561259d57600080fd5b505afa1580156125b1573d6000803e3d6000fd5b505050506040513d601f19601f820116820180604052508101906125d59190613906565b94509450945094509450600154836125ed9190613d99565b600260009054906101000a900473ffffffffffffffffffffffffffffffffffffffff1673ffffffffffffffffffffffffffffffffffffffff166378e979256040518163ffffffff1660e01b815260040160206040518083038186803b15801561265557600080fd5b505afa158015612669573d6000803e3d6000fd5b505050506040513d601f19601f8201168201806040525081019061268d91906138dd565b6126979190613d12565b4211156126c5576127108660600151856126b19190613d99565b6126bb9190613d68565b8660e00181815250505b50505050505b6000816080015114612882576000806000806000600260009054906101000a900473ffffffffffffffffffffffffffffffffffffffff1673ffffffffffffffffffffffffffffffffffffffff1663b2596a6760036040518263ffffffff1660e01b815260040161273b9190613c14565b60a06040518083038186803b15801561275357600080fd5b505afa158015612767573d6000803e3d6000fd5b505050506040513d601f19601f8201168201806040525081019061278b9190613906565b94509450945094509450600154836127a39190613d99565b600260009054906101000a900473ffffffffffffffffffffffffffffffffffffffff1673ffffffffffffffffffffffffffffffffffffffff166378e979256040518163ffffffff1660e01b815260040160206040518083038186803b15801561280b57600080fd5b505afa15801561281f573d6000803e3d6000fd5b505050506040513d601f19601f8201168201806040525081019061284391906138dd565b61284d9190613d12565b42111561287c576127108660800151856128679190613d99565b6128719190613d68565b866101000181815250505b50505050505b60008160a00151146129dc576000806000806000600260009054906101000a900473ffffffffffffffffffffffffffffffffffffffff1673ffffffffffffffffffffffffffffffffffffffff1663b2596a6760046040518263ffffffff1660e01b81526004016128f29190613c2f565b60a06040518083038186803b15801561290a57600080fd5b505afa15801561291e573d6000803e3d6000fd5b505050506040513d601f19601f820116820180604052508101906129429190613906565b945094509450945094506001548361295a9190613d99565b600560003373ffffffffffffffffffffffffffffffffffffffff1673ffffffffffffffffffffffffffffffffffffffff168152602001908152602001600020600b01546129a79190613d12565b4211156129d6576127108660a00151856129c19190613d99565b6129cb9190613d68565b866101200181815250505b50505050505b8091505090565b60008060009054906101000a900473ffffffffffffffffffffffffffffffffffffffff16905090565b600260009054906101000a900473ffffffffffffffffffffffffffffffffffffffff1673ffffffffffffffffffffffffffffffffffffffff1663f12ca6986040518163ffffffff1660e01b8152600401600060405180830381600087803b158015612a7657600080fd5b505af1158015612a8a573d6000803e3d6000fd5b50505050600080600260009054906101000a900473ffffffffffffffffffffffffffffffffffffffff1673ffffffffffffffffffffffffffffffffffffffff16636fd5ae156040518163ffffffff1660e01b815260040160206040518083038186803b158015612af957600080fd5b505afa158015612b0d573d6000803e3d6000fd5b505050506040513d601f19601f82011682018060405250810190612b3191906138dd565b90506001811415612d8c57612b468382613694565b809350819450505082600560003373ffffffffffffffffffffffffffffffffffffffff1673ffffffffffffffffffffffffffffffffffffffff1681526020019081526020016000206001016000828254612ba09190613d12565b92505081905550600460009054906101000a900473ffffffffffffffffffffffffffffffffffffffff1673ffffffffffffffffffffffffffffffffffffffff166323b872dd3330866040518463ffffffff1660e01b8152600401612c0693929190613ba7565b602060405180830381600087803b158015612c2057600080fd5b505af1158015612c34573d6000803e3d6000fd5b505050506040513d601f19601f82011682018060405250810190612c58919061388b565b50600260009054906101000a900473ffffffffffffffffffffffffffffffffffffffff1673ffffffffffffffffffffffffffffffffffffffff16637bdecea1846040518263ffffffff1660e01b8152600401612cb49190613ce6565b600060405180830381600087803b158015612cce57600080fd5b505af1158015612ce2573d6000803e3d6000fd5b50505050600260009054906101000a900473ffffffffffffffffffffffffffffffffffffffff1673ffffffffffffffffffffffffffffffffffffffff16636fd5ae156040518163ffffffff1660e01b815260040160206040518083038186803b158015612d4e57600080fd5b505afa158015612d62573d6000803e3d6000fd5b505050506040513d601f19601f82011682018060405250810190612d8691906138dd565b90508192505b6002811415612fe557612d9f8382613694565b809350819450505082600560003373ffffffffffffffffffffffffffffffffffffffff1673ffffffffffffffffffffffffffffffffffffffff1681526020019081526020016000206002016000828254612df99190613d12565b92505081905550600460009054906101000a900473ffffffffffffffffffffffffffffffffffffffff1673ffffffffffffffffffffffffffffffffffffffff166323b872dd3330866040518463ffffffff1660e01b8152600401612e5f93929190613ba7565b602060405180830381600087803b158015612e7957600080fd5b505af1158015612e8d573d6000803e3d6000fd5b505050506040513d601f19601f82011682018060405250810190612eb1919061388b565b50600260009054906101000a900473ffffffffffffffffffffffffffffffffffffffff1673ffffffffffffffffffffffffffffffffffffffff16637bdecea1846040518263ffffffff1660e01b8152600401612f0d9190613ce6565b600060405180830381600087803b158015612f2757600080fd5b505af1158015612f3b573d6000803e3d6000fd5b50505050600260009054906101000a900473ffffffffffffffffffffffffffffffffffffffff1673ffffffffffffffffffffffffffffffffffffffff16636fd5ae156040518163ffffffff1660e01b815260040160206040518083038186803b158015612fa757600080fd5b505afa158015612fbb573d6000803e3d6000fd5b505050506040513d601f19601f82011682018060405250810190612fdf91906138dd565b90508192505b600381141561323e57612ff88382613694565b809350819450505082600560003373ffffffffffffffffffffffffffffffffffffffff1673ffffffffffffffffffffffffffffffffffffffff16815260200190815260200160002060030160008282546130529190613d12565b92505081905550600460009054906101000a900473ffffffffffffffffffffffffffffffffffffffff1673ffffffffffffffffffffffffffffffffffffffff166323b872dd3330866040518463ffffffff1660e01b81526004016130b893929190613ba7565b602060405180830381600087803b1580156130d257600080fd5b505af11580156130e6573d6000803e3d6000fd5b505050506040513d601f19601f8201168201806040525081019061310a919061388b565b50600260009054906101000a900473ffffffffffffffffffffffffffffffffffffffff1673ffffffffffffffffffffffffffffffffffffffff16637bdecea1846040518263ffffffff1660e01b81526004016131669190613ce6565b600060405180830381600087803b15801561318057600080fd5b505af1158015613194573d6000803e3d6000fd5b50505050600260009054906101000a900473ffffffffffffffffffffffffffffffffffffffff1673ffffffffffffffffffffffffffffffffffffffff16636fd5ae156040518163ffffffff1660e01b815260040160206040518083038186803b15801561320057600080fd5b505afa158015613214573d6000803e3d6000fd5b505050506040513d601f19601f8201168201806040525081019061323891906138dd565b90508192505b6004811415613497576132518382613694565b809350819450505082600560003373ffffffffffffffffffffffffffffffffffffffff1673ffffffffffffffffffffffffffffffffffffffff16815260200190815260200160002060040160008282546132ab9190613d12565b92505081905550600460009054906101000a900473ffffffffffffffffffffffffffffffffffffffff1673ffffffffffffffffffffffffffffffffffffffff166323b872dd3330866040518463ffffffff1660e01b815260040161331193929190613ba7565b602060405180830381600087803b15801561332b57600080fd5b505af115801561333f573d6000803e3d6000fd5b505050506040513d601f19601f82011682018060405250810190613363919061388b565b50600260009054906101000a900473ffffffffffffffffffffffffffffffffffffffff1673ffffffffffffffffffffffffffffffffffffffff16637bdecea1846040518263ffffffff1660e01b81526004016133bf9190613ce6565b600060405180830381600087803b1580156133d957600080fd5b505af11580156133ed573d6000803e3d6000fd5b50505050600260009054906101000a900473ffffffffffffffffffffffffffffffffffffffff1673ffffffffffffffffffffffffffffffffffffffff16636fd5ae156040518163ffffffff1660e01b815260040160206040518083038186803b15801561345957600080fd5b505afa15801561346d573d6000803e3d6000fd5b505050506040513d601f19601f8201168201806040525081019061349191906138dd565b90508192505b42600560003373ffffffffffffffffffffffffffffffffffffffff1673ffffffffffffffffffffffffffffffffffffffff168152602001908152602001600020600b0181905550505050565b6134eb61368c565b73ffffffffffffffffffffffffffffffffffffffff166135096129e3565b73ffffffffffffffffffffffffffffffffffffffff161461355f576040517f08c379a000000000000000000000000000000000000000000000000000000000815260040161355690613caa565b60405180910390fd5b600073ffffffffffffffffffffffffffffffffffffffff168173ffffffffffffffffffffffffffffffffffffffff1614156135cf576040517f08c379a00000000000000000000000000000000000000000000000000000000081526004016135c690613c6a565b60405180910390fd5b8073ffffffffffffffffffffffffffffffffffffffff1660008054906101000a900473ffffffffffffffffffffffffffffffffffffffff1673ffffffffffffffffffffffffffffffffffffffff167f8be0079c531659141344cd1fd0a4f28419497f9722a3daafe3b4186f6b6457e060405160405180910390a3806000806101000a81548173ffffffffffffffffffffffffffffffffffffffff021916908373ffffffffffffffffffffffffffffffffffffffff16021790555050565b600033905090565b600080600080600080600080600260009054906101000a900473ffffffffffffffffffffffffffffffffffffffff1673ffffffffffffffffffffffffffffffffffffffff1663b2596a678a6040518263ffffffff1660e01b81526004016136fb9190613ce6565b60a06040518083038186803b15801561371357600080fd5b505afa158015613727573d6000803e3d6000fd5b505050506040513d601f19601f8201168201806040525081019061374b9190613906565b94509450945094509450848a826137629190613d12565b1061378f5780856137739190613df3565b8a61377e9190613df3565b9550808561378c9190613df3565b99505b8986975097505050505050509250929050565b604051806101a0016040528060001515815260200160001515815260200160008152602001600081526020016000815260200160008152602001600081526020016000815260200160008152602001600081526020016000815260200160008152602001600081525090565b60008135905061381d81614005565b92915050565b6000815190506138328161401c565b92915050565b60008135905061384781614033565b92915050565b60008151905061385c81614033565b92915050565b60006020828403121561387457600080fd5b60006138828482850161380e565b91505092915050565b60006020828403121561389d57600080fd5b60006138ab84828501613823565b91505092915050565b6000602082840312156138c657600080fd5b60006138d484828501613838565b91505092915050565b6000602082840312156138ef57600080fd5b60006138fd8482850161384d565b91505092915050565b600080600080600060a0868803121561391e57600080fd5b600061392c8882890161384d565b955050602061393d8882890161384d565b945050604061394e8882890161384d565b935050606061395f8882890161384d565b92505060806139708882890161384d565b9150509295509295909350565b61398681613e27565b82525050565b61399581613e39565b82525050565b6139a481613e6f565b82525050565b6139b381613e81565b82525050565b6139c281613e93565b82525050565b6139d181613ea5565b82525050565b60006139e4600f83613d01565b91506139ef82613f15565b602082019050919050565b6000613a07602683613d01565b9150613a1282613f3e565b604082019050919050565b6000613a2a602283613d01565b9150613a3582613f8d565b604082019050919050565b6000613a4d602083613d01565b9150613a5882613fdc565b602082019050919050565b6101a082016000820151613a7a600085018261398c565b506020820151613a8d602085018261398c565b506040820151613aa06040850182613b6e565b506060820151613ab36060850182613b6e565b506080820151613ac66080850182613b6e565b5060a0820151613ad960a0850182613b6e565b5060c0820151613aec60c0850182613b6e565b5060e0820151613aff60e0850182613b6e565b50610100820151613b14610100850182613b6e565b50610120820151613b29610120850182613b6e565b50610140820151613b3e610140850182613b6e565b50610160820151613b53610160850182613b6e565b50610180820151613b68610180850182613b6e565b50505050565b613b7781613e65565b82525050565b613b8681613e65565b82525050565b6000602082019050613ba1600083018461397d565b92915050565b6000606082019050613bbc600083018661397d565b613bc9602083018561397d565b613bd66040830184613b7d565b949350505050565b6000602082019050613bf3600083018461399b565b92915050565b6000602082019050613c0e60008301846139aa565b92915050565b6000602082019050613c2960008301846139b9565b92915050565b6000602082019050613c4460008301846139c8565b92915050565b60006020820190508181036000830152613c63816139d7565b9050919050565b60006020820190508181036000830152613c83816139fa565b9050919050565b60006020820190508181036000830152613ca381613a1d565b9050919050565b60006020820190508181036000830152613cc381613a40565b9050919050565b60006101a082019050613ce06000830184613a63565b92915050565b6000602082019050613cfb6000830184613b7d565b92915050565b600082825260208201905092915050565b6000613d1d82613e65565b9150613d2883613e65565b9250827fffffffffffffffffffffffffffffffffffffffffffffffffffffffffffffffff03821115613d5d57613d5c613eb7565b5b828201905092915050565b6000613d7382613e65565b9150613d7e83613e65565b925082613d8e57613d8d613ee6565b5b828204905092915050565b6000613da482613e65565b9150613daf83613e65565b9250817fffffffffffffffffffffffffffffffffffffffffffffffffffffffffffffffff0483118215151615613de857613de7613eb7565b5b828202905092915050565b6000613dfe82613e65565b9150613e0983613e65565b925082821015613e1c57613e1b613eb7565b5b828203905092915050565b6000613e3282613e45565b9050919050565b60008115159050919050565b600073ffffffffffffffffffffffffffffffffffffffff82169050919050565b6000819050919050565b6000613e7a82613e65565b9050919050565b6000613e8c82613e65565b9050919050565b6000613e9e82613e65565b9050919050565b6000613eb082613e65565b9050919050565b7f4e487b7100000000000000000000000000000000000000000000000000000000600052601160045260246000fd5b7f4e487b7100000000000000000000000000000000000000000000000000000000600052601260045260246000fd5b7f43616e6e6f742077697468647261770000000000000000000000000000000000600082015250565b7f4f776e61626c653a206e6577206f776e657220697320746865207a65726f206160008201527f6464726573730000000000000000000000000000000000000000000000000000602082015250565b7f52657175657374656420616d6f756e74206d6f7265207468616e20726577617260008201527f642e000000000000000000000000000000000000000000000000000000000000602082015250565b7f4f776e61626c653a2063616c6c6572206973206e6f7420746865206f776e6572600082015250565b61400e81613e27565b811461401957600080fd5b50565b61402581613e39565b811461403057600080fd5b50565b61403c81613e65565b811461404757600080fd5b5056fea264697066735822122049e50784074333434cf09d34b76a774fe12e812873b41c73226ab12400258ddc64736f6c63430008010033a2646970667358221220d00153854cd780fb9d0e706d6fad73abfbf4122278ad0ff9d1684c5c7f4076ba64736f6c63430008010033",
	"immutableReferences": {},
	"source": "// SPDX-License-Identifier: MIT\npragma solidity ^0.8.0;\n\nimport '@openzeppelin/contracts/token/ERC20/ERC20.sol';\nimport '@openzeppelin/contracts/access/Ownable.sol';\n\nimport './Tokens.sol';\n\n/**\nThis is a Staking contract created for every token.\n */\ncontract Staking is Ownable {\n\tuint256 oneDay = 2;\n\n\tStakingFactory factory; // Contract which is creating this one.\n\n\tMock rewardsToken; // Reward Token\n\n\tIERC20 stakingToken; // Staking Token\n\n\t/**\n\tUser Data\n\t */\n\tstruct UserData {\n\t\tbool allowed;\n\t\tbool created;\n\t\t//\n\t\tuint256 level1Tokens;\n\t\tuint256 level2Tokens;\n\t\tuint256 level3Tokens;\n\t\tuint256 level4Tokens;\n\t\t//\n\t\tuint256 level1Reward;\n\t\tuint256 level2Reward;\n\t\tuint256 level3Reward;\n\t\tuint256 level4Reward;\n\t\t//\n\t\tuint256 withdrawable;\n\t\t//\n\t\tuint256 tokens;\n\t\tuint256 lastUpdateDate;\n\t}\n\n\t/**Level Data. TODO: move to library */\n\tstruct LevelData {\n\t\tuint256 allowedForXCoins;\n\t\tuint256 rewardPercentTimes100;\n\t\tuint256 lockedDuration;\n\t\tuint256 allowedReward;\n\t\tuint256 alloted;\n\t}\n\n\tmapping(address => UserData) users;\n\n\tconstructor(\n\t\taddress _factory,\n\t\taddress _rewardsToken,\n\t\taddress _stakingToken\n\t) {\n\t\tfactory = StakingFactory(_factory);\n\t\trewardsToken = Mock(_rewardsToken);\n\t\tstakingToken = IERC20(_stakingToken);\n\t}\n\n\tfunction checkUpdateLevel(uint256 amount, uint256 level) internal view returns (uint256, uint256) {\n\t\tuint256 remaining;\n\t\t(uint256 allowedForXCoins, uint256 _rewardPercentTimes100, uint256 _lockedDuration, uint256 _allowedReward, uint256 alloted) =\n\t\t\tfactory.levels(level);\n\n\t\tif (alloted + amount >= allowedForXCoins) {\n\t\t\tremaining = amount - (allowedForXCoins - alloted);\n\t\t\tamount = allowedForXCoins - alloted;\n\t\t}\n\t\treturn (amount, remaining);\n\t}\n\n\t/**deposit function */\n\tfunction deposit(uint256 amount) external {\n\t\t// Check if level has been updated due to time elapsed.\n\n\t\tfactory.updateLevelCheck();\n\t\t// Fetch the level.\n\t\tuint256 remaining;\n\t\tuint256 level = factory.level();\n\t\t// Check if the amount updates the level and only deposit the amount which just updates\n\t\t// and update the level. Return rest of the staking token to the user.\n\t\tif (level == 1) {\n\t\t\t(amount, remaining) = checkUpdateLevel(amount, level);\n\t\t\tusers[msg.sender].level1Tokens += amount;\n\t\t\tstakingToken.transferFrom(msg.sender, address(this), amount);\n\t\t\tfactory.updateTokens(amount);\n\n\t\t\tlevel = factory.level();\n\t\t\tamount = remaining;\n\t\t}\n\t\tif (level == 2) {\n\t\t\t(amount, remaining) = checkUpdateLevel(amount, level);\n\t\t\tusers[msg.sender].level2Tokens += amount;\n\t\t\tstakingToken.transferFrom(msg.sender, address(this), amount);\n\t\t\tfactory.updateTokens(amount);\n\n\t\t\tlevel = factory.level();\n\t\t\tamount = remaining;\n\t\t}\n\t\tif (level == 3) {\n\t\t\t(amount, remaining) = checkUpdateLevel(amount, level);\n\t\t\tusers[msg.sender].level3Tokens += amount;\n\t\t\tstakingToken.transferFrom(msg.sender, address(this), amount);\n\t\t\tfactory.updateTokens(amount);\n\n\t\t\tlevel = factory.level();\n\t\t\tamount = remaining;\n\t\t}\n\t\tif (level == 4) {\n\t\t\t(amount, remaining) = checkUpdateLevel(amount, level);\n\t\t\tusers[msg.sender].level4Tokens += amount;\n\t\t\tstakingToken.transferFrom(msg.sender, address(this), amount);\n\t\t\tfactory.updateTokens(amount);\n\t\t\tlevel = factory.level();\n\t\t\tamount = remaining;\n\t\t}\n\n\t\tusers[msg.sender].lastUpdateDate = block.timestamp;\n\t}\n\n\tfunction calculateReward() public view returns (UserData memory user) {\n\t\tUserData memory userDetails = users[msg.sender];\n\t\t//\n\t\tif (userDetails.level1Tokens != 0) {\n\t\t\t(uint256 allowedForXCoins, uint256 _rewardPercentTimes100, uint256 _lockedDuration, uint256 _allowedReward, uint256 alloted) =\n\t\t\t\tfactory.levels(1);\n\t\t\tif (block.timestamp > factory.startTime() + _lockedDuration * oneDay) {\n\t\t\t\tuserDetails.level1Reward = ((_rewardPercentTimes100 * userDetails.level1Tokens)) / 10000;\n\t\t\t}\n\t\t}\n\t\tif (userDetails.level2Tokens != 0) {\n\t\t\t(uint256 allowedForXCoins, uint256 _rewardPercentTimes100, uint256 _lockedDuration, uint256 _allowedReward, uint256 alloted) =\n\t\t\t\tfactory.levels(2);\n\t\t\tif (block.timestamp > factory.startTime() + _lockedDuration * oneDay) {\n\t\t\t\tuserDetails.level2Reward = ((_rewardPercentTimes100 * userDetails.level2Tokens)) / 10000;\n\t\t\t}\n\t\t}\n\t\tif (userDetails.level3Tokens != 0) {\n\t\t\t(uint256 allowedForXCoins, uint256 _rewardPercentTimes100, uint256 _lockedDuration, uint256 _allowedReward, uint256 alloted) =\n\t\t\t\tfactory.levels(3);\n\t\t\tif (block.timestamp > factory.startTime() + _lockedDuration * oneDay) {\n\t\t\t\tuserDetails.level3Reward = ((_rewardPercentTimes100 * userDetails.level3Tokens)) / 10000;\n\t\t\t}\n\t\t}\n\t\tif (userDetails.level4Tokens != 0) {\n\t\t\t(uint256 allowedForXCoins, uint256 _rewardPercentTimes100, uint256 _lockedDuration, uint256 _allowedReward, uint256 alloted) =\n\t\t\t\tfactory.levels(4);\n\t\t\tif (block.timestamp > users[msg.sender].lastUpdateDate + _lockedDuration * oneDay) {\n\t\t\t\tuserDetails.level4Reward = ((_rewardPercentTimes100 * userDetails.level4Tokens)) / 10000;\n\t\t\t}\n\t\t}\n\t\treturn userDetails;\n\t}\n\n\t// Withdraw.\n\tfunction withdraw(uint256 level) external {\n\t\tif (level == 1 && users[msg.sender].level1Tokens != 0) {\n\t\t\t(uint256 allowedForXCoins, uint256 _rewardPercentTimes100, uint256 _lockedDuration, uint256 _allowedReward, uint256 alloted) =\n\t\t\t\tfactory.levels(1);\n\n\t\t\tif (block.timestamp > factory.startTime() + _lockedDuration * oneDay) {\n\t\t\t\tuint256 rewardValue = users[msg.sender].level1Tokens + (((_rewardPercentTimes100 * users[msg.sender].level1Tokens)) / 10000);\n\t\t\t\trewardsToken.approveInternal(address(this), msg.sender, rewardValue);\n\t\t\t\trewardsToken.transferInternal(address(this), msg.sender, rewardValue);\n\t\t\t\tusers[msg.sender].level1Tokens = 0;\n\t\t\t\tusers[msg.sender].level1Reward = 0;\n\t\t\t\treturn;\n\t\t\t}\n\t\t} else if (level == 2 && users[msg.sender].level2Tokens != 0) {\n\t\t\t(uint256 allowedForXCoins, uint256 _rewardPercentTimes100, uint256 _lockedDuration, uint256 _allowedReward, uint256 alloted) =\n\t\t\t\tfactory.levels(2);\n\t\t\tif (block.timestamp > factory.startTime() + _lockedDuration * oneDay) {\n\t\t\t\tuint256 rewardValue = users[msg.sender].level2Tokens + (((_rewardPercentTimes100 * users[msg.sender].level2Tokens)) / 10000);\n\t\t\t\trewardsToken.approveInternal(address(this), msg.sender, rewardValue);\n\t\t\t\trewardsToken.transferInternal(address(this), msg.sender, rewardValue);\n\t\t\t\tusers[msg.sender].level2Tokens = 0;\n\t\t\t\tusers[msg.sender].level2Reward = 0;\n\t\t\t\treturn;\n\t\t\t}\n\t\t} else if (level == 3 && users[msg.sender].level3Tokens != 0) {\n\t\t\t(uint256 allowedForXCoins, uint256 _rewardPercentTimes100, uint256 _lockedDuration, uint256 _allowedReward, uint256 alloted) =\n\t\t\t\tfactory.levels(3);\n\t\t\tif (block.timestamp > factory.startTime() + _lockedDuration * oneDay) {\n\t\t\t\tuint256 rewardValue = users[msg.sender].level3Tokens + (((_rewardPercentTimes100 * users[msg.sender].level3Tokens)) / 10000);\n\t\t\t\trewardsToken.approveInternal(address(this), msg.sender, rewardValue);\n\t\t\t\trewardsToken.transferInternal(address(this), msg.sender, rewardValue);\n\t\t\t\tusers[msg.sender].level3Tokens = 0;\n\t\t\t\tusers[msg.sender].level3Reward = 0;\n\t\t\t\treturn;\n\t\t\t}\n\t\t} else if (level == 4 && users[msg.sender].level4Tokens != 0) {\n\t\t\t(uint256 allowedForXCoins, uint256 _rewardPercentTimes100, uint256 _lockedDuration, uint256 _allowedReward, uint256 alloted) =\n\t\t\t\tfactory.levels(4);\n\t\t\tif (block.timestamp > users[msg.sender].lastUpdateDate + _lockedDuration * oneDay) {\n\t\t\t\tuint256 rewardValue = users[msg.sender].level4Tokens + (((_rewardPercentTimes100 * users[msg.sender].level4Tokens)) / 10000);\n\t\t\t\trewardsToken.approveInternal(address(this), msg.sender, rewardValue);\n\t\t\t\trewardsToken.transferInternal(address(this), msg.sender, rewardValue);\n\t\t\t\tusers[msg.sender].level4Tokens = 0;\n\t\t\t\tusers[msg.sender].level4Reward = 0;\n\t\t\t\treturn;\n\t\t\t}\n\t\t}\n\t\trequire(false, 'Cannot withdraw');\n\t}\n\n\tfunction withdrawByAmount(uint256 amount) external {\n\t\trequire(amount != 0);\n\n\t\tif (users[msg.sender].level1Tokens != 0) {\n\t\t\t(uint256 allowedForXCoins, uint256 _rewardPercentTimes100, uint256 _lockedDuration, uint256 _allowedReward, uint256 alloted) =\n\t\t\t\tfactory.levels(1);\n\n\t\t\tif (block.timestamp > factory.startTime() + _lockedDuration * oneDay) {\n\t\t\t\tuint256 rewardValue = users[msg.sender].level1Tokens + (((_rewardPercentTimes100 * users[msg.sender].level1Tokens)) / 10000);\n\t\t\t\tusers[msg.sender].withdrawable += rewardValue;\n\t\t\t\tusers[msg.sender].level1Tokens = 0;\n\t\t\t\tusers[msg.sender].level1Reward = 0;\n\t\t\t}\n\t\t}\n\t\tif (users[msg.sender].level2Tokens != 0) {\n\t\t\t(uint256 allowedForXCoins, uint256 _rewardPercentTimes100, uint256 _lockedDuration, uint256 _allowedReward, uint256 alloted) =\n\t\t\t\tfactory.levels(2);\n\t\t\tif (block.timestamp > factory.startTime() + _lockedDuration * oneDay) {\n\t\t\t\tuint256 rewardValue = users[msg.sender].level2Tokens + (((_rewardPercentTimes100 * users[msg.sender].level2Tokens)) / 10000);\n\t\t\t\tusers[msg.sender].withdrawable += rewardValue;\n\t\t\t\tusers[msg.sender].level2Tokens = 0;\n\t\t\t\tusers[msg.sender].level2Reward = 0;\n\t\t\t}\n\t\t}\n\t\tif (users[msg.sender].level3Tokens != 0) {\n\t\t\t(uint256 allowedForXCoins, uint256 _rewardPercentTimes100, uint256 _lockedDuration, uint256 _allowedReward, uint256 alloted) =\n\t\t\t\tfactory.levels(3);\n\t\t\tif (block.timestamp > factory.startTime() + _lockedDuration * oneDay) {\n\t\t\t\tuint256 rewardValue = users[msg.sender].level3Tokens + (((_rewardPercentTimes100 * users[msg.sender].level3Tokens)) / 10000);\n\t\t\t\tusers[msg.sender].withdrawable += rewardValue;\n\t\t\t\tusers[msg.sender].level3Tokens = 0;\n\t\t\t\tusers[msg.sender].level3Reward = 0;\n\t\t\t}\n\t\t}\n\t\tif (users[msg.sender].level4Tokens != 0) {\n\t\t\t(uint256 allowedForXCoins, uint256 _rewardPercentTimes100, uint256 _lockedDuration, uint256 _allowedReward, uint256 alloted) =\n\t\t\t\tfactory.levels(4);\n\t\t\tif (block.timestamp > users[msg.sender].lastUpdateDate + _lockedDuration * oneDay) {\n\t\t\t\tuint256 rewardValue = users[msg.sender].level4Tokens + (((_rewardPercentTimes100 * users[msg.sender].level4Tokens)) / 10000);\n\t\t\t\tusers[msg.sender].withdrawable += rewardValue;\n\t\t\t\tusers[msg.sender].level4Tokens = 0;\n\t\t\t\tusers[msg.sender].level4Reward = 0;\n\t\t\t}\n\t\t}\n\n\t\trequire(amount <= users[msg.sender].withdrawable, 'Requested amount more than reward.');\n\t\trewardsToken.approveInternal(address(this), msg.sender, amount);\n\t\trewardsToken.transferInternal(address(this), msg.sender, amount);\n\t}\n}\n\ncontract StakingFactory is Ownable {\n\tMock rewardsToken;\n\tuint256 public startTime;\n\tuint256 public level;\n\taddress[] public stakingTokens;\n\n\tstruct StakingRewardsInfo {\n\t\taddress stakingRewards;\n\t\tuint256 rewardAmount;\n\t}\n\n\t// LevelData\n\tstruct LevelData {\n\t\tuint256 allowedForXCoins;\n\t\tuint256 rewardPercentTimes100;\n\t\tuint256 lockedDuration;\n\t\tuint256 allowedReward;\n\t\tuint256 alloted;\n\t}\n\n\taddress public stakingContractAddress;\n\t// rewards info by staking token\n\tmapping(address => StakingRewardsInfo) public stakingRewardsInfoByStakingToken;\n\n\tmapping(uint256 => LevelData) public levels;\n\n\tconstructor(address _rewardsToken, uint256 _startTime) {\n\t\trewardsToken = Mock(_rewardsToken);\n\t\tstartTime = _startTime;\n\t\tlevel = 1;\n\t\tcreateLevels();\n\t}\n\n\t// THis fucntion creates the Staking reward.\n\tfunction deploy(address stakingToken, uint256 rewardAmount) public onlyOwner {\n\t\tStakingRewardsInfo storage info = stakingRewardsInfoByStakingToken[stakingToken];\n\t\trequire(info.stakingRewards == address(0), 'StakingRewardsFactory::deploy: already deployed');\n\n\t\tinfo.stakingRewards = address(new Staking(address(this), address(rewardsToken), stakingToken));\n\n\t\tstakingContractAddress = info.stakingRewards;\n\n\t\trewardsToken.approveInternal(msg.sender, info.stakingRewards, rewardAmount);\n\t\trewardsToken.transferInternal(msg.sender, info.stakingRewards, rewardAmount);\n\t\tinfo.rewardAmount = rewardAmount;\n\t\tstakingTokens.push(stakingToken);\n\t}\n\n\t// Create Levels\n\t// Or create an array and provide user access to create them.\n\tfunction createLevels() internal {\n\t\tlevels[1] = LevelData(100000, 4900, 15, 49315, 0);\n\t\tlevels[2] = LevelData(400000, 4100, 30, 123288, 0);\n\t\tlevels[3] = LevelData(800000, 4300, 45, 172603, 0);\n\t\tlevels[4] = LevelData(1500000, 3300, 60, 230137, 0);\n\n\t\tlevel = 1;\n\t}\n\n\tmodifier restricted() {\n\t\trequire(msg.sender == stakingContractAddress, 'Sender has to be a staking contract.');\n\t\t_;\n\t}\n\n\tfunction updateTokens(uint256 tokenValue) external restricted {\n\t\tlevels[level].alloted += tokenValue;\n\t\tif (level == 4) {\n\t\t\treturn;\n\t\t}\n\t\tif (levels[level].alloted >= levels[level].allowedForXCoins) {\n\t\t\tlevel += 1;\n\t\t}\n\t}\n\n\tfunction updateLevelCheck() external {\n\t\tif (block.timestamp > startTime + 60 * 24 * 60) {\n\t\t\tlevel = 4;\n\t\t}\n\t}\n}\n",
	"sourcePath": "/media/aniket/home/aniket/Work/nonceblox-work/BF_Staking/contracts/StakingContract.sol",
	"compiler": {
		"name": "solc",
		"version": "0.8.1+commit.df193b15.Emscripten.clang"
	},
	"schemaVersion": "3.3.4",
	"updatedAt": "2021-04-05T18:21:29.326Z",
	"networkType": "ethereum",
	"devdoc": {
		"kind": "dev",
		"methods": {
			"owner()": {
				"details": "Returns the address of the current owner."
			},
			"renounceOwnership()": {
				"details": "Leaves the contract without owner. It will not be possible to call `onlyOwner` functions anymore. Can only be called by the current owner. NOTE: Renouncing ownership will leave the contract without an owner, thereby removing any functionality that is only available to the owner."
			},
			"transferOwnership(address)": {
				"details": "Transfers ownership of the contract to a new account (`newOwner`). Can only be called by the current owner."
			}
		},
		"version": 1
	},
	"userdoc": {
		"kind": "user",
		"methods": {},
		"version": 1
	}
}