{
	"contractName": "StakingFactory",
	"abi": [
		{
			"inputs": [
				{
					"internalType": "address",
					"name": "_rewardsToken",
					"type": "address"
				},
				{
					"internalType": "uint256",
					"name": "_startTime",
					"type": "uint256"
				}
			],
			"stateMutability": "nonpayable",
			"type": "constructor"
		},
		{
			"anonymous": false,
			"inputs": [
				{
					"indexed": true,
					"internalType": "address",
					"name": "previousOwner",
					"type": "address"
				},
				{
					"indexed": true,
					"internalType": "address",
					"name": "newOwner",
					"type": "address"
				}
			],
			"name": "OwnershipTransferred",
			"type": "event"
		},
		{
			"inputs": [],
			"name": "level",
			"outputs": [
				{
					"internalType": "uint256",
					"name": "",
					"type": "uint256"
				}
			],
			"stateMutability": "view",
			"type": "function"
		},
		{
			"inputs": [
				{
					"internalType": "int256",
					"name": "",
					"type": "int256"
				}
			],
			"name": "levels",
			"outputs": [
				{
					"internalType": "uint256",
					"name": "allowedForXCoins",
					"type": "uint256"
				},
				{
					"internalType": "uint256",
					"name": "rewardPercentTimes100",
					"type": "uint256"
				},
				{
					"internalType": "uint256",
					"name": "lockedDuration",
					"type": "uint256"
				},
				{
					"internalType": "uint256",
					"name": "allowedReward",
					"type": "uint256"
				}
			],
			"stateMutability": "view",
			"type": "function"
		},
		{
			"inputs": [],
			"name": "owner",
			"outputs": [
				{
					"internalType": "address",
					"name": "",
					"type": "address"
				}
			],
			"stateMutability": "view",
			"type": "function"
		},
		{
			"inputs": [],
			"name": "renounceOwnership",
			"outputs": [],
			"stateMutability": "nonpayable",
			"type": "function"
		},
		{
			"inputs": [
				{
					"internalType": "address",
					"name": "",
					"type": "address"
				}
			],
			"name": "stakingRewardsInfoByStakingToken",
			"outputs": [
				{
					"internalType": "address",
					"name": "stakingRewards",
					"type": "address"
				},
				{
					"internalType": "uint256",
					"name": "rewardAmount",
					"type": "uint256"
				}
			],
			"stateMutability": "view",
			"type": "function"
		},
		{
			"inputs": [
				{
					"internalType": "uint256",
					"name": "",
					"type": "uint256"
				}
			],
			"name": "stakingTokens",
			"outputs": [
				{
					"internalType": "address",
					"name": "",
					"type": "address"
				}
			],
			"stateMutability": "view",
			"type": "function"
		},
		{
			"inputs": [],
			"name": "startTime",
			"outputs": [
				{
					"internalType": "uint256",
					"name": "",
					"type": "uint256"
				}
			],
			"stateMutability": "view",
			"type": "function"
		},
		{
			"inputs": [
				{
					"internalType": "address",
					"name": "newOwner",
					"type": "address"
				}
			],
			"name": "transferOwnership",
			"outputs": [],
			"stateMutability": "nonpayable",
			"type": "function"
		},
		{
			"inputs": [
				{
					"internalType": "address",
					"name": "stakingToken",
					"type": "address"
				},
				{
					"internalType": "uint256",
					"name": "rewardAmount",
					"type": "uint256"
				}
			],
			"name": "deploy",
			"outputs": [],
			"stateMutability": "nonpayable",
			"type": "function"
		}
	],
	"bytecode": "0x60806040523480156200001157600080fd5b506040516200249d3803806200249d833981810160405281019062000037919062000382565b6000620000496200014f60201b60201c565b9050806000806101000a81548173ffffffffffffffffffffffffffffffffffffffff021916908373ffffffffffffffffffffffffffffffffffffffff1602179055508073ffffffffffffffffffffffffffffffffffffffff16600073ffffffffffffffffffffffffffffffffffffffff167f8be0079c531659141344cd1fd0a4f28419497f9722a3daafe3b4186f6b6457e060405160405180910390a35081600160006101000a81548173ffffffffffffffffffffffffffffffffffffffff021916908373ffffffffffffffffffffffffffffffffffffffff160217905550806002819055506001600381905550620001476200015760201b60201c565b5050620004b8565b600033905090565b620001676200014f60201b60201c565b73ffffffffffffffffffffffffffffffffffffffff166200018d6200032b60201b60201c565b73ffffffffffffffffffffffffffffffffffffffff1614620001e6576040517f08c379a0000000000000000000000000000000000000000000000000000000008152600401620001dd90620003ea565b60405180910390fd5b6040518060800160405280620493e0815260200161201b8152602001601e81526020016203c32f8152506006600060018152602001908152602001600020600082015181600001556020820151816001015560408201518160020155606082015181600301559050506040518060800160405280620927c08152602001610c0a8152602001602d81526020016202d2648152506006600060028152602001908152602001600020600082015181600001556020820151816001015560408201518160020155606082015181600301559050506040518060800160405280620f42408152602001610a468152602001603c8152602001620403668152506006600060038152602001908152602001600020600082015181600001556020820151816001015560408201518160020155606082015181600301559050506001600381905550565b60008060009054906101000a900473ffffffffffffffffffffffffffffffffffffffff16905090565b600081519050620003658162000484565b92915050565b6000815190506200037c816200049e565b92915050565b600080604083850312156200039657600080fd5b6000620003a68582860162000354565b9250506020620003b9858286016200036b565b9150509250929050565b6000620003d26020836200040c565b9150620003df826200045b565b602082019050919050565b600060208201905081810360008301526200040581620003c3565b9050919050565b600082825260208201905092915050565b60006200042a8262000431565b9050919050565b600073ffffffffffffffffffffffffffffffffffffffff82169050919050565b6000819050919050565b7f4f776e61626c653a2063616c6c6572206973206e6f7420746865206f776e6572600082015250565b6200048f816200041d565b81146200049b57600080fd5b50565b620004a98162000451565b8114620004b557600080fd5b50565b611fd580620004c86000396000f3fe60806040523480156200001157600080fd5b5060043610620000a05760003560e01c80636fd5ae15116200006f5780636fd5ae15146200016b578063715018a6146200018d57806378e9792514620001995780638da5cb5b14620001bb578063f2fde38b14620001dd57620000a0565b80630b96fe5314620000a5578063344e5e3414620000de5780634956eaf014620001145780636cf8caf81462000134575b600080fd5b620000c36004803603810190620000bd919062000910565b620001fd565b604051620000d5949392919062000b09565b60405180910390f35b620000fc6004803603810190620000f691906200093c565b6200022d565b6040516200010b9190620009ff565b60405180910390f35b6200013260048036038101906200012c9190620008cf565b6200026d565b005b6200015260048036038101906200014c9190620008a3565b620004db565b6040516200016292919062000a59565b60405180910390f35b620001756200051f565b60405162000184919062000aec565b60405180910390f35b6200019762000525565b005b620001a362000666565b604051620001b2919062000aec565b60405180910390f35b620001c56200066c565b604051620001d49190620009ff565b60405180910390f35b620001fb6004803603810190620001f59190620008a3565b62000695565b005b60066020528060005260406000206000915090508060000154908060010154908060020154908060030154905084565b600481815481106200023e57600080fd5b906000526020600020016000915054906101000a900473ffffffffffffffffffffffffffffffffffffffff1681565b6200027762000848565b73ffffffffffffffffffffffffffffffffffffffff16620002976200066c565b73ffffffffffffffffffffffffffffffffffffffff1614620002f0576040517f08c379a0000000000000000000000000000000000000000000000000000000008152600401620002e79062000aca565b60405180910390fd5b6000600560008473ffffffffffffffffffffffffffffffffffffffff1673ffffffffffffffffffffffffffffffffffffffff1681526020019081526020016000209050600073ffffffffffffffffffffffffffffffffffffffff168160000160009054906101000a900473ffffffffffffffffffffffffffffffffffffffff1673ffffffffffffffffffffffffffffffffffffffff1614620003c9576040517f08c379a0000000000000000000000000000000000000000000000000000000008152600401620003c09062000aa8565b60405180910390fd5b30600160009054906101000a900473ffffffffffffffffffffffffffffffffffffffff1684604051620003fc9062000850565b6200040a9392919062000a1c565b604051809103906000f08015801562000427573d6000803e3d6000fd5b508160000160006101000a81548173ffffffffffffffffffffffffffffffffffffffff021916908373ffffffffffffffffffffffffffffffffffffffff1602179055508181600101819055506004839080600181540180825580915050600190039060005260206000200160009091909190916101000a81548173ffffffffffffffffffffffffffffffffffffffff021916908373ffffffffffffffffffffffffffffffffffffffff160217905550505050565b60056020528060005260406000206000915090508060000160009054906101000a900473ffffffffffffffffffffffffffffffffffffffff16908060010154905082565b60035481565b6200052f62000848565b73ffffffffffffffffffffffffffffffffffffffff166200054f6200066c565b73ffffffffffffffffffffffffffffffffffffffff1614620005a8576040517f08c379a00000000000000000000000000000000000000000000000000000000081526004016200059f9062000aca565b60405180910390fd5b600073ffffffffffffffffffffffffffffffffffffffff1660008054906101000a900473ffffffffffffffffffffffffffffffffffffffff1673ffffffffffffffffffffffffffffffffffffffff167f8be0079c531659141344cd1fd0a4f28419497f9722a3daafe3b4186f6b6457e060405160405180910390a360008060006101000a81548173ffffffffffffffffffffffffffffffffffffffff021916908373ffffffffffffffffffffffffffffffffffffffff160217905550565b60025481565b60008060009054906101000a900473ffffffffffffffffffffffffffffffffffffffff16905090565b6200069f62000848565b73ffffffffffffffffffffffffffffffffffffffff16620006bf6200066c565b73ffffffffffffffffffffffffffffffffffffffff161462000718576040517f08c379a00000000000000000000000000000000000000000000000000000000081526004016200070f9062000aca565b60405180910390fd5b600073ffffffffffffffffffffffffffffffffffffffff168173ffffffffffffffffffffffffffffffffffffffff1614156200078b576040517f08c379a0000000000000000000000000000000000000000000000000000000008152600401620007829062000a86565b60405180910390fd5b8073ffffffffffffffffffffffffffffffffffffffff1660008054906101000a900473ffffffffffffffffffffffffffffffffffffffff1673ffffffffffffffffffffffffffffffffffffffff167f8be0079c531659141344cd1fd0a4f28419497f9722a3daafe3b4186f6b6457e060405160405180910390a3806000806101000a81548173ffffffffffffffffffffffffffffffffffffffff021916908373ffffffffffffffffffffffffffffffffffffffff16021790555050565b600033905090565b6112db8062000cc583390190565b6000813590506200086f8162000c76565b92915050565b600081359050620008868162000c90565b92915050565b6000813590506200089d8162000caa565b92915050565b600060208284031215620008b657600080fd5b6000620008c6848285016200085e565b91505092915050565b60008060408385031215620008e357600080fd5b6000620008f3858286016200085e565b925050602062000906858286016200088c565b9150509250929050565b6000602082840312156200092357600080fd5b6000620009338482850162000875565b91505092915050565b6000602082840312156200094f57600080fd5b60006200095f848285016200088c565b91505092915050565b620009738162000b67565b82525050565b60006200098860268362000b56565b9150620009958262000baf565b604082019050919050565b6000620009af602f8362000b56565b9150620009bc8262000bfe565b604082019050919050565b6000620009d660208362000b56565b9150620009e38262000c4d565b602082019050919050565b620009f98162000ba5565b82525050565b600060208201905062000a16600083018462000968565b92915050565b600060608201905062000a33600083018662000968565b62000a42602083018562000968565b62000a51604083018462000968565b949350505050565b600060408201905062000a70600083018562000968565b62000a7f6020830184620009ee565b9392505050565b6000602082019050818103600083015262000aa18162000979565b9050919050565b6000602082019050818103600083015262000ac381620009a0565b9050919050565b6000602082019050818103600083015262000ae581620009c7565b9050919050565b600060208201905062000b036000830184620009ee565b92915050565b600060808201905062000b206000830187620009ee565b62000b2f6020830186620009ee565b62000b3e6040830185620009ee565b62000b4d6060830184620009ee565b95945050505050565b600082825260208201905092915050565b600062000b748262000b85565b9050919050565b6000819050919050565b600073ffffffffffffffffffffffffffffffffffffffff82169050919050565b6000819050919050565b7f4f776e61626c653a206e6577206f776e657220697320746865207a65726f206160008201527f6464726573730000000000000000000000000000000000000000000000000000602082015250565b7f5374616b696e6752657761726473466163746f72793a3a6465706c6f793a206160008201527f6c7265616479206465706c6f7965640000000000000000000000000000000000602082015250565b7f4f776e61626c653a2063616c6c6572206973206e6f7420746865206f776e6572600082015250565b62000c818162000b67565b811462000c8d57600080fd5b50565b62000c9b8162000b7b565b811462000ca757600080fd5b50565b62000cb58162000ba5565b811462000cc157600080fd5b5056fe6080604052620151806000553480156200001857600080fd5b50604051620012db380380620012db83398181016040528101906200003e919062000121565b82600260006101000a81548173ffffffffffffffffffffffffffffffffffffffff021916908373ffffffffffffffffffffffffffffffffffffffff16021790555081600360006101000a81548173ffffffffffffffffffffffffffffffffffffffff021916908373ffffffffffffffffffffffffffffffffffffffff16021790555080600460006101000a81548173ffffffffffffffffffffffffffffffffffffffff021916908373ffffffffffffffffffffffffffffffffffffffff160217905550505050620001c5565b6000815190506200011b81620001ab565b92915050565b6000806000606084860312156200013757600080fd5b600062000147868287016200010a565b93505060206200015a868287016200010a565b92505060406200016d868287016200010a565b9150509250925092565b600062000184826200018b565b9050919050565b600073ffffffffffffffffffffffffffffffffffffffff82169050919050565b620001b68162000177565b8114620001c257600080fd5b50565b61110680620001d56000396000f3fe608060405234801561001057600080fd5b50600436106100365760003560e01c8063725cedd31461003b578063b6b55f2514610059575b600080fd5b610043610075565b6040516100509190610eff565b60405180910390f35b610073600480360381019061006e9190610d6e565b6107c5565b005b61007d610caf565b6000600160003373ffffffffffffffffffffffffffffffffffffffff1673ffffffffffffffffffffffffffffffffffffffff168152602001908152602001600020600101541461022b57600054601e6100d69190610fa2565b600260009054906101000a900473ffffffffffffffffffffffffffffffffffffffff1673ffffffffffffffffffffffffffffffffffffffff166378e979256040518163ffffffff1660e01b815260040160206040518083038186803b15801561013e57600080fd5b505afa158015610152573d6000803e3d6000fd5b505050506040513d601f19601f820116820180604052508101906101769190610d97565b6101809190610f1b565b42111561022a576064600160003373ffffffffffffffffffffffffffffffffffffffff1673ffffffffffffffffffffffffffffffffffffffff1681526020019081526020016000206001015461201b6101d99190610fa2565b6101e39190610f71565b600160003373ffffffffffffffffffffffffffffffffffffffff1673ffffffffffffffffffffffffffffffffffffffff168152602001908152602001600020600401819055505b5b6000600160003373ffffffffffffffffffffffffffffffffffffffff1673ffffffffffffffffffffffffffffffffffffffff16815260200190815260200160002060020154146103d957600054601e6102849190610fa2565b600260009054906101000a900473ffffffffffffffffffffffffffffffffffffffff1673ffffffffffffffffffffffffffffffffffffffff166378e979256040518163ffffffff1660e01b815260040160206040518083038186803b1580156102ec57600080fd5b505afa158015610300573d6000803e3d6000fd5b505050506040513d601f19601f820116820180604052508101906103249190610d97565b61032e9190610f1b565b4211156103d8576064600160003373ffffffffffffffffffffffffffffffffffffffff1673ffffffffffffffffffffffffffffffffffffffff16815260200190815260200160002060020154610c0a6103879190610fa2565b6103919190610f71565b600160003373ffffffffffffffffffffffffffffffffffffffff1673ffffffffffffffffffffffffffffffffffffffff168152602001908152602001600020600501819055505b5b6000600160003373ffffffffffffffffffffffffffffffffffffffff1673ffffffffffffffffffffffffffffffffffffffff168152602001908152602001600020600301541461058b57600054602d6104329190610fa2565b600260009054906101000a900473ffffffffffffffffffffffffffffffffffffffff1673ffffffffffffffffffffffffffffffffffffffff166378e979256040518163ffffffff1660e01b815260040160206040518083038186803b15801561049a57600080fd5b505afa1580156104ae573d6000803e3d6000fd5b505050506040513d601f19601f820116820180604052508101906104d29190610d97565b6104dc9190610f1b565b421115610586576064600160003373ffffffffffffffffffffffffffffffffffffffff1673ffffffffffffffffffffffffffffffffffffffff16815260200190815260200160002060030154610a356105359190610fa2565b61053f9190610f71565b600160003373ffffffffffffffffffffffffffffffffffffffff1673ffffffffffffffffffffffffffffffffffffffff168152602001908152602001600020600601819055505b6106ef565b600054603c61059a9190610fa2565b600260009054906101000a900473ffffffffffffffffffffffffffffffffffffffff1673ffffffffffffffffffffffffffffffffffffffff166378e979256040518163ffffffff1660e01b815260040160206040518083038186803b15801561060257600080fd5b505afa158015610616573d6000803e3d6000fd5b505050506040513d601f19601f8201168201806040525081019061063a9190610d97565b6106449190610f1b565b4211156106ee576064600160003373ffffffffffffffffffffffffffffffffffffffff1673ffffffffffffffffffffffffffffffffffffffff16815260200190815260200160002060030154610a3561069d9190610fa2565b6106a79190610f71565b600160003373ffffffffffffffffffffffffffffffffffffffff1673ffffffffffffffffffffffffffffffffffffffff168152602001908152602001600020600601819055505b5b600160003373ffffffffffffffffffffffffffffffffffffffff1673ffffffffffffffffffffffffffffffffffffffff168152602001908152602001600020604051806101400160405290816000820160009054906101000a900460ff161515151581526020016000820160019054906101000a900460ff1615151515815260200160018201548152602001600282015481526020016003820154815260200160048201548152602001600582015481526020016006820154815260200160078201548152602001600882015481525050905090565b600160003373ffffffffffffffffffffffffffffffffffffffff1673ffffffffffffffffffffffffffffffffffffffff16815260200190815260200160002060000160009054906101000a900460ff1661081e57600080fd5b6000600260009054906101000a900473ffffffffffffffffffffffffffffffffffffffff1673ffffffffffffffffffffffffffffffffffffffff16636fd5ae156040518163ffffffff1660e01b815260040160206040518083038186803b15801561088857600080fd5b505afa15801561089c573d6000803e3d6000fd5b505050506040513d601f19601f820116820180604052508101906108c09190610d97565b905060018114156109db5781600160003373ffffffffffffffffffffffffffffffffffffffff1673ffffffffffffffffffffffffffffffffffffffff168152602001908152602001600020600101600082825461091d9190610f1b565b92505081905550600460009054906101000a900473ffffffffffffffffffffffffffffffffffffffff1673ffffffffffffffffffffffffffffffffffffffff166323b872dd3330856040518463ffffffff1660e01b815260040161098393929190610ec8565b602060405180830381600087803b15801561099d57600080fd5b505af11580156109b1573d6000803e3d6000fd5b505050506040513d601f19601f820116820180604052508101906109d59190610d45565b50610c0b565b6002811415610af45781600160003373ffffffffffffffffffffffffffffffffffffffff1673ffffffffffffffffffffffffffffffffffffffff1681526020019081526020016000206002016000828254610a369190610f1b565b92505081905550600460009054906101000a900473ffffffffffffffffffffffffffffffffffffffff1673ffffffffffffffffffffffffffffffffffffffff166323b872dd3330856040518463ffffffff1660e01b8152600401610a9c93929190610ec8565b602060405180830381600087803b158015610ab657600080fd5b505af1158015610aca573d6000803e3d6000fd5b505050506040513d601f19601f82011682018060405250810190610aee9190610d45565b50610c0a565b6003811415610c095781600160003373ffffffffffffffffffffffffffffffffffffffff1673ffffffffffffffffffffffffffffffffffffffff1681526020019081526020016000206003016000828254610b4f9190610f1b565b92505081905550600460009054906101000a900473ffffffffffffffffffffffffffffffffffffffff1673ffffffffffffffffffffffffffffffffffffffff166323b872dd3330856040518463ffffffff1660e01b8152600401610bb593929190610ec8565b602060405180830381600087803b158015610bcf57600080fd5b505af1158015610be3573d6000803e3d6000fd5b505050506040513d601f19601f82011682018060405250810190610c079190610d45565b505b5b5b81600160003373ffffffffffffffffffffffffffffffffffffffff1673ffffffffffffffffffffffffffffffffffffffff1681526020019081526020016000206007016000828254610c5d9190610f1b565b9250508190555042600160003373ffffffffffffffffffffffffffffffffffffffff1673ffffffffffffffffffffffffffffffffffffffff168152602001908152602001600020600801819055505050565b60405180610140016040528060001515815260200160001515815260200160008152602001600081526020016000815260200160008152602001600081526020016000815260200160008152602001600081525090565b600081519050610d15816110a2565b92915050565b600081359050610d2a816110b9565b92915050565b600081519050610d3f816110b9565b92915050565b600060208284031215610d5757600080fd5b6000610d6584828501610d06565b91505092915050565b600060208284031215610d8057600080fd5b6000610d8e84828501610d1b565b91505092915050565b600060208284031215610da957600080fd5b6000610db784828501610d30565b91505092915050565b610dc981610ffc565b82525050565b610dd88161100e565b82525050565b61014082016000820151610df56000850182610dcf565b506020820151610e086020850182610dcf565b506040820151610e1b6040850182610eaa565b506060820151610e2e6060850182610eaa565b506080820151610e416080850182610eaa565b5060a0820151610e5460a0850182610eaa565b5060c0820151610e6760c0850182610eaa565b5060e0820151610e7a60e0850182610eaa565b50610100820151610e8f610100850182610eaa565b50610120820151610ea4610120850182610eaa565b50505050565b610eb38161103a565b82525050565b610ec28161103a565b82525050565b6000606082019050610edd6000830186610dc0565b610eea6020830185610dc0565b610ef76040830184610eb9565b949350505050565b600061014082019050610f156000830184610dde565b92915050565b6000610f268261103a565b9150610f318361103a565b9250827fffffffffffffffffffffffffffffffffffffffffffffffffffffffffffffffff03821115610f6657610f65611044565b5b828201905092915050565b6000610f7c8261103a565b9150610f878361103a565b925082610f9757610f96611073565b5b828204905092915050565b6000610fad8261103a565b9150610fb88361103a565b9250817fffffffffffffffffffffffffffffffffffffffffffffffffffffffffffffffff0483118215151615610ff157610ff0611044565b5b828202905092915050565b60006110078261101a565b9050919050565b60008115159050919050565b600073ffffffffffffffffffffffffffffffffffffffff82169050919050565b6000819050919050565b7f4e487b7100000000000000000000000000000000000000000000000000000000600052601160045260246000fd5b7f4e487b7100000000000000000000000000000000000000000000000000000000600052601260045260246000fd5b6110ab8161100e565b81146110b657600080fd5b50565b6110c28161103a565b81146110cd57600080fd5b5056fea26469706673582212203892ca284719d01404570f5da7a027552a77a47477b9cca276db24aeebfe650b64736f6c63430008010033a26469706673582212203f46ab77b411af798a072dacf20a775048ebd6a34bb5cc8e7f4696a217bb37c164736f6c63430008010033",
	"immutableReferences": {},
	"source": "// SPDX-License-Identifier: MIT\npragma solidity ^0.8.0;\n\nimport '@openzeppelin/contracts/token/ERC20/ERC20.sol';\nimport '@openzeppelin/contracts/access/Ownable.sol';\n\ncontract Staking {\n\tuint256 oneDay = 24 * 60 * 60;\n\tstruct UserData {\n\t\tbool allowed;\n\t\tbool created;\n\t\tuint256 level1Tokens;\n\t\tuint256 level2Tokens;\n\t\tuint256 level3Tokens;\n\t\tuint256 level1Reward;\n\t\tuint256 level2Reward;\n\t\tuint256 level3Reward;\n\t\t//\n\t\t//\n\t\tuint256 tokens;\n\t\t//\n\t\t//\n\t\tuint256 lastUpdateDate;\n\t}\n\n\tmapping(address => UserData) users;\n\n\tStakingFactory factory;\n\tIERC20 rewardsToken;\n\tIERC20 stakingToken;\n\n\tfunction deposit(uint256 amount) public {\n\t\trequire(users[msg.sender].allowed);\n\t\tuint256 level = factory.level();\n\t\tif (level == 1) {\n\t\t\tusers[msg.sender].level1Tokens += amount;\n\t\t\tstakingToken.transferFrom(msg.sender, address(this), amount);\n\t\t} else if (level == 2) {\n\t\t\tusers[msg.sender].level2Tokens += amount;\n\t\t\tstakingToken.transferFrom(msg.sender, address(this), amount);\n\t\t} else if (level == 3) {\n\t\t\tusers[msg.sender].level3Tokens += amount;\n\t\t\tstakingToken.transferFrom(msg.sender, address(this), amount);\n\t\t}\n\t\tusers[msg.sender].tokens += amount;\n\t\tusers[msg.sender].lastUpdateDate = block.timestamp;\n\t}\n\n\tfunction calculateReward() public returns (UserData memory user) {\n\t\tif (users[msg.sender].level1Tokens != 0) {\n\t\t\tif (block.timestamp > factory.startTime() + 30 * oneDay) {\n\t\t\t\tusers[msg.sender].level1Reward = ((8219 * users[msg.sender].level1Tokens)) / 100;\n\t\t\t}\n\t\t}\n\t\tif (users[msg.sender].level2Tokens != 0) {\n\t\t\tif (block.timestamp > factory.startTime() + 30 * oneDay) {\n\t\t\t\tusers[msg.sender].level2Reward = ((3082 * users[msg.sender].level2Tokens)) / 100;\n\t\t\t}\n\t\t}\n\t\tif (users[msg.sender].level3Tokens != 0) {\n\t\t\tif (block.timestamp > factory.startTime() + 45 * oneDay) {\n\t\t\t\tusers[msg.sender].level3Reward = ((2613 * users[msg.sender].level3Tokens)) / 100;\n\t\t\t}\n\t\t} else {\n\t\t\tif (block.timestamp > factory.startTime() + 60 * oneDay) {\n\t\t\t\tusers[msg.sender].level3Reward = ((2613 * users[msg.sender].level3Tokens)) / 100;\n\t\t\t}\n\t\t}\n\t\treturn users[msg.sender];\n\t}\n\n\tconstructor(\n\t\taddress _factory,\n\t\taddress _rewardsToken,\n\t\taddress _stakingToken\n\t) {\n\t\tfactory = StakingFactory(_factory);\n\t\trewardsToken = IERC20(_rewardsToken);\n\t\tstakingToken = IERC20(_stakingToken);\n\t}\n}\n\ncontract StakingFactory is Ownable {\n\tIERC20 rewardsToken;\n\tuint256 public startTime;\n\tuint256 public level;\n\taddress[] public stakingTokens;\n\n\tstruct StakingRewardsInfo {\n\t\taddress stakingRewards;\n\t\tuint256 rewardAmount;\n\t}\n\n\t// rewards info by staking token\n\tmapping(address => StakingRewardsInfo) public stakingRewardsInfoByStakingToken;\n\n\tstruct LevelData {\n\t\tuint256 allowedForXCoins;\n\t\tuint256 rewardPercentTimes100;\n\t\tuint256 lockedDuration;\n\t\tuint256 allowedReward;\n\t}\n\n\tmapping(int256 => LevelData) public levels;\n\n\tfunction createLevels() internal onlyOwner {\n\t\tlevels[1] = LevelData(300000, 8219, 30, 246575);\n\t\tlevels[2] = LevelData(600000, 3082, 45, 184932);\n\t\tlevels[3] = LevelData(1000000, 2630, 60, 263014);\n\n\t\tlevel = 1;\n\t}\n\n\tconstructor(address _rewardsToken, uint256 _startTime) {\n\t\trewardsToken = IERC20(_rewardsToken);\n\t\tstartTime = _startTime;\n\t\tlevel = 1;\n\t\tcreateLevels();\n\t}\n\n\tfunction deploy(address stakingToken, uint256 rewardAmount) public onlyOwner {\n\t\tStakingRewardsInfo storage info = stakingRewardsInfoByStakingToken[stakingToken];\n\t\trequire(info.stakingRewards == address(0), 'StakingRewardsFactory::deploy: already deployed');\n\n\t\tinfo.stakingRewards = address(new Staking(address(this), address(rewardsToken), stakingToken));\n\t\tinfo.rewardAmount = rewardAmount;\n\t\tstakingTokens.push(stakingToken);\n\t}\n}\n",
	"sourcePath": "/media/aniket/home/aniket/Work/nonceblox-work/BF_Staking/contracts/BYN.sol",
	"compiler": {
		"name": "solc",
		"version": "0.8.1+commit.df193b15.Emscripten.clang"
	},
	"schemaVersion": "3.3.4",
	"updatedAt": "2021-03-30T16:14:40.726Z",
	"devdoc": {
		"kind": "dev",
		"methods": {
			"owner()": {
				"details": "Returns the address of the current owner."
			},
			"renounceOwnership()": {
				"details": "Leaves the contract without owner. It will not be possible to call `onlyOwner` functions anymore. Can only be called by the current owner. NOTE: Renouncing ownership will leave the contract without an owner, thereby removing any functionality that is only available to the owner."
			},
			"transferOwnership(address)": {
				"details": "Transfers ownership of the contract to a new account (`newOwner`). Can only be called by the current owner."
			}
		},
		"version": 1
	},
	"userdoc": {
		"kind": "user",
		"methods": {},
		"version": 1
	}
}