{
	"contractName": "Staking",
	"abi": [
		{
			"inputs": [
				{
					"internalType": "address",
					"name": "_factory",
					"type": "address"
				},
				{
					"internalType": "address",
					"name": "_rewardsToken",
					"type": "address"
				},
				{
					"internalType": "address",
					"name": "_stakingToken",
					"type": "address"
				}
			],
			"stateMutability": "nonpayable",
			"type": "constructor"
		},
		{
			"anonymous": false,
			"inputs": [
				{
					"indexed": true,
					"internalType": "address",
					"name": "previousOwner",
					"type": "address"
				},
				{
					"indexed": true,
					"internalType": "address",
					"name": "newOwner",
					"type": "address"
				}
			],
			"name": "OwnershipTransferred",
			"type": "event"
		},
		{
			"inputs": [],
			"name": "owner",
			"outputs": [
				{
					"internalType": "address",
					"name": "",
					"type": "address"
				}
			],
			"stateMutability": "view",
			"type": "function"
		},
		{
			"inputs": [],
			"name": "renounceOwnership",
			"outputs": [],
			"stateMutability": "nonpayable",
			"type": "function"
		},
		{
			"inputs": [
				{
					"internalType": "address",
					"name": "newOwner",
					"type": "address"
				}
			],
			"name": "transferOwnership",
			"outputs": [],
			"stateMutability": "nonpayable",
			"type": "function"
		},
		{
			"inputs": [
				{
					"internalType": "uint256",
					"name": "amount",
					"type": "uint256"
				}
			],
			"name": "deposit",
			"outputs": [],
			"stateMutability": "nonpayable",
			"type": "function"
		},
		{
			"inputs": [],
			"name": "calculateReward",
			"outputs": [
				{
					"components": [
						{
							"internalType": "bool",
							"name": "allowed",
							"type": "bool"
						},
						{
							"internalType": "bool",
							"name": "created",
							"type": "bool"
						},
						{
							"internalType": "uint256",
							"name": "level1Tokens",
							"type": "uint256"
						},
						{
							"internalType": "uint256",
							"name": "level2Tokens",
							"type": "uint256"
						},
						{
							"internalType": "uint256",
							"name": "level3Tokens",
							"type": "uint256"
						},
						{
							"internalType": "uint256",
							"name": "level1Reward",
							"type": "uint256"
						},
						{
							"internalType": "uint256",
							"name": "level2Reward",
							"type": "uint256"
						},
						{
							"internalType": "uint256",
							"name": "level3Reward",
							"type": "uint256"
						},
						{
							"internalType": "uint256",
							"name": "tokens",
							"type": "uint256"
						},
						{
							"internalType": "uint256",
							"name": "lastUpdateDate",
							"type": "uint256"
						},
						{
							"components": [
								{
									"internalType": "uint256",
									"name": "addedOn",
									"type": "uint256"
								},
								{
									"internalType": "uint256",
									"name": "amount",
									"type": "uint256"
								}
							],
							"internalType": "struct Staking.Transaction[]",
							"name": "transactions",
							"type": "tuple[]"
						}
					],
					"internalType": "struct Staking.UserData",
					"name": "user",
					"type": "tuple"
				}
			],
			"stateMutability": "nonpayable",
			"type": "function"
		},
		{
			"inputs": [
				{
					"internalType": "uint256",
					"name": "level",
					"type": "uint256"
				}
			],
			"name": "withdraw",
			"outputs": [],
			"stateMutability": "nonpayable",
			"type": "function"
		}
	],
	"bytecode": "0x6080604052600180553480156200001557600080fd5b50604051620026e5380380620026e583398181016040528101906200003b9190620001d6565b60006200004d620001b760201b60201c565b9050806000806101000a81548173ffffffffffffffffffffffffffffffffffffffff021916908373ffffffffffffffffffffffffffffffffffffffff1602179055508073ffffffffffffffffffffffffffffffffffffffff16600073ffffffffffffffffffffffffffffffffffffffff167f8be0079c531659141344cd1fd0a4f28419497f9722a3daafe3b4186f6b6457e060405160405180910390a35082600360006101000a81548173ffffffffffffffffffffffffffffffffffffffff021916908373ffffffffffffffffffffffffffffffffffffffff16021790555081600460006101000a81548173ffffffffffffffffffffffffffffffffffffffff021916908373ffffffffffffffffffffffffffffffffffffffff16021790555080600560006101000a81548173ffffffffffffffffffffffffffffffffffffffff021916908373ffffffffffffffffffffffffffffffffffffffff1602179055505050506200027a565b600033905090565b600081519050620001d08162000260565b92915050565b600080600060608486031215620001ec57600080fd5b6000620001fc86828701620001bf565b93505060206200020f86828701620001bf565b92505060406200022286828701620001bf565b9150509250925092565b6000620002398262000240565b9050919050565b600073ffffffffffffffffffffffffffffffffffffffff82169050919050565b6200026b816200022c565b81146200027757600080fd5b50565b61245b806200028a6000396000f3fe608060405234801561001057600080fd5b50600436106100625760003560e01c80632e1a7d4d14610067578063715018a614610083578063725cedd31461008d5780638da5cb5b146100ab578063b6b55f25146100c9578063f2fde38b146100e5575b600080fd5b610081600480360381019061007c9190611d49565b610101565b005b61008b610a69565b005b610095610ba3565b6040516100a291906120fd565b60405180910390f35b6100b36112c0565b6040516100c0919061204b565b60405180910390f35b6100e360048036038101906100de9190611d49565b6112e9565b005b6100ff60048036038101906100fa9190611cf7565b611a94565b005b60018114801561015457506000600260003373ffffffffffffffffffffffffffffffffffffffff1673ffffffffffffffffffffffffffffffffffffffff1681526020019081526020016000206001015414155b1561040d57600154601e610168919061220b565b600360009054906101000a900473ffffffffffffffffffffffffffffffffffffffff1673ffffffffffffffffffffffffffffffffffffffff166378e979256040518163ffffffff1660e01b815260040160206040518083038186803b1580156101d057600080fd5b505afa1580156101e4573d6000803e3d6000fd5b505050506040513d601f19601f820116820180604052508101906102089190611d72565b6102129190612184565b42111561040c576000612710600260003373ffffffffffffffffffffffffffffffffffffffff1673ffffffffffffffffffffffffffffffffffffffff1681526020019081526020016000206001015461201b61026e919061220b565b61027891906121da565b600260003373ffffffffffffffffffffffffffffffffffffffff1673ffffffffffffffffffffffffffffffffffffffff168152602001908152602001600020600101546102c59190612184565b9050600460009054906101000a900473ffffffffffffffffffffffffffffffffffffffff1673ffffffffffffffffffffffffffffffffffffffff166356189cb43033846040518463ffffffff1660e01b815260040161032693929190612066565b600060405180830381600087803b15801561034057600080fd5b505af1158015610354573d6000803e3d6000fd5b50505050600460009054906101000a900473ffffffffffffffffffffffffffffffffffffffff1673ffffffffffffffffffffffffffffffffffffffff166323b872dd3033846040518463ffffffff1660e01b81526004016103b793929190612066565b602060405180830381600087803b1580156103d157600080fd5b505af11580156103e5573d6000803e3d6000fd5b505050506040513d601f19601f820116820180604052508101906104099190611d20565b50505b5b60028114801561046057506000600260003373ffffffffffffffffffffffffffffffffffffffff1673ffffffffffffffffffffffffffffffffffffffff1681526020019081526020016000206002015414155b1561071957600154601e610474919061220b565b600360009054906101000a900473ffffffffffffffffffffffffffffffffffffffff1673ffffffffffffffffffffffffffffffffffffffff166378e979256040518163ffffffff1660e01b815260040160206040518083038186803b1580156104dc57600080fd5b505afa1580156104f0573d6000803e3d6000fd5b505050506040513d601f19601f820116820180604052508101906105149190611d72565b61051e9190612184565b421115610718576000612710600260003373ffffffffffffffffffffffffffffffffffffffff1673ffffffffffffffffffffffffffffffffffffffff16815260200190815260200160002060020154610c0a61057a919061220b565b61058491906121da565b600260003373ffffffffffffffffffffffffffffffffffffffff1673ffffffffffffffffffffffffffffffffffffffff168152602001908152602001600020600201546105d19190612184565b9050600460009054906101000a900473ffffffffffffffffffffffffffffffffffffffff1673ffffffffffffffffffffffffffffffffffffffff166356189cb43033846040518463ffffffff1660e01b815260040161063293929190612066565b600060405180830381600087803b15801561064c57600080fd5b505af1158015610660573d6000803e3d6000fd5b50505050600460009054906101000a900473ffffffffffffffffffffffffffffffffffffffff1673ffffffffffffffffffffffffffffffffffffffff166323b872dd3033846040518463ffffffff1660e01b81526004016106c393929190612066565b602060405180830381600087803b1580156106dd57600080fd5b505af11580156106f1573d6000803e3d6000fd5b505050506040513d601f19601f820116820180604052508101906107159190611d20565b50505b5b60038114801561076c57506000600260003373ffffffffffffffffffffffffffffffffffffffff1673ffffffffffffffffffffffffffffffffffffffff1681526020019081526020016000206003015414155b15610a2557600154601e610780919061220b565b600360009054906101000a900473ffffffffffffffffffffffffffffffffffffffff1673ffffffffffffffffffffffffffffffffffffffff166378e979256040518163ffffffff1660e01b815260040160206040518083038186803b1580156107e857600080fd5b505afa1580156107fc573d6000803e3d6000fd5b505050506040513d601f19601f820116820180604052508101906108209190611d72565b61082a9190612184565b421115610a24576000612710600260003373ffffffffffffffffffffffffffffffffffffffff1673ffffffffffffffffffffffffffffffffffffffff16815260200190815260200160002060030154610a35610886919061220b565b61089091906121da565b600260003373ffffffffffffffffffffffffffffffffffffffff1673ffffffffffffffffffffffffffffffffffffffff168152602001908152602001600020600301546108dd9190612184565b9050600460009054906101000a900473ffffffffffffffffffffffffffffffffffffffff1673ffffffffffffffffffffffffffffffffffffffff166356189cb43033846040518463ffffffff1660e01b815260040161093e93929190612066565b600060405180830381600087803b15801561095857600080fd5b505af115801561096c573d6000803e3d6000fd5b50505050600460009054906101000a900473ffffffffffffffffffffffffffffffffffffffff1673ffffffffffffffffffffffffffffffffffffffff166323b872dd3033846040518463ffffffff1660e01b81526004016109cf93929190612066565b602060405180830381600087803b1580156109e957600080fd5b505af11580156109fd573d6000803e3d6000fd5b505050506040513d601f19601f82011682018060405250810190610a219190611d20565b50505b5b6000610a66576040517f08c379a0000000000000000000000000000000000000000000000000000000008152600401610a5d9061209d565b60405180910390fd5b50565b610a71611c3d565b73ffffffffffffffffffffffffffffffffffffffff16610a8f6112c0565b73ffffffffffffffffffffffffffffffffffffffff1614610ae5576040517f08c379a0000000000000000000000000000000000000000000000000000000008152600401610adc906120dd565b60405180910390fd5b600073ffffffffffffffffffffffffffffffffffffffff1660008054906101000a900473ffffffffffffffffffffffffffffffffffffffff1673ffffffffffffffffffffffffffffffffffffffff167f8be0079c531659141344cd1fd0a4f28419497f9722a3daafe3b4186f6b6457e060405160405180910390a360008060006101000a81548173ffffffffffffffffffffffffffffffffffffffff021916908373ffffffffffffffffffffffffffffffffffffffff160217905550565b610bab611c45565b6000600260003373ffffffffffffffffffffffffffffffffffffffff1673ffffffffffffffffffffffffffffffffffffffff1681526020019081526020016000206001015414610d5a57600154601e610c04919061220b565b600360009054906101000a900473ffffffffffffffffffffffffffffffffffffffff1673ffffffffffffffffffffffffffffffffffffffff166378e979256040518163ffffffff1660e01b815260040160206040518083038186803b158015610c6c57600080fd5b505afa158015610c80573d6000803e3d6000fd5b505050506040513d601f19601f82011682018060405250810190610ca49190611d72565b610cae9190612184565b421115610d5957612710600260003373ffffffffffffffffffffffffffffffffffffffff1673ffffffffffffffffffffffffffffffffffffffff1681526020019081526020016000206001015461201b610d08919061220b565b610d1291906121da565b600260003373ffffffffffffffffffffffffffffffffffffffff1673ffffffffffffffffffffffffffffffffffffffff168152602001908152602001600020600401819055505b5b6000600260003373ffffffffffffffffffffffffffffffffffffffff1673ffffffffffffffffffffffffffffffffffffffff1681526020019081526020016000206002015414610f0957600154602d610db3919061220b565b600360009054906101000a900473ffffffffffffffffffffffffffffffffffffffff1673ffffffffffffffffffffffffffffffffffffffff166378e979256040518163ffffffff1660e01b815260040160206040518083038186803b158015610e1b57600080fd5b505afa158015610e2f573d6000803e3d6000fd5b505050506040513d601f19601f82011682018060405250810190610e539190611d72565b610e5d9190612184565b421115610f0857612710600260003373ffffffffffffffffffffffffffffffffffffffff1673ffffffffffffffffffffffffffffffffffffffff16815260200190815260200160002060020154610c0a610eb7919061220b565b610ec191906121da565b600260003373ffffffffffffffffffffffffffffffffffffffff1673ffffffffffffffffffffffffffffffffffffffff168152602001908152602001600020600501819055505b5b6000600260003373ffffffffffffffffffffffffffffffffffffffff1673ffffffffffffffffffffffffffffffffffffffff16815260200190815260200160002060030154146110bc57600154603c610f62919061220b565b600360009054906101000a900473ffffffffffffffffffffffffffffffffffffffff1673ffffffffffffffffffffffffffffffffffffffff166378e979256040518163ffffffff1660e01b815260040160206040518083038186803b158015610fca57600080fd5b505afa158015610fde573d6000803e3d6000fd5b505050506040513d601f19601f820116820180604052508101906110029190611d72565b61100c9190612184565b4211156110b757612710600260003373ffffffffffffffffffffffffffffffffffffffff1673ffffffffffffffffffffffffffffffffffffffff16815260200190815260200160002060030154610a35611066919061220b565b61107091906121da565b600260003373ffffffffffffffffffffffffffffffffffffffff1673ffffffffffffffffffffffffffffffffffffffff168152602001908152602001600020600601819055505b611177565b600154603c6110cb919061220b565b600360009054906101000a900473ffffffffffffffffffffffffffffffffffffffff1673ffffffffffffffffffffffffffffffffffffffff166378e979256040518163ffffffff1660e01b815260040160206040518083038186803b15801561113357600080fd5b505afa158015611147573d6000803e3d6000fd5b505050506040513d601f19601f8201168201806040525081019061116b9190611d72565b6111759190612184565b505b600260003373ffffffffffffffffffffffffffffffffffffffff1673ffffffffffffffffffffffffffffffffffffffff168152602001908152602001600020604051806101600160405290816000820160009054906101000a900460ff161515151581526020016000820160019054906101000a900460ff16151515158152602001600182015481526020016002820154815260200160038201548152602001600482015481526020016005820154815260200160068201548152602001600782015481526020016008820154815260200160098201805480602002602001604051908101604052809291908181526020016000905b828210156112b35783829060005260206000209060020201604051806040016040529081600082015481526020016001820154815250508152602001906001019061126d565b5050505081525050905090565b60008060009054906101000a900473ffffffffffffffffffffffffffffffffffffffff16905090565b600360009054906101000a900473ffffffffffffffffffffffffffffffffffffffff1673ffffffffffffffffffffffffffffffffffffffff1663f12ca6986040518163ffffffff1660e01b8152600401600060405180830381600087803b15801561135357600080fd5b505af1158015611367573d6000803e3d6000fd5b505050506000600360009054906101000a900473ffffffffffffffffffffffffffffffffffffffff1673ffffffffffffffffffffffffffffffffffffffff16636fd5ae156040518163ffffffff1660e01b815260040160206040518083038186803b1580156113d557600080fd5b505afa1580156113e9573d6000803e3d6000fd5b505050506040513d601f19601f8201168201806040525081019061140d9190611d72565b90506000806000806000600360009054906101000a900473ffffffffffffffffffffffffffffffffffffffff1673ffffffffffffffffffffffffffffffffffffffff1663b2596a67876040518263ffffffff1660e01b8152600401611472919061211f565b60a06040518083038186803b15801561148a57600080fd5b505afa15801561149e573d6000803e3d6000fd5b505050506040513d601f19601f820116820180604052508101906114c29190611d9b565b945094509450945094508487826114d99190612184565b1061157a57600360009054906101000a900473ffffffffffffffffffffffffffffffffffffffff1673ffffffffffffffffffffffffffffffffffffffff166392e0150b886040518263ffffffff1660e01b8152600401611539919061211f565b600060405180830381600087803b15801561155357600080fd5b505af1158015611567573d6000803e3d6000fd5b5050505080856115779190612265565b96505b60018614156116935786600260003373ffffffffffffffffffffffffffffffffffffffff1673ffffffffffffffffffffffffffffffffffffffff16815260200190815260200160002060010160008282546115d59190612184565b92505081905550600560009054906101000a900473ffffffffffffffffffffffffffffffffffffffff1673ffffffffffffffffffffffffffffffffffffffff166323b872dd33308a6040518463ffffffff1660e01b815260040161163b93929190612066565b602060405180830381600087803b15801561165557600080fd5b505af1158015611669573d6000803e3d6000fd5b505050506040513d601f19601f8201168201806040525081019061168d9190611d20565b506119b7565b60028614156117ac5786600260003373ffffffffffffffffffffffffffffffffffffffff1673ffffffffffffffffffffffffffffffffffffffff16815260200190815260200160002060020160008282546116ee9190612184565b92505081905550600560009054906101000a900473ffffffffffffffffffffffffffffffffffffffff1673ffffffffffffffffffffffffffffffffffffffff166323b872dd33308a6040518463ffffffff1660e01b815260040161175493929190612066565b602060405180830381600087803b15801561176e57600080fd5b505af1158015611782573d6000803e3d6000fd5b505050506040513d601f19601f820116820180604052508101906117a69190611d20565b506119b6565b60038614156118c55786600260003373ffffffffffffffffffffffffffffffffffffffff1673ffffffffffffffffffffffffffffffffffffffff16815260200190815260200160002060030160008282546118079190612184565b92505081905550600560009054906101000a900473ffffffffffffffffffffffffffffffffffffffff1673ffffffffffffffffffffffffffffffffffffffff166323b872dd33308a6040518463ffffffff1660e01b815260040161186d93929190612066565b602060405180830381600087803b15801561188757600080fd5b505af115801561189b573d6000803e3d6000fd5b505050506040513d601f19601f820116820180604052508101906118bf9190611d20565b506119b5565b86600260003373ffffffffffffffffffffffffffffffffffffffff1673ffffffffffffffffffffffffffffffffffffffff16815260200190815260200160002060070160008282546119179190612184565b92505081905550600260003373ffffffffffffffffffffffffffffffffffffffff1673ffffffffffffffffffffffffffffffffffffffff1681526020019081526020016000206009016040518060400160405280428152602001898152509080600181540180825580915050600190039060005260206000209060020201600090919091909150600082015181600001556020820151816001015550505b5b5b42600260003373ffffffffffffffffffffffffffffffffffffffff1673ffffffffffffffffffffffffffffffffffffffff16815260200190815260200160002060080181905550600360009054906101000a900473ffffffffffffffffffffffffffffffffffffffff1673ffffffffffffffffffffffffffffffffffffffff16637bdecea1886040518263ffffffff1660e01b8152600401611a59919061211f565b600060405180830381600087803b158015611a7357600080fd5b505af1158015611a87573d6000803e3d6000fd5b5050505050505050505050565b611a9c611c3d565b73ffffffffffffffffffffffffffffffffffffffff16611aba6112c0565b73ffffffffffffffffffffffffffffffffffffffff1614611b10576040517f08c379a0000000000000000000000000000000000000000000000000000000008152600401611b07906120dd565b60405180910390fd5b600073ffffffffffffffffffffffffffffffffffffffff168173ffffffffffffffffffffffffffffffffffffffff161415611b80576040517f08c379a0000000000000000000000000000000000000000000000000000000008152600401611b77906120bd565b60405180910390fd5b8073ffffffffffffffffffffffffffffffffffffffff1660008054906101000a900473ffffffffffffffffffffffffffffffffffffffff1673ffffffffffffffffffffffffffffffffffffffff167f8be0079c531659141344cd1fd0a4f28419497f9722a3daafe3b4186f6b6457e060405160405180910390a3806000806101000a81548173ffffffffffffffffffffffffffffffffffffffff021916908373ffffffffffffffffffffffffffffffffffffffff16021790555050565b600033905090565b6040518061016001604052806000151581526020016000151581526020016000815260200160008152602001600081526020016000815260200160008152602001600081526020016000815260200160008152602001606081525090565b600081359050611cb2816123e0565b92915050565b600081519050611cc7816123f7565b92915050565b600081359050611cdc8161240e565b92915050565b600081519050611cf18161240e565b92915050565b600060208284031215611d0957600080fd5b6000611d1784828501611ca3565b91505092915050565b600060208284031215611d3257600080fd5b6000611d4084828501611cb8565b91505092915050565b600060208284031215611d5b57600080fd5b6000611d6984828501611ccd565b91505092915050565b600060208284031215611d8457600080fd5b6000611d9284828501611ce2565b91505092915050565b600080600080600060a08688031215611db357600080fd5b6000611dc188828901611ce2565b9550506020611dd288828901611ce2565b9450506040611de388828901611ce2565b9350506060611df488828901611ce2565b9250506080611e0588828901611ce2565b9150509295509295909350565b6000611e1e8383611f0f565b60408301905092915050565b611e3381612299565b82525050565b6000611e448261214a565b611e4e8185612162565b9350611e598361213a565b8060005b83811015611e8a578151611e718882611e12565b9750611e7c83612155565b925050600181019050611e5d565b5085935050505092915050565b611ea0816122ab565b82525050565b6000611eb3600f83612173565b9150611ebe8261233f565b602082019050919050565b6000611ed6602683612173565b9150611ee182612368565b604082019050919050565b6000611ef9602083612173565b9150611f04826123b7565b602082019050919050565b604082016000820151611f25600085018261202d565b506020820151611f38602085018261202d565b50505050565b600061016083016000830151611f576000860182611e97565b506020830151611f6a6020860182611e97565b506040830151611f7d604086018261202d565b506060830151611f90606086018261202d565b506080830151611fa3608086018261202d565b5060a0830151611fb660a086018261202d565b5060c0830151611fc960c086018261202d565b5060e0830151611fdc60e086018261202d565b50610100830151611ff161010086018261202d565b5061012083015161200661012086018261202d565b506101408301518482036101408601526120208282611e39565b9150508091505092915050565b612036816122d7565b82525050565b612045816122d7565b82525050565b60006020820190506120606000830184611e2a565b92915050565b600060608201905061207b6000830186611e2a565b6120886020830185611e2a565b612095604083018461203c565b949350505050565b600060208201905081810360008301526120b681611ea6565b9050919050565b600060208201905081810360008301526120d681611ec9565b9050919050565b600060208201905081810360008301526120f681611eec565b9050919050565b600060208201905081810360008301526121178184611f3e565b905092915050565b6000602082019050612134600083018461203c565b92915050565b6000819050602082019050919050565b600081519050919050565b6000602082019050919050565b600082825260208201905092915050565b600082825260208201905092915050565b600061218f826122d7565b915061219a836122d7565b9250827fffffffffffffffffffffffffffffffffffffffffffffffffffffffffffffffff038211156121cf576121ce6122e1565b5b828201905092915050565b60006121e5826122d7565b91506121f0836122d7565b925082612200576121ff612310565b5b828204905092915050565b6000612216826122d7565b9150612221836122d7565b9250817fffffffffffffffffffffffffffffffffffffffffffffffffffffffffffffffff048311821515161561225a576122596122e1565b5b828202905092915050565b6000612270826122d7565b915061227b836122d7565b92508282101561228e5761228d6122e1565b5b828203905092915050565b60006122a4826122b7565b9050919050565b60008115159050919050565b600073ffffffffffffffffffffffffffffffffffffffff82169050919050565b6000819050919050565b7f4e487b7100000000000000000000000000000000000000000000000000000000600052601160045260246000fd5b7f4e487b7100000000000000000000000000000000000000000000000000000000600052601260045260246000fd5b7f43616e6e6f742077697468647261770000000000000000000000000000000000600082015250565b7f4f776e61626c653a206e6577206f776e657220697320746865207a65726f206160008201527f6464726573730000000000000000000000000000000000000000000000000000602082015250565b7f4f776e61626c653a2063616c6c6572206973206e6f7420746865206f776e6572600082015250565b6123e981612299565b81146123f457600080fd5b50565b612400816122ab565b811461240b57600080fd5b50565b612417816122d7565b811461242257600080fd5b5056fea26469706673582212204ee2d90ec87f0e4b0ec5c9a2ef4b50a5a69cf71af5876a704dd11ef08da7729d64736f6c63430008010033",
	"immutableReferences": {},
	"source": "// SPDX-License-Identifier: MIT\npragma solidity ^0.8.0;\n\nimport '@openzeppelin/contracts/token/ERC20/ERC20.sol';\nimport '@openzeppelin/contracts/access/Ownable.sol';\n\nimport './Tokens.sol';\n\ncontract Staking is Ownable {\n\tuint256 oneDay = 1;\n\n\tstruct Transaction {\n\t\tuint256 addedOn;\n\t\tuint256 amount;\n\t}\n\n\tstruct UserData {\n\t\tbool allowed;\n\t\tbool created;\n\t\tuint256 level1Tokens;\n\t\tuint256 level2Tokens;\n\t\tuint256 level3Tokens;\n\t\tuint256 level1Reward;\n\t\tuint256 level2Reward;\n\t\tuint256 level3Reward;\n\t\t//\n\t\t//\n\t\tuint256 tokens;\n\t\tuint256 lastUpdateDate;\n\t\tTransaction[] transactions;\n\t}\n\n\tmapping(address => UserData) users;\n\n\tStakingFactory factory;\n\tMock rewardsToken;\n\tIERC20 stakingToken;\n\tstruct LevelData {\n\t\tuint256 allowedForXCoins;\n\t\tuint256 rewardPercentTimes100;\n\t\tuint256 lockedDuration;\n\t\tuint256 allowedReward;\n\t\tuint256 alloted;\n\t}\n\n\tfunction deposit(uint256 amount) public {\n\t\t// \t\trequire(users[msg.sender].allowed);\n\t\t// TODO:add fix for update only if success and succeds.\n\t\tfactory.updateLevelCheck();\n\t\t// rewardsToken.approveInternal(address(this), msg.sender, amount * 10);\n\t\tuint256 level = factory.level();\n\t\t(uint256 allowedForXCoins, uint256 _rewardPercentTimes100, uint256 _lockedDuration, uint256 _allowedReward, uint256 alloted) =\n\t\t\tfactory.levels(level);\n\t\tif (alloted + amount >= allowedForXCoins) {\n\t\t\tfactory.updateLevel(amount);\n\t\t\tamount = allowedForXCoins - alloted;\n\t\t}\n\t\tif (level == 1) {\n\t\t\tusers[msg.sender].level1Tokens += amount;\n\t\t\tstakingToken.transferFrom(msg.sender, address(this), amount);\n\t\t} else if (level == 2) {\n\t\t\tusers[msg.sender].level2Tokens += amount;\n\t\t\tstakingToken.transferFrom(msg.sender, address(this), amount);\n\t\t} else if (level == 3) {\n\t\t\tusers[msg.sender].level3Tokens += amount;\n\t\t\tstakingToken.transferFrom(msg.sender, address(this), amount);\n\t\t} else {\n\t\t\tusers[msg.sender].tokens += amount;\n\t\t\tusers[msg.sender].transactions.push(Transaction(block.timestamp, amount));\n\t\t}\n\t\tusers[msg.sender].lastUpdateDate = block.timestamp;\n\t\tfactory.updateTokens(amount);\n\t}\n\n\tfunction calculateReward() public returns (UserData memory user) {\n\t\tif (users[msg.sender].level1Tokens != 0) {\n\t\t\tif (block.timestamp > factory.startTime() + 30 * oneDay) {\n\t\t\t\tusers[msg.sender].level1Reward = ((8219 * users[msg.sender].level1Tokens)) / 10000;\n\t\t\t}\n\t\t}\n\t\tif (users[msg.sender].level2Tokens != 0) {\n\t\t\tif (block.timestamp > factory.startTime() + 45 * oneDay) {\n\t\t\t\tusers[msg.sender].level2Reward = ((3082 * users[msg.sender].level2Tokens)) / 10000;\n\t\t\t}\n\t\t}\n\t\tif (users[msg.sender].level3Tokens != 0) {\n\t\t\tif (block.timestamp > factory.startTime() + 60 * oneDay) {\n\t\t\t\tusers[msg.sender].level3Reward = ((2613 * users[msg.sender].level3Tokens)) / 10000;\n\t\t\t}\n\t\t} else {\n\t\t\tif (block.timestamp > factory.startTime() + 60 * oneDay) {\n\t\t\t\t// for (uint256 index = 0; index < users[msg.sender].transactions.length; index++) {\n\t\t\t\t// \tusers[]\n\t\t\t\t// }\n\t\t\t\t// users[msg.sender].level3Reward = ((2613 * users[msg.sender].level3Tokens)) / 10000;\n\t\t\t}\n\t\t}\n\t\treturn users[msg.sender];\n\t}\n\n\tfunction withdraw(uint256 level) public {\n\t\tif (level == 1 && users[msg.sender].level1Tokens != 0) {\n\t\t\tif (block.timestamp > factory.startTime() + 30 * oneDay) {\n\t\t\t\tuint256 rewardValue = users[msg.sender].level1Tokens + (((8219 * users[msg.sender].level1Tokens)) / 10000);\n\t\t\t\trewardsToken.approveInternal(address(this), msg.sender, rewardValue);\n\t\t\t\trewardsToken.transferFrom(address(this), msg.sender, rewardValue);\n\t\t\t}\n\t\t}\n\t\tif (level == 2 && users[msg.sender].level2Tokens != 0) {\n\t\t\tif (block.timestamp > factory.startTime() + 30 * oneDay) {\n\t\t\t\tuint256 rewardValue = users[msg.sender].level2Tokens + (((3082 * users[msg.sender].level2Tokens)) / 10000);\n\t\t\t\trewardsToken.approveInternal(address(this), msg.sender, rewardValue);\n\t\t\t\trewardsToken.transferFrom(address(this), msg.sender, rewardValue);\n\t\t\t}\n\t\t}\n\t\tif (level == 3 && users[msg.sender].level3Tokens != 0) {\n\t\t\tif (block.timestamp > factory.startTime() + 30 * oneDay) {\n\t\t\t\tuint256 rewardValue = users[msg.sender].level3Tokens + (((2613 * users[msg.sender].level3Tokens)) / 10000);\n\t\t\t\trewardsToken.approveInternal(address(this), msg.sender, rewardValue);\n\t\t\t\trewardsToken.transferFrom(address(this), msg.sender, rewardValue);\n\t\t\t}\n\t\t}\n\t\trequire(false, 'Cannot withdraw');\n\t}\n\n\tconstructor(\n\t\taddress _factory,\n\t\taddress _rewardsToken,\n\t\taddress _stakingToken\n\t) {\n\t\tfactory = StakingFactory(_factory);\n\t\trewardsToken = Mock(_rewardsToken);\n\t\tstakingToken = IERC20(_stakingToken);\n\t}\n}\n\ncontract StakingFactory is Ownable {\n\tMock rewardsToken;\n\tuint256 public startTime;\n\tuint256 public level;\n\taddress[] public stakingTokens;\n\n\tstruct StakingRewardsInfo {\n\t\taddress stakingRewards;\n\t\tuint256 rewardAmount;\n\t}\n\n\t// rewards info by staking token\n\tmapping(address => StakingRewardsInfo) public stakingRewardsInfoByStakingToken;\n\n\tstruct LevelData {\n\t\tuint256 allowedForXCoins;\n\t\tuint256 rewardPercentTimes100;\n\t\tuint256 lockedDuration;\n\t\tuint256 allowedReward;\n\t\tuint256 alloted;\n\t}\n\n\tmapping(uint256 => LevelData) public levels;\n\n\tfunction createLevels() internal onlyOwner {\n\t\tlevels[1] = LevelData(300000, 8219, 30, 246575, 0);\n\t\tlevels[2] = LevelData(900000, 3082, 45, 184932, 0);\n\t\tlevels[3] = LevelData(1900000, 2630, 60, 263014, 0);\n\t\tlevels[4] = LevelData(2900000, 416, 60, 41000, 0);\n\n\t\tlevel = 1;\n\t}\n\n\tfunction updateLevel(uint256 tokenValue) public {\n\t\tif (levels[level].alloted + tokenValue >= levels[level].allowedForXCoins) {\n\t\t\tlevel += 1;\n\t\t}\n\t}\n\n\tfunction updateTokens(uint256 tokenValue) public {\n\t\tlevels[level].alloted += tokenValue;\n\t}\n\n\tfunction updateLevelCheck() public {\n\t\tif (block.timestamp > startTime + 60 * 24 * 60) {\n\t\t\tlevel = 4;\n\t\t}\n\t}\n\n\tconstructor(address _rewardsToken, uint256 _startTime) {\n\t\trewardsToken = Mock(_rewardsToken);\n\t\tstartTime = _startTime;\n\t\tlevel = 1;\n\t\tcreateLevels();\n\t}\n\n\tfunction deploy(address stakingToken, uint256 rewardAmount) public onlyOwner {\n\t\tStakingRewardsInfo storage info = stakingRewardsInfoByStakingToken[stakingToken];\n\t\trequire(info.stakingRewards == address(0), 'StakingRewardsFactory::deploy: already deployed');\n\t\tinfo.stakingRewards = address(new Staking(address(this), address(rewardsToken), stakingToken));\n\n\t\trewardsToken.approveInternal(msg.sender, info.stakingRewards, rewardAmount);\n\t\trewardsToken.transferInternal(msg.sender, info.stakingRewards, rewardAmount);\n\t\tinfo.rewardAmount = rewardAmount;\n\t\tstakingTokens.push(stakingToken);\n\t}\n}\n",
	"sourcePath": "/media/aniket/home/aniket/Work/nonceblox-work/BF_Staking/contracts/BYN.sol",
	"compiler": {
		"name": "solc",
		"version": "0.8.1+commit.df193b15.Emscripten.clang"
	},
	"schemaVersion": "3.3.4",
	"updatedAt": "2021-03-31T17:46:39.409Z",
	"devdoc": {
		"kind": "dev",
		"methods": {
			"owner()": {
				"details": "Returns the address of the current owner."
			},
			"renounceOwnership()": {
				"details": "Leaves the contract without owner. It will not be possible to call `onlyOwner` functions anymore. Can only be called by the current owner. NOTE: Renouncing ownership will leave the contract without an owner, thereby removing any functionality that is only available to the owner."
			},
			"transferOwnership(address)": {
				"details": "Transfers ownership of the contract to a new account (`newOwner`). Can only be called by the current owner."
			}
		},
		"version": 1
	},
	"userdoc": {
		"kind": "user",
		"methods": {},
		"version": 1
	}
}