{
	"contractName": "Staking",
	"abi": [
		{
			"inputs": [
				{
					"internalType": "address",
					"name": "_factory",
					"type": "address"
				},
				{
					"internalType": "address",
					"name": "_rewardsToken",
					"type": "address"
				},
				{
					"internalType": "address",
					"name": "_stakingToken",
					"type": "address"
				}
			],
			"stateMutability": "nonpayable",
			"type": "constructor"
		},
		{
			"inputs": [
				{
					"internalType": "uint256",
					"name": "amount",
					"type": "uint256"
				}
			],
			"name": "deposit",
			"outputs": [],
			"stateMutability": "nonpayable",
			"type": "function"
		},
		{
			"inputs": [],
			"name": "calculateReward",
			"outputs": [
				{
					"components": [
						{
							"internalType": "bool",
							"name": "allowed",
							"type": "bool"
						},
						{
							"internalType": "bool",
							"name": "created",
							"type": "bool"
						},
						{
							"internalType": "uint256",
							"name": "level1Tokens",
							"type": "uint256"
						},
						{
							"internalType": "uint256",
							"name": "level2Tokens",
							"type": "uint256"
						},
						{
							"internalType": "uint256",
							"name": "level3Tokens",
							"type": "uint256"
						},
						{
							"internalType": "uint256",
							"name": "level1Reward",
							"type": "uint256"
						},
						{
							"internalType": "uint256",
							"name": "level2Reward",
							"type": "uint256"
						},
						{
							"internalType": "uint256",
							"name": "level3Reward",
							"type": "uint256"
						},
						{
							"internalType": "uint256",
							"name": "tokens",
							"type": "uint256"
						},
						{
							"internalType": "uint256",
							"name": "lastUpdateDate",
							"type": "uint256"
						},
						{
							"components": [
								{
									"internalType": "uint256",
									"name": "addedOn",
									"type": "uint256"
								},
								{
									"internalType": "uint256",
									"name": "amount",
									"type": "uint256"
								}
							],
							"internalType": "struct Staking.Transaction[]",
							"name": "transactions",
							"type": "tuple[]"
						}
					],
					"internalType": "struct Staking.UserData",
					"name": "user",
					"type": "tuple"
				}
			],
			"stateMutability": "nonpayable",
			"type": "function"
		},
		{
			"inputs": [
				{
					"internalType": "uint256",
					"name": "level",
					"type": "uint256"
				}
			],
			"name": "withdraw",
			"outputs": [],
			"stateMutability": "nonpayable",
			"type": "function"
		}
	],
	"bytecode": "0x6080604052620151806000553480156200001857600080fd5b5060405162001cb638038062001cb683398181016040528101906200003e919062000121565b82600260006101000a81548173ffffffffffffffffffffffffffffffffffffffff021916908373ffffffffffffffffffffffffffffffffffffffff16021790555081600360006101000a81548173ffffffffffffffffffffffffffffffffffffffff021916908373ffffffffffffffffffffffffffffffffffffffff16021790555080600460006101000a81548173ffffffffffffffffffffffffffffffffffffffff021916908373ffffffffffffffffffffffffffffffffffffffff160217905550505050620001c5565b6000815190506200011b81620001ab565b92915050565b6000806000606084860312156200013757600080fd5b600062000147868287016200010a565b93505060206200015a868287016200010a565b92505060406200016d868287016200010a565b9150509250925092565b600062000184826200018b565b9050919050565b600073ffffffffffffffffffffffffffffffffffffffff82169050919050565b620001b68162000177565b8114620001c257600080fd5b50565b611ae180620001d56000396000f3fe608060405234801561001057600080fd5b50600436106100415760003560e01c80632e1a7d4d14610046578063725cedd314610062578063b6b55f2514610080575b600080fd5b610060600480360381019061005b9190611627565b61009c565b005b61006a6107fe565b6040516100779190611880565b60405180910390f35b61009a60048036038101906100959190611627565b610f1b565b005b6001811480156100ef57506000600160003373ffffffffffffffffffffffffffffffffffffffff1673ffffffffffffffffffffffffffffffffffffffff1681526020019081526020016000206001015414155b1561031157600054601e610103919061197d565b600260009054906101000a900473ffffffffffffffffffffffffffffffffffffffff1673ffffffffffffffffffffffffffffffffffffffff166378e979256040518163ffffffff1660e01b815260040160206040518083038186803b15801561016b57600080fd5b505afa15801561017f573d6000803e3d6000fd5b505050506040513d601f19601f820116820180604052508101906101a39190611650565b6101ad91906118f6565b42111561031057600360009054906101000a900473ffffffffffffffffffffffffffffffffffffffff1673ffffffffffffffffffffffffffffffffffffffff166323b872dd3033612710600160003373ffffffffffffffffffffffffffffffffffffffff1673ffffffffffffffffffffffffffffffffffffffff1681526020019081526020016000206001015461201b610247919061197d565b610251919061194c565b600160003373ffffffffffffffffffffffffffffffffffffffff1673ffffffffffffffffffffffffffffffffffffffff1681526020019081526020016000206001015461029e91906118f6565b6040518463ffffffff1660e01b81526004016102bc93929190611849565b602060405180830381600087803b1580156102d657600080fd5b505af11580156102ea573d6000803e3d6000fd5b505050506040513d601f19601f8201168201806040525081019061030e91906115fe565b505b5b60028114801561036457506000600160003373ffffffffffffffffffffffffffffffffffffffff1673ffffffffffffffffffffffffffffffffffffffff1681526020019081526020016000206002015414155b1561058657600054601e610378919061197d565b600260009054906101000a900473ffffffffffffffffffffffffffffffffffffffff1673ffffffffffffffffffffffffffffffffffffffff166378e979256040518163ffffffff1660e01b815260040160206040518083038186803b1580156103e057600080fd5b505afa1580156103f4573d6000803e3d6000fd5b505050506040513d601f19601f820116820180604052508101906104189190611650565b61042291906118f6565b42111561058557600360009054906101000a900473ffffffffffffffffffffffffffffffffffffffff1673ffffffffffffffffffffffffffffffffffffffff166323b872dd3033612710600160003373ffffffffffffffffffffffffffffffffffffffff1673ffffffffffffffffffffffffffffffffffffffff16815260200190815260200160002060020154610c0a6104bc919061197d565b6104c6919061194c565b600160003373ffffffffffffffffffffffffffffffffffffffff1673ffffffffffffffffffffffffffffffffffffffff1681526020019081526020016000206002015461051391906118f6565b6040518463ffffffff1660e01b815260040161053193929190611849565b602060405180830381600087803b15801561054b57600080fd5b505af115801561055f573d6000803e3d6000fd5b505050506040513d601f19601f8201168201806040525081019061058391906115fe565b505b5b6003811480156105d957506000600160003373ffffffffffffffffffffffffffffffffffffffff1673ffffffffffffffffffffffffffffffffffffffff1681526020019081526020016000206003015414155b156107fb57600054601e6105ed919061197d565b600260009054906101000a900473ffffffffffffffffffffffffffffffffffffffff1673ffffffffffffffffffffffffffffffffffffffff166378e979256040518163ffffffff1660e01b815260040160206040518083038186803b15801561065557600080fd5b505afa158015610669573d6000803e3d6000fd5b505050506040513d601f19601f8201168201806040525081019061068d9190611650565b61069791906118f6565b4211156107fa57600360009054906101000a900473ffffffffffffffffffffffffffffffffffffffff1673ffffffffffffffffffffffffffffffffffffffff166323b872dd3033612710600160003373ffffffffffffffffffffffffffffffffffffffff1673ffffffffffffffffffffffffffffffffffffffff16815260200190815260200160002060030154610a35610731919061197d565b61073b919061194c565b600160003373ffffffffffffffffffffffffffffffffffffffff1673ffffffffffffffffffffffffffffffffffffffff1681526020019081526020016000206003015461078891906118f6565b6040518463ffffffff1660e01b81526004016107a693929190611849565b602060405180830381600087803b1580156107c057600080fd5b505af11580156107d4573d6000803e3d6000fd5b505050506040513d601f19601f820116820180604052508101906107f891906115fe565b505b5b50565b610806611561565b6000600160003373ffffffffffffffffffffffffffffffffffffffff1673ffffffffffffffffffffffffffffffffffffffff16815260200190815260200160002060010154146109b557600054601e61085f919061197d565b600260009054906101000a900473ffffffffffffffffffffffffffffffffffffffff1673ffffffffffffffffffffffffffffffffffffffff166378e979256040518163ffffffff1660e01b815260040160206040518083038186803b1580156108c757600080fd5b505afa1580156108db573d6000803e3d6000fd5b505050506040513d601f19601f820116820180604052508101906108ff9190611650565b61090991906118f6565b4211156109b457612710600160003373ffffffffffffffffffffffffffffffffffffffff1673ffffffffffffffffffffffffffffffffffffffff1681526020019081526020016000206001015461201b610963919061197d565b61096d919061194c565b600160003373ffffffffffffffffffffffffffffffffffffffff1673ffffffffffffffffffffffffffffffffffffffff168152602001908152602001600020600401819055505b5b6000600160003373ffffffffffffffffffffffffffffffffffffffff1673ffffffffffffffffffffffffffffffffffffffff1681526020019081526020016000206002015414610b6457600054601e610a0e919061197d565b600260009054906101000a900473ffffffffffffffffffffffffffffffffffffffff1673ffffffffffffffffffffffffffffffffffffffff166378e979256040518163ffffffff1660e01b815260040160206040518083038186803b158015610a7657600080fd5b505afa158015610a8a573d6000803e3d6000fd5b505050506040513d601f19601f82011682018060405250810190610aae9190611650565b610ab891906118f6565b421115610b6357612710600160003373ffffffffffffffffffffffffffffffffffffffff1673ffffffffffffffffffffffffffffffffffffffff16815260200190815260200160002060020154610c0a610b12919061197d565b610b1c919061194c565b600160003373ffffffffffffffffffffffffffffffffffffffff1673ffffffffffffffffffffffffffffffffffffffff168152602001908152602001600020600501819055505b5b6000600160003373ffffffffffffffffffffffffffffffffffffffff1673ffffffffffffffffffffffffffffffffffffffff1681526020019081526020016000206003015414610d1757600054602d610bbd919061197d565b600260009054906101000a900473ffffffffffffffffffffffffffffffffffffffff1673ffffffffffffffffffffffffffffffffffffffff166378e979256040518163ffffffff1660e01b815260040160206040518083038186803b158015610c2557600080fd5b505afa158015610c39573d6000803e3d6000fd5b505050506040513d601f19601f82011682018060405250810190610c5d9190611650565b610c6791906118f6565b421115610d1257612710600160003373ffffffffffffffffffffffffffffffffffffffff1673ffffffffffffffffffffffffffffffffffffffff16815260200190815260200160002060030154610a35610cc1919061197d565b610ccb919061194c565b600160003373ffffffffffffffffffffffffffffffffffffffff1673ffffffffffffffffffffffffffffffffffffffff168152602001908152602001600020600601819055505b610dd2565b600054603c610d26919061197d565b600260009054906101000a900473ffffffffffffffffffffffffffffffffffffffff1673ffffffffffffffffffffffffffffffffffffffff166378e979256040518163ffffffff1660e01b815260040160206040518083038186803b158015610d8e57600080fd5b505afa158015610da2573d6000803e3d6000fd5b505050506040513d601f19601f82011682018060405250810190610dc69190611650565b610dd091906118f6565b505b600160003373ffffffffffffffffffffffffffffffffffffffff1673ffffffffffffffffffffffffffffffffffffffff168152602001908152602001600020604051806101600160405290816000820160009054906101000a900460ff161515151581526020016000820160019054906101000a900460ff16151515158152602001600182015481526020016002820154815260200160038201548152602001600482015481526020016005820154815260200160068201548152602001600782015481526020016008820154815260200160098201805480602002602001604051908101604052809291908181526020016000905b82821015610f0e57838290600052602060002090600202016040518060400160405290816000820154815260200160018201548152505081526020019060010190610ec8565b5050505081525050905090565b600260009054906101000a900473ffffffffffffffffffffffffffffffffffffffff1673ffffffffffffffffffffffffffffffffffffffff166392e0150b826040518263ffffffff1660e01b8152600401610f7691906118a2565b600060405180830381600087803b158015610f9057600080fd5b505af1158015610fa4573d6000803e3d6000fd5b505050506000600260009054906101000a900473ffffffffffffffffffffffffffffffffffffffff1673ffffffffffffffffffffffffffffffffffffffff16636fd5ae156040518163ffffffff1660e01b815260040160206040518083038186803b15801561101257600080fd5b505afa158015611026573d6000803e3d6000fd5b505050506040513d601f19601f8201168201806040525081019061104a9190611650565b905060018114156111655781600160003373ffffffffffffffffffffffffffffffffffffffff1673ffffffffffffffffffffffffffffffffffffffff16815260200190815260200160002060010160008282546110a791906118f6565b92505081905550600460009054906101000a900473ffffffffffffffffffffffffffffffffffffffff1673ffffffffffffffffffffffffffffffffffffffff166323b872dd3330856040518463ffffffff1660e01b815260040161110d93929190611849565b602060405180830381600087803b15801561112757600080fd5b505af115801561113b573d6000803e3d6000fd5b505050506040513d601f19601f8201168201806040525081019061115f91906115fe565b50611489565b600281141561127e5781600160003373ffffffffffffffffffffffffffffffffffffffff1673ffffffffffffffffffffffffffffffffffffffff16815260200190815260200160002060020160008282546111c091906118f6565b92505081905550600460009054906101000a900473ffffffffffffffffffffffffffffffffffffffff1673ffffffffffffffffffffffffffffffffffffffff166323b872dd3330856040518463ffffffff1660e01b815260040161122693929190611849565b602060405180830381600087803b15801561124057600080fd5b505af1158015611254573d6000803e3d6000fd5b505050506040513d601f19601f8201168201806040525081019061127891906115fe565b50611488565b60038114156113975781600160003373ffffffffffffffffffffffffffffffffffffffff1673ffffffffffffffffffffffffffffffffffffffff16815260200190815260200160002060030160008282546112d991906118f6565b92505081905550600460009054906101000a900473ffffffffffffffffffffffffffffffffffffffff1673ffffffffffffffffffffffffffffffffffffffff166323b872dd3330856040518463ffffffff1660e01b815260040161133f93929190611849565b602060405180830381600087803b15801561135957600080fd5b505af115801561136d573d6000803e3d6000fd5b505050506040513d601f19601f8201168201806040525081019061139191906115fe565b50611487565b81600160003373ffffffffffffffffffffffffffffffffffffffff1673ffffffffffffffffffffffffffffffffffffffff16815260200190815260200160002060070160008282546113e991906118f6565b92505081905550600160003373ffffffffffffffffffffffffffffffffffffffff1673ffffffffffffffffffffffffffffffffffffffff1681526020019081526020016000206009016040518060400160405280428152602001848152509080600181540180825580915050600190039060005260206000209060020201600090919091909150600082015181600001556020820151816001015550505b5b5b42600160003373ffffffffffffffffffffffffffffffffffffffff1673ffffffffffffffffffffffffffffffffffffffff16815260200190815260200160002060080181905550600260009054906101000a900473ffffffffffffffffffffffffffffffffffffffff1673ffffffffffffffffffffffffffffffffffffffff16637bdecea1836040518263ffffffff1660e01b815260040161152b91906118a2565b600060405180830381600087803b15801561154557600080fd5b505af1158015611559573d6000803e3d6000fd5b505050505050565b6040518061016001604052806000151581526020016000151581526020016000815260200160008152602001600081526020016000815260200160008152602001600081526020016000815260200160008152602001606081525090565b6000815190506115ce81611a7d565b92915050565b6000813590506115e381611a94565b92915050565b6000815190506115f881611a94565b92915050565b60006020828403121561161057600080fd5b600061161e848285016115bf565b91505092915050565b60006020828403121561163957600080fd5b6000611647848285016115d4565b91505092915050565b60006020828403121561166257600080fd5b6000611670848285016115e9565b91505092915050565b6000611685838361170d565b60408301905092915050565b61169a816119d7565b82525050565b60006116ab826118cd565b6116b581856118e5565b93506116c0836118bd565b8060005b838110156116f15781516116d88882611679565b97506116e3836118d8565b9250506001810190506116c4565b5085935050505092915050565b611707816119e9565b82525050565b604082016000820151611723600085018261182b565b506020820151611736602085018261182b565b50505050565b60006101608301600083015161175560008601826116fe565b50602083015161176860208601826116fe565b50604083015161177b604086018261182b565b50606083015161178e606086018261182b565b5060808301516117a1608086018261182b565b5060a08301516117b460a086018261182b565b5060c08301516117c760c086018261182b565b5060e08301516117da60e086018261182b565b506101008301516117ef61010086018261182b565b5061012083015161180461012086018261182b565b5061014083015184820361014086015261181e82826116a0565b9150508091505092915050565b61183481611a15565b82525050565b61184381611a15565b82525050565b600060608201905061185e6000830186611691565b61186b6020830185611691565b611878604083018461183a565b949350505050565b6000602082019050818103600083015261189a818461173c565b905092915050565b60006020820190506118b7600083018461183a565b92915050565b6000819050602082019050919050565b600081519050919050565b6000602082019050919050565b600082825260208201905092915050565b600061190182611a15565b915061190c83611a15565b9250827fffffffffffffffffffffffffffffffffffffffffffffffffffffffffffffffff0382111561194157611940611a1f565b5b828201905092915050565b600061195782611a15565b915061196283611a15565b92508261197257611971611a4e565b5b828204905092915050565b600061198882611a15565b915061199383611a15565b9250817fffffffffffffffffffffffffffffffffffffffffffffffffffffffffffffffff04831182151516156119cc576119cb611a1f565b5b828202905092915050565b60006119e2826119f5565b9050919050565b60008115159050919050565b600073ffffffffffffffffffffffffffffffffffffffff82169050919050565b6000819050919050565b7f4e487b7100000000000000000000000000000000000000000000000000000000600052601160045260246000fd5b7f4e487b7100000000000000000000000000000000000000000000000000000000600052601260045260246000fd5b611a86816119e9565b8114611a9157600080fd5b50565b611a9d81611a15565b8114611aa857600080fd5b5056fea2646970667358221220f2a2ee2a057dc2a3c90b077a7caf70e64fc09ddee6b6e3d636be7ce077ed1bb864736f6c63430008010033",
	"immutableReferences": {},
	"source": "// SPDX-License-Identifier: MIT\npragma solidity ^0.8.0;\n\nimport '@openzeppelin/contracts/token/ERC20/ERC20.sol';\nimport '@openzeppelin/contracts/access/Ownable.sol';\n\ncontract Staking {\n\tuint256 oneDay = 24 * 60 * 60;\n\n\tstruct Transaction {\n\t\tuint256 addedOn;\n\t\tuint256 amount;\n\t}\n\n\tstruct UserData {\n\t\tbool allowed;\n\t\tbool created;\n\t\tuint256 level1Tokens;\n\t\tuint256 level2Tokens;\n\t\tuint256 level3Tokens;\n\t\tuint256 level1Reward;\n\t\tuint256 level2Reward;\n\t\tuint256 level3Reward;\n\t\t//\n\t\t//\n\t\tuint256 tokens;\n\t\tuint256 lastUpdateDate;\n\t\tTransaction[] transactions;\n\t}\n\n\tmapping(address => UserData) users;\n\n\tStakingFactory factory;\n\tIERC20 rewardsToken;\n\tIERC20 stakingToken;\n\n\tfunction deposit(uint256 amount) public {\n\t\t// \t\trequire(users[msg.sender].allowed);\n\t\t// TODO:add fix for update only if success and succeds.\n\t\tfactory.updateLevel(amount);\n\t\tuint256 level = factory.level();\n\t\tif (level == 1) {\n\t\t\tusers[msg.sender].level1Tokens += amount;\n\t\t\tstakingToken.transferFrom(msg.sender, address(this), amount);\n\t\t} else if (level == 2) {\n\t\t\tusers[msg.sender].level2Tokens += amount;\n\t\t\tstakingToken.transferFrom(msg.sender, address(this), amount);\n\t\t} else if (level == 3) {\n\t\t\tusers[msg.sender].level3Tokens += amount;\n\t\t\tstakingToken.transferFrom(msg.sender, address(this), amount);\n\t\t} else {\n\t\t\tusers[msg.sender].tokens += amount;\n\t\t\tusers[msg.sender].transactions.push(Transaction(block.timestamp, amount));\n\t\t}\n\t\tusers[msg.sender].lastUpdateDate = block.timestamp;\n\t\tfactory.updateTokens(amount);\n\t}\n\n\tfunction calculateReward() public returns (UserData memory user) {\n\t\tif (users[msg.sender].level1Tokens != 0) {\n\t\t\tif (block.timestamp > factory.startTime() + 30 * oneDay) {\n\t\t\t\tusers[msg.sender].level1Reward = ((8219 * users[msg.sender].level1Tokens)) / 10000;\n\t\t\t}\n\t\t}\n\t\tif (users[msg.sender].level2Tokens != 0) {\n\t\t\tif (block.timestamp > factory.startTime() + 30 * oneDay) {\n\t\t\t\tusers[msg.sender].level2Reward = ((3082 * users[msg.sender].level2Tokens)) / 10000;\n\t\t\t}\n\t\t}\n\t\tif (users[msg.sender].level3Tokens != 0) {\n\t\t\tif (block.timestamp > factory.startTime() + 45 * oneDay) {\n\t\t\t\tusers[msg.sender].level3Reward = ((2613 * users[msg.sender].level3Tokens)) / 10000;\n\t\t\t}\n\t\t} else {\n\t\t\tif (block.timestamp > factory.startTime() + 60 * oneDay) {\n\t\t\t\t// for (uint256 index = 0; index < users[msg.sender].transactions.length; index++) {\n\t\t\t\t// \tusers[]\n\t\t\t\t// }\n\t\t\t\t// users[msg.sender].level3Reward = ((2613 * users[msg.sender].level3Tokens)) / 10000;\n\t\t\t}\n\t\t}\n\t\treturn users[msg.sender];\n\t}\n\n\tfunction withdraw(uint256 level) public {\n\t\tif (level == 1 && users[msg.sender].level1Tokens != 0) {\n\t\t\tif (block.timestamp > factory.startTime() + 30 * oneDay) {\n\t\t\t\trewardsToken.transferFrom(\n\t\t\t\t\taddress(this),\n\t\t\t\t\tmsg.sender,\n\t\t\t\t\tusers[msg.sender].level1Tokens + ((8219 * users[msg.sender].level1Tokens)) / 10000\n\t\t\t\t);\n\t\t\t}\n\t\t}\n\t\tif (level == 2 && users[msg.sender].level2Tokens != 0) {\n\t\t\tif (block.timestamp > factory.startTime() + 30 * oneDay) {\n\t\t\t\trewardsToken.transferFrom(\n\t\t\t\t\taddress(this),\n\t\t\t\t\tmsg.sender,\n\t\t\t\t\tusers[msg.sender].level2Tokens + ((3082 * users[msg.sender].level2Tokens)) / 10000\n\t\t\t\t);\n\t\t\t}\n\t\t}\n\t\tif (level == 3 && users[msg.sender].level3Tokens != 0) {\n\t\t\tif (block.timestamp > factory.startTime() + 30 * oneDay) {\n\t\t\t\trewardsToken.transferFrom(\n\t\t\t\t\taddress(this),\n\t\t\t\t\tmsg.sender,\n\t\t\t\t\tusers[msg.sender].level3Tokens + ((2613 * users[msg.sender].level3Tokens)) / 10000\n\t\t\t\t);\n\t\t\t}\n\t\t}\n\t}\n\n\tconstructor(\n\t\taddress _factory,\n\t\taddress _rewardsToken,\n\t\taddress _stakingToken\n\t) {\n\t\tfactory = StakingFactory(_factory);\n\t\trewardsToken = IERC20(_rewardsToken);\n\t\tstakingToken = IERC20(_stakingToken);\n\t}\n}\n\ncontract StakingFactory is Ownable {\n\tIERC20 rewardsToken;\n\tuint256 public startTime;\n\tuint256 public level;\n\taddress[] public stakingTokens;\n\n\tstruct StakingRewardsInfo {\n\t\taddress stakingRewards;\n\t\tuint256 rewardAmount;\n\t}\n\n\t// rewards info by staking token\n\tmapping(address => StakingRewardsInfo) public stakingRewardsInfoByStakingToken;\n\n\tstruct LevelData {\n\t\tuint256 allowedForXCoins;\n\t\tuint256 rewardPercentTimes100;\n\t\tuint256 lockedDuration;\n\t\tuint256 allowedReward;\n\t\tuint256 alloted;\n\t}\n\n\tmapping(uint256 => LevelData) public levels;\n\n\tfunction createLevels() internal onlyOwner {\n\t\tlevels[1] = LevelData(300000, 8219, 30, 246575, 0);\n\t\tlevels[2] = LevelData(900000, 3082, 45, 184932, 0);\n\t\tlevels[3] = LevelData(1900000, 2630, 60, 263014, 0);\n\t\tlevels[4] = LevelData(2900000, 416, 60, 41000, 0);\n\n\t\tlevel = 1;\n\t}\n\n\tfunction updateLevel(uint256 tokenValue) public {\n\t\tif (levels[level].alloted + tokenValue >= levels[level].allowedForXCoins) {\n\t\t\tlevel += 1;\n\t\t}\n\t}\n\n\tfunction updateTokens(uint256 tokenValue) public {\n\t\tlevels[level].alloted += tokenValue;\n\t}\n\n\tconstructor(address _rewardsToken, uint256 _startTime) {\n\t\trewardsToken = IERC20(_rewardsToken);\n\t\tstartTime = _startTime;\n\t\tlevel = 1;\n\t\tcreateLevels();\n\t}\n\n\tfunction deploy(address stakingToken, uint256 rewardAmount) public onlyOwner {\n\t\tStakingRewardsInfo storage info = stakingRewardsInfoByStakingToken[stakingToken];\n\t\trequire(info.stakingRewards == address(0), 'StakingRewardsFactory::deploy: already deployed');\n\n\t\tinfo.stakingRewards = address(new Staking(address(this), address(rewardsToken), stakingToken));\n\t\tinfo.rewardAmount = rewardAmount;\n\t\tstakingTokens.push(stakingToken);\n\t}\n}\n",
	"sourcePath": "/media/aniket/home/aniket/Work/nonceblox-work/BF_Staking/contracts/BYN.sol",
	"compiler": {
		"name": "solc",
		"version": "0.8.1+commit.df193b15.Emscripten.clang"
	},
	"schemaVersion": "3.3.4",
	"updatedAt": "2021-03-31T10:07:00.781Z",
	"devdoc": {
		"kind": "dev",
		"methods": {},
		"version": 1
	},
	"userdoc": {
		"kind": "user",
		"methods": {},
		"version": 1
	}
}