{
	"contractName": "Staking",
	"abi": [
		{
			"inputs": [
				{
					"internalType": "address",
					"name": "_factory",
					"type": "address"
				},
				{
					"internalType": "address",
					"name": "_rewardsToken",
					"type": "address"
				},
				{
					"internalType": "address",
					"name": "_stakingToken",
					"type": "address"
				}
			],
			"stateMutability": "nonpayable",
			"type": "constructor"
		},
		{
			"anonymous": false,
			"inputs": [
				{
					"indexed": true,
					"internalType": "address",
					"name": "previousOwner",
					"type": "address"
				},
				{
					"indexed": true,
					"internalType": "address",
					"name": "newOwner",
					"type": "address"
				}
			],
			"name": "OwnershipTransferred",
			"type": "event"
		},
		{
			"inputs": [],
			"name": "owner",
			"outputs": [
				{
					"internalType": "address",
					"name": "",
					"type": "address"
				}
			],
			"stateMutability": "view",
			"type": "function"
		},
		{
			"inputs": [],
			"name": "renounceOwnership",
			"outputs": [],
			"stateMutability": "nonpayable",
			"type": "function"
		},
		{
			"inputs": [
				{
					"internalType": "address",
					"name": "newOwner",
					"type": "address"
				}
			],
			"name": "transferOwnership",
			"outputs": [],
			"stateMutability": "nonpayable",
			"type": "function"
		},
		{
			"inputs": [],
			"name": "getUser",
			"outputs": [
				{
					"components": [
						{
							"internalType": "bool",
							"name": "allowed",
							"type": "bool"
						},
						{
							"internalType": "bool",
							"name": "created",
							"type": "bool"
						},
						{
							"internalType": "uint256",
							"name": "level1Tokens",
							"type": "uint256"
						},
						{
							"internalType": "uint256",
							"name": "level2Tokens",
							"type": "uint256"
						},
						{
							"internalType": "uint256",
							"name": "level3Tokens",
							"type": "uint256"
						},
						{
							"internalType": "uint256",
							"name": "level4Tokens",
							"type": "uint256"
						},
						{
							"internalType": "uint256",
							"name": "level1Reward",
							"type": "uint256"
						},
						{
							"internalType": "uint256",
							"name": "level2Reward",
							"type": "uint256"
						},
						{
							"internalType": "uint256",
							"name": "level3Reward",
							"type": "uint256"
						},
						{
							"internalType": "uint256",
							"name": "level4Reward",
							"type": "uint256"
						},
						{
							"internalType": "uint256",
							"name": "withdrawable",
							"type": "uint256"
						},
						{
							"internalType": "uint256",
							"name": "tokens",
							"type": "uint256"
						},
						{
							"internalType": "uint256",
							"name": "rewards",
							"type": "uint256"
						},
						{
							"internalType": "uint256",
							"name": "lastUpdateDate",
							"type": "uint256"
						}
					],
					"internalType": "struct Staking.UserData",
					"name": "user",
					"type": "tuple"
				}
			],
			"stateMutability": "view",
			"type": "function"
		},
		{
			"inputs": [
				{
					"internalType": "address",
					"name": "addr",
					"type": "address"
				}
			],
			"name": "getUserData",
			"outputs": [
				{
					"components": [
						{
							"internalType": "bool",
							"name": "allowed",
							"type": "bool"
						},
						{
							"internalType": "bool",
							"name": "created",
							"type": "bool"
						},
						{
							"internalType": "uint256",
							"name": "level1Tokens",
							"type": "uint256"
						},
						{
							"internalType": "uint256",
							"name": "level2Tokens",
							"type": "uint256"
						},
						{
							"internalType": "uint256",
							"name": "level3Tokens",
							"type": "uint256"
						},
						{
							"internalType": "uint256",
							"name": "level4Tokens",
							"type": "uint256"
						},
						{
							"internalType": "uint256",
							"name": "level1Reward",
							"type": "uint256"
						},
						{
							"internalType": "uint256",
							"name": "level2Reward",
							"type": "uint256"
						},
						{
							"internalType": "uint256",
							"name": "level3Reward",
							"type": "uint256"
						},
						{
							"internalType": "uint256",
							"name": "level4Reward",
							"type": "uint256"
						},
						{
							"internalType": "uint256",
							"name": "withdrawable",
							"type": "uint256"
						},
						{
							"internalType": "uint256",
							"name": "tokens",
							"type": "uint256"
						},
						{
							"internalType": "uint256",
							"name": "rewards",
							"type": "uint256"
						},
						{
							"internalType": "uint256",
							"name": "lastUpdateDate",
							"type": "uint256"
						}
					],
					"internalType": "struct Staking.UserData",
					"name": "user",
					"type": "tuple"
				}
			],
			"stateMutability": "view",
			"type": "function"
		},
		{
			"inputs": [
				{
					"internalType": "uint256",
					"name": "amount",
					"type": "uint256"
				}
			],
			"name": "deposit",
			"outputs": [],
			"stateMutability": "nonpayable",
			"type": "function"
		},
		{
			"inputs": [],
			"name": "calculateReward",
			"outputs": [
				{
					"components": [
						{
							"internalType": "bool",
							"name": "allowed",
							"type": "bool"
						},
						{
							"internalType": "bool",
							"name": "created",
							"type": "bool"
						},
						{
							"internalType": "uint256",
							"name": "level1Tokens",
							"type": "uint256"
						},
						{
							"internalType": "uint256",
							"name": "level2Tokens",
							"type": "uint256"
						},
						{
							"internalType": "uint256",
							"name": "level3Tokens",
							"type": "uint256"
						},
						{
							"internalType": "uint256",
							"name": "level4Tokens",
							"type": "uint256"
						},
						{
							"internalType": "uint256",
							"name": "level1Reward",
							"type": "uint256"
						},
						{
							"internalType": "uint256",
							"name": "level2Reward",
							"type": "uint256"
						},
						{
							"internalType": "uint256",
							"name": "level3Reward",
							"type": "uint256"
						},
						{
							"internalType": "uint256",
							"name": "level4Reward",
							"type": "uint256"
						},
						{
							"internalType": "uint256",
							"name": "withdrawable",
							"type": "uint256"
						},
						{
							"internalType": "uint256",
							"name": "tokens",
							"type": "uint256"
						},
						{
							"internalType": "uint256",
							"name": "rewards",
							"type": "uint256"
						},
						{
							"internalType": "uint256",
							"name": "lastUpdateDate",
							"type": "uint256"
						}
					],
					"internalType": "struct Staking.UserData",
					"name": "user",
					"type": "tuple"
				}
			],
			"stateMutability": "view",
			"type": "function"
		},
		{
			"inputs": [
				{
					"internalType": "uint256",
					"name": "level",
					"type": "uint256"
				}
			],
			"name": "withdraw",
			"outputs": [],
			"stateMutability": "nonpayable",
			"type": "function"
		},
		{
			"inputs": [
				{
					"internalType": "uint256",
					"name": "amount",
					"type": "uint256"
				}
			],
			"name": "withdrawByAmount",
			"outputs": [],
			"stateMutability": "nonpayable",
			"type": "function"
		}
	],
	"bytecode": "0x6080604052620151806001553480156200001857600080fd5b5060405162003fcb38038062003fcb83398181016040528101906200003e9190620001d9565b600062000050620001ba60201b60201c565b9050806000806101000a81548173ffffffffffffffffffffffffffffffffffffffff021916908373ffffffffffffffffffffffffffffffffffffffff1602179055508073ffffffffffffffffffffffffffffffffffffffff16600073ffffffffffffffffffffffffffffffffffffffff167f8be0079c531659141344cd1fd0a4f28419497f9722a3daafe3b4186f6b6457e060405160405180910390a35082600260006101000a81548173ffffffffffffffffffffffffffffffffffffffff021916908373ffffffffffffffffffffffffffffffffffffffff16021790555081600360006101000a81548173ffffffffffffffffffffffffffffffffffffffff021916908373ffffffffffffffffffffffffffffffffffffffff16021790555080600460006101000a81548173ffffffffffffffffffffffffffffffffffffffff021916908373ffffffffffffffffffffffffffffffffffffffff1602179055505050506200027d565b600033905090565b600081519050620001d38162000263565b92915050565b600080600060608486031215620001ef57600080fd5b6000620001ff86828701620001c2565b93505060206200021286828701620001c2565b92505060406200022586828701620001c2565b9150509250925092565b60006200023c8262000243565b9050919050565b600073ffffffffffffffffffffffffffffffffffffffff82169050919050565b6200026e816200022f565b81146200027a57600080fd5b50565b613d3e806200028d6000396000f3fe608060405234801561001057600080fd5b50600436106100935760003560e01c8063832880e711610066578063832880e7146100f85780638da5cb5b14610116578063b6b55f2514610134578063f2fde38b14610150578063ffc9896b1461016c57610093565b80632e1a7d4d146100985780635521e9bf146100b4578063715018a6146100d0578063725cedd3146100da575b600080fd5b6100b260048036038101906100ad9190613504565b61019c565b005b6100ce60048036038101906100c99190613504565b610d04565b005b6100d861190a565b005b6100e2611a44565b6040516100ef9190613971565b60405180910390f35b610100612073565b60405161010d9190613971565b60405180910390f35b61011e612179565b60405161012b9190613805565b60405180910390f35b61014e60048036038101906101499190613504565b6121a2565b005b61016a600480360381019061016591906134b2565b612fa8565b005b610186600480360381019061018191906134b2565b613151565b6040516101939190613971565b60405180910390f35b6001811480156101ef57506000600560003373ffffffffffffffffffffffffffffffffffffffff1673ffffffffffffffffffffffffffffffffffffffff1681526020019081526020016000206001015414155b15610572576000806000806000600260009054906101000a900473ffffffffffffffffffffffffffffffffffffffff1673ffffffffffffffffffffffffffffffffffffffff1663b2596a6760016040518263ffffffff1660e01b81526004016102589190613880565b60a06040518083038186803b15801561027057600080fd5b505afa158015610284573d6000803e3d6000fd5b505050506040513d601f19601f820116820180604052508101906102a89190613556565b94509450945094509450600154836102c09190613a40565b600260009054906101000a900473ffffffffffffffffffffffffffffffffffffffff1673ffffffffffffffffffffffffffffffffffffffff166378e979256040518163ffffffff1660e01b815260040160206040518083038186803b15801561032857600080fd5b505afa15801561033c573d6000803e3d6000fd5b505050506040513d601f19601f82011682018060405250810190610360919061352d565b61036a91906139b9565b421115610568576000612710600560003373ffffffffffffffffffffffffffffffffffffffff1673ffffffffffffffffffffffffffffffffffffffff16815260200190815260200160002060010154866103c49190613a40565b6103ce9190613a0f565b600560003373ffffffffffffffffffffffffffffffffffffffff1673ffffffffffffffffffffffffffffffffffffffff1681526020019081526020016000206001015461041b91906139b9565b9050600360009054906101000a900473ffffffffffffffffffffffffffffffffffffffff1673ffffffffffffffffffffffffffffffffffffffff1663a9059cbb33836040518363ffffffff1660e01b815260040161047a929190613857565b602060405180830381600087803b15801561049457600080fd5b505af11580156104a8573d6000803e3d6000fd5b505050506040513d601f19601f820116820180604052508101906104cc91906134db565b506000600560003373ffffffffffffffffffffffffffffffffffffffff1673ffffffffffffffffffffffffffffffffffffffff168152602001908152602001600020600101819055506000600560003373ffffffffffffffffffffffffffffffffffffffff1673ffffffffffffffffffffffffffffffffffffffff16815260200190815260200160002060050181905550505050505050610d01565b5050505050610cbf565b6002811480156105c557506000600560003373ffffffffffffffffffffffffffffffffffffffff1673ffffffffffffffffffffffffffffffffffffffff1681526020019081526020016000206002015414155b15610948576000806000806000600260009054906101000a900473ffffffffffffffffffffffffffffffffffffffff1673ffffffffffffffffffffffffffffffffffffffff1663b2596a6760026040518263ffffffff1660e01b815260040161062e919061389b565b60a06040518083038186803b15801561064657600080fd5b505afa15801561065a573d6000803e3d6000fd5b505050506040513d601f19601f8201168201806040525081019061067e9190613556565b94509450945094509450600154836106969190613a40565b600260009054906101000a900473ffffffffffffffffffffffffffffffffffffffff1673ffffffffffffffffffffffffffffffffffffffff166378e979256040518163ffffffff1660e01b815260040160206040518083038186803b1580156106fe57600080fd5b505afa158015610712573d6000803e3d6000fd5b505050506040513d601f19601f82011682018060405250810190610736919061352d565b61074091906139b9565b42111561093e576000612710600560003373ffffffffffffffffffffffffffffffffffffffff1673ffffffffffffffffffffffffffffffffffffffff168152602001908152602001600020600201548661079a9190613a40565b6107a49190613a0f565b600560003373ffffffffffffffffffffffffffffffffffffffff1673ffffffffffffffffffffffffffffffffffffffff168152602001908152602001600020600201546107f191906139b9565b9050600360009054906101000a900473ffffffffffffffffffffffffffffffffffffffff1673ffffffffffffffffffffffffffffffffffffffff1663a9059cbb33836040518363ffffffff1660e01b8152600401610850929190613857565b602060405180830381600087803b15801561086a57600080fd5b505af115801561087e573d6000803e3d6000fd5b505050506040513d601f19601f820116820180604052508101906108a291906134db565b506000600560003373ffffffffffffffffffffffffffffffffffffffff1673ffffffffffffffffffffffffffffffffffffffff168152602001908152602001600020600201819055506000600560003373ffffffffffffffffffffffffffffffffffffffff1673ffffffffffffffffffffffffffffffffffffffff16815260200190815260200160002060060181905550505050505050610d01565b5050505050610cbe565b60038114801561099b57506000600560003373ffffffffffffffffffffffffffffffffffffffff1673ffffffffffffffffffffffffffffffffffffffff1681526020019081526020016000206003015414155b15610cbd576000806000806000600260009054906101000a900473ffffffffffffffffffffffffffffffffffffffff1673ffffffffffffffffffffffffffffffffffffffff1663b2596a6760036040518263ffffffff1660e01b8152600401610a0491906138b6565b60a06040518083038186803b158015610a1c57600080fd5b505afa158015610a30573d6000803e3d6000fd5b505050506040513d601f19601f82011682018060405250810190610a549190613556565b9450945094509450945060015483610a6c9190613a40565b600560003373ffffffffffffffffffffffffffffffffffffffff1673ffffffffffffffffffffffffffffffffffffffff168152602001908152602001600020600c0154610ab991906139b9565b421115610cb7576000612710600560003373ffffffffffffffffffffffffffffffffffffffff1673ffffffffffffffffffffffffffffffffffffffff1681526020019081526020016000206003015486610b139190613a40565b610b1d9190613a0f565b600560003373ffffffffffffffffffffffffffffffffffffffff1673ffffffffffffffffffffffffffffffffffffffff16815260200190815260200160002060030154610b6a91906139b9565b9050600360009054906101000a900473ffffffffffffffffffffffffffffffffffffffff1673ffffffffffffffffffffffffffffffffffffffff1663a9059cbb33836040518363ffffffff1660e01b8152600401610bc9929190613857565b602060405180830381600087803b158015610be357600080fd5b505af1158015610bf7573d6000803e3d6000fd5b505050506040513d601f19601f82011682018060405250810190610c1b91906134db565b506000600560003373ffffffffffffffffffffffffffffffffffffffff1673ffffffffffffffffffffffffffffffffffffffff168152602001908152602001600020600301819055506000600560003373ffffffffffffffffffffffffffffffffffffffff1673ffffffffffffffffffffffffffffffffffffffff16815260200190815260200160002060070181905550505050505050610d01565b50505050505b5b5b6000610d00576040517f08c379a0000000000000000000000000000000000000000000000000000000008152600401610cf7906138d1565b60405180910390fd5b5b50565b6000811415610d1257600080fd5b6000600560003373ffffffffffffffffffffffffffffffffffffffff1673ffffffffffffffffffffffffffffffffffffffff1681526020019081526020016000206001015414611076576000806000806000600260009054906101000a900473ffffffffffffffffffffffffffffffffffffffff1673ffffffffffffffffffffffffffffffffffffffff1663b2596a6760016040518263ffffffff1660e01b8152600401610dc09190613880565b60a06040518083038186803b158015610dd857600080fd5b505afa158015610dec573d6000803e3d6000fd5b505050506040513d601f19601f82011682018060405250810190610e109190613556565b9450945094509450945060015483610e289190613a40565b600260009054906101000a900473ffffffffffffffffffffffffffffffffffffffff1673ffffffffffffffffffffffffffffffffffffffff166378e979256040518163ffffffff1660e01b815260040160206040518083038186803b158015610e9057600080fd5b505afa158015610ea4573d6000803e3d6000fd5b505050506040513d601f19601f82011682018060405250810190610ec8919061352d565b610ed291906139b9565b421115611070576000612710600560003373ffffffffffffffffffffffffffffffffffffffff1673ffffffffffffffffffffffffffffffffffffffff1681526020019081526020016000206001015486610f2c9190613a40565b610f369190613a0f565b600560003373ffffffffffffffffffffffffffffffffffffffff1673ffffffffffffffffffffffffffffffffffffffff16815260200190815260200160002060010154610f8391906139b9565b905080600560003373ffffffffffffffffffffffffffffffffffffffff1673ffffffffffffffffffffffffffffffffffffffff1681526020019081526020016000206009016000828254610fd791906139b9565b925050819055506000600560003373ffffffffffffffffffffffffffffffffffffffff1673ffffffffffffffffffffffffffffffffffffffff168152602001908152602001600020600101819055506000600560003373ffffffffffffffffffffffffffffffffffffffff1673ffffffffffffffffffffffffffffffffffffffff16815260200190815260200160002060050181905550505b50505050505b6000600560003373ffffffffffffffffffffffffffffffffffffffff1673ffffffffffffffffffffffffffffffffffffffff16815260200190815260200160002060020154146113da576000806000806000600260009054906101000a900473ffffffffffffffffffffffffffffffffffffffff1673ffffffffffffffffffffffffffffffffffffffff1663b2596a6760026040518263ffffffff1660e01b8152600401611124919061389b565b60a06040518083038186803b15801561113c57600080fd5b505afa158015611150573d6000803e3d6000fd5b505050506040513d601f19601f820116820180604052508101906111749190613556565b945094509450945094506001548361118c9190613a40565b600260009054906101000a900473ffffffffffffffffffffffffffffffffffffffff1673ffffffffffffffffffffffffffffffffffffffff166378e979256040518163ffffffff1660e01b815260040160206040518083038186803b1580156111f457600080fd5b505afa158015611208573d6000803e3d6000fd5b505050506040513d601f19601f8201168201806040525081019061122c919061352d565b61123691906139b9565b4211156113d4576000612710600560003373ffffffffffffffffffffffffffffffffffffffff1673ffffffffffffffffffffffffffffffffffffffff16815260200190815260200160002060020154866112909190613a40565b61129a9190613a0f565b600560003373ffffffffffffffffffffffffffffffffffffffff1673ffffffffffffffffffffffffffffffffffffffff168152602001908152602001600020600201546112e791906139b9565b905080600560003373ffffffffffffffffffffffffffffffffffffffff1673ffffffffffffffffffffffffffffffffffffffff168152602001908152602001600020600901600082825461133b91906139b9565b925050819055506000600560003373ffffffffffffffffffffffffffffffffffffffff1673ffffffffffffffffffffffffffffffffffffffff168152602001908152602001600020600201819055506000600560003373ffffffffffffffffffffffffffffffffffffffff1673ffffffffffffffffffffffffffffffffffffffff16815260200190815260200160002060060181905550505b50505050505b6000600560003373ffffffffffffffffffffffffffffffffffffffff1673ffffffffffffffffffffffffffffffffffffffff168152602001908152602001600020600301541461173e576000806000806000600260009054906101000a900473ffffffffffffffffffffffffffffffffffffffff1673ffffffffffffffffffffffffffffffffffffffff1663b2596a6760036040518263ffffffff1660e01b815260040161148891906138b6565b60a06040518083038186803b1580156114a057600080fd5b505afa1580156114b4573d6000803e3d6000fd5b505050506040513d601f19601f820116820180604052508101906114d89190613556565b94509450945094509450600154836114f09190613a40565b600260009054906101000a900473ffffffffffffffffffffffffffffffffffffffff1673ffffffffffffffffffffffffffffffffffffffff166378e979256040518163ffffffff1660e01b815260040160206040518083038186803b15801561155857600080fd5b505afa15801561156c573d6000803e3d6000fd5b505050506040513d601f19601f82011682018060405250810190611590919061352d565b61159a91906139b9565b421115611738576000612710600560003373ffffffffffffffffffffffffffffffffffffffff1673ffffffffffffffffffffffffffffffffffffffff16815260200190815260200160002060030154866115f49190613a40565b6115fe9190613a0f565b600560003373ffffffffffffffffffffffffffffffffffffffff1673ffffffffffffffffffffffffffffffffffffffff1681526020019081526020016000206003015461164b91906139b9565b905080600560003373ffffffffffffffffffffffffffffffffffffffff1673ffffffffffffffffffffffffffffffffffffffff168152602001908152602001600020600901600082825461169f91906139b9565b925050819055506000600560003373ffffffffffffffffffffffffffffffffffffffff1673ffffffffffffffffffffffffffffffffffffffff168152602001908152602001600020600301819055506000600560003373ffffffffffffffffffffffffffffffffffffffff1673ffffffffffffffffffffffffffffffffffffffff16815260200190815260200160002060070181905550505b50505050505b600560003373ffffffffffffffffffffffffffffffffffffffff1673ffffffffffffffffffffffffffffffffffffffff168152602001908152602001600020600901548111156117c3576040517f08c379a00000000000000000000000000000000000000000000000000000000081526004016117ba90613911565b60405180910390fd5b600360009054906101000a900473ffffffffffffffffffffffffffffffffffffffff1673ffffffffffffffffffffffffffffffffffffffff1663a9059cbb33836040518363ffffffff1660e01b8152600401611820929190613857565b602060405180830381600087803b15801561183a57600080fd5b505af115801561184e573d6000803e3d6000fd5b505050506040513d601f19601f8201168201806040525081019061187291906134db565b5080600560003373ffffffffffffffffffffffffffffffffffffffff1673ffffffffffffffffffffffffffffffffffffffff168152602001908152602001600020600901546118c19190613a9a565b600560003373ffffffffffffffffffffffffffffffffffffffff1673ffffffffffffffffffffffffffffffffffffffff1681526020019081526020016000206009018190555050565b6119126132d5565b73ffffffffffffffffffffffffffffffffffffffff16611930612179565b73ffffffffffffffffffffffffffffffffffffffff1614611986576040517f08c379a000000000000000000000000000000000000000000000000000000000815260040161197d90613931565b60405180910390fd5b600073ffffffffffffffffffffffffffffffffffffffff1660008054906101000a900473ffffffffffffffffffffffffffffffffffffffff1673ffffffffffffffffffffffffffffffffffffffff167f8be0079c531659141344cd1fd0a4f28419497f9722a3daafe3b4186f6b6457e060405160405180910390a360008060006101000a81548173ffffffffffffffffffffffffffffffffffffffff021916908373ffffffffffffffffffffffffffffffffffffffff160217905550565b611a4c6133eb565b6000600560003373ffffffffffffffffffffffffffffffffffffffff1673ffffffffffffffffffffffffffffffffffffffff168152602001908152602001600020604051806101c00160405290816000820160009054906101000a900460ff161515151581526020016000820160019054906101000a900460ff16151515158152602001600182015481526020016002820154815260200160038201548152602001600482015481526020016005820154815260200160068201548152602001600782015481526020016008820154815260200160098201548152602001600a8201548152602001600b8201548152602001600c8201548152505090506000816040015114611cff576000806000806000600260009054906101000a900473ffffffffffffffffffffffffffffffffffffffff1673ffffffffffffffffffffffffffffffffffffffff1663b2596a6760016040518263ffffffff1660e01b8152600401611bb99190613880565b60a06040518083038186803b158015611bd157600080fd5b505afa158015611be5573d6000803e3d6000fd5b505050506040513d601f19601f82011682018060405250810190611c099190613556565b9450945094509450945060015483611c219190613a40565b600260009054906101000a900473ffffffffffffffffffffffffffffffffffffffff1673ffffffffffffffffffffffffffffffffffffffff166378e979256040518163ffffffff1660e01b815260040160206040518083038186803b158015611c8957600080fd5b505afa158015611c9d573d6000803e3d6000fd5b505050506040513d601f19601f82011682018060405250810190611cc1919061352d565b611ccb91906139b9565b421115611cf957612710866040015185611ce59190613a40565b611cef9190613a0f565b8660c00181815250505b50505050505b6000816060015114611eb5576000806000806000600260009054906101000a900473ffffffffffffffffffffffffffffffffffffffff1673ffffffffffffffffffffffffffffffffffffffff1663b2596a6760026040518263ffffffff1660e01b8152600401611d6f919061389b565b60a06040518083038186803b158015611d8757600080fd5b505afa158015611d9b573d6000803e3d6000fd5b505050506040513d601f19601f82011682018060405250810190611dbf9190613556565b9450945094509450945060015483611dd79190613a40565b600260009054906101000a900473ffffffffffffffffffffffffffffffffffffffff1673ffffffffffffffffffffffffffffffffffffffff166378e979256040518163ffffffff1660e01b815260040160206040518083038186803b158015611e3f57600080fd5b505afa158015611e53573d6000803e3d6000fd5b505050506040513d601f19601f82011682018060405250810190611e77919061352d565b611e8191906139b9565b421115611eaf57612710866060015185611e9b9190613a40565b611ea59190613a0f565b8660e00181815250505b50505050505b600081608001511461206c576000806000806000600260009054906101000a900473ffffffffffffffffffffffffffffffffffffffff1673ffffffffffffffffffffffffffffffffffffffff1663b2596a6760036040518263ffffffff1660e01b8152600401611f2591906138b6565b60a06040518083038186803b158015611f3d57600080fd5b505afa158015611f51573d6000803e3d6000fd5b505050506040513d601f19601f82011682018060405250810190611f759190613556565b9450945094509450945060015483611f8d9190613a40565b600260009054906101000a900473ffffffffffffffffffffffffffffffffffffffff1673ffffffffffffffffffffffffffffffffffffffff166378e979256040518163ffffffff1660e01b815260040160206040518083038186803b158015611ff557600080fd5b505afa158015612009573d6000803e3d6000fd5b505050506040513d601f19601f8201168201806040525081019061202d919061352d565b61203791906139b9565b421115612066576127108660800151856120519190613a40565b61205b9190613a0f565b866101000181815250505b50505050505b8091505090565b61207b6133eb565b600560003373ffffffffffffffffffffffffffffffffffffffff1673ffffffffffffffffffffffffffffffffffffffff168152602001908152602001600020604051806101c00160405290816000820160009054906101000a900460ff161515151581526020016000820160019054906101000a900460ff16151515158152602001600182015481526020016002820154815260200160038201548152602001600482015481526020016005820154815260200160068201548152602001600782015481526020016008820154815260200160098201548152602001600a8201548152602001600b8201548152602001600c82015481525050905090565b60008060009054906101000a900473ffffffffffffffffffffffffffffffffffffffff16905090565b600260009054906101000a900473ffffffffffffffffffffffffffffffffffffffff1673ffffffffffffffffffffffffffffffffffffffff166378e979256040518163ffffffff1660e01b815260040160206040518083038186803b15801561220a57600080fd5b505afa15801561221e573d6000803e3d6000fd5b505050506040513d601f19601f82011682018060405250810190612242919061352d565b4211612283576040517f08c379a000000000000000000000000000000000000000000000000000000000815260040161227a90613951565b60405180910390fd5b600260009054906101000a900473ffffffffffffffffffffffffffffffffffffffff1673ffffffffffffffffffffffffffffffffffffffff1663f12ca6986040518163ffffffff1660e01b8152600401600060405180830381600087803b1580156122ed57600080fd5b505af1158015612301573d6000803e3d6000fd5b50505050600080600260009054906101000a900473ffffffffffffffffffffffffffffffffffffffff1673ffffffffffffffffffffffffffffffffffffffff16636fd5ae156040518163ffffffff1660e01b815260040160206040518083038186803b15801561237057600080fd5b505afa158015612384573d6000803e3d6000fd5b505050506040513d601f19601f820116820180604052508101906123a8919061352d565b90506001811415612790576123bd83826132dd565b8093508194505050600460009054906101000a900473ffffffffffffffffffffffffffffffffffffffff1673ffffffffffffffffffffffffffffffffffffffff166323b872dd3330866040518463ffffffff1660e01b815260040161242493929190613820565b602060405180830381600087803b15801561243e57600080fd5b505af1158015612452573d6000803e3d6000fd5b505050506040513d601f19601f8201168201806040525081019061247691906134db565b5082600560003373ffffffffffffffffffffffffffffffffffffffff1673ffffffffffffffffffffffffffffffffffffffff16815260200190815260200160002060010160008282546124c991906139b9565b9250508190555082600560003373ffffffffffffffffffffffffffffffffffffffff1673ffffffffffffffffffffffffffffffffffffffff168152602001908152602001600020600a01600082825461252291906139b9565b925050819055506000806000806000600260009054906101000a900473ffffffffffffffffffffffffffffffffffffffff1673ffffffffffffffffffffffffffffffffffffffff1663b2596a6760016040518263ffffffff1660e01b815260040161258d9190613880565b60a06040518083038186803b1580156125a557600080fd5b505afa1580156125b9573d6000803e3d6000fd5b505050506040513d601f19601f820116820180604052508101906125dd9190613556565b9450945094509450945061271084896125f69190613a40565b6126009190613a0f565b600560003373ffffffffffffffffffffffffffffffffffffffff1673ffffffffffffffffffffffffffffffffffffffff168152602001908152602001600020600b01600082825461265191906139b9565b92505081905550600260009054906101000a900473ffffffffffffffffffffffffffffffffffffffff1673ffffffffffffffffffffffffffffffffffffffff16637bdecea1896040518263ffffffff1660e01b81526004016126b3919061398d565b600060405180830381600087803b1580156126cd57600080fd5b505af11580156126e1573d6000803e3d6000fd5b50505050600260009054906101000a900473ffffffffffffffffffffffffffffffffffffffff1673ffffffffffffffffffffffffffffffffffffffff16636fd5ae156040518163ffffffff1660e01b815260040160206040518083038186803b15801561274d57600080fd5b505afa158015612761573d6000803e3d6000fd5b505050506040513d601f19601f82011682018060405250810190612785919061352d565b955086975050505050505b6002811415612b76576127a383826132dd565b8093508194505050600460009054906101000a900473ffffffffffffffffffffffffffffffffffffffff1673ffffffffffffffffffffffffffffffffffffffff166323b872dd3330866040518463ffffffff1660e01b815260040161280a93929190613820565b602060405180830381600087803b15801561282457600080fd5b505af1158015612838573d6000803e3d6000fd5b505050506040513d601f19601f8201168201806040525081019061285c91906134db565b5082600560003373ffffffffffffffffffffffffffffffffffffffff1673ffffffffffffffffffffffffffffffffffffffff16815260200190815260200160002060020160008282546128af91906139b9565b9250508190555082600560003373ffffffffffffffffffffffffffffffffffffffff1673ffffffffffffffffffffffffffffffffffffffff168152602001908152602001600020600a01600082825461290891906139b9565b925050819055506000806000806000600260009054906101000a900473ffffffffffffffffffffffffffffffffffffffff1673ffffffffffffffffffffffffffffffffffffffff1663b2596a6760026040518263ffffffff1660e01b8152600401612973919061389b565b60a06040518083038186803b15801561298b57600080fd5b505afa15801561299f573d6000803e3d6000fd5b505050506040513d601f19601f820116820180604052508101906129c39190613556565b9450945094509450945061271084896129dc9190613a40565b6129e69190613a0f565b600560003373ffffffffffffffffffffffffffffffffffffffff1673ffffffffffffffffffffffffffffffffffffffff168152602001908152602001600020600b016000828254612a3791906139b9565b92505081905550600260009054906101000a900473ffffffffffffffffffffffffffffffffffffffff1673ffffffffffffffffffffffffffffffffffffffff16637bdecea1896040518263ffffffff1660e01b8152600401612a99919061398d565b600060405180830381600087803b158015612ab357600080fd5b505af1158015612ac7573d6000803e3d6000fd5b50505050600260009054906101000a900473ffffffffffffffffffffffffffffffffffffffff1673ffffffffffffffffffffffffffffffffffffffff16636fd5ae156040518163ffffffff1660e01b815260040160206040518083038186803b158015612b3357600080fd5b505afa158015612b47573d6000803e3d6000fd5b505050506040513d601f19601f82011682018060405250810190612b6b919061352d565b955086975050505050505b6003811415612f5c57612b8983826132dd565b8093508194505050600460009054906101000a900473ffffffffffffffffffffffffffffffffffffffff1673ffffffffffffffffffffffffffffffffffffffff166323b872dd3330866040518463ffffffff1660e01b8152600401612bf093929190613820565b602060405180830381600087803b158015612c0a57600080fd5b505af1158015612c1e573d6000803e3d6000fd5b505050506040513d601f19601f82011682018060405250810190612c4291906134db565b5082600560003373ffffffffffffffffffffffffffffffffffffffff1673ffffffffffffffffffffffffffffffffffffffff1681526020019081526020016000206003016000828254612c9591906139b9565b9250508190555082600560003373ffffffffffffffffffffffffffffffffffffffff1673ffffffffffffffffffffffffffffffffffffffff168152602001908152602001600020600a016000828254612cee91906139b9565b925050819055506000806000806000600260009054906101000a900473ffffffffffffffffffffffffffffffffffffffff1673ffffffffffffffffffffffffffffffffffffffff1663b2596a6760036040518263ffffffff1660e01b8152600401612d5991906138b6565b60a06040518083038186803b158015612d7157600080fd5b505afa158015612d85573d6000803e3d6000fd5b505050506040513d601f19601f82011682018060405250810190612da99190613556565b945094509450945094506127108489612dc29190613a40565b612dcc9190613a0f565b600560003373ffffffffffffffffffffffffffffffffffffffff1673ffffffffffffffffffffffffffffffffffffffff168152602001908152602001600020600b016000828254612e1d91906139b9565b92505081905550600260009054906101000a900473ffffffffffffffffffffffffffffffffffffffff1673ffffffffffffffffffffffffffffffffffffffff16637bdecea1896040518263ffffffff1660e01b8152600401612e7f919061398d565b600060405180830381600087803b158015612e9957600080fd5b505af1158015612ead573d6000803e3d6000fd5b50505050600260009054906101000a900473ffffffffffffffffffffffffffffffffffffffff1673ffffffffffffffffffffffffffffffffffffffff16636fd5ae156040518163ffffffff1660e01b815260040160206040518083038186803b158015612f1957600080fd5b505afa158015612f2d573d6000803e3d6000fd5b505050506040513d601f19601f82011682018060405250810190612f51919061352d565b955086975050505050505b42600560003373ffffffffffffffffffffffffffffffffffffffff1673ffffffffffffffffffffffffffffffffffffffff168152602001908152602001600020600c0181905550505050565b612fb06132d5565b73ffffffffffffffffffffffffffffffffffffffff16612fce612179565b73ffffffffffffffffffffffffffffffffffffffff1614613024576040517f08c379a000000000000000000000000000000000000000000000000000000000815260040161301b90613931565b60405180910390fd5b600073ffffffffffffffffffffffffffffffffffffffff168173ffffffffffffffffffffffffffffffffffffffff161415613094576040517f08c379a000000000000000000000000000000000000000000000000000000000815260040161308b906138f1565b60405180910390fd5b8073ffffffffffffffffffffffffffffffffffffffff1660008054906101000a900473ffffffffffffffffffffffffffffffffffffffff1673ffffffffffffffffffffffffffffffffffffffff167f8be0079c531659141344cd1fd0a4f28419497f9722a3daafe3b4186f6b6457e060405160405180910390a3806000806101000a81548173ffffffffffffffffffffffffffffffffffffffff021916908373ffffffffffffffffffffffffffffffffffffffff16021790555050565b6131596133eb565b6131616132d5565b73ffffffffffffffffffffffffffffffffffffffff1661317f612179565b73ffffffffffffffffffffffffffffffffffffffff16146131d5576040517f08c379a00000000000000000000000000000000000000000000000000000000081526004016131cc90613931565b60405180910390fd5b600560008373ffffffffffffffffffffffffffffffffffffffff1673ffffffffffffffffffffffffffffffffffffffff168152602001908152602001600020604051806101c00160405290816000820160009054906101000a900460ff161515151581526020016000820160019054906101000a900460ff16151515158152602001600182015481526020016002820154815260200160038201548152602001600482015481526020016005820154815260200160068201548152602001600782015481526020016008820154815260200160098201548152602001600a8201548152602001600b8201548152602001600c820154815250509050919050565b600033905090565b600080600080600080600080600260009054906101000a900473ffffffffffffffffffffffffffffffffffffffff1673ffffffffffffffffffffffffffffffffffffffff1663b2596a678a6040518263ffffffff1660e01b8152600401613344919061398d565b60a06040518083038186803b15801561335c57600080fd5b505afa158015613370573d6000803e3d6000fd5b505050506040513d601f19601f820116820180604052508101906133949190613556565b94509450945094509450848a826133ab91906139b9565b106133d85780856133bc9190613a9a565b8a6133c79190613a9a565b955080856133d59190613a9a565b99505b8986975097505050505050509250929050565b604051806101c001604052806000151581526020016000151581526020016000815260200160008152602001600081526020016000815260200160008152602001600081526020016000815260200160008152602001600081526020016000815260200160008152602001600081525090565b60008135905061346d81613cc3565b92915050565b60008151905061348281613cda565b92915050565b60008135905061349781613cf1565b92915050565b6000815190506134ac81613cf1565b92915050565b6000602082840312156134c457600080fd5b60006134d28482850161345e565b91505092915050565b6000602082840312156134ed57600080fd5b60006134fb84828501613473565b91505092915050565b60006020828403121561351657600080fd5b600061352484828501613488565b91505092915050565b60006020828403121561353f57600080fd5b600061354d8482850161349d565b91505092915050565b600080600080600060a0868803121561356e57600080fd5b600061357c8882890161349d565b955050602061358d8882890161349d565b945050604061359e8882890161349d565b93505060606135af8882890161349d565b92505060806135c08882890161349d565b9150509295509295909350565b6135d681613ace565b82525050565b6135e581613ae0565b82525050565b6135f481613b16565b82525050565b61360381613b28565b82525050565b61361281613b3a565b82525050565b6000613625600f836139a8565b915061363082613baa565b602082019050919050565b60006136486026836139a8565b915061365382613bd3565b604082019050919050565b600061366b6022836139a8565b915061367682613c22565b604082019050919050565b600061368e6020836139a8565b915061369982613c71565b602082019050919050565b60006136b1601e836139a8565b91506136bc82613c9a565b602082019050919050565b6101c0820160008201516136de60008501826135dc565b5060208201516136f160208501826135dc565b50604082015161370460408501826137e7565b50606082015161371760608501826137e7565b50608082015161372a60808501826137e7565b5060a082015161373d60a08501826137e7565b5060c082015161375060c08501826137e7565b5060e082015161376360e08501826137e7565b506101008201516137786101008501826137e7565b5061012082015161378d6101208501826137e7565b506101408201516137a26101408501826137e7565b506101608201516137b76101608501826137e7565b506101808201516137cc6101808501826137e7565b506101a08201516137e16101a08501826137e7565b50505050565b6137f081613b0c565b82525050565b6137ff81613b0c565b82525050565b600060208201905061381a60008301846135cd565b92915050565b600060608201905061383560008301866135cd565b61384260208301856135cd565b61384f60408301846137f6565b949350505050565b600060408201905061386c60008301856135cd565b61387960208301846137f6565b9392505050565b600060208201905061389560008301846135eb565b92915050565b60006020820190506138b060008301846135fa565b92915050565b60006020820190506138cb6000830184613609565b92915050565b600060208201905081810360008301526138ea81613618565b9050919050565b6000602082019050818103600083015261390a8161363b565b9050919050565b6000602082019050818103600083015261392a8161365e565b9050919050565b6000602082019050818103600083015261394a81613681565b9050919050565b6000602082019050818103600083015261396a816136a4565b9050919050565b60006101c08201905061398760008301846136c7565b92915050565b60006020820190506139a260008301846137f6565b92915050565b600082825260208201905092915050565b60006139c482613b0c565b91506139cf83613b0c565b9250827fffffffffffffffffffffffffffffffffffffffffffffffffffffffffffffffff03821115613a0457613a03613b4c565b5b828201905092915050565b6000613a1a82613b0c565b9150613a2583613b0c565b925082613a3557613a34613b7b565b5b828204905092915050565b6000613a4b82613b0c565b9150613a5683613b0c565b9250817fffffffffffffffffffffffffffffffffffffffffffffffffffffffffffffffff0483118215151615613a8f57613a8e613b4c565b5b828202905092915050565b6000613aa582613b0c565b9150613ab083613b0c565b925082821015613ac357613ac2613b4c565b5b828203905092915050565b6000613ad982613aec565b9050919050565b60008115159050919050565b600073ffffffffffffffffffffffffffffffffffffffff82169050919050565b6000819050919050565b6000613b2182613b0c565b9050919050565b6000613b3382613b0c565b9050919050565b6000613b4582613b0c565b9050919050565b7f4e487b7100000000000000000000000000000000000000000000000000000000600052601160045260246000fd5b7f4e487b7100000000000000000000000000000000000000000000000000000000600052601260045260246000fd5b7f43616e6e6f742077697468647261770000000000000000000000000000000000600082015250565b7f4f776e61626c653a206e6577206f776e657220697320746865207a65726f206160008201527f6464726573730000000000000000000000000000000000000000000000000000602082015250565b7f52657175657374656420616d6f756e74206d6f7265207468616e20726577617260008201527f642e000000000000000000000000000000000000000000000000000000000000602082015250565b7f4f776e61626c653a2063616c6c6572206973206e6f7420746865206f776e6572600082015250565b7f436f6e7472616374206e6f74206f70656e20666f72206465706f7369742e0000600082015250565b613ccc81613ace565b8114613cd757600080fd5b50565b613ce381613ae0565b8114613cee57600080fd5b50565b613cfa81613b0c565b8114613d0557600080fd5b5056fea264697066735822122001c9213165226cccdd3e1293bd5216f7dc1d95abf66862dbb4a0042bcf9331ed64736f6c63430008010033",
	"immutableReferences": {},
	"source": "// SPDX-License-Identifier: MIT\npragma solidity ^0.8.0;\n\nimport '@openzeppelin/contracts/token/ERC20/ERC20.sol';\nimport '@openzeppelin/contracts/access/Ownable.sol';\n\n/**\nThis is a Staking contract created for every token.\n */\ncontract Staking is Ownable {\n\tuint256 oneDay = 24 * 60 * 60;\n\n\tStakingFactory factory; // Contract which is creating this one.\n\n\tIERC20 rewardsToken; // Reward Token\n\n\tIERC20 stakingToken; // Staking Token\n\n\t/**\n\tUser Data\n\t */\n\tstruct UserData {\n\t\tbool allowed;\n\t\tbool created;\n\t\t//\n\t\tuint256 level1Tokens;\n\t\tuint256 level2Tokens;\n\t\tuint256 level3Tokens;\n\t\tuint256 level4Tokens;\n\t\t//\n\t\tuint256 level1Reward;\n\t\tuint256 level2Reward;\n\t\tuint256 level3Reward;\n\t\tuint256 level4Reward;\n\t\t//\n\t\tuint256 withdrawable;\n\t\t//\n\t\tuint256 tokens;\n\t\tuint256 rewards;\n\t\tuint256 lastUpdateDate;\n\t}\n\n\t/**Level Data. TODO: move to library */\n\tstruct LevelData {\n\t\tuint256 allowedForXCoins;\n\t\tuint256 rewardPercentTimes100;\n\t\tuint256 lockedDuration;\n\t\tuint256 allowedReward;\n\t\tuint256 alloted;\n\t}\n\n\tmapping(address => UserData) users;\n\n\tfunction getUser() public view returns (UserData memory user) {\n\t\treturn users[msg.sender];\n\t}\n\n\tfunction getUserData(address addr) public view onlyOwner returns (UserData memory user) {\n\t\treturn users[addr];\n\t}\n\n\tconstructor(\n\t\taddress _factory,\n\t\taddress _rewardsToken,\n\t\taddress _stakingToken\n\t) {\n\t\tfactory = StakingFactory(_factory);\n\t\trewardsToken = IERC20(_rewardsToken);\n\t\tstakingToken = IERC20(_stakingToken);\n\t}\n\n\tfunction checkUpdateLevel(uint256 amount, uint256 level) internal view returns (uint256, uint256) {\n\t\tuint256 remaining;\n\t\t(uint256 allowedForXCoins, uint256 _rewardPercentTimes100, uint256 _lockedDuration, uint256 _allowedReward, uint256 alloted) =\n\t\t\tfactory.levels(level);\n\n\t\tif (alloted + amount >= allowedForXCoins) {\n\t\t\tremaining = amount - (allowedForXCoins - alloted);\n\t\t\tamount = allowedForXCoins - alloted;\n\t\t}\n\t\treturn (amount, remaining);\n\t}\n\n\t/**deposit function */\n\tfunction deposit(uint256 amount) external {\n\t\trequire(block.timestamp > factory.startTime(), 'Contract not open for deposit.');\n\t\t// Check if level has been updated due to time elapsed.\n\n\t\tfactory.updateLevelCheck();\n\t\t// Fetch the level.\n\t\tuint256 remaining;\n\t\tuint256 level = factory.level();\n\t\t// Check if the amount updates the level and only deposit the amount which just updates\n\t\t// and update the level. Return rest of the staking token to the user.\n\t\tif (level == 1) {\n\t\t\t(amount, remaining) = checkUpdateLevel(amount, level);\n\t\t\tstakingToken.transferFrom(msg.sender, address(this), amount);\n\t\t\tusers[msg.sender].level1Tokens += amount;\n\t\t\tusers[msg.sender].tokens += amount;\n\t\t\t(uint256 allowedForXCoins, uint256 _rewardPercentTimes100, uint256 _lockedDuration, uint256 _allowedReward, uint256 alloted) =\n\t\t\t\tfactory.levels(1);\n\t\t\tusers[msg.sender].rewards += (amount * _rewardPercentTimes100) / 10000;\n\t\t\tfactory.updateTokens(amount);\n\t\t\tlevel = factory.level();\n\t\t\tamount = remaining;\n\t\t}\n\t\tif (level == 2) {\n\t\t\t(amount, remaining) = checkUpdateLevel(amount, level);\n\t\t\tstakingToken.transferFrom(msg.sender, address(this), amount);\n\t\t\tusers[msg.sender].level2Tokens += amount;\n\t\t\tusers[msg.sender].tokens += amount;\n\t\t\t(uint256 allowedForXCoins, uint256 _rewardPercentTimes100, uint256 _lockedDuration, uint256 _allowedReward, uint256 alloted) =\n\t\t\t\tfactory.levels(2);\n\t\t\tusers[msg.sender].rewards += (amount * _rewardPercentTimes100) / 10000;\n\t\t\tfactory.updateTokens(amount);\n\n\t\t\tlevel = factory.level();\n\t\t\tamount = remaining;\n\t\t}\n\t\tif (level == 3) {\n\t\t\t(amount, remaining) = checkUpdateLevel(amount, level);\n\t\t\tstakingToken.transferFrom(msg.sender, address(this), amount);\n\t\t\tusers[msg.sender].level3Tokens += amount;\n\t\t\tusers[msg.sender].tokens += amount;\n\t\t\t(uint256 allowedForXCoins, uint256 _rewardPercentTimes100, uint256 _lockedDuration, uint256 _allowedReward, uint256 alloted) =\n\t\t\t\tfactory.levels(3);\n\t\t\tusers[msg.sender].rewards += (amount * _rewardPercentTimes100) / 10000;\n\t\t\tfactory.updateTokens(amount);\n\n\t\t\tlevel = factory.level();\n\t\t\tamount = remaining;\n\t\t}\n\t\t// if (level == 4) {\n\t\t// \t(amount, remaining) = checkUpdateLevel(amount, level);\n\t\t// \tusers[msg.sender].level4Tokens += amount;\n\t\t// \tstakingToken.transferFrom(msg.sender, address(this), amount);\n\t\t// \tfactory.updateTokens(amount);\n\n\t\t// \tlevel = factory.level();\n\t\t// \tamount = remaining;\n\t\t// }\n\n\t\tusers[msg.sender].lastUpdateDate = block.timestamp;\n\t}\n\n\tfunction calculateReward() public view returns (UserData memory user) {\n\t\tUserData memory userDetails = users[msg.sender];\n\t\t//\n\t\tif (userDetails.level1Tokens != 0) {\n\t\t\t(uint256 allowedForXCoins, uint256 _rewardPercentTimes100, uint256 _lockedDuration, uint256 _allowedReward, uint256 alloted) =\n\t\t\t\tfactory.levels(1);\n\t\t\tif (block.timestamp > factory.startTime() + _lockedDuration * oneDay) {\n\t\t\t\tuserDetails.level1Reward = ((_rewardPercentTimes100 * userDetails.level1Tokens)) / 10000;\n\t\t\t}\n\t\t}\n\t\tif (userDetails.level2Tokens != 0) {\n\t\t\t(uint256 allowedForXCoins, uint256 _rewardPercentTimes100, uint256 _lockedDuration, uint256 _allowedReward, uint256 alloted) =\n\t\t\t\tfactory.levels(2);\n\t\t\tif (block.timestamp > factory.startTime() + _lockedDuration * oneDay) {\n\t\t\t\tuserDetails.level2Reward = ((_rewardPercentTimes100 * userDetails.level2Tokens)) / 10000;\n\t\t\t}\n\t\t}\n\t\tif (userDetails.level3Tokens != 0) {\n\t\t\t(uint256 allowedForXCoins, uint256 _rewardPercentTimes100, uint256 _lockedDuration, uint256 _allowedReward, uint256 alloted) =\n\t\t\t\tfactory.levels(3);\n\t\t\tif (block.timestamp > factory.startTime() + _lockedDuration * oneDay) {\n\t\t\t\tuserDetails.level3Reward = ((_rewardPercentTimes100 * userDetails.level3Tokens)) / 10000;\n\t\t\t}\n\t\t}\n\t\t// if (userDetails.level4Tokens != 0) {\n\t\t// \t(uint256 allowedForXCoins, uint256 _rewardPercentTimes100, uint256 _lockedDuration, uint256 _allowedReward, uint256 alloted) =\n\t\t// \t\tfactory.levels(4);\n\t\t// \tif (block.timestamp > users[msg.sender].lastUpdateDate + _lockedDuration * oneDay) {\n\t\t// \t\tuserDetails.level4Reward = ((_rewardPercentTimes100 * userDetails.level4Tokens)) / 10000;\n\t\t// \t}\n\t\t// }\n\t\treturn userDetails;\n\t}\n\n\t// Withdraw.\n\tfunction withdraw(uint256 level) external {\n\t\tif (level == 1 && users[msg.sender].level1Tokens != 0) {\n\t\t\t(uint256 allowedForXCoins, uint256 _rewardPercentTimes100, uint256 _lockedDuration, uint256 _allowedReward, uint256 alloted) =\n\t\t\t\tfactory.levels(1);\n\n\t\t\tif (block.timestamp > factory.startTime() + _lockedDuration * oneDay) {\n\t\t\t\tuint256 rewardValue = users[msg.sender].level1Tokens + (((_rewardPercentTimes100 * users[msg.sender].level1Tokens)) / 10000);\n\t\t\t\trewardsToken.transfer(msg.sender, rewardValue);\n\t\t\t\tusers[msg.sender].level1Tokens = 0;\n\t\t\t\tusers[msg.sender].level1Reward = 0;\n\t\t\t\treturn;\n\t\t\t}\n\t\t} else if (level == 2 && users[msg.sender].level2Tokens != 0) {\n\t\t\t(uint256 allowedForXCoins, uint256 _rewardPercentTimes100, uint256 _lockedDuration, uint256 _allowedReward, uint256 alloted) =\n\t\t\t\tfactory.levels(2);\n\t\t\tif (block.timestamp > factory.startTime() + _lockedDuration * oneDay) {\n\t\t\t\tuint256 rewardValue = users[msg.sender].level2Tokens + (((_rewardPercentTimes100 * users[msg.sender].level2Tokens)) / 10000);\n\t\t\t\trewardsToken.transfer(msg.sender, rewardValue);\n\t\t\t\tusers[msg.sender].level2Tokens = 0;\n\t\t\t\tusers[msg.sender].level2Reward = 0;\n\t\t\t\treturn;\n\t\t\t}\n\t\t} else if (level == 3 && users[msg.sender].level3Tokens != 0) {\n\t\t\t(uint256 allowedForXCoins, uint256 _rewardPercentTimes100, uint256 _lockedDuration, uint256 _allowedReward, uint256 alloted) =\n\t\t\t\tfactory.levels(3);\n\t\t\tif (block.timestamp > users[msg.sender].lastUpdateDate + _lockedDuration * oneDay) {\n\t\t\t\tuint256 rewardValue = users[msg.sender].level3Tokens + (((_rewardPercentTimes100 * users[msg.sender].level3Tokens)) / 10000);\n\t\t\t\trewardsToken.transfer(msg.sender, rewardValue);\n\t\t\t\tusers[msg.sender].level3Tokens = 0;\n\t\t\t\tusers[msg.sender].level3Reward = 0;\n\t\t\t\treturn;\n\t\t\t}\n\t\t}\n\t\t//  else if (level == 4 && users[msg.sender].level4Tokens != 0) {\n\t\t// \t(uint256 allowedForXCoins, uint256 _rewardPercentTimes100, uint256 _lockedDuration, uint256 _allowedReward, uint256 alloted) =\n\t\t// \t\tfactory.levels(4);\n\t\t// \tif (block.timestamp > users[msg.sender].lastUpdateDate + _lockedDuration * oneDay) {\n\t\t// \t\tuint256 rewardValue = users[msg.sender].level4Tokens + (((_rewardPercentTimes100 * users[msg.sender].level4Tokens)) / 10000);\n\t\t// \t\trewardsToken.transfer(msg.sender, rewardValue);\n\t\t// \t\tusers[msg.sender].level4Tokens = 0;\n\t\t// \t\tusers[msg.sender].level4Reward = 0;\n\t\t// \t\treturn;\n\t\t// \t}\n\t\t// }\n\t\trequire(false, 'Cannot withdraw');\n\t}\n\n\tfunction withdrawByAmount(uint256 amount) external {\n\t\trequire(amount != 0);\n\n\t\tif (users[msg.sender].level1Tokens != 0) {\n\t\t\t(uint256 allowedForXCoins, uint256 _rewardPercentTimes100, uint256 _lockedDuration, uint256 _allowedReward, uint256 alloted) =\n\t\t\t\tfactory.levels(1);\n\n\t\t\tif (block.timestamp > factory.startTime() + _lockedDuration * oneDay) {\n\t\t\t\tuint256 rewardValue = users[msg.sender].level1Tokens + (((_rewardPercentTimes100 * users[msg.sender].level1Tokens)) / 10000);\n\t\t\t\tusers[msg.sender].withdrawable += rewardValue;\n\t\t\t\tusers[msg.sender].level1Tokens = 0;\n\t\t\t\tusers[msg.sender].level1Reward = 0;\n\t\t\t}\n\t\t}\n\t\tif (users[msg.sender].level2Tokens != 0) {\n\t\t\t(uint256 allowedForXCoins, uint256 _rewardPercentTimes100, uint256 _lockedDuration, uint256 _allowedReward, uint256 alloted) =\n\t\t\t\tfactory.levels(2);\n\t\t\tif (block.timestamp > factory.startTime() + _lockedDuration * oneDay) {\n\t\t\t\tuint256 rewardValue = users[msg.sender].level2Tokens + (((_rewardPercentTimes100 * users[msg.sender].level2Tokens)) / 10000);\n\t\t\t\tusers[msg.sender].withdrawable += rewardValue;\n\t\t\t\tusers[msg.sender].level2Tokens = 0;\n\t\t\t\tusers[msg.sender].level2Reward = 0;\n\t\t\t}\n\t\t}\n\t\tif (users[msg.sender].level3Tokens != 0) {\n\t\t\t(uint256 allowedForXCoins, uint256 _rewardPercentTimes100, uint256 _lockedDuration, uint256 _allowedReward, uint256 alloted) =\n\t\t\t\tfactory.levels(3);\n\t\t\tif (block.timestamp > factory.startTime() + _lockedDuration * oneDay) {\n\t\t\t\tuint256 rewardValue = users[msg.sender].level3Tokens + (((_rewardPercentTimes100 * users[msg.sender].level3Tokens)) / 10000);\n\t\t\t\tusers[msg.sender].withdrawable += rewardValue;\n\t\t\t\tusers[msg.sender].level3Tokens = 0;\n\t\t\t\tusers[msg.sender].level3Reward = 0;\n\t\t\t}\n\t\t}\n\t\t// if (users[msg.sender].level4Tokens != 0) {\n\t\t// \t(uint256 allowedForXCoins, uint256 _rewardPercentTimes100, uint256 _lockedDuration, uint256 _allowedReward, uint256 alloted) =\n\t\t// \t\tfactory.levels(4);\n\t\t// \tif (block.timestamp > users[msg.sender].lastUpdateDate + _lockedDuration * oneDay) {\n\t\t// \t\tuint256 rewardValue = users[msg.sender].level4Tokens + (((_rewardPercentTimes100 * users[msg.sender].level4Tokens)) / 10000);\n\t\t// \t\tusers[msg.sender].withdrawable += rewardValue;\n\t\t// \t\tusers[msg.sender].level4Tokens = 0;\n\t\t// \t\tusers[msg.sender].level4Reward = 0;\n\t\t// \t}\n\t\t// }\n\n\t\trequire(amount <= users[msg.sender].withdrawable, 'Requested amount more than reward.');\n\t\trewardsToken.transfer(msg.sender, amount);\n\t\tusers[msg.sender].withdrawable = users[msg.sender].withdrawable - amount;\n\t}\n}\n\ncontract StakingFactory is Ownable {\n\tIERC20 rewardsToken;\n\tuint256 public startTime;\n\tuint256 public level;\n\taddress[] public stakingTokens;\n\n\tstruct StakingRewardsInfo {\n\t\taddress stakingRewards;\n\t\tuint256 rewardAmount;\n\t}\n\n\t// LevelData\n\tstruct LevelData {\n\t\tuint256 allowedForXCoins;\n\t\tuint256 rewardPercentTimes100;\n\t\tuint256 lockedDuration;\n\t\tuint256 allowedReward;\n\t\tuint256 alloted;\n\t}\n\n\taddress public stakingContractAddress;\n\t// rewards info by staking token\n\tmapping(address => StakingRewardsInfo) public stakingRewardsInfoByStakingToken;\n\n\tmapping(uint256 => LevelData) public levels;\n\n\tconstructor(address _rewardsToken, uint256 _startTime) {\n\t\trewardsToken = IERC20(_rewardsToken);\n\t\tstartTime = _startTime;\n\t\tlevel = 1;\n\t\tcreateLevels();\n\t}\n\n\t// THis fucntion creates the Staking reward.\n\tfunction deploy(address stakingToken, uint256 rewardAmount) public onlyOwner returns (address addr) {\n\t\tStakingRewardsInfo storage info = stakingRewardsInfoByStakingToken[stakingToken];\n\t\trequire(info.stakingRewards == address(0), 'StakingRewardsFactory::deploy: already deployed');\n\n\t\tinfo.stakingRewards = address(new Staking(address(this), address(rewardsToken), stakingToken));\n\n\t\tstakingContractAddress = info.stakingRewards;\n\n\t\trewardsToken.transferFrom(msg.sender, info.stakingRewards, rewardAmount);\n\t\tinfo.rewardAmount = rewardAmount;\n\t\tstakingTokens.push(stakingToken);\n\n\t\treturn stakingContractAddress;\n\t}\n\n\t// Create Levels\n\t// Or create an array and provide user access to create them.\n\tfunction createLevels() internal {\n\t\tlevels[1] = LevelData(100000 ether, 5000, 60, 50000 ether, 0);\n\t\tlevels[2] = LevelData(400000 ether, 3000, 75, 120000 ether, 0);\n\t\tlevels[3] = LevelData(1000000 ether, 2500, 90, 250000 ether, 0);\n\t\t// levels[4] = LevelData(1500000, 3300, 60, 230137, 0);\n\n\t\tlevel = 1;\n\t}\n\n\tmodifier restricted() {\n\t\trequire(msg.sender == stakingContractAddress, 'Sender has to be a staking contract.');\n\t\t_;\n\t}\n\n\tfunction updateTokens(uint256 tokenValue) external restricted {\n\t\tlevels[level].alloted += tokenValue;\n\t\t// if (level == 4) {\n\t\tif (level == 3) {\n\t\t\treturn;\n\t\t}\n\t\tif (levels[level].alloted >= levels[level].allowedForXCoins) {\n\t\t\tlevel += 1;\n\t\t}\n\t}\n\n\tfunction updateLevelCheck() external {\n\t\t// Stop accepting entries in level 1,2 after one day.\n\t\t// Level 1,2 offer is only for one day.\n\t\tif (block.timestamp > startTime + 60 * 24 * 60) {\n\t\t\t// level = 4;\n\t\t\tlevel = 3;\n\t\t}\n\t}\n}\n",
	"sourcePath": "/media/aniket/home/aniket/Work/nonceblox-work/BF_Staking/contracts/StakingContract.sol",
	"compiler": {
		"name": "solc",
		"version": "0.8.1+commit.df193b15.Emscripten.clang"
	},
	"schemaVersion": "3.3.4",
	"updatedAt": "2021-04-16T04:31:28.997Z",
	"networkType": "ethereum",
	"devdoc": {
		"kind": "dev",
		"methods": {
			"owner()": {
				"details": "Returns the address of the current owner."
			},
			"renounceOwnership()": {
				"details": "Leaves the contract without owner. It will not be possible to call `onlyOwner` functions anymore. Can only be called by the current owner. NOTE: Renouncing ownership will leave the contract without an owner, thereby removing any functionality that is only available to the owner."
			},
			"transferOwnership(address)": {
				"details": "Transfers ownership of the contract to a new account (`newOwner`). Can only be called by the current owner."
			}
		},
		"version": 1
	},
	"userdoc": {
		"kind": "user",
		"methods": {
			"deposit(uint256)": {
				"notice": "deposit function "
			}
		},
		"notice": "This is a Staking contract created for every token.",
		"version": 1
	}
}